:100000000C9446050C9463050C9463050C94B93369
:100010000C9463050C9463050C9463050C946305C0
:100020000C9463050C9463050C9479290C94352980
:100030000C94762A0C9463050C9463050C94630568
:100040000C9463050C9463050C9463050C94630590
:100050000C9463050C94522A0C9463050C9463056C
:100060000C9463050C9463050C9463050C94630570
:100070000C9463050C9463050C9463050C94630560
:100080000C9463050C9463050C9463050C94630550
:100090000C9463050C9463050C9463050C94630540
:1000A0000C9463050C9463050C9463050501090227
:1000B000A10185020901A100050919012905150001
:1000C00025019505750181029501750381010501E1
:1000D000093009311581257F950275088106093897
:1000E0001581257F950175088106050C0A380215D2
:1000F00081257F950175088106C0C005010980A191
:1001000001850319012AB700150126B7009501756D
:10011000108100C0050C0901A101850419012AA064
:1001200002150126A002950175108100C00660FF2E
:100130000961A1010962150026FF0095207508815B
:10014000020963150026FF00952075089102C0057D
:10015000010906A101050719E029E7150025019508
:1001600008750181029501750881010507190029AB
:10017000FF150026FF009506750881000508190186
:100180002905950575019102950175039101C0013D
:10019000000005010502050305040505050006012B
:1001A0000602060306040605060007010702070308
:1001B00007040705070008010802080308040805EA
:1001C00008000901090209030904090509000001E1
:1001D0000002000300040005000001010102010308
:1001E00001040105010002010202020302040205EA
:1001F00002000301030203030304030503000401D7
:100200000402040304040405041E0F0500047F3FD8
:100210001F643214643214783C1E1E140A05FD3724
:100220007A585A000004E6D6B446020021011600AE
:100230000000742FE5A3E00A1302835D003D888966
:10024000C65436C3174FE4E62B87DC61F128B5AE00
:10025000A0A33C3CF45F7424B52C3D20C7689B3AB6
:100260008E08CE16E28FDD74FFA04F08D43D201D0E
:10027000D0558F11BBB13287318A341491884A49E5
:100280002E35E0342D0C400E9A3CEB2E927835B88A
:10029000F7CA8C4EBF5A96EBEE303561920102DE02
:1002A0006F5F63AE90736CF8694671D8821DD8D3C6
:1002B000A9851A3E623E8875E85002E1A14FF773A6
:1002C000396AC0FB22EC024FEB4116788F33048C65
:1002D000EA516F2796A6D3ACAF04B67ABC2EF805C8
:1002E00043F7F37562C0A37C2A4C3D8BE09E098ED8
:1002F000DE7EA59FFB9BF4A8750EBC851A8A140EA2
:10030000D55EEE477F28FD38773C34A1367D4D37EA
:100310003C30E9B52937D953A6BB856F48A2F17B9C
:10032000D59F9896DBA906E473826C984967F3948D
:10033000BC12A6DC40C35D848F868E37FC103688E5
:10034000E6E9D7FADD6FE79B5747C636B40CCB1703
:100350006A3705C36BC3B2C78FA35F49ABF0DA81BD
:100360005CA944DC9718C7195DF6E983E189271A6F
:10037000415E2A0326C27CABC82268A344EAAF02CE
:10038000F2FBF1D0B50315CD532FF73BA6AFC30257
:100390007549D451E8C3E4A88429F440364FF2ECFF
:1003A00048C789752670D0BEACF2641986B1DACE22
:1003B0000050254E591FE462F167FE2641270F7B4E
:1003C0009B0DEE33F47E9792DCF466B5715CEB4BDB
:1003D000B064230696404A8963DFD87FA271DBD5DB
:1003E0001A4CA2F2664384CA14FC83424DF4547939
:1003F0004792A7711F316FE325CB5E8BA039A72CE5
:1004000003DF14C1E5B0E480AEA0E79753BDF968FF
:100410000F7455BEF4701E3604B689BC8F774BD965
:10042000837393CB8BC5A6A5A98425AC38E9FB15AE
:100430001EFBA7D22FA3245B312DB6C8A6C34364ED
:1004400094E0D22C624756E3BD6FE1CFF9DA350B69
:100450009BB7EC0DBE65AE37833738F550D54943B1
:1004600073EBF7BDF099ABB31782CD04DF764FA4E1
:10047000CD6BEFF8FC2EA09BEF0FC00723F1381BCC
:100480001DDC16C7D275E3C8635E49122FB7C89248
:10049000B4B006F112BAD46CA5D3305512828CBE1A
:1004A00025D8C35AD905AA25183321FC65EFEB746A
:1004B00027E2D303FE307AB728E2513FB2C8720078
:1004C0000000146F2BC574529F1C00019F059414EB
:1004D0000000648288CEB1C467FB02000000000403
:1004E000595A000101010101010101010202020248
:1004F00002020202020303030303030303040404CE
:100500000404040405050505050606060606070796
:1005100007070708080808090909090A0A0A0B0B4E
:100520000B0C0C0C0D0D0D0E0E0E0F0F0F101011ED
:100530001111121213131414151516161717181873
:1005400019191A1A1B1B1C1D1D1E1E1F20202122DB
:1005500022232424252626272829292A2B2C2D2D21
:100560002E2F30313232333435363738393A3B3C3E
:100570003D3E3F404142434445464748494A4C4D31
:100580004E4F50515354555658595A5B5D5E5F61FA
:100590006264656668696B6C6D6F7072737577788D
:1005A0007A7B7D7E8082838587888A8C8E8F9193EB
:1005B0009596989A9C9EA0A2A3A5A7A9ABADAFB112
:1005C000B3B5B7BABCBEC0C2C4C6C9CBCDCFD1D4F7
:1005D000D6D8DBDDDFE2E4E7E9EBEEF0F3F5F8FA9D
:1005E000FDFFFFAA7F55401718191A1C1B12131480
:1005F00015160D0E0F101108090A0B0C040506073D
:10060000000102032221201F1D1E27262524232C42
:100610002B2A292831302F2E2D35343332393837D3
:10062000362223252628292A2C2D2F303233353601
:10063000383A3B3D3E4042434547494A4C4E505173
:10064000535557595A5C5E6062646668696B6D6F9A
:1006500071737577797B7D7F81838587898A8C8E9D
:1006600090929496989A9C9E9FA1A3A5A7A8AAACA5
:10067000AEAFB1B3B4B6B8B9BBBCBEBFC1C2C3C5DF
:10068000C6C7C9CACBCCCDCED0D1D2D2D3D4D5D681
:10069000D7D7D8D9D9DADADBDBDBDCDCDCDCDCDDB4
:1006A000DDDDDDDCDCDCDCDCDBDBDBDADAD9D9D898
:1006B000D7D7D6D5D4D3D2D2D1D0CECDCCCBCAC930
:1006C000C7C6C5C3C2C1BFBEBCBBB9B8B6B4B3B15F
:1006D000AFAEACAAA8A7A5A3A19F9E9C9A989694FA
:1006E00092908E8C8A89878583817F7D7B797775CF
:1006F00073716F6D6B6968666462605E5C5A5957AE
:10070000555351504E4C4A4947454342403E3D3B6C
:100710003A3836353332302F2D2C2A2928262523F6
:1007200022A900AA004B004E00A900AA004B004ECF
:1007300000A900AA004B004E00AB00AC00C95CCA87
:100740005C29001E001F002000210022002B001445
:10075000001A0008001500170039000400160007F1
:100760000009000A00E1001D001B00060019000539
:1007700000E000E300E20001512C00A80035002752
:100780000026002500240023002A00130012000C7C
:100790000018001C00340033000F000E000D000B89
:1007A000002800380037003600100011004D004AC4
:1007B000000351025128004C0001003A003B003C6C
:1007C000003D003E0035001E001F002000210022D9
:1007D000002B001E021F02200221022202E1002E35
:1007E000002D002E022F023002E000E300E20001A3
:1007F000512C000100440043004200410040003FF2
:100800000045002700260025002400230031022790
:1008100002260225022402230201003100330233A2
:100820000030002F004D004A000351025128000102
:100830000001000100010001000100010029004940
:100840000046006500010001002B00E200E000E12D
:100850000001003900E1007A007B007C007D00018E
:1008600000E000E300E20001512C00010001000162
:100870000001000100010001002A002702260252A7
:100880000024024B002A004C004F00510050004E43
:1008900000010001004D0001004A0001004D004A26
:1008A0000003510251280001000100010001000174
:1008B0000001000100010001000100010001000130
:1008C0000001000100010001000100010001000120
:1008D000000100010001000100E000E300E200016E
:1008E000512C00AE00C55CC65C0100010001000196
:1008F00000C35CC45C0100010001000100C95CCAC6
:100900005C0100010001000100CB5CCC5C01000136
:1009100000010001004D004A00035102512800C2AD
:100920005C0000000000000000000000000000006B
:1009300000000000000000000000000000000000B7
:1009400000000000007E0F00D4FFFFFFC700000082
:100950007800000000000000002A2B2800000000A2
:10096000000000000000000000000000290000005E
:10097000002C1E3420212224342627252E362D3704
:1009800038271E1F202122232425263333362E37D5
:10099000381F0405060708090A0B0C0D0E0F10116D
:1009A00012131415161718191A1B1C1D2F3130237A
:1009B0002D350405060708090A0B0C0D0E0F101142
:1009C00012131415161718191A1B1C1D2F31303548
:1009D0004C09025B00030100A0FA090400000103B6
:1009E00001010009211101000122400007058103D6
:1009F000080001090401000203000000092111019F
:100A000000012222000705820320000107050303DD
:100A10002000010904020001030000000921110166
:100A20000001228100070584032000011201000259
:100A30000000000832FC87020700010203011C03CA
:100A40007600690061006C003A00660036003400F0
:100A50006300320062003300630000000C035300A7
:100A60006F0066006C00650000001C0353007000FE
:100A70006C0069007400740065006400530070002D
:100A800061006300650000000403090411241FBE17
:100A9000CFEFDAE0DEBFCDBF26E0AAEEB1E001C0C5
:100AA0001D92A231B207E1F711E0A0E0B1E0E4EC61
:100AB000FDE602C005900D92AA3EB107D9F70E944B
:100AC0009D2A0C94BC360C940000E8EDF0E0808187
:100AD0008E7F80831092E2001092DA001092E10083
:100AE000A0EEB0E08C9181608C9380818F778083C1
:100AF00019BCA7EDB0E08C918E7F8C9380818F7EA6
:100B000080831092F90508952091E4003091E5006A
:100B100095E6A9012091EC00822F817020FF06C08C
:100B20008091E80080FF06C080E008952091E800F1
:100B300022FD1AC080910706882389F0853089F04C
:100B40008091EB0085FD0FC02091E4003091E5001D
:100B500042175307F9F29150E1F684E0089582E0DC
:100B6000089583E0089581E00895EF92FF920F9336
:100B70001F93CF937C018B010E948405C82F8111A4
:100B800017C08091E80085FD0BC08091E8008E774A
:100B90008093E8000E948405882399F3C82F08C039
:100BA000F70181917F018093F1000150110949F70C
:100BB0008C2FCF911F910F91FF90EF90089580910E
:100BC000090687FF13C08091E80082FF06C080916C
:100BD000E8008B778093E80004C0809107068111BC
:100BE000F2CF0895809107068823D9F38091E80019
:100BF00080FFF8CF8091E8008E77ECCF982F90930C
:100C0000E900242F762F50E0891731F07091EC0025
:100C10002091ED005091F00021FD07C09F5F9730BB
:100C200071F78093E90081E008953091EB003E7FF9
:100C30003093EB003091ED003D7F3093ED0030912B
:100C4000EB0031603093EB007093EC002093ED00EB
:100C50005093F0002091EE0027FDE0CF80E0089552
:100C6000B0E0A0E0E6E3F6E00C94DF34C8EDD0E0BD
:100C700088818F7E8883E7EDF0E0808181608083CA
:100C800084E082BF81E08093F90588818E7F88832C
:100C900002EE10E0F80110821092DA0081EEC82E08
:100CA000D12CF601108288818F77888388818068B3
:100CB000888388818F7D888319BC109207061092E3
:100CC0000806109206061092050690EEE92EF12C09
:100CD000F70180818B7F808388818160888342E0F7
:100CE00060E080E00E94FE05F60180818E7F8083B7
:100CF000F801808181608083808188608083F70132
:100D000080818E7F8083888180618883CDB7DEB7C4
:100D1000E8E00C94FB34FC0180910F0690911006E2
:100D200086179707A0F06115710529F49091E800E6
:100D30009E779093E80090E06115710551F4911150
:100D400008C08091E80082FF34C080E00895BC01B3
:100D5000F2CF809107068823C1F18530C1F18091DF
:100D6000E80083FD30C08091E80082FDEACF8091E9
:100D7000E80080FFE1CF8091F3002091F200382F4E
:100D80006115710519F02830310558F091E02830CF
:100D9000310509F090E02091E8002E772093E800DB
:100DA000CBCF81918093F100615071092F5F3F4F4C
:100DB000E7CF80910706882341F0853041F080918C
:100DC000E80083FFBECF81E0089582E0089583E0CC
:100DD000089508958091FC0508959C014FB7F894FB
:100DE0008091F2059091F305A091F405B091F5057D
:100DF0004FBF821B930B08952FB7F8946091F205B3
:100E00007091F3058091F4059091F5052FBF089539
:100E10002FB7F8948091F2059091F305A091F40515
:100E2000B091F5052FBF08952091EF053091F005A1
:100E30002817390771F09093F0058093EF05E09142
:100E4000ED05F091EE05309721F00084F185E02D5D
:100E5000099508952091EB053091EC052817390785
:100E600071F09093EC058093EB05E091ED05F09126
:100E7000EE05309721F00680F781E02D0995089561
:100E8000452B39F0682381E06F3F09F080E08170E5
:100E9000089581E0FCCFDC016091E7058091E805D1
:100EA000962F891301C00895292F30E0F901EE0F24
:100EB000FF1FE152FA4F408151814A175B07A1F4AD
:100EC00087E08A9FA0018B9F500D112447565A4FEF
:100ED00081E0FA0184839613E6CF2F5F3F4F2370A2
:100EE00033272093E70508952F5F3F4F922F93708C
:100EF000D8CF1092350510923405E9E9F5E08581E7
:100F0000811102C014821682379685E0EF3DF80702
:100F1000B1F70895FC01680F791F8FEF91E32191DC
:100F2000822728E030E087FF09C0880F89272150F9
:100F30003109C9F7E617F70791F70895880FF7CF3A
:100F4000FA01811101C0FB01099508950895E1EFAF
:100F5000F2E0118282818460828308958091C704C7
:100F6000982F9E7F61F4817082608093C704809186
:100F7000CA048D3818F08CE88093CA040895863529
:100F8000B0F381708465F1CFAF92BF92DF92EF92A0
:100F9000FF920F931F93CF93DF93182F062FE90132
:100FA0004D3808F04CE8E42FF0E0EE51FB4F011112
:100FB00010C0E4915E2F4E2F4983E8835A83DF915E
:100FC000CF911F910F91FF90EF90DF90BF90AF9066
:100FD0000895202F30E04491D42EE42EF12C56E0D9
:100FE000159FC0011124EFEFF0E0BF010E942635EC
:100FF000812F90E0880F991F55E5569FD001579F8C
:10100000B00D11248A1B9B0B982F990F890F5F013C
:10101000A21AB30AAE9CD001AF9CB00DBE9CB00D1D
:1010200011245B2F089F80011124012F11275F01DC
:10103000A01AB10AAE9C8001AF9C100DBE9C100D91
:1010400011245F01A81AB108A29EC001A39E900DB1
:10105000B29E900D1124892F9927E81BF90BEE9D64
:10106000C001EF9D900DFE9D900D1124E92F62307F
:101070007105A1F050F46115710509F49DCF61303F
:10108000710581F0EB2F512F97CF6430710569F016
:1010900080F06630710509F48FCFF4CFE42F4B2F29
:1010A000592F8ACFE42F412F87CFEB2F542F492F71
:1010B00083CF4B2F5D2DE12F7FCF0E9408079C012E
:1010C0009091E7028091E802982B21F03093E4029E
:1010D0002093E3029091E9028091EA02982B21F09B
:1010E0003093E2022093E102E091ED05F091EE05EC
:1010F000309749F082E08093E5020480F581E02D8D
:1011000085EE92E0099508959091E702803F59F4A9
:101110008091E80287FF0DC01092E80291110BC088
:101120001092DF0208C0813F81F48091E802181616
:101130009CF3992381F08091E9029091EA02892B36
:1011400009F064C01092DE020895823F49F497FFCF
:10115000F0CF1092E7028091E8028111ECCFE0CF4E
:10116000833F19F41916ACF3E4CF2091E902893FCB
:1011700029F41216F4F61092E902DBCF8A3F19F433
:1011800027FFD7CFF8CF2091EA028B3F29F427FF22
:10119000D0CF1092EA02CDCF8C3F19F41216CCF3C7
:1011A000C8CF843F31F48091E6028E7F8093E602BF
:1011B000C0CF853F21F48091E6028D7FF7CF863F37
:1011C00021F48091E6028B7FF1CF873F21F480915B
:1011D000E602877FEBCF883F21F48091E6028F7E85
:1011E000E5CF8D3F31F48091E0028E7F8093E00265
:1011F000A0CF8E3F21F48091E0028D7FF7CF8F3F0B
:1012000009F097CF8091E0028B7FF0CF0895809115
:10121000E00280FD16C081FD16C082FD16C08091DF
:10122000DE028823A1F0883280F428E0829FC0018A
:10123000112468E270E00E943A35862F672B39F05E
:10124000089582E0089584E0089588E0089581E09B
:1012500008958091E00280FD14C081FD14C082FDDC
:1012600016C08091DF02882381F08E3180F420E562
:10127000829FC00111246EE170E00E943A35862FF2
:10128000089584E1089588E2089588E0089580E54E
:101290000895803F31F40E94290981958093E802E6
:1012A0000895813F19F40E942909F8CF823F31F453
:1012B0000E94290981958093E7020895833F19F4DC
:1012C0000E942909F8CF893F29F40E9407098093D9
:1012D000E90208958A3F21F40E9407098195F7CF1A
:1012E0008B3F31F40E94070981958093EA020895AB
:1012F0008C3F19F40E940709F8CF843F31F48091A4
:10130000E60281608093E6020895853F21F4809192
:10131000E6028260F7CF863F21F48091E602846086
:10132000F1CF873F21F48091E6028860EBCF883FC0
:1013300021F48091E6028061E5CF8D3F31F4809108
:10134000E00281608093E00208958E3F21F4809155
:10135000E0028260F7CF8F3FB9F78091E0028460AE
:10136000F1CF80E00895F894E82FE295EF70F0E077
:1013700031A1282F2F7081E090E001C0880F2A95BD
:10138000EAF7982F9095932391A392A1892B82A39A
:10139000789408959091B20292FF06C0282F287188
:1013A0002830F9F4877F846093FF06C0282F2871C6
:1013B0002831F1F4877E84612091B30220FF06C0BA
:1013C000382F38713830D9F4877F816021FF06C00B
:1013D000282F28712831D1F4877E816194FD877E82
:1013E0000895282F24712430F9F68B7F8860DCCF94
:1013F000282F2471243101F78B7E8861DDCF382FAF
:101400003171313019F78E7F8860E0CF282F21713C
:10141000213121F78E7E8861E1CFCF93DF93EC01FC
:1014200082389105B1F108F040C08133910509F48B
:101430009DC048F58932910509F48DC08A9709F459
:101440009CC0C11521E5D20708F0C3C0C11530E525
:10145000D30708F02CC1C83ED10508F0A3C0C03E98
:10146000D10588F5C83AD10508F08EC0C53AD10536
:1014700008F015C1C130D10531F1209721F1C430F8
:10148000D10508F545C08533910509F45FC0C997BA
:10149000C1F68091B202837009F037C18091B30226
:1014A00083FF11C0C9E2D0E00EC0833E910599F1DF
:1014B00070F4803E910501F1823E910511F6809114
:1014C000B20282FD21C0CE01DF91CF910895863E08
:1014D000910561F1873E910571F1843E910509F016
:1014E000B0CF8091B30281FFEECF8091B202C7EE00
:1014F000D0E084FD0DC0E7CF8091B20280FD33C003
:101500009091B30290FFDFCFC3EED0E084FFDBCF3A
:10151000D0E0C0E0D8CF8091B20282FDF3C09091BC
:10152000B30290FDF2C084FFCECFF2CF8091B20221
:1015300083FDDDCFC8CF8091B20283FDE9C09091D9
:10154000B30291FFF0CFC4EED0E0BDCF8091B202E4
:1015500085FFB9CFA7CF8091B20285FDDCC0809115
:10156000B30283FFB0CFC9E3D0E0ADCF8091B20228
:1015700086FFA9CFCAE2D0E0A6CF8091B20286FF53
:10158000A2CFC1E3D0E09FCFCF3BD10508F6C85A28
:10159000D0E0CC0FDD1FCB59DE4F0990D881C02D94
:1015A000D46491CFC11540E2D40758F4C11581E04D
:1015B000D80708F088CFC03FD10508F4A9CFD0657F
:1015C00082CFC11520E4D20708F4A2CFDF70D06A21
:1015D0007ACFC11537E5D307D8F5C11546E5D4074D
:1015E00008F08DC0C11583E5D807C8F4C11522E500
:1015F000D20708F471C0CE018370992721E030E052
:1016000002C0220F331F8A95E2F7C695C69580E285
:10161000C89FE0011124C22BD32BDC6854CFC11525
:1016200034E5D30708F074CFCE018370992721E009
:1016300030E002C0220F331F8A95E2F7C695C695A7
:1016400040E2C49FE0011124C22BD32BDA683BCFC8
:10165000C1154AE5D40778F4C11589E5D80708F023
:1016600040C0C11528E5D20708F452CFDC2FCC27A3
:10167000C06FD06A28CFCE0190568115904208F0F5
:1016800047CF8D2F8F710E94CA0990E0982F88272D
:1016900088279F719C012C2BE901D06214CFC55A79
:1016A000D0E0CE59DE4FC881D0E0D0640CCF2C2FD3
:1016B00026952695237040E2249F900111248C2FBB
:1016C0008370C1E0D0E002C0CC0FDD1F8A95E2F745
:1016D000C22BD32BDD68F7CEDC2FCC27C16FD06AAD
:1016E000F2CE8C2F8F700E94CA0934E0D695C79530
:1016F0003A95E1F7CF709C2FEC01D069E4CEDD275D
:10170000D066E1CEC2EED0E0DECEC0EED0E0DBCEE1
:10171000C6EED0E0D8CEC5E3D0E0D5CE0E94FC0620
:1017200008958091630290912202981301C0089558
:101730008F5F8770FACFA82FA77023E096958795C3
:101740002A95E1F7FC01EE0FFF1FE80FF91FE60FE6
:10175000F71F50E040E080E0219130E00A2E02C007
:10176000369527950A94E2F721703327042E01C09D
:10177000220F0A94EAF7822B4F5F5F4F43305105E7
:1017800059F70895903FC9F09A3080F48630A8F454
:10179000282F30E060E072E0A901E6E09E9F400D56
:1017A000511D1124CA010E949B0B08959C5F923029
:1017B00020F46DEF71E090E0F6CF80E00895262FE1
:1017C000277091E001C0990F2A95EAF723E07695FA
:1017D00067952A95E1F7FB01EE0FFF1FE60FF71F54
:1017E000E40FF51F50E040E0682F70E08191DF01C9
:1017F00011979B01042E02C0369527950A94E2F7B3
:10180000217021952827292328272C934F5F5F4F8C
:101810004330510559F70895282F862F903F79F0CE
:101820009A3070F4263058F4622F70E026E0929FD0
:10183000600D711D112440E052E00E94DF0B0895FD
:101840009C5F9230E0F7622F70E04DEF51E0F5CFF2
:101850009C013A9521153F4150F5FC01EE27F170AE
:10186000BC0166277270AC01442754709C0122278A
:10187000387094FF0EC080E1EF2B09F480E0672BF5
:1018800009F08062452B09F08064232B89F0806881
:10189000089581E0EF2B09F480E0672B09F0826066
:1018A000452B09F08460232B19F08860089580E0AF
:1018B00008958093F6057093F8056093F70580917D
:1018C00007068430F9F48093E9008FEF9091E800E7
:1018D000815095FD06C095ED9A95F1F700008111B4
:1018E000F5CF8091E80085FF0DC050E040E063E057
:1018F00070E086EF95E00E94B5058091E8008E7754
:101900008093E8000895BC0184E00E94590C08957A
:10191000BC0183E00E94590C08959C0184E08093EF
:10192000E9009FEF8091E800915085FD06C085EDAC
:101930008A95F1F700009111F5CF8091E80085FFBD
:101940000CC050E040E066E070E0C9010E94B505BF
:101950008091E8008E778093E8000895CF93DF931D
:10196000EC0181E08093E9008FEF9091E8008150D5
:1019700095FD06C095ED9A95F1F700008111F5CF20
:101980008091E80085FF14C050E040E068E070E01E
:10199000CE010E94B5058091E8008E778093E80023
:1019A00088E0FE01ADEFB5E001900D928A95E1F778
:1019B000DF91CF910895CF92DF92EF920F931F9313
:1019C000CF93DF93CDB7DEB7CE5AD1090FB6F894D7
:1019D000DEBF0FBECDBF609152018091C70480FF72
:1019E0004CC0E7EEF5E09E012F5F3F4F8E010155A1
:1019F0001F4FC901A4914A2F50E0DA01AA0FBB1F63
:101A0000A40FB51FA950BD4FCD90DD90EC90D9012A
:101A1000CD92DD92ED929D013196A017B10751F75D
:101A20002091510143E0249F800D911D1124539A70
:101A30002BB1277F3BB138605FB7F894FC01649FFE
:101A4000E00DF11D1124BF018617970749F55FBF0F
:101A5000EFE5F4E03197F1F700C00000C255DF4F29
:101A60000FB6F894DEBF0FBECDBFDF91CF911F91AF
:101A70000F91EF90DF90CF90089580915301909156
:101A8000540123E0829FF0011124E950FD4F891792
:101A900008F0A7CF1182108212828F5F3396F7CFA2
:101AA000DC014D91CD01E8E03BB9000000C047FFEB
:101AB0002BB9440F000000C000C000C02BB900C00B
:101AC000EA9591F7C1CF0F931F93CF93DF93EC016A
:101AD00010E000E0909155019017110609F06CF4A8
:101AE0000E94DB0C8C8190E00196817099278C8399
:101AF000DF91CF911F910F91089520915301A8017B
:101B0000420F511D9A01220F331F240F351F2950F8
:101B10003D4F4C816091C9048091C80496959017FF
:101B2000110651F04CF0442349F04091CA040E9440
:101B3000C4070F5F1F4FCECF4423B9F340E0F7CF68
:101B4000B0E0A0E0E6EAFDE00C94DB34EC014C816F
:101B5000042F10E09801D8010E94AD369B01AC0122
:101B60000E9478364B015C01E0E2F0E0E01BF10BF3
:101B7000A5E5B0E0AC019B010E9478366B017C01C9
:101B80009F01DF010E945B359B01AC010E948336FF
:101B90009B01AC01280D391D4A1D5B1DC701B60113
:101BA0000E948B36F22E822F90E039E23F1520F111
:101BB00043E0249F9001112435952795122F10950D
:101BC00000E085E5E82EEF1880915501081718F11F
:101BD0000E94DB0C9C8181E0992319F0903219F46A
:101BE0008FEF8093500180915001890F8C83CDB786
:101BF000DEB7ECE00C94F73425E530E0B901681B62
:101C0000790B9B01220F331F260F371F37FFD4CFCD
:101C10002F5F3F4FD1CF8E2D01FD8F2D209153018E
:101C2000622F600F7727771F9B01220F331F260F2C
:101C3000371F29503D4F412F6091C9040E94C407AE
:101C40000F5FC2CFEF92FF920F931F93CF93DF935B
:101C5000EC018C81811109C081E08C831092F50226
:101C600092E090934F0180934E01809153019091A7
:101C7000540123E0829FF0011124E950FD4F8917A0
:101C800058F110E003E060915501161758F10E94D9
:101C9000DB0C80914E012091F502280F2093F50274
:101CA00090914F01980F90934F01191654F4022E02
:101CB000000C330B409155014150550B241735074B
:101CC00034F0819580934E01813009F41C82CDB7A8
:101CD000DEB7E6E00C94FD341182108212828F5F31
:101CE0003396CDCFE12EF12C70E0C7010E943A353A
:101CF00020915301820F482F50E02091F502022ECF
:101D0000000C330BE216F306BCF020914F01022EBB
:101D1000000C330B2E153F057CF0809F90011124A1
:101D200029503D4F4091CA046091C9048091C80474
:101D30000E94C4071F5FA7CFFA01EE0FFF1FE40F39
:101D4000F51FE950FD4F118210821282F3CFB0E0EF
:101D5000A0E0EDEAFEE00C94DB34EC018A81BB24C8
:101D6000BA9480FD02C0BB24B394A09055018C812D
:101D7000811109C081E0B81220C08FEF8A0D8093D5
:101D8000F40281E08C83F12CE12C4AE3942EEA14D6
:101D9000B8F00E94DB0C8091F40291E0B91257C0B8
:101DA000811150C08091550181508093F4021C82B2
:101DB000CDB7DEB7ECE00C94F7341092F402E1CF2B
:101DC000009153010E0D1F2D111DC801880F991F81
:101DD000080F191F09501D4FF8011182108212823D
:101DE00034E0C32ED12C812C8091F402880D8B33EA
:101DF0002CF1692D0E941835892F082E000C990BA3
:101E00008E159F0591F48091CA048C9DA0018D9D33
:101E1000500D11245595479555954795980160911A
:101E2000C9048091C8040E94C4078B0CF1E0CF1A4A
:101E3000D108D1F68FEFE81AF80AA9CF87FFDDCFD6
:101E40008A0DDBCF81508093F402BC82B1CF90E049
:101E500001966091550170E00E943A358093F4023A
:101E60008C83A6CFEF92FF921F93CF93DF93EC0169
:101E700010E0EE24EA94F12C60915501161770F0F1
:101E80000E94DB0C9A818C8190FF27C08F5F8C832E
:101E9000DF91CF911F91FF90EF9008952091530112
:101EA000422F410F5527551FCA019A01220F331F98
:101EB000280F391F29503D4F70E0C7010E943A3565
:101EC000962F8C814091CA046091C904199F800D9E
:101ED00011240E94C4071F5FCFCF8150D8CF9091AB
:101EE000C70490FF0EC0909153012091540133E03C
:101EF000939FF0011124E950FD4F921718F00E94B2
:101F0000DB0C08958183608342839F5F3396F5CF16
:101F1000A3E0B0E0EEE8FFE00C94E3348C018091A4
:101F2000F60281110AC09E012F5F3F4F4CE86FEF10
:101F30000E94C4078A818093F602F80164816130AF
:101F400069F08091F60240E0662361F040E0623083
:101F500011F44091F60280E060E004C06091F60266
:101F600040E080E00E946F0FF801848190E00196CC
:101F700063E070E00E943A3584832396E4E00C9499
:101F8000FF34A3E0B0E0E7ECFFE00C94E53490917F
:101F9000C70490FF0AC09E012F5F3F4F0E94C407F5
:101FA0004B8169818A810E946F0F2396E2E00C9435
:101FB0000135CF93DF93EC01E7ECF4E043816281DC
:101FC0008C810E94C10F8C818F5F8C83DF91CF91B8
:101FD0000895CF93DF93EC01EC81F0E0EF5DF94FD2
:101FE0004491E7ECF4E0628181810E94C10F8C8111
:101FF0008F5F8C83DF91CF910895E7ECF4E08081CF
:102000008E7F80830E94A707E1EFF2E082818160EA
:1020100082832FEF80E792E0215080409040E1F7EB
:1020200000C000000E94DB0C0895B0E0A0E0EBE1EE
:10203000F0E10C94DD347C015B016A018091A10226
:1020400001E010E08A3010F40AE010E0C1E0D0E0D6
:10205000B501C701F6010995811104C021960C173D
:102060001D072CF4CDB7DEB7EAE00C94F934CC9F11
:102070009001CD9F300D300D112490E080E045E3BC
:102080004A95F1F70000019682179307C1F7E0CF58
:1020900080917702811110C08091D8008061809377
:1020A000D8008AE18A95F1F700C08091D90080FFBD
:1020B0000AC081E08093770281E0909177029130AD
:1020C00009F080E0089582E0809377020E94650520
:1020D00010920706F1CF0E944810882359F0E09132
:1020E000ED05F091EE05309729F00190F081E02D9B
:1020F0000995089580E008950F931F930E9448105A
:10210000882329F00E94FC061F910F9108950E94D8
:10211000FC060091A2021091A3022091A40230912A
:10212000A502600F711F821F931FEECF0E944810FF
:10213000882319F00E94080708950E947C10CB01A3
:102140000895CF93DF93CBE8D2E060E0CE010E9408
:102150001D362196C11584E0D807B9F7DF91CF91DC
:1021600008950F931F93CF93DF93142F022F843082
:1021700020F5623010F598E0899FE001112484E099
:10218000689FB0011124C60FD71FC95FDD4F82E0E1
:1021900090E0442311F090E080E0632F8C0F9D1FAE
:1021A0000E941D3683E090E0112311F081E090E061
:1021B000602F8C0F9D1F0E941D36DF91CF911F91C4
:1021C0000F9108951F93CF93DF93122F8430E0F483
:1021D0006A30D0F44630C0F4C42FD0E0CC0FDD1FFD
:1021E0009CE0699FC00DD11D112498E7899FC00D07
:1021F000D11D1124632FCE0187960E941D36612FB9
:10220000CE0188960E941D36DF91CF911F910895CF
:10221000CF93C82F6FEF811168EC83E290E00E94AA
:102220001D366FEFC11167E384E290E00E941D3616
:102230006FEFC1116AE485E290E00E941D36CF91F4
:102240000895AAE0B0E0E7E2F1E10C94D834809080
:1022500056019090570181E090E090935701809350
:10226000560181E2A82E87E0B82E91E4C92E97E0AE
:10227000D92E10E0760100E015C0F30125913491CC
:10228000452D602F812F0E94E21082E0680E711CA4
:10229000539496E05912F1CFECE0EE0EF11C0F5F73
:1022A0000A3019F03701512CE8CF750100E0F70131
:1022B0002591349141E0602F812F0E94B110F701E8
:1022C00032962591349140E0602F812F0E94B11009
:1022D000F4E0EF0EF11C013039F588E0A80EB11CD6
:1022E0001F5F98E7C90ED11C143009F0C3CFFE015F
:1022F00031967F018AE011928A95E9F707E212E0B0
:102300004AE050E0B801C7010E944136065F1F4F06
:102310000B38F2E01F07A1F7909257018092560107
:102320002A96EFE00C94F43401E0C1CF80E00E94E3
:10233000081160E086E290E00E941D360E942111A3
:102340000E94A11081E00E9408110895FF920F934E
:102350001F93CF93DF93F42E843070F5623060F5D5
:1023600028E0829F8001112434E0639FB001112492
:10237000060F171F095F1D4F82E090E0442311F004
:1023800090E080E0800F911F0E940936C82FD0E0B6
:10239000DC2FCC2783E090E0FF2011F081E090E07B
:1023A000800F911F0E9409369E01282BC901CDB7CD
:1023B000DEB7E5E00C94FE3490E080E0F8CF0F93B8
:1023C0001F93CF93DF93843030F56A3020F5463089
:1023D00010F5C42FD0E0CC0FDD1F2CE0629FC00DA4
:1023E000D11D112438E7839FC00DD11D1124CE01CA
:1023F00087960E940936082F10E0102F0027CE0183
:1024000088960E9409369801282BC901DF91CF9147
:102410001F910F91089590E080E0F8CF2091320550
:1024200030913305232BC9F4703F39F4603FA9F490
:1024300080913005909131050895843070F47A30A0
:1024400038F4663050F4462F672F0E94DF1108954C
:102450007D3F31F441E0623040F090E080E008954B
:102460007C3FD9F76230C8F740E00E94A61108957A
:10247000CF92DF92FF920F931F93CF93DF936C0164
:102480000091110680916C02082BC7E0D0E010E0AB
:10249000FC2EC8010C2E02C0959587950A94E2F790
:1024A00080FD0CC02197A0F7F12C8F2DDF91CF91EB
:1024B0001F910F91FF90DF90CF900895B6018C2F60
:1024C0000E940E120E940D0A019761F3EECFCF9386
:1024D000DF93EC010E943812BE010E940E120E948E
:1024E0000D0ADF91CF9108950F931F93CF938C0125
:1024F000FC0143815481618180810E944007C82F83
:1025000081112AC0F80186819781009791F00E947D
:102510000D0A92959F709630D1F080F4925F9F7073
:10252000923080F4803F19F058F4883E58F4C1E0AE
:1025300009C0808191810E946712EBCF9A5FEFCF33
:10254000843FA9F38C2FCF911F910F910895883E5E
:1025500070F3813FB9F7EBCFC0E0F4CFA5E0B0E076
:10256000E4EBF2E10C94E4349C01FC018681978158
:102570000097E1F485E0DE01119601900D928A95B5
:10258000E1F7F901228189819A81222399F066235A
:1025900089F00E943812182F682F89819A810E9431
:1025A0000C0C69817A81812F0E940E122596E3E03E
:1025B0000C9400350E94C20B182FF3CF83E290E0F9
:1025C0000E940936883C89F484E290E00E94093632
:1025D000873359F485E290E00E94093691E08A340D
:1025E00009F090E0892F8170089580E0FCCFAAE087
:1025F000B0E0EDEFF2E10C94DF34ECECF4E084E6D3
:10260000DF011D928A95E9F7E9E9F5E086E4DF014B
:102610001D928A95E9F78CECC82E84E0D82E7F01B4
:1026200007E212E0F701D182C0824AE050E0B8012F
:10263000CE0101960E94F93588E0FE013196D6015F
:1026400001900D928A95E1F789859A85D7011396B5
:102650009C938E931297BAE0CB0ED11CE7E0EE0E5E
:10266000F11C065F1F4F0B38F2E01F07D9F62A96C0
:10267000E8E00C94FB34B0E0A0E0E1E4F3E10C947A
:10268000D734FC016280448081E08483E1E2F6E09B
:102690007490E0EAF6E0E491812C75E0972EF2E088
:1026A000CF2EDD24D394AA24AA94B12C55245A9475
:1026B000E7190E2F10E080915501881638F00E941E
:1026C000DB0CCDB7DEB7E0E10C94F334E82CF12C51
:1026D00082E0861568F09E9CF0019F9CF00D11240D
:1026E000EB55FC4F8091C80480838091C90481839D
:1026F000411023C09E9CF0019F9CF00D1124EB55CE
:10270000FC4F1382128220915301C701820F911D49
:102710009C01220F331F280F391F29503D4F9E9CCB
:10272000F0019F9CF00D1124EB55FC4F428161811B
:1027300080810E94C4078394BECF9E9CE0019F9C31
:10274000D00D1124CB55DC4F8B818823E9F08150CB
:102750008B83859DC00111246C8170E00E94263519
:10276000FB01FF27EF5DF94F8491E82FE719E59D05
:10277000C0011124B8010E9426358091CA04689FC7
:10278000B00111247A83BFCF0E94B6352091CA04CC
:10279000269521582C9DA0012D9D500D1124452FCB
:1027A0005527841795070CF0AECF82E0861588F484
:1027B0000E94B635B5010E943A3588830E94B6352D
:1027C0002091C9042695622F70E00E943A35280FA7
:1027D00029839E9CF0019F9CF00D1124EB55FC4F2A
:1027E00012828091CA04893C58F088EC9E9CF001CA
:1027F0009F9CF00D1124EB55FC4F8483838383CF82
:102800008431A0F784E1F2CF6091C704669570E04F
:102810004BE050E083E491E00E94CF35892B19F41E
:1028200081E08093F2020E9496109093EC028093D4
:10283000EB028091F30284608093F3020895CF92BB
:10284000DF92EF92FF926B017C010E94AE07B7010D
:10285000A60188E090E00E942F36FF90EF90DF9075
:10286000CF900895A3E0B0E0E8E3F4E10C94DE3407
:10287000082FD62EF42EC22E9091C70490FF3AC096
:10288000E92FE695AE2FB0E0A055BE4F8C91809316
:10289000F1029E7F923091F59E012F5F3F4F802F76
:1028A0000E94C4074B8169818A810E946F0F8091C9
:1028B000C804801308C08091C9048D1104C08091A0
:1028C000CA048F1529F08091F30282608093F3028D
:1028D0000093C804D092C904F092CA04CC2051F0ED
:1028E0006091C7047091C8048091C9049091CA0492
:1028F0000E941F142396E9E00C94FA34823019F4F4
:10290000F090CA04D4CF863019F40091C804CFCF18
:102910008930D9F3893159F6E9516E2F6170B62E9D
:10292000E695F0E0EE51FA4F1491E12C60915501DB
:10293000E61618F00E94DB0CBACFE19EC00111240C
:1029400070E00E942635802FB11014C0860F2091B0
:102950005301622F6E0D7727771F9B01220F331FC4
:10296000260F371F29503D4F4F2D6D2D0E94C40754
:10297000E394DCCF861BEBCFE7ECF4E0438125E06A
:10298000421B08F440E021E0628181810E94321400
:102990000895E7ECF4E0438125E0420F08F44FEF9F
:1029A00021E0628181810E9432140895E7ECF4E015
:1029B000628121E1621B08F460E021E043818181B2
:1029C0000E9432140895E7ECF4E0628121E1620F85
:1029D00008F46FEF21E0438181810E943214089551
:1029E000E7ECF4E0818121E04381628188500E941C
:1029F00032140895E7ECF4E0818121E043816281A3
:102A0000885F0E94321408958091CB04882319F0C6
:102A100081508093CB046091C7047091C804809169
:102A2000C9049091CA040E941F1408958091CB0498
:102A3000833018F48F5F8093CB046091C70470914A
:102A4000C8048091C9049091CA040E941F1408957B
:102A50009091C70490FF31C0917081112FC0926096
:102A60009093C7048091F30281608093F302662300
:102A700051F06091C7047091C8048091C90490918D
:102A8000CA040E941F146091C704669570E04BE071
:102A900050E083E491E00E94CF35892BB1F00E9491
:102AA000A70781E08093EE0220E04091CA04609184
:102AB000C9048091C8040E94321408958B3210F02A
:102AC0009465CECF880F982BCBCF0E940414E9CF0A
:102AD0008091C7048695815009F48AE261E00E94E2
:102AE000281508958091C70486958F5F8B3208F072
:102AF00081E061E00E94281508959091C70490FF3D
:102B000008C09695981728F0961718F40E94721529
:102B1000089561E00E9428150895E7ECF4E083E150
:102B2000808311828FEF828388E783838483A1EF80
:102B3000B2E012968C911297836012968C9360810A
:102B40007181828193810E941F1408958091FA05FA
:102B500090913605892B8093EC0148E050E064E6C3
:102B600072E08CEE91E00E94DC35892BA9F088E0C0
:102B7000ECEEF1E0A4E6B2E001900D928A95E1F767
:102B8000E091ED05F091EE05309731F00280F38190
:102B9000E02D8CEE91E00995089590E080E00E9490
:102BA0002A0790E080E00E941407109236050E94E8
:102BB000A61586E0E5EEF2E0DF011D928A95E9F7C1
:102BC0001092DF021092DE021092E0020E945D0875
:102BD0000895809311060E94CD15089580911106E5
:102BE000982F9670963021F488600E94E915089518
:102BF000877FFBCF21E030E001C0220F8A95EAF702
:102C000020958091110682230E94E915089521E004
:102C100030E001C0220F8A95EAF780911106822BDD
:102C20000E94E915089580936C020E94CD150895C5
:102C3000EEEEF1E086E0DF011D928A95E9F70E9451
:102C4000CD150895AAE2B0E0E8E2F6E10C94E43490
:102C500089E096E02091F100DC012D93CD01B6E0F2
:102C600081319B07B9F780910A06833009F472C05D
:102C7000B8F4813009F449C0823009F4B5C08091BC
:102C8000E80083FF98C28091090690910A069A3065
:102C900008F091C2E92FF0E0E254F94C0C944E3563
:102CA0008A3009F490C08B3009F471C0893039F74B
:102CB00080910906813219F780910D0690910E06D8
:102CC000009711F00297D9F68091E800877F8093F2
:102CD000E8008091E80082FF38C09091F300809175
:102CE000F200029731F48091F100813011F08630CA
:102CF00021F48091F1008093FC058091E8008B77AE
:102D00008093E8000E94DF05BACF80910906813ADE
:102D100009F0B5CF8091E800877F8093E80080912B
:102D20000D0690910E06892B61F468E08DEF95E019
:102D300070E00E948B068091E8008B778093E8001A
:102D40009ECF60E090E080E0F3CF80910706811194
:102D5000C0CF95CF80910906813A09F090CF80913C
:102D60000D0690910E06892B09F089CF8091E8001D
:102D7000877F8093E8008091E80080FFFCCF8091FE
:102D800059018093F1008091E8008E77B9CF80914E
:102D90000906813209F073CF80910D0690910E06DD
:102DA000892B09F06CCF8091E800877F8093E80041
:102DB0000E94DF0580910B06809359011092FA055D
:102DC0000E9418165CCF80910906813209F057CF16
:102DD0008091E800877F8093E8000E94DF05809162
:102DE0000C068093FB054BCF80910906813A09F0D0
:102DF00046CF8091E800877F8093E8008091E800CB
:102E000080FFFCCF8091FB05BCCF803899F08238E1
:102E100009F0D1C180910D068F70873008F0CBC1C9
:102E20008093E9008091EB0085FB882780F9109260
:102E3000E90006C080910506909106069111826016
:102E40009091E800977F9093E8008093F1001092B2
:102E5000F1008091E8008E77AAC1882309F498C117
:102E6000823009F0A8C180910B0681119BC180912D
:102E70000D068F702FEF280F263008F09CC180932D
:102E8000E9002091EB0020FF8DC1933031F4809157
:102E9000EB0080628093EB0085C19091EB00906124
:102EA0009093EB0021E030E001C0220F8A95EAF711
:102EB0002093EA001092EA008091EB008860EACF4C
:102EC000811179C110910B061F778091E300807802
:102ED000812B8093E3008091E800877F8093E80056
:102EE0000E94DF058091E80080FFFCCF8091E30025
:102EF00080688093E30082E0111183E080930706ED
:102F00005AC18058823008F056C120910B0630918A
:102F10000C062C3DE3E03E07A1F583E08A838AE2BC
:102F200089834FB7F894DE01139620E03EE051E22A
:102F3000E32FF0E050935700E49120FF03C0E295A7
:102F4000EF703F5FEF708E2F90E0EA30C0F0C796D1
:102F50008D939D932F5F243159F74FBF8091E800E7
:102F6000877F8093E8006AE270E0CE0101960E94BC
:102F70008B068091E8008B778093E8001CC1C09697
:102F8000E7CF80910D0690910E06432F55274330D1
:102F9000510509F44AC078F54130510509F485C05E
:102FA0008BE590E0E1EDF9E04230510509F003C115
:102FB0002091E800277F2093E80020910F063091B0
:102FC00010068217930708F49C0140E02115310593
:102FD00009F070C041116EC08091E80082FDC9CF38
:102FE00080910706882329F2853019F28091E80044
:102FF00083FFF2CFBECF4132510509F447C04232C0
:10300000510509F0D8C08330910508F0D4C0FC0107
:10301000EE0FFF1FE252FE4F0190F081E02D85522E
:103020009E4FDC018C9190E01DC03327213031058B
:10303000E9F02115310579F022303105F9F023301E
:10304000310509F0B8C0EEE3FAE0E4918E2F90E08C
:10305000EEE3FAE007C0E8E8FAE0E4918E2F90E0B2
:10306000E8E8FAE0009709F4A6C0A2CFEAE6FAE0A1
:10307000E4918E2F90E0EAE6FAE0F4CFECE5FAE096
:10308000E4918E2F90E0ECE5FAE0ECCF83309105EF
:1030900008F091C0880F991FFC01EC51FE4F019080
:1030A000F081E02D89E090E083CF82E190E0ECE2D6
:1030B000FAE07ECF80910706882309F45ACF853045
:1030C00009F457CF8091E80083FD53CF8091E80049
:1030D00082FD82CF8091E80080FF78CF9091F3004D
:1030E0008091F2002115310519F08830910550F0DA
:1030F00041E0089709F040E08091E8008E778093E6
:10310000E80064CF44914093F10031962150310999
:103110000196E8CF803809F04EC08091E800877FA3
:103120008093E800809108068093F10092CE81118F
:1031300042C010910B061230F0F58091E800877FB5
:103140008093E800109308060E94DF05112311F018
:1031500084E005C08091E30087FDFACF81E0809391
:10316000070642E061EC81E00E94FE0542E261EC6C
:1031700084E00E94FE0542E261EC82E00E94FE05CE
:1031800042E260EC83E00E94FE058091070613C0D6
:1031900080910B06813079F481E0933009F080E072
:1031A000809306061092E9008091E800877F809363
:1031B000E8000E94DF058091E80083FF0AC080914B
:1031C000E800877F8093E8008091EB008062809325
:1031D000EB00AA96E3E00C940035882341F080953B
:1031E000909136058923809336050E94A61508958F
:1031F000882339F090913605982B909336050E94DC
:10320000A6150895882341F080959091FA058923A9
:103210008093FA050E94A6150895882339F09091AD
:10322000FA05982B9093FA050E94A6150895882315
:1032300009F441C09CEF980F913A80F4EEEEF1E072
:1032400024EF31E09191891303C0DF0111971C92A3
:103250002E173F07B9F70E94A615089590E2980F20
:10326000983088F4877021E030E0A90102C0440F53
:10327000551F8A95E2F7CA0180959091FA05892336
:103280008093FA05E8CF9BE5980F933028F490E0FF
:1032900080E00E942A07089598E5980F973128F456
:1032A00090E080E00E9414070895803F20F00E9483
:1032B00084080E945D0808950F931F93CF93C82F31
:1032C000882349F18CEF8C0F813AB8F50EEE11E0AE
:1032D00084EF91E0F8012191C21709F121E0E43F68
:1032E000F207C9F7EFEF80E0D8019D918D01C91772
:1032F00081F0EF3F19F4911101C0E82F8F5F863004
:1033000099F7EF3F31F00E2E000CFF0BE451FE4F0A
:10331000C2830E94A615CF911F910F910895EEEEE2
:10332000F1E02191C21303C0DF0111971C928E17A7
:103330009F07B9F70E94A615D5CF80E28C0F883081
:1033400068F4C77021E030E001C0220FCA95EAF7A7
:103350008091FA05822B8093FA05DBCFEBE5EC0F29
:10336000E33040F4F0E0EE59FE4F808190E00E949F
:103370002A07D1CFE8E5EC0FE73150F4F0E0EE0F8B
:10338000FF1FEB59FE4F808191810E941407C3CF2C
:10339000C03F08F28C2F0E9449090E945D08BBCFF4
:1033A0001F93CF93DF93182FEB010E945C198FE9D5
:1033B0009FE00197F1F700C000002197C1F7812F2E
:1033C0000E941719DF91CF911F910895B0E0A0E0FE
:1033D000ECEEF9E10C94DC34EC01A62E8AE0982E98
:1033E0002881222309F4B3C0213009F051C089811A
:1033F0008130C1F48E010E5F1F4F8A816AE070E058
:10340000893311F460E570E00E94D019E80121963B
:103410008A2D815028F3EFE9FFE03197F1F700C0E2
:103420000000F7CF823039F48E010E5F1F4F8A8182
:103430000E945C19EBCF833039F48E010E5F1F4F71
:103440008A810E941719E2CF843011F02196DFCFD4
:103450002A81229690E080E0AE014F5F5F4F2053BB
:10346000330B2A30310548F0019788F2EFE9FFE08D
:103470003197F1F700C00000F7CF989EB001999EF8
:10348000700D1124C901860F971F2981EA01E4CF2D
:10349000E22FF0E0EF5AF64FB490822F8695869592
:1034A000869590E0FC01EF5BF64FE4902770F12CDD
:1034B000022E02C0F594E7940A94E2F731E0E32289
:1034C000FF24FC01EF5CF64FC490D12C022E02C009
:1034D000D594C7940A94E2F7E1E0CE22DD24FC0102
:1034E000EF5DF64F049110E002C0159507952A95FF
:1034F000E2F701701127E114F10419F081EE0E9446
:103500005C19C114D10419F086EE0E945C19F9E32C
:103510006AE070E0BF1202C060E570E08B2D0E948F
:10352000D019C114D10419F086EE0E941719E114C4
:10353000F10419F081EE0E9417190115110509F423
:1035400066CF6AE070E08CE20E94D01960CFCDB700
:10355000DEB7EBE00C94F83468EE7EEF90E080E0AC
:103560000E943B3660E082E090E00E941D3660E001
:1035700083E090E00E941D3610926C0260E084E0CF
:1035800090E00E941D3664E082E290E00E941D36C9
:1035900060E085E090E00E941D3660E086E090E00B
:1035A0000E941D366FEF87E090E00E941D3640E0DC
:1035B00050E0BA0188E090E00E942F3660E08DE094
:1035C00090E00E941D3640E050E0BA0188E190E0B2
:1035D0000E942F3660E087E190E00E941D3640E0B7
:1035E00050E0BA018CE190E00E942F3670E060E07C
:1035F00080E290E00E943B3640E050E0BA0188E172
:1036000090E00E942F3680E00E9408110E949611DF
:1036100040E050E0BA018FE090E00E942F3640E099
:1036200050E0BA0183E190E00E942F360895A4E0B3
:10363000B0E0EDE1FBE10C94DE347C01FC01438160
:103640005481618180810E9440078111CAC061E07C
:10365000C7010E94AE128C01F7019281992309F4EF
:1036600087C3980122513F452031310508F06FC3CF
:103670008FEF93E00E9409368111B3C002519BE89D
:10368000E92E92E0F92E011136C019821A821B82AE
:103690001C82BB24BA9487010F5F1F4FC7010E9491
:1036A000093689831A82882309F49BC0813009F086
:1036B00088C0670142E0C40ED11CC8010E940936CF
:1036C000082F8A83882309F48CC0C6010E9409361A
:1036D000182F8FEF800F8330E8F4670153E0C50E99
:1036E000D11C1B83112329F060E0CE0101960E94BA
:1036F000E6197601D0CFE114F4E0FF0609F471C0B9
:10370000C7010E940936811101C001502FEFE21A52
:10371000F20AB9CF8BEF800F833068F5C7010396AB
:103720001B836C01112329F36701E4E0CE0ED11C49
:103730000E9409368C838823E1F2EB80FC80F1E063
:10374000EF16FFEFFF0610F0FE2CEE24063079F0A6
:10375000073049F0C7010E9447258FE39CE9019794
:10376000F1F700C00000C7010E940F25C2CFC701BA
:103770000E944725BECF043009F0BBCF670194E01B
:10378000C90ED11CC70103960E940936112349F1C5
:10379000882339F18150990BB89E9001B99E300D64
:1037A0001124E12FE150FF0BCF01820F931F0197EE
:1037B00008F49FCFEFE9FFE03197F1F700C0000078
:1037C000F6CF6AE0CE0101960E94E619680191CF1A
:1037D00081E00E94071603C081E00E94FA150E9452
:1037E000EE152496E9E00C94FA3482E0F2CF82E000
:1037F000F4CF043CECE51E0709F499C040EF54E116
:103800006AEF74E1053CFCE51F0709F0D8C20E948D
:10381000A007E7CF093C2CE5120709F497C070F424
:10382000073C5CE5150709F48CC043EE54E166EDF6
:1038300074E1083CECE51E0751F3C1C20A3CFCE50B
:103840001F0709F488C044E055E166E175E10B3CCF
:103850002CE51207E1F2B3C2013D4CE5140709F46F
:103860008DC0B0F40E3C8CE5180709F481C008F453
:103870007CC00F3CFCE51F0709F47DC06EE089E0C9
:10388000003D2CE5120709F09AC20E947D15A9CFD0
:10389000043D4CE5140709F477C078F4023D8CE54B
:1038A000180709F46EC061E088E1033DECE51E07EE
:1038B00009F085C20E94281594CF053DFCE51F073D
:1038C00009F465C06AE285E20D351007F1F277C2AE
:1038D0008091C70480FF20C08E7F8093C7046091D1
:1038E000C7047091C8048091C9049091CA040E94D1
:1038F0001F140E94A7078091F30281608093F30256
:103900004FEF50E782E0415050408040E1F700C067
:1039100000000E94DB0C65CF81608093C70461E0EA
:103920008695C8CF48E655E162E775E170CF42E77A
:1039300055E168E675E16BCF4AEF54E160EF74E161
:1039400066CF46ED54E163EE74E161CF4CEB54E198
:1039500069EC74E15CCF49EC54E16CEB74E157CF56
:1039600046E155E164E075E152CF61E081E0A2CF2C
:1039700065E082E08ACF68E086E087CF64E18FE08F
:1039800084CF67E185E181CF62E289E17ECF61E0AA
:1039900083E290CF00811181992369F0C8010E94D0
:1039A0003812D82E682FC8010E940C0CB8018D2D3A
:1039B0000E940E120CC2C8010E94C20BD82EF6CF74
:1039C000022F0F70207F11F00295007F3323C9F082
:1039D000002369F080E2810F883010F011110BC0D4
:1039E0008091FA05082B0093FA050E94A615812FF5
:1039F0000E945C1919C080913605082B009336058A
:103A0000F4CF812F0E941719002371F0009580E2F6
:103A1000810F883010F0111115C08091FA0508232C
:103A20000093FA050E94A615F8E0CF1AD10824E009
:103A3000C216D10410F40E946B1060E0C7010E940E
:103A4000AE12CFCE80913605082300933605EACF1B
:103A5000822F8F70207F203211F08295807F11306D
:103A600061F4332329F04330F8F60E940D19DCCFBE
:103A70004230D0F60E940219D7CF332341F04423BD
:103A8000A1F350FFB4CF5F70F7015583EECF44230D
:103A900089F3193309F0F5C0FFEF27EE43E0F15049
:103AA00020404040E1F700C00000812F0E9417191C
:103AB000BBCF822F86958695837069F0813009F09F
:103AC000B3CF812F922F9370311102C090E080E02C
:103AD0000E941407A9CF812F922F9370311102C039
:103AE00090E080E00E942A079FCF812F332329F0A6
:103AF0000E9449090E945D0897CF0E948408FACF6E
:103B0000822F837089F531118FCF312F3295369501
:103B10003770330F330F812F8F70032E01C0880F42
:103B20000A94EAF7412F407114FF07C04FE050E0BC
:103B300001C0440F3A95EAF74095269526952370E3
:103B4000223069F050F430916C02213029F0842B3E
:103B500083230E94131668CF832B842BFACF482B24
:103B600080916C028427F5CF8695332311F0822F44
:103B70008170882309F458CF312F329536953770EC
:103B8000330F330F812F8F70032E01C0880F0A94DB
:103B9000EAF7412F407114FF07C04FE050E001C029
:103BA000440F3A95EAF740952695269523702230E2
:103BB00069F050F430911106213029F0842B8323D1
:103BC0000E94E91531CF832B842BFACF482B8091AB
:103BD00011068427F5CF022F0F70332329F0802F91
:103BE0000E940716812F41CF812F0E940219802F3A
:103BF0000E94FA1519CF113F61F148F4103FA9F066
:103C0000332399F14111F3CE822F8F7126C0123FD9
:103C100039F1133FA9F780E0332391F22F7181E04E
:103C200001C0880F2A95EAF7CBCF332371F04230D9
:103C300008F0FACE2F7181E090E001C0880F2A953C
:103C4000EAF7909111068927BBCF433008F0ECCEFC
:103C5000F1CF822F8F71332359F20E940716E4CEE1
:103C6000822F8F713323C9F3C3CF442379F01933E3
:103C700041F49FEFE7EEF3E09150E040F040E1F7D0
:103C800012CF8FE39CE90197F1F70DCF822F8F714F
:103C9000AFCF123FD9F128F5103F61F1113F09F480
:103CA0003DC080911802442309F445C0882341F0A7
:103CB0008091190291E089278093190210921802CD
:103CC000311195CEEFE3FCE93197F1F700C0000028
:103CD000812F0E94171988E0F70111928A95E9F760
:103CE000A3CE143FB1F080F0153FD9F631119CCE30
:103CF00081E007C0332309F497CE8091190291E047
:103D000089278093190290CE81E0382730931902D9
:103D10008BCE311189CE1092190286CE332339F021
:103D200080911802882349F3109218027DCE423008
:103D300008F07ACEE2CF882309F476CE311174CE22
:103D40008091190291E0892780931902EDCF00310B
:103D50004FE5140709F43CCD01315FE5150709F47F
:103D600044CD0E3D2CE5120751F50E94AC1A39CD19
:103D700000318FE5180709F42FCD0131EFE51E075B
:103D800009F435CD8091FA0582720C3C4CE514079C
:103D900009F4E6CD08F060CD063CECE51E0709F419
:103DA000CBCD08F037CD033C2CE5120709F4BACD92
:103DB00008F01FCD023C5CE5150709F489CDF70139
:103DC000268137812115310509F4E4CDC9010E940E
:103DD0000D0A182F292FF70132815581452F429561
:103DE0004F7092959F70C92ED12C9C3008F01CCE3C
:103DF000F601E853F94C0C944E35EF92FF920F9375
:103E00001F93CF93DF9380911F02807F09F04CC0F6
:103E100080911C02882309F447C0C0916302E0909E
:103E20002202D0911A02F0901B0200911D02109103
:103E30001E02EC16C9F1A8016F2D8D2F0E944007BC
:103E40002C2F30E0811135C0F90183E0EE0FFF1F08
:103E50008A95E1F7DF01AD5DBD4F11968C91119709
:103E60008F1127C08C918D1324C012968C911297BC
:103E700081111FC013968D919C91801B910B803AEC
:103E80009105B8F480911F028F70806180931F02AA
:103E9000E85DFD4F80818F70806180838AE192E0D0
:103EA0000E94171B0E94910BCDB7DEB7E6E00C9481
:103EB000FD342F5F3F4FC22FC770BBCFA5E1B0E0ED
:103EC000E4E6FFE10C94D6348C0185E0F801DE01D4
:103ED000519601900D928A95E1F7F801E2804AE14E
:103EE000A42E42E0B42E40901A0230901B02809023
:103EF0001D0290901E02A401632D842D0E94400794
:103F0000582E811151C1F80160807180C380D48026
:103F1000F0901C02960128193909FF2009F410C1FC
:103F200080911F02982F907F203A310508F0C4C07D
:103F3000911176C0FE2C37101DC064101BC040913B
:103F4000200250912102268137814217530791F4B4
:103F5000E11010C08F70806180931F02C5010E9424
:103F6000171B80911F02F80185838F2D6596E1E173
:103F70000C94F234A601672D862D0E944007811112
:103F800022C081E08E25F82FF170DF2E80FF3EC029
:103F90008091630220912202821317C0698A7A8A73
:103FA00089899A890E946712292F22952F702230C1
:103FB00008F1243030F59F7009F1F8019581907F68
:103FC000E9F4F52CD2CF80E0DECF90E0FC0133E0C5
:103FD000EE0FFF1F3A95E1F7ED5DFD4F318137118F
:103FE00006C03081631203C03281E3120FC0019614
:103FF0008770D2CF9F7011F0882319F3805E8830CC
:1040000000F3C8010E94171B5D2CDBCFEE2009F4E2
:10401000ACCF80911F02816080931F02F12CA5CF4D
:1040200037101AC0641018C040912002509121022C
:10403000268137814217530779F4E1100DC085833B
:10404000C8010E94171B88E0F801AAE1B2E00190C4
:104050000D928A95E1F789CFC8010E9474128823D6
:1040600039F1EE2029F180911F028032A0F02091D9
:104070001A0230911B023A8729871B86DD86CC867F
:104080008E878091200290912102988B8F87CE019C
:1040900009960E94171B88E0F801AAE1B2E001909E
:1040A0000D928A95E1F70E94FD1EFF24F3945DCFE7
:1040B000C8010E94171BF9CF91110AC08AE192E052
:1040C0000E94171B88E0F50111928A95E9F7A6CFA7
:1040D000371017C0641015C0409120025091210282
:1040E000268137814217530761F4E1100AC08583A6
:1040F000C8010E94171B88E0F50111928A95E9F723
:1041000034CFC8010E947412882391F2EE2081F20C
:1041100080911F02803208F4BECF20911A023091A4
:104120001B023A8329831B82DD82CC828E8380919D
:1041300020029091210298878F83CE010196A9CF0A
:10414000203A3105C0F6FE2CEE2009F4B1CF37102D
:104150001DC064101BC02091200230912102868175
:1041600097812817390791F480911F0280FD6BCF4A
:10417000982F907F09F467CF8583903F09F460CF33
:10418000982F907F905F8F70892B59CFC8010E9424
:104190007412811180CF80911F02816080931F0271
:1041A000C8010E94171BE1CEEE2009F481CFC8019F
:1041B0000E947412F82E882309F47ACF88E0F8015F
:1041C000AAE1B2E001900D928A95E1F780911A027E
:1041D00090911B020E94671292959F70963051F445
:1041E000863F41F08091190291E08927809319025E
:1041F000909318020E94FD1EB8CEA0E1B0E0E3E06B
:10420000F1E20C94E53429873A874B875C876D8708
:104210007E878F87988BCE0109960E945E1F811141
:104220002FC088E0FE013996DE01119601900D92B3
:104230008A95E1F74C855D856A8589850E944007EE
:1042400081111EC0A0912202B0E0CD0101968770BD
:1042500099272091630228171906E1F093E0AA0F2D
:10426000BB1F9A95E1F7AD5DBD4F98E0FE01319619
:1042700001900D929A95E1F7809322020E94910B92
:104280008091630290912202891314C06096E2E04B
:104290000C9401351092FA050E9418161092220211
:1042A0001092630288E0EAE1F2E0DF011D928A9554
:1042B000E9F7E6CFB8E08B9FC00111248D5D9D4FDB
:1042C0000E945E1F882311F38091630290E00196A3
:1042D0008770992780936302D3CFB0E0A0E0E3E733
:1042E000F1E20C94E03480913805882369F0C091A4
:1042F0003705E12C8CE0F82E80913805C81748F07E
:104300001092380510923705CDB7DEB7E7E00C9470
:10431000FC34DD24D394DC0ED09237050C2F10E052
:10432000CF9DE0011124C75CDA4F4B815C8169812C
:1043300088810E94400781112CC08E819F81892B2A
:1043400021F488859985019651F4288139814A8123
:104350005B816C817D818E819F810E94FD20F09E1A
:10436000F001F19EF00D1124E75CFA4F14821382E4
:1043700010923605E1100DC0CE010E947412811119
:1043800008C08FE39CE90197F1F700C00000EE241C
:10439000E394CD2DB1CF1092EA051092E905109269
:1043A00058018091E8058093E7050E9479070E94F3
:1043B0006D210895B0E0A0E0E0EEF1E20C94D63477
:1043C000C091E70597E0892E01E010E02CE0322E45
:1043D0003EEF932E442443948091E8058C1309C04A
:1043E0000E946D210E947907CDB7DEB7E1E10C9400
:1043F000F234D0E0FE01EE0FFF1FE152FA4F808150
:104400009181889ED001899EB00D1124A756BA4F84
:1044100014962C911497211158C050903805E9E357
:10442000F5E030E020E0712C5D01251508F04BC06F
:10443000E284F384D501CD90DC906FEF7FEF612CA7
:10444000462D50E0DA01AA0FBB1FAC0DBD1D0D902B
:10445000BC91A02D109731F0EA16FB0609F4BA01C1
:104460006394EECF6F3F7607A9F1D80102C0AA0F7F
:10447000BB1F6A95E2F77A2AB801062C02C0660FC4
:10448000771F0A94E2F7AB014150510974161506E3
:10449000F9F4329EF001339EF00D1124E75CFA4FDF
:1044A000889ED001899EB00D1124A756BA4F12964E
:1044B0002D913C9113973783268390829182918727
:1044C000808715964C920E944B072196C37084CF2B
:1044D000148213822F5F3F4F3C96A7CFA9E1B0E033
:1044E000E4E7F2E20C94D534F62E6B8B7C8B8D8B4B
:1044F0008A016111109236054C895D89612F802FE8
:104500000E944007811134C01A3008F065C006309F
:1045100078F5E02FF0E026E0129FE00DF11D112468
:104520009F012770332781E090E001C0880F2A9512
:10453000EAF7DF0173E0B695A7957A95E1F7AB50FE
:10454000BE4F2C9130911902F11002C0322F382346
:10455000332309F463C0AF01440F551FFA01EE562F
:10456000FE4F1491FA01EF56FE4F0491822B8C936B
:104570001D861E861F86188A098B1A8B85E0FE0110
:104580007196DE01199601900D928A95E1F74C859E
:104590005D856A8589850E944007811112C061E0AE
:1045A000CE0109960E94AE126C018B8537EFC316BF
:1045B0003CE5D306B1F5882309F449C081E0809336
:1045C000580129853A854B855C856D857E858F856B
:1045D00098890E94FD20EAC084E0810F823040F675
:1045E000E02FF0E0202F277081E090E001C0880FDD
:1045F0002A95EAF7DF0133E0B695A7953A95E1F7FA
:10460000AC50BE4F2C9130911902F11002C0322FE4
:104610003823332319F0E157FE4FA7CF809582232B
:10462000A6CF48EFC4164CE5D40629F4882379F0C8
:104630000E94CB21C6CF69EFC6166CE5D60639F4C9
:10464000882329F0809158018111F2CFB7CF09E971
:1046500015E0E12CB12CA12C88248394912C2EEF11
:10466000522E44244394F8014081518166246A9477
:10467000762C20E0822F90E0FC01EE0FFF1FE40F6C
:10468000F51F608171816115710531F0C616D7067D
:1046900009F43C012F5FEECFF12CFFEF6F167F0680
:1046A00009F446C0F8014481F09058018F2D411162
:1046B00080E0F82FF170FF2EF801258086819B8520
:1046C000992309F4F4C0FF2009F4F1C0211015C0AA
:1046D000A401062C01C0440F0A94EAF7842B8683B8
:1046E00080913405909135058039914030F460E92E
:1046F00071E07093350560933405C40102C0880FE2
:10470000991F2A95E2F70197F801268128171906C3
:1047100079F48091E9059091EA05009709F44AC07F
:104720000E94ED068139914008F444C0F8014482AA
:10473000EF28FFEFAF1ABF0A095F1F4F2AE0A2164A
:10474000B10409F090CF8B85882309F40CC1EE20C9
:1047500009F409C10E9408079093EA058093E905CE
:1047600080913805883010F591E0980F90933805C6
:1047700098E0FE013996DE01119601900D929A950E
:10478000E1F73CE0839FC0011124875C9A4F28E049
:10479000FE013196DC0101900D922A95E1F72FEF91
:1047A0003FEFFC0131872087D386C2866996E2E11C
:1047B0000C94F1348091E7055091E805982FF0E0D2
:1047C000E0E0851314C09093E7050E171F0709F466
:1047D000AFCF90E0FC01EE0FFF1FE152FA4FB18224
:1047E000A0820196837099278093E805A1CF282E97
:1047F000312CF101EE0FFF1FE152FA4F2081318180
:10480000F7E0F29FD001F39FB00D1124A756BA4FE5
:104810002D913C911197398F288F40E020E030E0B6
:10482000E32FF0E0EE0FFF1F688D798DE60FF71F85
:104830006080718061147104E1F0F8010190F081F1
:10484000E02DFF8BEE8B20E005C06616770609F49D
:104850004F2D2F5FE22FF0E0EE0FFF1F6E897F8953
:10486000E60FF71F608171816115710571F73F5F78
:10487000D7CF4423C9F0F801231708F0FD01448283
:104880000E171F0721F49093E705F42E51CF8913DB
:1048900005C0AE17BF0711F49F5F937091012F5FA2
:1048A0003F4F822F83708DCFF0E0E0E0F7CF90E0B4
:1048B000211020C0B40102C0660F771F2A95E2F7CD
:1048C0009B01215031098217930731F4442309F4E5
:1048D00048C0C5010E944B07C401062C01C0880FC7
:1048E0000A94EAF7982F9095F801868189238683A8
:1048F000F22C1ECF9C01062C02C0359527950A94F8
:10490000E2F7A90141705527BC0161507109862366
:104910009723892B11F5452B01F1F80182819381B1
:10492000892BC1F01B821C821D821E8259825A82F1
:104930000E9408078160582F9D838C83F801828133
:1049400093818F83988729813A814B816D817E8104
:104950000E94FD20F8011582BFCFF22FF1702F2E9B
:10496000BBCF2F2CB9CF9091E7058091E805981720
:1049700031F00E94DA21EE2009F423CE17CF0E94F5
:104980006D211092EA051092E9050E947907F3CF94
:10499000AAE0B0E0EEECF4E20C94E334182F062F1A
:1049A000662399F10E9408071E832DEF2F8321E0D3
:1049B000288781609A8789874E815F81688579859C
:1049C0008A850E946E228FE39FE10197F1F700C074
:1049D00000000023F9F00E94080719832DEF2A83B5
:1049E0001B8281609D838C8349815A816B817C818C
:1049F0008D810E946E228FE39FE10197F1F700C045
:104A000000002A96E4E00C94FF340E9408071E83FD
:104A10002CEFCCCF0E94080719832CEFE0CFA5E044
:104A2000B0E0E5E1F5E20C94E3348C0190933105BC
:104A300080933005011580E21807C0F4802F0E9492
:104A40001719C8010E94280C9801205E31092830EE
:104A5000310518F00115110531F40E94021925964F
:104A6000E4E00C94FF340E94ED18F9CF80EF8983C5
:104A70008A831B820E9408078160782F9D838C8324
:104A800049815A816B818D810E946E22E8CFA5E019
:104A9000B0E0EDE4F5E20C94E3348C019093310541
:104AA00080933005011580E21807C0F4C8010E9408
:104AB000280C9801205E31092830310518F00115C5
:104AC000110549F40E940D19802F0E945C1925964A
:104AD000E4E00C94FF340E94F818F6CF80EF89834D
:104AE0008A8381E08B830E9408078160782F9D83F1
:104AF0008C8349815A816B818D810E946E22E7CF20
:104B0000AFE0B0E0E6E8F5E20C94DA348E010F5F36
:104B10001F4F8AE0D8011D928A95E9F785E9C82ED2
:104B200081E0D82EF12CE12CAA24A394B12C20EA08
:104B3000822E21E0922EF60181916F018F3F09F4C0
:104B400042C0F894E82FE295EF70F0E021A18F7059
:104B5000A50102C0440F551F8A95E2F7CA01922FA2
:104B6000982B91A392A18095892382A3789400C069
:104B7000EAE9F1E0712C31E021912F3F09F46BC09B
:104B8000A22FA295AF70B0E090968C9190E02F701C
:104B900002C0959587952A95E2F780FD5CC0832F2A
:104BA000782A330F8E169F0639F7F60131978081E8
:104BB0008F3F11F00E94B30950EA5A95F1F7F801BE
:104BC000EE0DFF1D70828FEFE81AF80A95E0E916E6
:104BD000F10409F0B0CF4AE050E0B80186EA92E073
:104BE0000E94DC35009741F02AE0F801A6EAB2E025
:104BF00001900D922A95E1F70091B102892B69F19C
:104C000081E080936F020E94080790936E02809368
:104C10006D0280916D0290916E020E94ED060597E3
:104C200000F110E00C521D4F45E050E066EA72E0E2
:104C3000C8010E94DC35D12C892B51F085E0E6EAD1
:104C4000F2E0D80101900D928A95E1F7DD24D3942A
:104C500010926F0207C080E0A3CF80916F02811194
:104C6000D8CFD12C0E944810C82EE091B102DE01AD
:104C70001B967D01882309F47AC085E01D928A95F0
:104C8000E9F70E2F10E00C521D4F8091A1028A30DF
:104C9000D8F54DEF58E2B701C8010E9415108823DE
:104CA00009F454C044EA58E2B701C8010E94151043
:104CB000882309F44BC049EA57E2B701C8010E94B2
:104CC0001510882309F442C048E457E2B701C8012F
:104CD0000E9415108823D1F11092A1028091B00298
:104CE00090E045E050E0B7018C529D4F0E94DC35CA
:104CF00021E020937602892BE1F4C12C8C2D8D29A3
:104D00002F96EDE00C94F634809170029091710230
:104D10000E94ED06843F914008F0BBCF809176025F
:104D2000882359F385E0F70111928A95E9F71092EB
:104D30007602A091B002B0E0AC52BD4F85E0FE011A
:104D40003B9601900D928A95E1F7D8CF8091A10210
:104D50008F3F31F08F5F8093A1028A3008F4BECF7D
:104D60000E9408079093710280937002D7CFF0E001
:104D7000EC52FD4F85E0AAE8B2E001900D928A95D1
:104D8000E1F765E070E08AE892E00E948A0780938C
:104D900089024091CE0250E06091CD0270E06753ED
:104DA0007D4FC7010E94E9358B858093900261E0B9
:104DB00070E0C7010E948A0780938F028090910261
:104DC00090909202A0909302B0909402809172020F
:104DD00090917302A0917402B091750288169906A1
:104DE000AA06BB06D1F08092720290927302A09242
:104DF0007402B09275020E94481081110EC00E9488
:104E0000FC06861A970AA80AB90A8092A202909212
:104E1000A302A092A402B092A50280919C028823D2
:104E200009F46CCF80FF0DC08091950280FF2AC0ED
:104E30009091C70491609093C70460E086950E94AA
:104E4000281580919C0281FF09C020E040919802C2
:104E500060919702809196020E94321480919C0288
:104E600082FF06C080919B02882379F00E9404147F
:104E700080919C0283FF03C081E08093EE02109238
:104E80009C023CCF0E94FD0FDCCF0E94A707F0CF11
:104E9000A8E0B0E0EEE4F7E20C94E53485E0E7EC5E
:104EA000F4E0DE01119601900D928A95E1F7809170
:104EB000F1029091F202A091F3028E839F83A88762
:104EC000288540919D0250919E0260919F027091B1
:104ED000A0023FB7F8948091F2059091F305A0915C
:104EE000F405B091F5053FBF841B950BA60BB70BDE
:104EF00084369105A105B10510F4222319F18091A2
:104F00002D0190912E0187579D4F40912C0150E02B
:104F10004930510510F048E050E0BE016F5F7F4F0F
:104F20000E94E93585E090E00E945F34882369F0B3
:104F30000E94FC0660939D0270939E0280939F02E4
:104F40009093A0021092F30281E02896E2E00C9484
:104F50000135A4E0B0E0EFEAF7E20C94E4344091CC
:104F600085025091860260918702709188022FB766
:104F7000F8948091F2059091F305A091F405B09119
:104F8000F5052FBF841B950BA60BB70B11E08436DC
:104F90009105A105B10570F10E947C106E5F7F4FF5
:104FA0008F4F9F4F69837A838B839C8380912501E8
:104FB0009091260187579D4F4091240150E0453044
:104FC000510510F044E050E0BE016F5F7F4F0E943A
:104FD000E93584E090E00E945F34182F882351F077
:104FE0000E94FC066093850270938602809387027C
:104FF00090938802812F2496E3E00C9400354F9221
:105000005F927F928F929F92AF92BF92CF92DF92E8
:10501000EF92FF920F931F93CF93DF930F92CDB731
:10502000DEB7C62E4A015901482E880F5508C20125
:105030000E945F34782E882309F480C0C20133E0D7
:10504000880F991F3A95E1F7FC01EC5FFE4F438111
:1050500050E04115510511F041E050E08C5F9E4F4A
:10506000FC016481758167577D4FCE0101960E94D6
:10507000E935F40140815181628173812FB7F89441
:105080008091F2059091F305A091F405B091F5059A
:105090002FBF841B950BA60BB70B84369105A1057A
:1050A000B10540F4B701C8010E948A0799818917A8
:1050B00009F444C00C2C000CDD08C6010E945F34CA
:1050C000782E811113C0712C872D0F90DF91CF9115
:1050D0001F910F91FF90EF90DF90CF90BF90AF9016
:1050E0009F908F907F905F904F900895C60123E02E
:1050F000880F991F2A95E1F7FC01EC5FFE4F438171
:1051000050E0E416F50608F4A7018C5F9E4FFC0101
:105110006481758167577D4FC5010E94E935B701EC
:10512000C8010E948A0799818913CDCF0E94FC068D
:10513000F4016083718382839383C6CFA701B80192
:10514000C5010E94E935C0CFA1E0B0E0EAEAF8E28B
:105150000C94DE34EE24E394F12C00E912E09E017D
:105160002F5F3F4F41E852E063E082E00E94FF275B
:10517000C82E882339F100E080E01DC0D090B6022F
:10518000D00E2D2D30E0A90147535D4F7A01E1E0AB
:10519000F0E0EC0FFD1FE00FF11D1081FA0190818E
:1051A000191BB12E1B149CF0912F17FD90E0191BB9
:1051B000111118C00F5F9091B5020917F8F2811113
:1051C0000E948E0B8C2D2196E9E00C94FA34BA944F
:1051D000F70180818F5F808360E08D2D0E94C8245D
:1051E0008C2DE0CF1F5FF70180818150808361E0CB
:1051F0008D2D0E94C8248C2DDBCFA5E0B0E0E3E02C
:10520000F9E20C94DF346B0185E0E82EF12C0AE81A
:1052100012E09E012F5F3F4F4DE752E061E080E0DA
:105220000E94FF27882349F095E0FE013196A8E708
:10523000B2E001900D929A95E1F795E0E8E7F2E08F
:10524000D60101900D929A95E1F72596E8E00C942D
:10525000FB3490E080E00E941736883E9E4F19F4A0
:105260000E94DE12089580E008951F920F920FB6FB
:105270000F9211242F933F934F935F936F937F93DC
:105280008F939F93AF93BF93CF93DF93EF93FF934E
:10529000D091E900DF708091EC00C82FC17080FDD3
:1052A000C0E81092E9008091F000877F8093F000C1
:1052B00078940E9422161092E9008091F000886094
:1052C0008093F000CD2BCF70C093E900FF91EF9158
:1052D000DF91CF91BF91AF919F918F917F916F910E
:1052E0005F914F913F912F910F900FBE0F901F90A4
:1052F00018951F920F920FB60F9211242F933F9380
:105300004F935F936F937F938F939F93AF93BF93CD
:10531000EF93FF938091E10082FF09C08091E2004A
:1053200082FF05C08091E1008B7F8093E100809136
:10533000DA0080FF24C08091D80080FF20C08091D7
:10534000DA008E7F8093DA008091D90080FF9DC0C3
:1053500080E189BD82E189BD09B400FEFDCF81E015
:10536000809307068091F905811109C00E946505A7
:105370000E9430068091E20084608093E200809178
:10538000E10080FF17C08091E20080FF13C0809190
:10539000E2008E7F8093E2008091E2008061809342
:1053A000E2008091D80080628093D80019BC85E02B
:1053B000809307068091E10084FF2BC08091E2007A
:1053C00084FF27C080E189BD82E189BD89B5982F1E
:1053D000917080FFFBCF8091D8008F7D8093D800A3
:1053E0008091E1008F7E8093E1008091E2008F7ECA
:1053F0008093E2008091E20081608093E2008091DE
:105400000806882309F447C084E08093070680914A
:1054100007068091E10083FF27C08091E20083FFAF
:1054200023C08091E100877F8093E10082E0809338
:105430000706109208068091E1008E7F8093E100BC
:105440008091E2008E7F8093E2008091E200806193
:105450008093E20042E060E080E00E94FE058091DF
:10546000F00088608093F000FF91EF91BF91AF91C1
:105470009F918F917F916F915F914F913F912F916C
:105480000F900FBE0F901F90189519BC1092070631
:105490001092F90574CF8091E30087FD93E090931B
:1054A0000706B5CF78941F921FB61F9211248F93D1
:1054B0009F93AF93BF938091F2059091F305A091D4
:1054C000F405B091F5050196A11DB11D8093F2057B
:1054D0009093F305A093F405B093F505BF91AF91B8
:1054E0009F918F911F901FBE1F9018951F921FB6FE
:1054F0001F9211248F939F93AF93BF938091F105D7
:10550000811113C08091F2059091F305A091F405EB
:10551000B091F5054196A11DB11D8093F2059093C0
:10552000F305A093F405B093F505BF91AF919F915A
:105530008F911F901FBE1F901895CDB7DEB7E497CF
:105540000FB6F894DEBF0FBECDBF85B7806885BFAC
:1055500085B7806885BF84B7877F84BF0FB6F8940E
:10556000A89580916000886180936000109260002F
:105570000FBE80E890E00FB6F8948093610090939E
:1055800061000FBE81EB99E09093EB018093EA01FB
:105590000E94F7120E9465050E9430068091E20089
:1055A00084608093E2007894809107068823A1F0BC
:1055B0001091E9001F709091EC00892F817090FD8F
:1055C00080E8182B1092E9008091E80083FD0E948A
:1055D00022161F701093E90082E084BD93E095BD10
:1055E0009AEF97BD80936E001092A2021092A302D0
:1055F0001092A4021092A5020E94DE12811102C034
:105600000E9496110E9448108093340180913401C9
:10561000882309F485C0109251018DE180935201D5
:105620000E94481081110E9473338091340180914F
:10563000340195E0811190E09093B10285E0891BDF
:105640008093B00205E911E07AE9E72E71E0F72EC8
:10565000D8018D918D018F3F11F00E94B309E016A2
:10566000F106B1F70AE911E060EAE62E61E0F62EF4
:10567000F80181918F018F3F11F00E94B309E0166C
:10568000F106B1F78AE0E4EDF2E0DF01282F1D9288
:105690002A95E9F7E6EAF2E0DF011D928A95E9F73B
:1056A0000E942929811102C00E94AC1A82E090E078
:1056B0000E9409368093BB0284E090E00E94093684
:1056C000182F82E290E00E940936982F812F909344
:1056D000B3028093B2020E948025EFE3FCE9319788
:1056E000F1F700C000000E9480258091D40280FF65
:1056F0001BC06FEF7FEF90E080E00E943B3687E7B2
:1057000097E7909301088093000888E19AE00FB62C
:10571000F894A895809360000FBE90936000FFCF2F
:105720008DE1809351017ACF83E090E00E940936A9
:105730000E9413168091B402811138C00E94292959
:10574000811104C00E94AC1A0E948D1588E090E07F
:105750000E9411366093C7047093C8048093C904F3
:105760009093CA048091F30283608093F3026E7F6A
:1057700071F40E948D1588E090E00E9411366093CC
:10578000C7047093C8048093C9049093CA040E940C
:10579000AE070E94A7078091C70480FF04C060E0A5
:1057A00086950E94281581E08093B402909134017F
:1057B00081E098279093CD02F82FF91BF093B60261
:1057C000909134018093CE02909134018093B50280
:1057D00080913401811106C084EF8093420185EFEE
:1057E0008093410120914201E22FE295EF70F0E0B9
:1057F00061A12F7081E090E0AC0101C0440F2A95B7
:10580000EAF7342F3095362331A322A1242B22A38B
:1058100020914101E22FE295EF70F0E031A12F706D
:1058200001C0880F2A95EAF7982F9095932391A3AA
:1058300092A1892B82A3AFE8B1E01197F1F700C0E4
:1058400000001091CE026FEC72E042E451E081E47E
:10585000E82E81E0F82EFB0128C0DA012D91AD0180
:10586000822F82958F7090E0DC0190968C9190E071
:105870002F7002C0959587952A95E2F78170D70120
:105880009D917D01292F22952F7030E0D9019096AE
:105890002C9130E09F7002C0359527959A95E2F7DC
:1058A00090E020FD92E0892B81938E2F861B81173B
:1058B000A0F20E944810811102C00E94763385E355
:1058C00091E09093EE058093ED054EED642E42E05D
:1058D000742E52E0C52ED12C80910706FF24F3943C
:1058E00000E112E1853009F496C00E9480250CEB9E
:1058F00012E034EDA32E32E0B32E26EC32E0D501D7
:10590000F80191918D912E173F0709F4A1C09817C6
:10591000C1F30E944810382E24EDE22E22E0F22E30
:10592000912CD7018D907D01F80121908F012814D1
:1059300029F12824512C44244394822D8421B1F050
:105940003320A1F058AA99AA91E0882D842109F466
:1059500090E09AAB0E9408078160782F9CAB8BABDC
:1059600048A959A96AA98CA90E946E225394440C93
:10597000F6E05F12E2CFF8013197808293942AE03B
:105980009212CFCF0E94FC0683C08091070684301C
:1059900009F433C00E94A7078091B802811109C0A1
:1059A000F092B8028091C70481708093B7020E9480
:1059B000FD0F1092F105E8E1F0E020E40FB6F89455
:1059C000A895E09360000FBE2093600083B7817FAD
:1059D000846083BF83B7816083BF7894889583B7E1
:1059E0008E7F83BF0FB6F894A89580916000886180
:1059F00080936000109260000FBE8091060688239D
:105A000051F00E948025E4EDF2E081918111E6C51C
:105A10006E167F06D1F780910706853009F4B5CF61
:105A20001092FA050E9418160E946B101092B8028C
:105A30008091B702882349F08091C70481608093E8
:105A4000C70460E086950E9428150E9404144DCF7B
:105A500098135FCF0E9408078C018091B902909142
:105A6000BA0208171907A1F08FEF8BA78CA71DA604
:105A70000E9408078160782F9FA78EA74BA55CA581
:105A80006DA58FA50E946E221093BA020093B902F1
:105A90000E944810882321F180915801882301F148
:105AA0008091E9059091EA050097D1F00E94ED06FA
:105AB00020913405309135052817390788F49091E5
:105AC000E7058091E805981709F476C00E94DA216D
:105AD00010923505109234051092EA051092E905EE
