:100000000C94EA080C9407090C9407090C949D328F
:100010000C9407090C9407090C9407090C94070920
:100020000C9407090C9407090C940D1D0C94C91C21
:100030000C941A280C9407090C9407090C940709CE
:100040000C9407090C9407090C9407090C940709F0
:100050000C9407090C94E61D0C9407090C940709ED
:100060000C9407090C9407090C9407090C940709D0
:100070000C9407090C9407090C9407090C940709C0
:100080000C9407090C9407090C9407090C940709B0
:100090000C9407090C9407090C9407090C940709A0
:1000A0000C9407090C9407090C94070905010980B1
:1000B000A101850319012AB700150126B700950192
:1000C00075108100C0050C0901A101850419012AE0
:1000D000A002150126A002950175108100C00660DE
:1000E000FF0961A1010962150026FF00952075082E
:1000F00081020963150026FF00952075089102C052
:1001000005010906A101050719E029E715002501E8
:10011000950875018102950175088101050719008F
:1001200029FF150026FF00950675088100050819AE
:10013000012905950575019102950175039101C08D
:10014000010000050105020503050405050500067B
:10015000010602060306040605060007010702075A
:10016000030704070507000801080208030804083C
:10017000050800090109020903090409050900002D
:10018000010002000300040005000001010102015A
:10019000030104010501000201020202030204023C
:1001A0000502000301030203030304030503000423
:1001B0000104020403040404050400DA02815AD98C
:1001C000F1DB20A4A62EAF00A0C000A1C800AED5D0
:1001D00080A81FD300408D142000643214783C1E88
:1001E0001E140A054D6F640A0000000000000000A4
:1001F000000080E00838E0800000000000000000FF
:1002000000000000070F19B1E1010100000000012A
:1002100001E1B1190F070000000000000000081FF5
:100220000D0C0606030000040C0D1F080000000062
:100230000000000080C06030180808080C0C080896
:1002400008183060C080000000000018FF000000A7
:100250000C1C3870606070381C0C000080FF1800A7
:10026000000000000103060C1810101030301010B0
:1002700018180C06030100000000000080C0603068
:10028000180808080C0C080808183060C080000026
:1002900000000018FF00000030381C0E06060E1C7F
:1002A0003830000080FF1800000000000103060C39
:1002B000181010103030101018180C060301000030
:1002C0000000000000000080C060301808081830EE
:1002D00060C080000000000000000000FCFE030180
:1002E0000080E020303020E080000103FEFC0000B0
:1002F000000000000F1F1818181F0F000000000F4B
:100300001F1818181F0F0000008080840810C0609C
:10031000272760C01008848080000000000000C013
:10032000F038E4F8FEFFFFFFFEFEFEFCFCFCF8F8F0
:10033000F8F0F0F0E0E0E0C000000000E0F83FE797
:10034000F8FFFFFFFFFFFFFFFFFFFF1F1F5FFFFF24
:10035000FFFFFFFFFF7FC7F800F0FCF7FBFCFEFE8E
:10036000FDFDF9FBFBF3F7F7E7EFEFCEDEDE9CBC1C
:10037000B9393F3FE3FC3F030000000101010303E3
:10038000030707070F0F0F1F1F1F3F3F3F7F7F7F91
:10039000FFFFFF781F0300000000000000000000C6
:1003A00080E07098ECF8FCFFFFFFFEFEFCF8F8F030
:1003B000F0E0E0C0C080000000000080E0789C8F8A
:1003C000337DFFF7E3E7CFCF9F8FC7FFFFFFFFFF2F
:1003D000FFFFFFFFFFFF9FE7300C1F3F3E7F7FFFC8
:1003E000FFFFFEFEFDF9FBF3F7E7EFDFDFBFBF7FA7
:1003F0007F7F9FEF791E07010000000000000000D2
:100400000001010307070F0F1F1F3F3F7F7FFFFF03
:100410007E3C0F030000000000FD377A585A0000B0
:1004200004E6D6B4460200210116000000742FE550
:10043000A3E00A1302835D003D8889C65436C317C2
:100440004FE4E62B87DC61F128B5AEA0A33C3CF479
:100450005F7424B52C3D20C7689B3A8E08CE16E207
:100460008FDD74FFA04F08D43D201DD0558F11BBE8
:10047000B13287318A341491884A492E35E0342DBF
:100480000C400E9A3CEB2E927835B8F7CA8C4EBFD2
:100490005A96EBEE303561920102DE6F5F63AE90EB
:1004A000736CF8694671D8821DD8D3A9851A3E624B
:1004B0003E8875E85002E1A14FF773396AC0FB220C
:1004C000EC024FEB4116788F33048CEA516F27967C
:1004D000A6D3ACAF04B67ABC2EF80543F7F3756229
:1004E000C0A37C2A4C3D8BE09E098EDE7EA59FFB3F
:1004F0009BF4A8750EBC851A8A140ED55EEE477F54
:1005000028FD38773C34A1367D4D373C30E9B5299C
:1005100037D953A6BB856F48A2F17BD59F9896DB50
:10052000A906E473826C984967F394BC12A6DC4078
:10053000C35D848F868E37FC103688E6E9D7FADDF6
:100540006FE79B5747C636B40CCB176A3705C36BAA
:10055000C3B2C78FA35F49ABF0DA815CA944DC97D3
:1005600018C7195DF6E983E189271A415E2A032637
:10057000C27CABC82268A344EAAF02F2FBF1D0B55B
:100580000315CD532FF73BA6AFC3027549D451E8ED
:10059000C3E4A88429F440364FF2EC48C789752695
:1005A00070D0BEACF2641986B1DACE0050254E5937
:1005B0001FE462F167FE2641270F7B9B0DEE33F4AB
:1005C0007E9792DCF466B5715CEB4BB064230696C3
:1005D000404A8963DFD87FA271DBD51A4CA2F2664C
:1005E0004384CA14FC83424DF454794792A7711F87
:1005F000316FE325CB5E8BA039A72C03DF14C1E557
:10060000B0E480AEA0E79753BDF9680F7455BEF40F
:10061000701E3604B689BC8F774BD9837393CB8B0E
:10062000C5A6A5A98425AC38E9FB151EFBA7D22FCA
:10063000A3245B312DB6C8A6C3436494E0D22C62D8
:100640004756E3BD6FE1CFF9DA350B9BB7EC0DBE32
:1006500065AE37833738F550D5494373EBF7BDF0B6
:1006600099ABB31782CD04DF764FA4CD6BEFF8FCC6
:100670002EA09BEF0FC00723F1381B1DDC16C7D23D
:1006800075E3C8635E49122FB7C892B4B006F11281
:10069000BAD46CA5D3305512828CBE25D8C35AD992
:1006A00005AA25183321FC65EFEB7427E2D303FE7E
:1006B000307AB728E2513FB2C872000000146F2BA5
:1006C000C574529F1C00019F059414000064828829
:1006D000CEB1C467FB020000000004595A000101BA
:1006E00001010101010101020202020202020202F1
:1006F00003030303030303030404040404040405C1
:100700000505050506060606060707070707080884
:100710000808090909090A0A0A0B0B0B0C0C0C0D35
:100720000D0D0E0E0E0F0F0F1010111111121213CE
:10073000131414151516161717181819191A1A1B49
:100740001B1C1D1D1E1E1F202021222223242425A8
:100750002626272829292A2B2C2D2D2E2F303132E1
:1007600032333435363738393A3B3C3D3E3F4041F1
:1007700042434445464748494A4C4D4E4F505153D9
:1007800054555658595A5B5D5E5F61626465666890
:10079000696B6C6D6F7072737577787A7B7D7E8014
:1007A00082838587888A8C8E8F91939596989A9C60
:1007B0009EA0A2A3A5A7A9ABADAFB1B3B5B7BABC74
:1007C000BEC0C2C4C6C9CBCDCFD1D4D6D8DBDDDF45
:1007D000E2E4E7E9EBEEF0F3F5F8FAFDFF1F0510B0
:1007E0001C2314090A000102030406070815160B4E
:1007F0000C0D0E0F11121322241718191A1B1D1E8F
:10080000202A43382D26353F3E484746454442413D
:100810004033333D3C3B3A3937363427253231308B
:100820002F2E2C2B292223252628292A2C2D2F3028
:1008300032333536383A3B3D3E4042434547494ADC
:100840004C4E5051535557595A5C5E60626466680D
:10085000696B6D6F71737577797B7D7F8183858718
:10086000898A8C8E90929496989A9C9E9FA1A3A51B
:10087000A7A8AAACAEAFB1B3B4B6B8B9BBBCBEBF43
:10088000C1C2C3C5C6C7C9CACBCCCDCED0D1D2D2C6
:10089000D3D4D5D6D7D7D8D9D9DADADBDBDBDCDCD1
:1008A000DCDCDCDDDDDDDDDCDCDCDCDCDBDBDBDA89
:1008B000DAD9D9D8D7D7D6D5D4D3D2D2D1D0CECDF4
:1008C000CCCBCAC9C7C6C5C3C2C1BFBEBCBBB9B801
:1008D000B6B4B3B1AFAEACAAA8A7A5A3A19F9E9C86
:1008E0009A98969492908E8C8A89878583817F7D51
:1008F0007B79777573716F6D6B6968666462605E32
:100900005C5A5957555351504E4C4A4947454342FA
:10091000403E3D3B3A3836353332302F2D2C2A2994
:100920002826252322A900AA004B004E00A900AAD0
:10093000004B004E00A900AA004B004E00AB00ACDB
:1009400000C95CCA5C29001E001F00200021002293
:10095000002B0014001A00080015001700390004CD
:10096000001600070009000A00E1001D001B000638
:100970000019000500E000E300E20001512C00A88E
:10098000003500270026002500240023002A00133C
:100990000012000C0018001C00340033000F000E81
:1009A000000D000B00280038003700360010001141
:1009B000004D004A000351025128004C0001003A4A
:1009C000003B003C003D003E0035001E001F0020A3
:1009D00000210022002B001E021F02200221022201
:1009E00002E1002E002D002E022F023002E000E373
:1009F00000E20001512C000100440043004200418C
:100A00000040003F00450027002600250024002369
:100A100000310227022602250224022302010031AE
:100A2000003302330030002F004D004A0003510212
:100A30005128000100010001000100010001000136
:100A4000002900490046006500010001002B00E27A
:100A500000E000E10001003900E1007A007B007C49
:100A6000007D000100E000E300E20001512C0001E4
:100A7000000100010001000100010001002A00271F
:100A8000022602520024024B002A004C004F005163
:100A90000050004E00010001004D0001004A00011D
:100AA000004D004A000351025128000100010001DD
:100AB000000100010001000100010001000100012E
:100AC000000100010001000100010001000100011E
:100AD00000010001000100010001000100E000E34D
:100AE00000E20001512C00AE00C55CC65C010001B3
:100AF0000001000100C35CC45C01000100010001B1
:100B000000C95CCA5C0100010001000100CB5CCCA3
:100B10005C01000100010001004D004A0003510288
:100B2000512800C25C00AF00AE00000000000000D1
:100B300000000000000000000000000000000000B5
:100B4000000000000000000000000000007E0F0018
:100B5000D4FFFFFFC7000000780000000000000085
:100B6000002A2B2800000000000000000000000008
:100B70000000000029000000002C1E342021222447
:100B8000342627252E362D3738271E1F20212223D5
:100B90002425263333362E37381F04050607080967
:100BA0000A0B0C0D0E0F101112131415161718192D
:100BB0001A1B1C1D2F3130232D350405060708098B
:100BC0000A0B0C0D0E0F101112131415161718190D
:100BD0001A1B1C1D2F3130354C09025B000301002C
:100BE000A0FA09040000010301010009211101001C
:100BF00001224000070581030800010904010002E9
:100C000003000000092111010001222200070582D2
:100C1000032000010705030320000109040200016D
:100C200003000000092111010001223200070584A0
:100C300003200001120100020000000832FC8702BC
:100C40000700010203011C037600690061006C00CB
:100C50003A00660036003400630032006200330060
:100C6000630000000C0353006F0066006C00650019
:100C700000001C03530070006C00690074007400D5
:100C800065006400530070006100630065000000AF
:100C90000403090407087F0807003E5B4F5B3E0022
:100CA0003E6B4F6B3E001C3E7C3E1C00183C7E3C65
:100CB00018001C577D571C001C5E7F5E1C0000182E
:100CC0003C180000FFE7C3E7FF00001824180000ED
:100CD000FFE7DBE7FF0030483A060E0026297929B6
:100CE0002600407F05050700407F05253F005A3C50
:100CF000E73C5A007F3E1C1C0800081C1C3E7F007D
:100D000014227F2214005F5F005F5F0006097F01ED
:100D10007F00006689956A0060606060600094A250
:100D2000FFA2940008047E04080010207E2010001A
:100D300008082A1C0800081C2A0808001E101010A9
:100D400010000C1E0C1E0C0030383E383000060E11
:100D50003E0E060000000000000000005F000000E2
:100D6000000700070000147F147F1400242A7F2A44
:100D70001200231308646200364956205000000810
:100D800007030000001C224100000041221C00005B
:100D90002A1C7F1C2A0008083E08080000807030CA
:100DA000000008080808080000006060000020102B
:100DB000080402003E5149453E0000427F400000C9
:100DC0007249494946002141494D33001814127FA8
:100DD00010002745454539003C4A49493100412129
:100DE00011090700364949493600464949291E007C
:100DF000000014000000004034000000000814222D
:100E000041001414141414000041221408000201BB
:100E1000590906003E415D594E007C1211127C00BA
:100E20007F49494936003E41414122007F414141CD
:100E30003E007F49494941007F09090901003E41BF
:100E4000415173007F0808087F0000417F41000086
:100E50002040413F01007F08142241007F40404074
:100E600040007F021C027F007F0408107F003E418B
:100E700041413E007F09090906003E4151215E00C3
:100E80007F091929460026494949320003017F019B
:100E900003003F4040403F001F2040201F003F40D4
:100EA00038403F006314081463000304780403000F
:100EB0006159494D4300007F41414100020408103F
:100EC0002000004141417F00040201020400404033
:100ED00040404000000307080000205454784000C0
:100EE0007F28444438003844444428003844442887
:100EF0007F0038545454180000087E09020018A4DA
:100F0000A49C78007F080404780000447D40000021
:100F10002040403D00007F102844000000417F40F9
:100F200000007C04780478007C08040478003844CD
:100F300044443800FC182424180018242418FC0009
:100F40007C080404080048545454240004043F441A
:100F500024003C4040207C001C2040201C003C40E1
:100F600030403C004428102844004C9090907C0075
:100F70004464544C440000083641000000007700EF
:100F800000000041360800000201020402003C2675
:100F900023263C00000000000000404040F0F8F82C
:100FA000FF38FFF8F83FF8F8FF38FFF8F8F0404056
:100FB0004000000000000080C0C0C0800000C0C031
:100FC0008000000080C0C000C0C0000080C0C00021
:100FD00000000000C0C0C0C0C000C0C000000000D1
:100FE0000000000000000000000000000000000001
:100FF00000000000000000000000000000000000F1
:1010000000000000000000000000000000000000E0
:10101000000000C0F0F8FC3E1E06010000007F4109
:1010200041417F007F4141417F000080C0E07E5B05
:101030004F5BFEC00000C000DCD7DEDEDED7DC0088
:10104000C0000000000000000000000000000000E0
:1010500000000000000000000000494949FFFFFFB8
:10106000FFE0DFBFBF00BFBFDFE0FFFFFFFF494979
:101070004900000000001F3F6060E0BF1F007F7F4D
:10108000071E381E077F7F007F7F0E1F3B716000A9
:10109000000000007F7F0C0C0C007E7E007F7E0332
:1010A00003007F7E03037E7E03037F7E000F3E707E
:1010B0003C063C703E0F00327B49493F7E007F7EFC
:1010C0000303001E3F69696F260000000000000056
:1010D000000000030F1F3F3C7870600000007F415C
:1010E00041417F007F4141417F00307B7F7830204C
:1010F0002030787F3B0003000F7F0F0F0F7F0F0022
:1011000003000000000000000000000000000000DC
:1011100000000000000000000000010101070F0FA7
:101120007F0F7F0F0F7E0F0F7F0F7F0F0F070101C4
:1011300001000000000000000000000101000000AC
:10114000000000000000000000000000000000009F
:10115000000000000000000000000000000000008F
:10116000000000000000000000000000000000007F
:10117000000000000000000000000000000000006F
:10118000000000000000000000000000000000005F
:10119000000000000000000000000000000000004F
:1011A000000000000000000000000000000000003F
:1011B000000000000000000000000000000000002F
:1011C000000000000000000000000000000000001F
:1011D0000000000011241FBECFEFDAE0DEBFCDBF5C
:1011E00011E0A0E0B1E0E8ECFEE602C005900D924F
:1011F000A83DB107D9F726E0A8EDB1E001C01D92E6
:10120000AC30B207E1F70E9441280C943E370C94B1
:101210000000E8EDF0E080818E7F80831092E20094
:101220001092DA001092E100A0EEB0E08C918160A3
:101230008C9380818F77808319BCA7EDB0E08C916F
:101240008E7F8C9380818F7E80831092E803089537
:101250002091E4003091E50095E6A9012091EC0091
:10126000822F817020FF06C08091E80080FF06C0B9
:1012700080E008952091E80022FD1AC08091F603D5
:10128000882389F0853089F08091EB0085FD0FC0BF
:101290002091E4003091E50042175307F9F2915094
:1012A000E1F684E0089582E0089583E0089581E006
:1012B0000895EF92FF920F931F93CF937C018B01C0
:1012C0000E942809C82F811117C08091E80085FD70
:1012D0000BC08091E8008E778093E8000E94280977
:1012E000882399F3C82F08C0F70181917F0180936B
:1012F000F1000150110949F78C2FCF911F910F91E7
:10130000FF90EF9008958091F80387FF13C08091BC
:10131000E80082FF06C08091E8008B778093E800A8
:1013200004C08091F6038111F2CF08958091F603F5
:101330008823D9F38091E80080FFF8CF8091E800FE
:101340008E77ECCF982F9093E900242F762F50E0E2
:10135000891731F07091EC002091ED005091F00070
:1013600021FD07C09F5F973071F78093E90081E00E
:1013700008953091EB003E7F3093EB003091ED000B
:101380003D7F3093ED003091EB0031603093EB0006
:101390007093EC002093ED005093F0002091EE004C
:1013A00027FDE0CF80E00895B0E0A0E0EAEDF9E0AD
:1013B0000C94D733C8EDD0E088818F7E8883E7ED29
:1013C000F0E080818160808384E082BF81E080934F
:1013D000E80388818E7F888302EE10E0F801108296
:1013E0001092DA0081EEC82ED12CF601108288818D
:1013F0008F77888388818068888388818F7D8883C0
:1014000019BC1092F6031092F7031092F503109294
:10141000F40390EEE92EF12CF70180818B7F80831D
:1014200088818160888342E060E080E00E94A209B8
:10143000F60180818E7F8083F801808181608083C6
:10144000808188608083F70180818E7F808388819E
:1014500080618883CDB7DEB7E8E00C94F333FC01FC
:101460008091FE039091FF0386179707A0F0611506
:10147000710529F49091E8009E779093E80090E040
:101480006115710551F4911108C08091E80082FF47
:1014900034C080E00895BC01F2CF8091F603882328
:1014A000C1F18530C1F18091E80083FD30C08091A9
:1014B000E80082FDEACF8091E80080FFE1CF8091D3
:1014C000F3002091F200382F6115710519F02830D2
:1014D000310558F091E02830310509F090E0209175
:1014E000E8002E772093E800CBCF81918093F10024
:1014F000615071092F5F3F4FE7CF8091F60388233A
:1015000041F0853041F08091E80083FFBECF81E05B
:10151000089582E0089583E0089508950895089558
:101520008091EB0308952FB7F8946091E1037091D7
:10153000E2038091E3039091E4032FBF089520918B
:10154000DE033091DF032817390771F09093DF0332
:101550008093DE03E091DC03F091DD03309721F00E
:101560000084F185E02D099508952091DA033091EA
:10157000DB032817390771F09093DB038093DA03BC
:10158000E091DC03F091DD03309721F00680F781D4
:10159000E02D09950895CF93DF9320910A063091AD
:1015A0000B0624503440A901460F571F41305240CA
:1015B00020F060E072E0621B730B409102045091D6
:1015C0000304FC01C901620F731FC1E0D0E086175C
:1015D000970738F05093030440930204DF91CF91B2
:1015E00008952491DC01AC5FBB4F3C91321781F030
:1015F0002C939C01A5E036952795AA95E1F7DE018D
:1016000002C0AA0FBB1F2A95E2F79D014A2B532B5C
:1016100001963196DCCF2091010436E0839FC00112
:101620001124629F800D911D1124811522E09207E3
:1016300014F090E080E08C5F9B4F90930B068093BA
:101640000A060895FC01680F791F8FEF91E321913D
:10165000822728E030E087FF09C0880F89272150C2
:101660003109C9F7E617F70791F70895880FF7CF03
:10167000FA01811101C0FB0109950895EAEEF2E03B
:10168000118282818460828308958091CB03982F98
:101690009E7F61F4817082608093CB038091CE0342
:1016A000833818F082E88093CE0308958032B0F337
:1016B00081708E61F1CFAF92BF92DF92EF92FF9275
:1016C0000F931F93CF93DF93082F162FE901E42F79
:1016D000F0E0E352F94F611110C0E4915E2F4E2FFC
:1016E0004983E8835A83DF91CF911F910F91FF9037
:1016F000EF90DF90BF90AF900895E62EF12C4491CB
:10170000D42EE42FF0E026E0829FC00111242FEFB9
:1017100030E0B9010E94B933802F90E0880F991F03
:1017200055E5569FD001579FB00D11248A1B9B0B86
:10173000982F990F890F5901AE18BF08AE9ED0019E
:10174000AF9EB00DBE9EB00D11245B2F189F80017F
:101750001124012F11275901A01AB10AAE9E800150
:10176000AF9E100DBE9E100D11245901A81AB1088C
:10177000AE9CC001AF9C900DBE9C900D1124892F92
:101780009927281B390B2E9FC0012F9F900D3E9F3C
:10179000900D1124E92F62307105A1F050F461150C
:1017A000710509F49DCF6130710581F0EB2F512F48
:1017B00097CF6430710569F080F06630710509F4E7
:1017C0008FCFF4CFE42F4B2F592F8ACFE42F412F07
:1017D00087CFEB2F542F492F83CF4B2F5D2DE12F38
:1017E0007FCF80E00895F894E82FE295EF70F0E065
:1017F00031A1282F2F7081E090E001C0880F2A9539
:10180000EAF7982F9095932391A392A1892B82A315
:10181000789408959091940292FF06C0282F287121
:101820002830F9F4877F846093FF06C0282F287141
:101830002831F1F4877E84612091950220FF06C053
:10184000382F38713830D9F4877F816021FF06C086
:10185000282F28712831D1F4877E816194FD877EFD
:101860000895282F24712430F9F68B7F8860DCCF0F
:10187000282F2471243101F78B7E8861DDCF382F2A
:101880003171313019F78E7F8860E0CF282F2171B8
:10189000213121F78E7E8861E1CFCF93DF93EC0178
:1018A0008238910581F1D8F58133910509F498C00A
:1018B00020F58932910509F488C08A9709F497C008
:1018C000C11521E5D20708F0B1C0C11530E5D30735
:1018D00008F025C1CF3BD10508F090C0C83AD1052A
:1018E00008F012C1C53AD10508F006C1C430D105CF
:1018F00020F5C130D10509F145C08533910509F4C2
:101900005FC0C997E9F680919402837009F035C1F0
:101910008091950283FF11C0C9E2D0E00EC0833EE2
:10192000910599F170F4803E910501F1823E910597
:1019300039F68091940282FD21C0CE01DF91CF91D2
:101940000895863E910561F1873E910571F1843ECF
:10195000910509F0B5CF8091950281FFEECF80917E
:101960009402C7EED0E084FD0DC0E7CF80919402D1
:1019700080FD33C09091950290FFDFCFC3EED0E0A1
:1019800084FFDBCFD0E0C0E0D8CF8091940282FD0D
:10199000F1C09091950290FDF0C084FFCECFF2CFC0
:1019A0008091940283FDDDCFC8CF8091940283FDA6
:1019B000E7C09091950291FFF0CFC4EED0E0BDCF8B
:1019C0008091940285FFB9CFA7CF8091940285FDC5
:1019D000DAC08091950283FFB0CFC9E3D0E0ADCFEC
:1019E0008091940286FFA9CFCAE2D0E0A6CF809171
:1019F000940286FFA2CFC1E3D0E09FCFC11540E2A1
:101A0000D40760F4C11581E0D80708F096CFCE0165
:101A1000815E9109079708F490CFB4CFC11520E4F7
:101A2000D20708F4AFCFDF70D06A87CFC11537E592
:101A3000D307D8F5C11546E5D40708F098C0C115FD
:101A400083E5D807C8F4C11522E5D20708F47CC0A5
:101A5000CE018370992721E030E002C0220F331FAE
:101A60008A95E2F7C695C69580E2C89FE0011124E9
:101A7000C22BD32BDC6861CFC11534E5D30708F046
:101A800081CFCE018370992721E030E002C0220F80
:101A9000331F8A95E2F7C695C69540E2C49FE001E0
:101AA0001124C22BD32BDA6848CFC1154AE5D407DD
:101AB00078F4C11589E5D80708F04BC0C11528E5B1
:101AC000D20708F45FCFDC2FCC27C06FD06A35CFA8
:101AD000CE0190568115904208F054CF8D2F8F7112
:101AE0000E940A0C90E0982F882788279F719C01FC
:101AF0002C2BE901D06221CFC55AD0E0CD59DE4F61
:101B0000C881D0E0D06419CFC85AD0E0CC0FDD1F17
:101B1000CA59DE4F0990D881C02DD4640ECF2C2F26
:101B200026952695237040E2249F900111248C2F46
:101B30008370C1E0D0E002C0CC0FDD1F8A95E2F7D0
:101B4000C22BD32BDD68F9CEDC2FCC27C16FD06A36
:101B5000F4CE8C2F8F700E940A0C34E0D695C79576
:101B60003A95E1F7CF709C2FEC01D069E6CEDD27E6
:101B7000D066E3CEC2EED0E0E0CEC0EED0E0DDCE67
:101B8000C6EED0E0DACEC5E3D0E0D7CE0E94930A0D
:101B9000089580913F0290910E02981301C008951C
:101BA0008F5F8770FACFA82FA77023E0969587954F
:101BB0002A95E1F7FC01EE0FFF1FE80FF91FE60F72
:101BC000F71F50E040E080E0219130E00A2E02C093
:101BD000369527950A94E2F721703327042E01C029
:101BE000220F0A94EAF7822B4F5F5F4F4330510573
:101BF00059F70895903FC9F09A3080F48630A8F4E0
:101C0000282F30E06EEE71E0A901E6E09E9F400DC6
:101C1000511D1124CA010E94D30D08959C5F92307A
:101C200020F46BEE71E090E0F6CF80E00895262F6F
:101C3000277091E001C0990F2A95EAF723E0769585
:101C400067952A95E1F7FB01EE0FFF1FE60FF71FDF
:101C5000E40FF51F50E040E0682F70E08191DF0154
:101C600011979B01042E02C0369527950A94E2F73E
:101C7000217021952827292328272C934F5F5F4F18
:101C80004330510559F70895282F862F903F79F05A
:101C90009A3070F4263058F4622F70E026E0929F5C
:101CA000600D711D11244EEE51E00E94170E089533
:101CB0009C5F9230E0F7622F70E04BEE51E0F5CF81
:101CC000982F92959F7011F0892F94E0282F2695D8
:101CD000269511F09E5F822F869509F09F5F892FD0
:101CE00008959C013A9521153F4150F5FC01EE27DE
:101CF000F170BC0166277270AC01442754709C01DE
:101D00002227387094FF0EC080E1EF2B09F480E0A9
:101D1000672B09F08062452B09F08064232B89F042
:101D20008068089581E0EF2B09F480E0672B09F0CB
:101D30008260452B09F08460232B19F08860089598
:101D400080E00895CF93DF93682F81E06A3019F027
:101D50006D3031F480E00E94220FDF91CF91089521
:101D600080910A0690910B0626E0FC01A4E0B6E003
:101D700001900D922A95E1F7603E08F458C026E0E4
:101D8000FC0111922A95E9F7C0910A06D0910B0641
:101D900046E050E0BE0184E096E00E9447349E0198
:101DA00024503440892B41F1C90145E0969587952F
:101DB0004A95E1F741E050E0BA0102C0660F771F93
:101DC0008A95E2F7CB016091020470910304862B9F
:101DD000972BB9016B5F7F4FE5E076956795EA95A4
:101DE000E1F702C0440F551F6A95E2F7842B952B4B
:101DF00090930304809302042A5F3F4F40910104B3
:101E0000642F70E0C9010E94B933481B463010F4BA
:101E1000240F311D211572E0370710F030E020E06B
:101E20002C5F3B4F30930B0620930A0696CFF6E0CB
:101E30006F9FB00111246C56734F46E050E00E9432
:101E40003134A2CFCF93382FE0910A06F0910B06E0
:101E5000E450F44020910104622F70E0CF010E9411
:101E6000B933281B822F332361F066E00E940434CB
:101E7000C82FC15010F4CF91089580E20E94A20EA5
:101E8000F8CF9F01280F311D2115324018F080E056
:101E9000F0E0E0E08E0F9F2F911D8C5F9B4F9093A1
:101EA0000B0680930A06E7CF8091E90390914802E0
:101EB000892B8093DA0148E050E060E472E08AED1B
:101EC00091E00E944734892BA9F088E0EAEDF1E027
:101ED000A0E4B2E001900D928A95E1F7E091DC0375
:101EE000F091DD03309731F00280F381E02D8AED2F
:101EF00091E00995089590E080E00E94B50A90E095
:101F000080E00E949F0A109248020E94540F089598
:101F1000809300040E947B0F089580910004982F05
:101F20009670963021F488600E94880F0895877F0C
:101F3000FBCF21E030E001C0220F8A95EAF720951F
:101F40008091000482230E94880F089521E030E0F0
:101F500001C0220F8A95EAF780910004822B0E942B
:101F6000880F0895809349020E947B0F0895ECED3D
:101F7000F1E086E0DF011D928A95E9F70E947B0F70
:101F80000895AAE2B0E0E7ECFFE00C94DC3388EFC0
:101F900093E02091F100DC012D93CD01B4E080307D
:101FA0009B07B9F78091F903833009F472C0B8F444
:101FB000813009F449C0823009F4B5C08091E8004D
:101FC00083FF98C28091F8039091F9039A3008F04A
:101FD00091C2E92FF0E0E05CF84C0C9424348A3094
:101FE00009F490C08B3009F471C0893039F78091C1
:101FF000F803813219F78091FC039091FD0300975B
:1020000011F00297D9F68091E800877F8093E8006D
:102010008091E80082FF38C09091F3008091F20037
:10202000029731F48091F100813011F0863021F473
:102030008091F1008093EB038091E8008B7780938F
:10204000E8000E948309BACF8091F803813A09F031
:10205000B5CF8091E800877F8093E8008091FC03F2
:102060009091FD03892B61F468E08CEE93E070E0C1
:102070000E942F0A8091E8008B778093E8009ECF22
:1020800060E090E080E0F3CF8091F6038111C0CF53
:1020900095CF8091F803813A09F090CF8091FC03AD
:1020A0009091FD03892B09F089CF8091E800877F0B
:1020B0008093E8008091E80080FFFCCF8091570179
:1020C0008093F1008091E8008E77B9CF8091F8037A
:1020D000813209F073CF8091FC039091FD03892B2D
:1020E00009F06CCF8091E800877F8093E8000E9420
:1020F00083098091FA03809357011092E9030E94AB
:10210000B70F5CCF8091F803813209F057CF8091EF
:10211000E800877F8093E8000E9483098091FB0399
:102120008093EA034BCF8091F803813A09F046CFC0
:102130008091E800877F8093E8008091E80080FF2D
:10214000FCCF8091EA03BCCF803899F0823809F047
:10215000D1C18091FC038F70873008F0CBC1809390
:10216000E9008091EB0085FB882780F91092E90057
:1021700006C08091F4039091F503911182609091D3
:10218000E800977F9093E8008093F1001092F100AF
:102190008091E8008E77AAC1882309F498C1823023
:1021A00009F0A8C18091FA0381119BC18091FC03C1
:1021B0008F702FEF280F263008F09CC18093E90024
:1021C0002091EB0020FF8DC1933031F48091EB0022
:1021D00080628093EB0085C19091EB0090619093B9
:1021E000EB0021E030E001C0220F8A95EAF720934E
:1021F000EA001092EA008091EB008860EACF81113A
:1022000079C11091FA031F778091E3008078812BC8
:102210008093E3008091E800877F8093E8000E942C
:1022200083098091E80080FFFCCF8091E300806803
:102230008093E30082E0111183E08093F6035AC19A
:102240008058823008F056C12091FA033091FB0388
:102250002C3DE3E03E07A1F583E08A838AE289838F
:102260004FB7F894DE01139620E03EE051E2E32FF1
:10227000F0E050935700E49120FF03C0E295EF7027
:102280003F5FEF708E2F90E0EA30C0F0C7968D93DD
:102290009D932F5F243159F74FBF8091E800877FCE
:1022A0008093E8006AE270E0CE0101960E942F0A56
:1022B0008091E8008B778093E8001CC1C096E7CF3F
:1022C0008091FC039091FD03432F55274330510526
:1022D00009F44AC078F54130510509F485C08BE511
:1022E00090E0E9EDFBE04230510509F003C1209197
:1022F000E800277F2093E8002091FE033091FF0340
:102300008217930708F49C0140E02115310509F07C
:1023100070C041116EC08091E80082FDC9CF8091EC
:10232000F603882329F2853019F28091E80083FFB3
:10233000F2CFBECF4132510509F447C042325105B8
:1023400009F0D8C08330910508F0D4C0FC01EE0F2D
:10235000FF1FE453FE4F0190F081E02D87539E4F05
:10236000DC018C9190E01DC0332721303105E9F06C
:102370002115310579F022303105F9F0233031058E
:1023800009F0B8C0E6E4FCE0E4918E2F90E0E6E4CA
:10239000FCE007C0E0E9FCE0E4918E2F90E0E0E98A
:1023A000FCE0009709F4A6C0A2CFE2E7FCE0E491CC
:1023B0008E2F90E0E2E7FCE0F4CFE4E6FCE0E4916D
:1023C0008E2F90E0E4E6FCE0ECCF8330910508F03E
:1023D00091C0880F991FFC01EE52FE4F0190F081D1
:1023E000E02D89E090E083CF82E190E0E4E3FCE03F
:1023F0007ECF8091F603882309F45ACF853009F403
:1024000057CF8091E80083FD53CF8091E80082FD93
:1024100082CF8091E80080FF78CF9091F300809187
:10242000F2002115310519F08830910550F041E096
:10243000089709F040E08091E8008E778093E800EB
:1024400064CF44914093F1003196215031090196B7
:10245000E8CF803809F04EC08091E800877F8093F4
:10246000E8008091F7038093F10092CE811142C081
:102470001091FA031230F0F58091E800877F809385
:10248000E8001093F7030E948309112311F084E000
:1024900005C08091E30087FDFACF81E08093F603C9
:1024A00042E061EC81E00E94A20942E261EC84E03A
:1024B0000E94A20942E261EC82E00E94A20942E28B
:1024C00060EC83E00E94A2098091F60313C0809122
:1024D000FA03813079F481E0933009F080E0809351
:1024E000F5031092E9008091E800877F8093E8006F
:1024F0000E9483098091E80083FF0AC08091E80070
:10250000877F8093E8008091EB0080628093EB00EE
:10251000AA96E3E00C94F833882341F080959091DB
:1025200048028923809348020E94540F089588230B
:1025300039F090914802982B909348020E94540FD2
:102540000895882341F080959091E9038923809331
:10255000E9030E94540F0895882339F09091E9030C
:10256000982B9093E9030E94540F08958823C1F19A
:102570009CEF980F913A78F4ECEDF1E0919189138A
:1025800003C0DF0111971C9241E0E23EF407B1F76E
:102590000E94540F089590E2980F983088F4877045
:1025A00021E030E0A90102C0440F551F8A95E2F7EF
:1025B000CA0180959091E90389238093E903E8CFCC
:1025C0009BE5980F933028F490E080E00E94B50AD4
:1025D0000895885A873120F490E080E00E949F0A95
:1025E00008950F931F93CF93C82F882349F18CEF41
:1025F0008C0F813AB8F50CED11E082EE91E0F80114
:102600002191C21709F121E0E23EF207C9F7EFEF8D
:1026100080E0D8019D918D01C91781F0EF3F19F439
:10262000911101C0E82F8F5F863099F7EF3F31F0AD
:102630000E2E000CFF0BE652FE4FC2830E94540F79
:10264000CF911F910F910895ECEDF1E02191C2130C
:1026500003C0DF0111971C928E179F07B9F70E94E4
:10266000540FD5CF80E28C0F883068F4C77021E01A
:1026700030E001C0220FCA95EAF78091E903822B6E
:102680008093E903DBCFEBE5EC0FE33040F4F0E0BF
:10269000ED59FE4F808190E00E94B50AD1CFC85A13
:1026A000C73170F6EC2FF0E0EE0FFF1FEA59FE4F36
:1026B000808191810E949F0AC3CF6F927F929F92E7
:1026C000AF92BF92CF92DF92EF92FF920F931F9340
:1026D000CF93DF93CDB7DEB768970FB6F894DEBF20
:1026E0000FBECDBF8C01B3E09B2E7E0149E1E40E0D
:1026F000F11CA12C82E0B82ECC24C394D12C692DDE
:1027000081E00E940B0BDE011196F801BD0184915E
:102710008D933196AE15BF05D1F780910A06909141
:102720000B06845094409C01285E3F4F213032407C
:1027300078F19501281B390B409102045091030454
:10274000280F391F8217930730F1509303044093E9
:10275000020493940FB6F894DEBF0FBECDBF085E9F
:102760001F4FB6E09B12CBCF68960FB6F894DEBF32
:102770000FBECDBFDF91CF911F910F91FF90EF90D2
:10278000DF90CF90BF90AF909F907F906F90089513
:1027900028E130E0D1CFFB016191DC01AC5FBB4FA0
:1027A0007C91671781F06C93BC01A5E076956795E5
:1027B000AA95E1F7D60102C0AA0FBB1F6A95E2F7FE
:1027C000BD014A2B572B0196BF01BCCFB0E0A0E062
:1027D000ECEEF3E10C94D7336C017B0164E670E01E
:1027E00088E70E941731EC0197FD12C010E000E06D
:1027F000F601E00FF11F849164E670E00E948331DE
:10280000EC01892B29F40F5F1F4F0E151F0581F76F
:102810000E94F931CE01CDB7DEB7E8E00C94F33376
:102820008091D8039091D903911103C091E0892739
:102830000895882369F062E070E087E29BE00E94DF
:10284000E613892B19F08091D80308951092D803CC
:102850008091D803EBCFCF93C091D8038091D90357
:102860008823D1F00E94930A6058774C8E4F9F4F77
:102870006093D4037093D5038093D6039093D703CA
:10288000C11108C062E070E085E29BE00E94E6139F
:10289000892B29F0C091D8038C2FCF91089581E026
:1028A0008093D803F7CF8093E5037093E703609399
:1028B000E6038091F6038430F9F48093E9008FEF0A
:1028C0009091E800815095FD06C095ED9A95F1F73D
:1028D00000008111F5CF8091E80085FF0DC050E028
:1028E00040E063E070E085EE93E00E94590980913A
:1028F000E8008E778093E8000895BC0184E00E9490
:1029000053140895BC0183E00E9453140895CF939B
:10291000DF93EC0181E08093E9008FEF9091E80074
:10292000815095FD06C095ED9A95F1F70000811153
:10293000F5CF8091E80085FF14C050E040E068E0EA
:1029400070E0CE010E9459098091E8008E77809353
:10295000E80088E0FE01ACEEB3E001900D928A95AC
:10296000E1F7DF91CF910895CF92DF92EF920F932D
:102970001F93CF93DF93CDB7DEB7CE5DD1090FB6EE
:10298000F894DEBF0FBECDBF609151018091CB03A3
:1029900080FF4CC0EDEDF7E09E012F5F3F4F8E01B1
:1029A00001521F4FC901A4914A2F50E0DA01AA0F2A
:1029B000BB1FA40FB51FA351BD4FCD90DD90EC9070
:1029C000D901CD92DD92ED929D013196A017B1070C
:1029D00051F72091500143E0249F800D911D112457
:1029E000539A2BB1277F3BB138605FB7F894FC0155
:1029F000649FE00DF11D1124BF018617970749F56B
:102A00005FBFEFE5F4E03197F1F700C00000C2527C
:102A1000DF4F0FB6F894DEBF0FBECDBFDF91CF9171
:102A20001F910F91EF90DF90CF9008958091520108
:102A30009091530123E0829FF0011124E351FD4F57
:102A4000891708F0A7CF1182108212828F5F339608
:102A5000F7CFDC014D91CD01E8E03BB9000000C0AB
:102A600047FF2BB9440F000000C000C000C02BB9C5
:102A700000C0EA9591F7C1CF0F931F93CF93DF93D7
:102A8000EC0110E000E0909154019017110609F05C
:102A90006CF40E94B4148C8190E0019681709927A7
:102AA0008C83DF91CF911F910F9108952091520156
:102AB000A801420F511D9A01220F331F240F351F09
:102AC00023513D4F4C816091CD038091CC0396956D
:102AD0009017110669F064F0442361F04091CE0331
:102AE000433808F042E80E945B0B0F5F1F4FCBCFCB
:102AF0004423A1F340E0F7CFEF92FF921F93CF93CF
:102B0000DF93EC0110E0EE24EA94F12C6091540183
:102B1000161770F00E94B4149A818C8190FF2AC01D
:102B20008F5F8C83DF91CF911F91FF90EF9008957D
:102B300020915201422F410F5527551FCA019A017A
:102B4000220F331F280F391F23513D4F4091CE03D1
:102B5000433808F042E870E0C7010E941034962F15
:102B60008C816091CD03199F800D11240E945B0B15
:102B70001F5FCCCF8150D5CF9091CB0390FF0EC07B
:102B8000909152012091530133E0939FF001112461
:102B9000E351FD4F921718F00E94B41408958183F9
:102BA000608342839F5F3396F5CFA3E0B0E0EBED07
:102BB000F5E10C94DD339091CB0390FF0DC04338C9
:102BC00008F042E89E012F5F3F4F0E945B0B4B8154
:102BD00069818A810E94BC152396E2E00C94F93346
:102BE000CF93DF93EC01EBECF3E0438162818C81C6
:102BF0000E94D5158C818F5F8C83DF91CF910895D2
:102C0000CF93DF93EC01EC81F0E0EB5DF74F449163
:102C1000EBECF3E0628181810E94D5158C818F5F9E
:102C20008C83DF91CF910895EBECF3E080818E7F70
:102C300080830E943E0BEAEEF2E082818160828313
:102C40002FEF80E792E0215080409040E1F700C0F4
:102C500000000E94B4140895B0E0A0E0E2E3F6E1C1
:102C60000C94D5337C015B016A018091830201E001
:102C700010E08A3010F40AE010E0C1E0D0E0B501C5
:102C8000C701F6010995811104C021960C171D0793
:102C90002CF4CDB7DEB7EAE00C94F133CC9F900171
:102CA000CD9F300D300D112490E080E045E34A9532
:102CB000F1F70000019682179307C1F7E0CF8091EA
:102CC0005402811110C08091D80080618093D80097
:102CD0008AE18A95F1F700C08091D90080FF0AC08F
:102CE00081E08093540281E090915402913009F088
:102CF00080E0089582E0809354020E9409091092B6
:102D0000F603F1CF0E945F16882359F0E091DC03AF
:102D1000F091DD03309729F00190F081E02D0995C5
:102D2000089580E008950F931F930E945F168823F3
:102D300029F00E94930A1F910F9108950E94930A0F
:102D400000918402109185022091860230918702C1
:102D5000600F711F821F931FEECF1F93CF93DF93DE
:102D6000182FEB010E94F1128FE99FE00197F1F714
:102D700000C000002197C1F7812F0E94B612DF9199
:102D8000CF911F910895B0E0A0E0E9ECF6E10C943A
:102D9000D433EC01A62E8AE0982E2881222309F450
:102DA000B3C0213009F051C089818130C1F48E0156
:102DB0000E5F1F4F8A816AE070E0893311F460E58D
:102DC00070E00E94AD16E80121968A2D815028F30B
:102DD000EFE9FFE03197F1F700C00000F7CF823054
:102DE00039F48E010E5F1F4F8A810E94F112EBCFE2
:102DF000833039F48E010E5F1F4F8A810E94B61214
:102E0000E2CF843011F02196DFCF2A81229690E024
:102E100080E0AE014F5F5F4F2053330B2A30310506
:102E200048F0019788F2EFE9FFE03197F1F700C031
:102E30000000F7CF989EB001999E700D1124C90132
:102E4000860F971F2981EA01E4CFE22FF0E0E75ACD
:102E5000F44FB490822F86958695869590E0FC017C
:102E6000E75BF44FE4902770F12C022E02C0F5943A
:102E7000E7940A94E2F731E0E322FF24FC01E75CE7
:102E8000F44FC490D12C022E02C0D594C7940A945A
:102E9000E2F7E1E0CE22DD24FC01E75DF44F04918E
:102EA00010E002C0159507952A95E2F701701127E9
:102EB000E114F10419F081EE0E94F112C114D10461
:102EC00019F086EE0E94F112F9E36AE070E0BF1299
:102ED00002C060E570E08B2D0E94AD16C114D104D4
:102EE00019F086EE0E94B612E114F10419F081EE99
:102EF0000E94B6120115110509F466CF6AE070E070
:102F00008CE20E94AD1660CFCDB7DEB7EBE00C943B
:102F1000F033CF93DF93C7E2D2E060E0CE010E94AE
:102F20000A372196C11584E0D807B9F7DF91CF9110
:102F300008950F931F93CF93DF93142F022F8430A4
:102F400020F5623010F598E0899FE001112484E0BB
:102F5000689FB0011124C60FD71FC95FDD4F82E003
:102F600090E0442311F090E080E0632F8C0F9D1FD0
:102F70000E940A3783E090E0112311F081E090E095
:102F8000602F8C0F9D1F0E940A37DF91CF911F91F8
:102F90000F9108951F93CF93DF93122F8430E0F4A5
:102FA0006A30D0F44630C0F4C42FD0E0CC0FDD1F1F
:102FB0009CE0699FC00DD11D112498E7899FC00D29
:102FC000D11D1124632FCE0187960E940A37612FED
:102FD000CE0188960E940A37DF91CF911F91089504
:102FE000B0E0A0E0E6EFF7E10C94D133A0905501FA
:102FF000B090560181E090E0909356018093550186
:1030000085E2C82E89E0D82E95E4E92E99E0F92EC4
:10301000C0E0470110E014C0F301259134914D2F19
:10302000612F8C2F0E94CA1782E0680E711CDF5F2F
:10303000D63091F78CE0880E911C1F5F1A3019F082
:103040003401D0E0E9CF8601D0E0F8012591349138
:1030500041E06D2F8C2F0E949917F801329625912F
:10306000349140E06D2F8C2F0E9499170C5F1F4FF9
:10307000D13099F488E0C80ED11CCF5F88E7E80E04
:10308000F11CC43009F0C5CFB0925601A092550191
:10309000CDB7DEB7EEE00C94ED33D1E0D6CFCF93D1
:1030A000C82F6FEF811162EE83E290E00E940A3731
:1030B0006FEFC11167ED84E290E00E940A376FEF75
:1030C000C11168EC85E290E00E940A37CF91089523
:1030D00080E00E944F1860E086E290E00E940A378C
:1030E0000E94F0170E94891781E00E944F180895EE
:1030F000FF920F931F93CF93DF93F42E843070F5DC
:10310000623060F528E0829F8001112434E0639FE3
:10311000B0011124060F171F095F1D4F82E090E0D8
:10312000442311F090E080E0800F911F0E94F6365A
:10313000C82FD0E0DC2FCC2783E090E0FF2011F0F7
:1031400081E090E0800F911F0E94F6369E01282BAF
:10315000C901CDB7DEB7E5E00C94F63390E080E02E
:10316000F8CF0F931F93CF93DF93843030F56A30FD
:1031700020F5463010F5C42FD0E0CC0FDD1F2CE039
:10318000629FC00DD11D112438E7839FC00DD11D52
:103190001124CE0187960E94F636082F10E0102FDA
:1031A0000027CE0188960E94F6369801282BC90187
:1031B000DF91CF911F910F91089590E080E0F8CFBB
:1031C0002091D2033091D303232BC9F4703F39F4FB
:1031D000603FA9F48091D0039091D1030895843089
:1031E00070F47A3038F4663050F4462F672F0E941E
:1031F000B11808957D3F31F441E0623040F090E035
:1032000080E008957C3FD9F76230C8F740E00E9423
:1032100078180895CF92DF92FF920F931F93CF9368
:10322000DF936C010091000480914902082BC7E0F4
:10323000D0E010E0FC2EC8010C2E02C095958795B9
:103240000A94E2F780FD0CC02197A0F7F12C8F2D96
:10325000DF91CF911F910F91FF90DF90CF90089554
:10326000B6018C2F0E94E0180E944D0C019761F36B
:10327000EECFCF93DF93EC010E940A19BE010E94AA
:10328000E0180E944D0CDF91CF910895FC018381DD
:103290009481892B29F08081918189238F3F51F47A
:1032A00080E00895843FE1F717C0883EA8F0813F91
:1032B000B9F712C0808191810E94391992959F704F
:1032C000963099F358F4925F9F70923048F7803FA0
:1032D00019F040F7883E20F781E008959A5FF4CF17
:1032E00083E290E00E94F636823E89F484E290E028
:1032F0000E94F636873D59F485E290E00E94F6364A
:1033000091E0883C09F090E0892F8170089580E079
:10331000FCCFCF92DF92EF92FF926B017C010E9473
:10332000450BB701A60188E090E00E941C37FF9092
:10333000EF90DF90CF900895A3E0B0E0E2EAF9E1EA
:103340000C94D933082FF62E142FE22E8091CB0344
:1033500080FF3DC0E82FE695F0E0E754FE4F9081F6
:103360009093EA028E7F8230B1F5433808F042E84C
:103370009E012F5F3F4F6F2D802F0E945B0B4B8173
:1033800069818A810E94BC158091CC03801308C09A
:103390008091CD038F1104C08091CE03811729F055
:1033A0008091EC0282608093EC020093CC03F09257
:1033B000CD031093CE03EE2051F06091CB037091BA
:1033C000CC038091CD039091CE030E94891923965E
:1033D000E6E00C94F533923019F41091CE03D4CF7B
:1033E0008091CC03963011F0993071F6082FCCCF34
:1033F000EBECF3E0438125E0421B08F440E021E0E0
:10340000628181810E949C190895EBECF3E0438175
:1034100025E0420F08F44FEF21E0628181810E9494
:103420009C190895EBECF3E0628121E1621B08F442
:1034300060E021E0438181810E949C190895EBECBA
:10344000F3E0628121E1620F08F46FEF21E0438134
:1034500081810E949C190895EBECF3E0818121E0C9
:103460004381628188500E949C190895EBECF3E03F
:10347000818121E043816281885F0E949C190895C7
:103480008091CF03882319F081508093CF036091FE
:10349000CB037091CC038091CD039091CE030E9419
:1034A000891908958091CF03833018F48F5F80933A
:1034B000CF036091CB037091CC038091CD039091A9
:1034C000CE030E9489190895EBECF3E083E1808339
:1034D00011828FEF828388E783838483AAEEB2E030
:1034E00012968C911297836012968C9360817181F1
:1034F000828193810E948919089568EE7EEF90E0A1
:1035000080E00E94283760E082E090E00E940A3765
:1035100060E083E090E00E940A371092490260E088
:1035200084E090E00E940A3764E082E290E00E942A
:103530000A3760E085E090E00E940A3760E086E0AC
:1035400090E00E940A376FEF87E090E00E940A3710
:1035500040E050E0BA0188E090E00E941C3760E053
:103560008DE090E00E940A3740E050E0BA0188E127
:1035700090E00E941C3760E087E190E00E940A37EB
:1035800040E050E0BA018CE190E00E941C3770E00E
:1035900060E080E290E00E94283740E050E0BA010D
:1035A00088E190E00E941C3780E00E944F180E9442
:1035B000681840E050E0BA018FE090E00E941C37AC
:1035C00040E050E0BA0183E190E00E941C3708958A
:1035D000A4E0B0E0EEEEFAE10C94DC334091770227
:1035E000509178026091790270917A022FB7F89425
:1035F0008091E1039091E203A091E303B091E40391
:103600002FBF841B950BA60BB70B11E084369105D9
:10361000A105B10570F10E9493166E5F7F4F8F4F29
:103620009F4F69837A838B839C8380912101909142
:1036300022018E599D4F4091200150E045305105A7
:1036400010F044E050E0BE016F5F7F4F0E945434A1
:1036500084E090E00E944333182F882351F00E94A9
:10366000930A609377027093780280937902909323
:103670007A02812F2496E3E00C94F8334F925F9204
:103680006F927F928F929F92AF92BF92EF92FF9232
:103690000F931F93CF93DF937B01FB0140805180F9
:1036A000628073809FB7F8948090E1039090E2036A
:1036B000A090E303B090E4039FBF84189508A60888
:1036C000B708F4E68F169104A104B10418F4C1E020
:1036D000442329F1C82F880FDD0BFE0183E0EE0F94
:1036E000FF1F8A95E1F7E050FF4F818192818E594B
:1036F0009D4F408150E00417150708F4A801B90157
:103700000E945434CE010E944333C82F882339F0DD
:103710000E94930AF70160837183828393838C2FC5
:10372000DF91CF911F910F91FF90EF90BF90AF90DD
:103730009F908F907F906F905F904F900895A1E041
:10374000B0E0E5EAFBE10C94DB338091D803898398
:103750002091760290E041E02817190609F440E034
:1037600001E010E09E012F5F3F4F6FE772E086E0BF
:103770000E943E1B2196E4E00C94F733A8E0B0E0F1
:10378000E4ECFBE10C94DB3385E0EBECF3E0DE01F1
:10379000119601900D928A95E1F78091EA0290913D
:1037A000EB02A091EC028E839F83A88741E088857D
:1037B000811101C040E008E010E09E012F5F3F4F03
:1037C0006BE772E085E00E943E1B81111092EC02D3
:1037D0002896E4E00C94F7334F925F927F928F9299
:1037E0009F92AF92BF92CF92DF92EF92FF920F9390
:1037F0001F93CF93DF930F92CDB7DEB7C62E4A014A
:103800005901482E880F5508C2010E944333782E73
:10381000882309F480C0C20133E0880F991F3A95CC
:10382000E1F7FC01E050FF4F438150E041155105A5
:1038300011F041E050E080509F4FFC0164817581A0
:103840006E597D4FCE0101960E945434F40140819F
:103850005181628173812FB7F8948091E103909137
:10386000E203A091E303B091E4032FBF841B950B07
:10387000A60BB70B84369105A105B10540F4B7013D
:10388000C8010E94220B9981891709F444C00C2CAD
:10389000000CDD08C6010E944333782E811113C04D
:1038A000712C872D0F90DF91CF911F910F91FF9079
:1038B000EF90DF90CF90BF90AF909F908F907F90D0
:1038C0005F904F900895C60123E0880F991F2A95B5
:1038D000E1F7FC01E050FF4F438150E0E416F506AC
:1038E00008F4A70180509F4FFC01648175816E59D7
:1038F0007D4FC5010E945434B701C8010E94220BBC
:1039000099818913CDCF0E94930AF401608371835A
:1039100082839383C6CFA701B801C5010E945434A6
:10392000C0CFA5E0B0E0E7E9FCE10C94D7336B0130
:1039300085E0E82EF12C03E612E09E012F5F3F4F59
:103940004AE552E061E080E00E94EC1B882349F0E8
:1039500095E0FE013196A5E5B2E001900D929A95B1
:10396000E1F795E0E5E5F2E0D60101900D929A9538
:10397000E1F72596E8E00C94F33390E080E00E94B4
:103980000437883E9E4F19F40E947019089580E014
:1039900008951F920F920FB60F9211242F933F9309
:1039A0004F935F936F937F938F939F93AF93BF9347
:1039B000CF93DF93EF93FF93D091E900DF70809175
:1039C000EC00C82FC17080FDC0E81092E900809122
:1039D000F000877F8093F00078940E94C10F1092CE
:1039E000E9008091F00088608093F000CD2BCF70CB
:1039F000C093E900FF91EF91DF91CF91BF91AF911B
:103A00009F918F917F916F915F914F913F912F91F6
:103A10000F900FBE0F901F9018951F920F920FB628
:103A20000F9211242F933F934F935F936F937F9344
:103A30008F939F93AF93BF93EF93FF938091E10098
:103A400082FF09C08091E20082FF05C08091E10001
:103A50008B7F8093E1008091DA0080FF24C0809109
:103A6000D80080FF20C08091DA008E7F8093DA003A
:103A70008091D90080FF9DC080E189BD82E189BD30
:103A800009B400FEFDCF81E08093F6038091E80346
:103A9000811109C00E9409090E94D4098091E200A5
:103AA00084608093E2008091E10080FF17C08091E4
:103AB000E20080FF13C08091E2008E7F8093E200DD
:103AC0008091E20080618093E2008091D800806262
:103AD0008093D80019BC85E08093F6038091E100C3
:103AE00084FF2BC08091E20084FF27C080E189BD64
:103AF00082E189BD89B5982F917080FFFBCF8091BD
:103B0000D8008F7D8093D8008091E1008F7E8093D4
:103B1000E1008091E2008F7E8093E2008091E200DC
:103B200081608093E2008091F703882309F447C005
:103B300084E08093F6038091F6038091E10083FF97
:103B400027C08091E20083FF23C08091E100877F3E
:103B50008093E10082E08093F6031092F703809156
:103B6000E1008E7F8093E1008091E2008E7F809360
:103B7000E2008091E20080618093E20042E060E038
:103B800080E00E94A2098091F00088608093F0009C
:103B9000FF91EF91BF91AF919F918F917F916F9125
:103BA0005F914F913F912F910F900FBE0F901F90FB
:103BB000189519BC1092F6031092E80374CF809107
:103BC000E30087FD93E09093F603B5CF78941F92BE
:103BD0001FB61F9211248F939F93AF93BF93809131
:103BE000E1039091E203A091E303B091E403019615
:103BF000A11DB11D8093E1039093E203A093E30321
:103C0000B093E403BF91AF919F918F911F901FBE1E
:103C10001F9018959C014FB7F8948091E103909103
:103C2000E203A091E303B091E4034FBF821B930B27
:103C300008952FB7F8948091E1039091E203A09149
:103C4000E303B091E4032FBF08950E945F16882319
:103C500019F00E94191E08950E949316CB01089531
:103C60006091CB03669570E041E050E08FE491E015
:103C70000E943A34892B19F481E08093EB020E9470
:103C8000251E9093E5028093E4028091EC0284600B
:103C90008093EC0208959091CB0390FF31C0917016
:103CA00081112FC092609093CB038091EC028160D0
:103CB0008093EC02662351F06091CB037091CC03AA
:103CC0008091CD039091CE030E9489196091CB031E
:103CD000669570E041E050E08FE491E00E943A3454
:103CE000892BB1F00E943E0B81E08093E70220E037
:103CF0004091CE036091CD038091CC030E949C192A
:103D00000895803110F09E61CECF880F982BCBCFD5
:103D10000E94301EE9CF8091CB038695815009F433
:103D20008FE061E00E944B1E08958091CB03869541
:103D30008F5F803108F081E061E00E944B1E0895A2
:103D40009091CB0390FF08C09695981728F096178E
:103D500018F40E94951E089561E00E944B1E08957C
:103D6000A5E0B0E0E6EBFEE10C94D6337C01FC016B
:103D700083819481892B31F08081918189238F3FC8
:103D800009F0A6C32596E9E00C94F2330E940A19C3
:103D9000182F682F89819A810E94440E69817A8147
:103DA000812F0E94E0188C01F7019281992309F478
:103DB0003FC3980122513F452031310508F027C308
:103DC0008FEF93E00E94F6368111DCCF025127E29B
:103DD000E22E22E0F22E011135C019821A821B82D6
:103DE0001C82BB24BA9487010F5F1F4FC7010E943A
:103DF000F63689831A82882329F2813009F08AC035
:103E0000670142E0C40ED11CC8010E94F636082F9B
:103E10008A83882309F4B6CFC6010E94F636182F8C
:103E20008FEF800F8330E8F4670153E0C50ED11C9B
:103E30001B83112329F060E0CE0101960E94C31676
:103E40007601D1CFE114F4E0FF0609F49BCFC7015E
:103E50000E94F636811101C001502FEFE21AF20ADA
:103E6000BACF8BEF800F833068F5C70103961B83B1
:103E70006C01112329F36701E4E0CE0ED11C0E94EE
:103E8000F6368C838823E1F2EB80FC80F1E0EF16BC
:103E9000FFEFFF0610F0FE2CEE24063079F007301D
:103EA00049F0C7010E9407268FE39CE90197F1F7CB
:103EB00000C00000C7010E94CF25C2CFC7010E94E9
:103EC0000726BECF043009F0BBCF670194E0C90ECE
:103ED000D11CC70103960E94F636112309F452CF74
:103EE000882309F44FCF8150990BB89E9001B99E59
:103EF000300D1124E12FE150FF0BCF01820F931FF2
:103F0000019708F49DCFEFE9FFE03197F1F700C08A
:103F10000000F6CF6AE0CE0101960E94C316680148
:103F20008FCF81E00E94A60F03C081E00E94990F0D
:103F30000E948D0F27CF82E0F5CF82E0F7CF073CBC
:103F4000ECE51E0709F47FC008F478C0083C2CE5B6
:103F5000120709F47DC0093C4CE5140709F08FC233
:103F600048EF59E165E07AE15CC00F3C5CE515077C
:103F700009F485C0B0F40C3CFCE51F0709F477C0D8
:103F800008F470C00D3C4CE5140709F475C065E0F9
:103F900082E00E3C5CE5150709F071C20E94A01E8C
:103FA000F1CE063D8CE5180738F46EE089E0013D5E
:103FB0009CE5190798F3E6CE0D35100709F4E2CE1B
:103FC0005EC28091CB0380FF20C08E7F8093CB03A5
:103FD0006091CB037091CC038091CD039091CE037F
:103FE0000E9489190E943E0B8091EC0281608093AF
:103FF000EC02FFEF20E742E0F15020404040E1F7C3
:1040000000C000000E94B414BDCE81608093CB0339
:1040100061E086950E944B1EB5CE4BE85EE165E9F6
:104020007EE10E94380BAECE45E95EE16BE87EE1B1
:10403000F8CF4CE25AE166E37AE1F3CF46E35AE186
:104040006CE27AE1EECF42E15AE16FE17AE1E9CF49
:104050004FE15AE162E17AE1E4CF45E05AE168EFED
:1040600079E1DFCF40E45AE162E57AE1DACF42E577
:104070005AE160E47AE1D5CF61E081E0CBCF68E03E
:1040800086E08CCFC8010E94FA0DD82E06C2F92F07
:10409000FF70FF2E907F19F0F29480EFF822812FAD
:1040A0002223C9F0FF2069F090E2910F983010F0C0
:1040B00011110BC08091E903F82AF092E9030E94E4
:1040C000540F812F0E94F11217C080914802F82AE4
:1040D000F0924802F4CF0E94B612FF2069F0F094EB
:1040E000105E183010F0011112C08091E903F8221F
:1040F000F092E9030E94540FF8E0CF1AD10824E0AF
:10410000C216D10408F03ECE0E9482163BCE8091AA
:104110004802F822F0924802EDCF892F8F70907FED
:10412000903211F08295807F013061F4222329F0D2
:10413000333010F70E94AC12DFCF3230E8F60E9425
:10414000A112DACF222341F03323A1F340FFB9CFEC
:104150004F70F7014583EECF332389F3193309F00C
:10416000F0C0FFEF27EE43E0F15020404040E1F780
:1041700000C00000812F0E94B612BECF892F869505
:104180008695837061F0813009F0B6CF812F9370EE
:10419000211102C090E080E00E949F0AADCF812FE4
:1041A0009370211102C090E080E00E94B50AA4CF74
:1041B000892F8370A1F521119FCF812F829586953C
:1041C0008770880F880F412F4F70082E01C0440F51
:1041D0000A94EAF7212F207114FF07C02FE030E086
:1041E00001C0220F8A95EAF72095969596959370CF
:1041F000923081F0822F842B933030F480914902E9
:10420000913029F0242B82230E94B20F75CF842B8A
:10421000822BFACF242B809149028227F5CF8695F5
:10422000222311F0892F8170882309F465CF812F13
:10423000829586958770880F880F412F4F70082EC2
:1042400001C0440F0A94EAF7212F207114FF07C020
:104250002FE030E001C0220F8A95EAF7209596956D
:1042600096959370923081F0822F842B933030F4A6
:1042700080910004913029F0242B82230E94880F22
:104280003BCF842B822BFACF242B809100048227F2
:10429000F5CF092F0F70222329F0802F0E94A60F3F
:1042A000812F48CF812F0E94A112802F0E94990F49
:1042B00023CF812F113F69F148F4103FA9F0222349
:1042C000A1F13111FECE892F8F7127C0123F41F12C
:1042D000133FA9F780E0222389F29F7181E001C09A
:1042E000880F9A95EAF7CACF222379F0323008F086
:1042F00003CF292F2F7181E090E001C0880F2A950C
:10430000EAF7909100048927B9CF333008F0F4CE52
:10431000F0CF892F8F71222349F20E94A60FECCE95
:10432000892F8F712223C9F3C1CF332379F08933C9
:1043300041F49FEFE7EEF3E09150E040F040E1F709
:1043400017CF8FE39CE90197F1F712CF892F8F7177
:10435000ADCF123FD9F128F5103F61F1113F09F4BB
:104360003DC080910602332309F445C0882341F003
:104370008091070291E0892780930702109206023C
:1043800021119FCEEFE3FCE93197F1F700C0000067
:10439000812F0E94B61286E0F70111928A95E9F703
:1043A000ABCE143FB1F080F0153FD9F62111A4CE69
:1043B00081E007C0222309F49FCE8091070291E09B
:1043C00089278093070298CE81E02827209307024F
:1043D00093CE211191CE109207028ECE222339F076
:1043E00080910602882349F31092060285CE32306E
:1043F00008F082CEE2CF882309F47ECE21117CCE54
:104400008091070291E0892780930702EDCF003168
:104410004FE5140709F485CD01315FE5150709F46F
:104420008ACD0E3D2CE5120751F50E947D1AAACCCB
:1044300000318FE5180709F478CD0131EFE51E074B
:1044400009F47BCD8091E90382720A3C4CE51407A4
:1044500009F403CE08F089CD053CECE51E0709F40C
:10446000E8CD08F06CCD033C2CE5120709F4D5CD5E
:1044700008F0DACD023C5CE5150709F4A2CDF7019E
:1044800000811181992309F4FDCDC8010E940A1908
:10449000D82E682FC8010E94440EB8018D2D0E94AD
:1044A000E0180E944D0C182F082FF701228145813A
:1044B000342F32953F70892F82958F70C82ED12C62
:1044C0008C3008F019CEF601E65BF84C0C942434DD
:1044D00085E0DE01119601900D928A95E1F7F701D2
:1044E000228189819A81211151CC0E94FA0D182FC5
:1044F00055CC1F93CF93DF9380910D02807F09F0FD
:1045000049C080910A02882309F444C080913F0287
:10451000D0910E026091080270910902A0910B02E5
:10452000B0910C02C62FC72316E0D81799F190E07E
:10453000109711F0CF3F19F401968770F6CF189FAE
:104540009001199F300D1124F901E15FFD4F418168
:104550004713F2CF40814613EFCF42814111ECCF98
:10456000438154814A1B5B0B403A510528F78091E7
:104570000D028F70806180930D02F901EC5EFD4F9A
:1045800080818F708061808388E092E00E94B01EFD
:104590000E94C90DDF91CF911F910895A1E1B0E074
:1045A000E4EDF2E20C94D5338C0185E0F801DE01F4
:1045B0001D9601900D928A95E1F7F801E28088E05E
:1045C000A82E82E0B82E60910B0270910C0261154A
:1045D000710509F426C19091080240910902892FC2
:1045E00084238F3F09F41DC120813181C380D48091
:1045F000F0900A02F601E61BF70BFF2009F4DCC07D
:1046000080910D02582F507FE03AF10508F09FC0CD
:1046100051116BC0FE2C431314C0921312C0E11051
:1046200010C08F70806180930D02C5010E94B01E82
:1046300080910D02F80185838F2D6196EAE00C943C
:10464000F133C114D10429F0822F83238F3F09F065
:1046500011C180E0F82FF170DF2E80FF3CC0809107
:104660003F0240910E0256E0841315C02D873E870D
:104670008D859E850E943919292F22952F70223011
:10468000F0F0243018F59F70F1F0F8019581907FDB
:10469000D1F4D12C1EC090E0589FF001599FF00D2D
:1046A0001124E15FFD4F6181361306C0608126133E
:1046B00003C06281E6120FC001968770D5CF9F704C
:1046C00011F0882331F3805E883018F3C8010E940E
:1046D000B01EFD2CB1CFEE2009F4AECF80910D02BB
:1046E000816080930D02F12CA7CF431306C0921373
:1046F00004C0F801EE2009F479C0C8010E944619EF
:10470000882309F1EE20F9F080910D02803270F0DB
:10471000209108023091090238872F831986DB86A1
:10472000CA868C87CE0107960E94B01E86E0F801EB
:10473000A8E0B2E001900D928A95E1F70E947922FB
:10474000FF24F39479CFC8010E94B01EF9CF511114
:104750000AC088E092E00E94B01E86E0F501119246
:104760008A95E9F7C0CF43130FC092130DC0E11033
:104770000BC0F8018583C8010E94B01E86E0F501D8
:1047800011928A95E9F758CFC8010E9446198823EB
:10479000D1F2EE20C1F280910D02803238F22091E8
:1047A0000802309109023A8329831B82DD82CC8280
:1047B0008E83CE010196B8CFE03AF105F8F6FE2CD3
:1047C000EE2009F243131FC092131DC080910D0209
:1047D00080FD10C0982F907F69F0F8018583903F8D
:1047E00031F0982F907F905F8F70892B8583C8015F
:1047F0000E94B01E86E0F801A8E0B2E001900D92A0
:104800008A95E1F719CFC8010E94461981118ECF10
:1048100080910D02816080930D02C8010E94B01E3C
:104820000BCFEE2009F48FCFC8010E944619F82E55
:10483000882309F488CF86E0F801A8E0B2E001906F
:104840000D928A95E1F780910802909109020E94E9
:10485000391992959F70963051F4863F41F08091BE
:10486000070291E0892780930702909306020E9435
:104870007922E2CE81E08E25EDCEA7E1B0E0E3E43F
:10488000F4E20C94DC336D8B7E8B8F8B6111109274
:1048900048028E899F89892BB9F15F3F09F0B5C025
:1048A0004F3F91F5542F30C0463070F5E42FF0E0C3
:1048B00086E0589FE00DF11D1124CF0187709927E4
:1048C00021E030E001C0220F8A95EAF7DF0173E0B2
:1048D000B695A7957A95E1F7AD51BE4F7C91809141
:1048E0000702611102C0872F82238823A1F1CF0123
:1048F000880F991FFC01ED5BFE4F5491FC01EE5BAC
:10490000FE4F4491272B2C931A8A198A4B8B5C8B70
:1049100085E0FE017396DE011D9601900D928A9549
:10492000E1F786E0FE013D96DE01179601900D92BB
:104930008A95E1F7CE0107960E94CE22882389F05E
:1049400016E080913F0290910E0289134BC067964A
:10495000E3E00C94F83320952723D5CF809582236C
:104960007CC086E0FE013796DE01119601900D9223
:104970008A95E1F78A859B85892B11F38F8198852C
:1049800089238F3FE9F220910E0230E0C9010196A0
:104990008770992740913F024817190681F41092B9
:1049A000E9030E94B70F10920E0210923F0286E0B8
:1049B000E8E0F2E0DF011D928A95E9F7C1CF96E0C9
:1049C000929FD001939FB00D1124A15FBD4FFE01B6
:1049D000319601900D929A95E1F780930E020E9414
:1049E000C90DAECF819FC0011124815F9D4F0E94F0
:1049F000CE22882309F4ABCF80913F0290E001964C
:104A00008770992780933F029CCF5A3008F44CCF8F
:104A100084E0850F823008F077CFE42FF0E0242F78
:104A2000277081E090E001C0880F2A95EAF7DF0146
:104A300093E0B695A7959A95E1F7AE51BE4F2C91AC
:104A400030910702611102C0322F3823332309F459
:104A500085CFE05CFE4F4491822B8C9355CFAAE02A
:104A6000B0E0E5E3F5E20C94DB33182F062F662364
:104A700099F10E94191E1E832DEF2F8321E02887B4
:104A800081609A8789874E815F81688579858A856B
:104A90000E943D248FE39FE10197F1F700C00000E1
:104AA0000023F9F00E94191E19832DEF2A831B821F
:104AB00081609D838C8349815A816B817C818D814A
:104AC0000E943D248FE39FE10197F1F700C00000B1
:104AD0002A96E4E00C94F7330E94191E1E832CEFF3
:104AE000CCCF0E94191E19832CEFE0CFA1E0B0E0DB
:104AF000ECE7F5E20C94D633EE24E394F12C09E6CE
:104B000012E09E012F5F3F4F4EE552E063E082E0EE
:104B10000E94EC1BC82E882339F100E080E01DC004
:104B2000D0909802D00E2D2D30E0A90145555D4F53
:104B30007A01E1E0F0E0EC0FFD1FE00FF11D1081C4
:104B4000FA019081191BB12E1B149CF0912F17FDB7
:104B500090E0191B111118C00F5F9091970209176F
:104B6000F8F281110E94C60D8C2D2196E9E00C947B
:104B7000F233BA94F70180818F5F808360E08D2DDE
:104B80000E942F258C2DE0CF1F5FF701808181507F
:104B9000808361E08D2D0E942F258C2DDBCFA5E039
:104BA000B0E0E5EDF5E20C94DB338C019093D1039A
:104BB0008093D003011580E21807C0F4802F0E9473
:104BC000B612C8010E94710E9801205E310928308A
:104BD000310518F00115110531F40E94A112259636
:104BE000E4E00C94F7330E948C12F9CF80EF8983B4
:104BF0008A831B820E94191E8160782F9D838C837B
:104C000049815A816B818D810E943D24E8CFA5E0C6
:104C1000B0E0EDE0F6E20C94DB338C019093D1032D
:104C20008093D003011580E21807C0F4C8010E94E8
:104C3000710E9801205E31092830310518F00115F8
:104C4000110549F40E94AC12802F0E94F1122596A2
:104C5000E4E00C94F7330E949712F6CF80EF89833B
:104C60008A8381E08B830E94191E8160782F9D8347
:104C70008C8349815A816B818D810E943D24E7CFCD
:104C8000AFE0B0E0E6E4F6E20C94D2338E010F5FC1
:104C90001F4F8AE0D8011D928A95E9F786E9C82E50
:104CA00081E0D82EF12CE12CAA24A394B12C21EA86
:104CB000822E21E0922EF60181916F018F3F09F43F
:104CC00042C0F894E82FE295EF70F0E021A18F70D8
:104CD000A50102C0440F551F8A95E2F7CA01922F21
:104CE000982B91A392A18095892382A3789400C0E8
:104CF000EBE9F1E0712C31E021912F3F09F46BC019
:104D0000A22FA295AF70B0E090968C9190E02F709A
:104D100002C0959587952A95E2F780FD5CC0832FA8
:104D2000782A330F8E169F0639F7F6013197808166
:104D30008F3F11F00E94F30B50EA5A95F1F7F801FA
:104D4000EE0DFF1D70828FEFE81AF80A95E0E91664
:104D5000F10409F0B0CF4AE050E0B80188E892E0F1
:104D60000E944734009741F02AE0F801A8E8B2E039
:104D700001900D922A95E1F700919302892B69F138
:104D800081E080934C020E94191E90934B02809305
:104D90004A0280914A0290914B020E940A1E059796
:104DA00000F110E006521D4F45E050E068E872E067
:104DB000C8010E944734D12C892B51F085E0E8E8E6
:104DC000F2E0D80101900D928A95E1F7DD24D394A9
:104DD00010924C0207C080E0A3CF80914C02811159
:104DE000D8CFD12C0E945F16C82EE0919302DE012D
:104DF0001B967D01882309F484C085E01D928A9565
:104E0000E9F70E2F10E006521D4F809183028A3081
:104E100008F044C041E95CE1B701C8010E942C16CA
:104E2000882309F45DC046E755E2B701C8010E9436
:104E30002C16882309F454C048EE5AE1B701C80182
:104E40000E942C16882309F44BC04EEB5BE1B7019E
:104E5000C8010E942C16882309F442C04FE95BE187
:104E6000B701C8010E942C168823D1F11092830249
:104E70008091920290E045E050E0B70186529D4F4C
:104E80000E94473421E020935302892BE1F4C12C86
:104E90008C2D8D292F96EDE00C94EE3380914D02F0
:104EA00090914E020E940A1E843F914008F0B2CFBA
:104EB00080915302882359F385E0F70111928A9576
:104EC000E9F710925302A0919202B0E0A652BD4FB2
:104ED00085E0FE013B9601900D928A95E1F7D8CFCF
:104EE000809183028F3F31F08F5F809383028A30FD
:104EF00008F4BECF0E94191E90934E0280934D027B
:104F0000D7CFF0E0E652FD4F85E0A3E6B2E0019096
:104F10000D928A95E1F765E070E083E692E00E94E9
:104F2000220B809362024091B00250E06091AF0288
:104F300070E065557D4FC7010E9454348B85809386
:104F4000690261E070E0C7010E94220B8093680251
:104F500080906A0290906B02A0906C02B0906D02FB
:104F600080914F0290915002A0915102B091520253
:104F700088169906AA06BB06D1F080924F0290923D
:104F80005002A0925102B09252020E945F1681110B
:104F90000EC00E94930A861A970AA80AB90A80923C
:104FA000840290928502A0928602B092870280913C
:104FB0007502882379F180FF0DC080916E0280FF19
:104FC00030C09091CB0391609093CB0360E08695C5
:104FD0000E944B1E8091750281FF09C020E0409124
:104FE00071026091700280916F020E949C19809101
:104FF000750282FF06C0809174028823A9F00E9486
:10500000301E8091750283FF03C081E08093E70228
:105010001092750280917602882349F00E942B1429
:1050200037CF0E941416D6CF0E943E0BEACF0E94C3
:1050300010142ECF1F921FB61F9211248F939F938F
:10504000AF93BF938091E003811113C08091E1037E
:105050009091E203A091E303B091E4034196A11D76
:10506000B11D8093E1039093E203A093E303B09317
:10507000E403BF91AF919F918F911F901FBE1F902E
:105080001895CDB7DEB7E5970FB6F894DEBF0FBE23
:10509000CDBF85B7806885BF85B7806885BF84B779
:1050A000877F84BF0FB6F894A895809160008861CF
:1050B00080936000109260000FBE80E890E00FB611
:1050C000F89480936100909361000FBE81EF9BE0A4
:1050D0009093D9018093D8010E9409090E94D409B4
:1050E0008091E20084608093E20078948091F603DE
:1050F0008823A1F01091E9001F709091EC00892F96
:10510000817090FD80E8182B1092E9008091E800F2
:1051100083FD0E94C10F1F701093E90082E084BDDF
:1051200093E095BD9AEF97BD80936E001092840234
:105130001092850210928602109287020E947019C6
:10514000811102C00E9468180E945F168093390185
:1051500080913901882309F482C01092500184E2C1
:10516000809351010E945F1681110E9457328091F5
:1051700039018091390195E0811190E0909393027B
:1051800085E0891B8093920206E911E0D8018D9198
:105190008D018F3F11F00E94F30BB1E00B391B071B
:1051A000A9F70BE911E051EAE52E51E0F52EF801DF
:1051B00081918F018F3F11F00E94F30BE016F106F1
:1051C000B1F78AE0EAEDF2E0DF01282F1D922A957F
:1051D000E9F7E8E8F2E0DF011D928A95E9F70E941D
:1051E000BD1C811102C00E947D1A82E090E00E94E5
:1051F000F63680939D0284E090E00E94F636182FE8
:1052000082E290E00E94F636982F812F90939502CB
:10521000809394020E944026EFE3FCE93197F1F776
:1052200000C000000E9440268091DA0280FF1BC06F
:105230006FEF7FEF90E080E00E94283787E797E7E5
:10524000909301088093000888E19AE00FB6F894E3
:10525000A895809360000FBE90936000FFCF84E21A
:10526000809350017DCF83E090E00E94F6360E944B
:10527000B20F8091D9038823B9F0198281E88A831B
:105280001FEF1B83809138018F3F71F024E630E0DF
:1052900043E050E0BE016F5F7F4F88E70E94B1316D
:1052A000892B11F41093380183E08093D30280E2BC
:1052B000809301040E9411316DE070E08DEC91E06B
:1052C0000E94E613892BE9F58091D30263E070E038
:1052D00081FDCAC08AEC91E00E94E613892B89F512
:1052E0006DE070E08AEB91E00E94E613892B49F5AE
:1052F0000E94930A6058774C8E4F9F4F6093D4035F
:105300007093D5038093D6039093D703E4E0F4E041
:1053100080E092E0DF019C011D9221503040E1F7D6
:10532000F0930B06E0930A068FEF9FEF9093030430
:105330008093020481E08093D9038093D803109274
:10534000D40280919602811138C00E94BD1C811147
:1053500004C00E947D1A0E94641A88E090E00E94B6
:10536000FE366093CB037093CC038093CD03909370
:10537000CE038091EC0283608093EC026E7F71F427
:105380000E94641A88E090E00E94FE366093CB038E
:105390007093CC038093CD039093CE030E94450B72
:1053A0000E943E0B8091CB0380FF04C060E0869595
:1053B0000E944B1E81E0809396029091390181E01A
:1053C00098279093AF02382F391B30939802909111
:1053D00039018093B00290913901809397028091B6
:1053E0003901811106C084EF8093470185EF8093D6
:1053F000460120914701E22FE295EF70F0E061A1B4
:105400002F7081E090E0AC0101C0440F2A95EAF7CB
:10541000342F3095362331A322A1242B22A32091AF
:105420004601E22FE295EF70F0E031A12F7001C04C
:10543000880F2A95EAF7982F9095932391A392A12C
:10544000892B82A3EFE8F1E03197F1F700C000006B
:105450001091B00261EB72E047E451E086E4E82E7F
:1054600081E0F82EFB012BC087EC91E035CFDA010B
:105470002D91AD01822F82958F7090E0DC01909686
:105480008C9190E02F7002C0959587952A95E2F750
:105490008170D7019D917D01292F22952F7030E0D9
:1054A000D90190962C9130E09F7002C035952795D8
:1054B0009A95E2F790E020FD92E0892B81938E2F60
:1054C000861B8117A0F20E945F16811102C00E9404
:1054D0005A328AE391E09093DD038093DC0380915C
:1054E000F603FF24F39400E112E1853009F49FC034
:1054F0000E9440263EE9E32E32E0F32E4AED442E90
:1055000042E0542E28EA32E0D201F70191918D91C8
:105510002E173F0709F4A8C09817C1F30E945F1621
:10552000882E2AEDC22E22E0D22E10E0D6010D9157
:105530006D01F70191907F01901629F19026B12C11
:10554000AA24A394892D8A21B1F08820A1F0BEA6B7
:105550001FA791E0802F8A2109F490E098AB0E9468
:10556000191E8160782F9AAB89AB4EA55FA568A9FB
:105570008AA90E943D24B394AA0CF6E0BF12E2CFA0
:10558000F701319700831F5F1A3081F60E94930A5A
:10559000CC24C3948AC08091F603843009F437C0C8
:1055A0000E9410140E943E0B80919A02811109C042
:1055B000F0929A028091CB038170809399020E94AD
:1055C00014160E9410141092E003E8E1F0E020E4C9
:1055D0000FB6F894A895E09360000FBE209360008A
:1055E00083B7817F846083BF83B7816083BF7894F2
:1055F000889583B78E7F83BF0FB6F894A895809166
:105600006000886180936000109260000FBE8091FE
:10561000F503882361F00E944026EAEDF2E08191D3
:105620008111DEC584EE92E08E179F07C1F780914D
:10563000F603853009F4AFCF1092E9030E94B70F4B
:105640000E94821610929A0280919902882349F052
:105650008091CB0381608093CB0360E086950E94AC
:105660004B1E0E94301E44CF981358CF0E94191E23
:105670008C0180919B0290919C0208171907A1F060
:105680008FEF89A78AA71BA60E94191E8160782F19
:105690009DA78CA749A55AA56BA58DA50E943D2461
:1056A00010939C0200939B02C12C0E945F16809174
:1056B000EB02882309F464C08091EA02E091CB03F5
:1056C000E695E81BE093E602823009F05CC0F0E06A
:1056D000E052FE4FE4910E2F10E090E0E92E96E1AB
:1056E000F92E8091E702882361F01092E7020E9470
:1056F000251E9093E5028093E4021092E902109235
:10570000E8020E94251EE091E402F091E5029C016E
:105710002E1B3F0B2F3F3F4798F52091AA022223D3
:10572000B1F01092AA022091A8023091A902821B26
:10573000930B8F3F9F4758F4205D3A483093A9025E
:105740002093A8028091EC0288608093EC02A090E4
:10575000E802B090E9020E0F1F1F1093E5020093BC
:10576000E40284EE92E0F70109958091E8029091BD
:10577000E902892B29F4AB2819F081E08093AA0271
:10578000E12CD12C99C0863059F4F0E0E352FE4F61
:10579000E4910E2F10E080EFE82E85E1F82EA1CFE6
:1057A000893061F4E695F0E0E652FE4FE4910E2F69
:1057B00010E0BCE7EB2EB5E1FB2E93CF04EF11E038
:1057C000ACE3EA2EA5E1FA2E8F3009F48ACF00ED82
:1057D00017E0FEE8EF2EFAE0FF2E83CF0E2D10E04B
:1057E000F801E95BFE4F8081E82FE295EF70F0E071
:1057F000E0A1F0E08F7002C0F595E7958A95E2F799
:10580000E170D801AA5BBE4F2C91A22FA295AF7078
:10581000B0E090968C9190E02F7002C0959587959E
:105820002A95E2F780FD9AC080E08E2BD801AF5414
:10583000BD4FEC919E2F93708917E9F1EE0FEE0F9B
:10584000E82BEC93F090AF02FE0CEF70F0E0EF5518
:10585000FE4F03551D4F8081D8019C91890F8C9379
:1058600020E0823064F0EF2DF0E0E555FD4F8081BF
:105870008F5F808360E08F2D0E942F2521E0F8014B
:1058800080818F3F64F4EF2DF0E0E555FD4F80817E
:105890008150808361E08F2D0E942F2521E0D80167
:1058A0008C91082E000C990B62E070E00E9410347D
:1058B000F8018083D22AE3948091B002E81608F4BC
:1058C0008DCFD1100E94C60D8091D903882351F14C
:1058D0008091D5029091D6020E940A1EC29708F0CC
:1058E0003FC020910204309103042115310509F0D5
:1058F000BFC08091D8038823A9F00E94930A009129
:10590000D4031091D5032091D6033091D703601BA7
:10591000710B820B930B6F3F7F4F8F4F9F4710F49C
:105920000E941014C11001C0D1100E942B140E94BB
:1059300082169091D702891721F08093D7020E9496
:10594000930A8091F603843009F465C18091CE03F7
:10595000833808F4C4CD0E94F819C1CD82E065CF28
:105960000E94191E9093D6028093D50260E080E0D9
:105970000E940B0B0E945F16882309F46EC0809171
:1059800000040E94600E813009F458C0882399F009
:10599000823009F456C0833009F456C0E4EEF1E0D9
:1059A00084918F01882359F00E94A20E0F5F1F4F30
:1059B000F8018491F7CF81EC92E00E945D136EE0D4
:1059C00080E00E940B0B60E170E089E093E00E94B0
:1059D000CB0A6DE088E00E940B0B8091CE03F3E6CA
:1059E0008F9FC001112462E870E00E9410347F9301
:1059F0006F9380E691E09F938F938E010F5F1F4F0F
:105A00001F930F930E946434F80101900020E9F77E
:105A10009F012150310979010F900F900F900F9045
:105A20000F900F900E151F0590F081E00E94220F3D
:105A30008091D903882309F45CCF53CF89E792E0A2
:105A4000BCCF81E392E0B9CF89EE91E0B6CFD80127
:105A50008D918D010E94A20EE5CF63E080E00E944F
:105A60000B0B60E071E089E193E00E94CB0AE0CF8C
:105A70008091D40261E070E081113BCF082F10E0EB
:105A80007B01082E02C0EE0CFF1C0A94E2F7A9016C
:105A90004E215F21452B09F447C09091D30290FD20
:105AA00045C08295880F807680934A01980136958B
:105AB00027953695279520934D01815E80934B0164
:105AC00010924E0124E630E047E050E068E471E0D7
:105AD00088E70E94B131892B09F00BCFA80175E04E
