:100000000C944D050C946A050C946A050C94C0334D
:100010000C946A050C946A050C946A050C946A05A4
:100020000C946A050C946A050C9480290C943C2964
:100030000C947D2A0C946A050C946A050C946A054C
:100040000C946A050C946A050C946A050C946A0574
:100050000C946A050C94592A0C946A050C946A0550
:100060000C946A050C946A050C946A050C946A0554
:100070000C946A050C946A050C946A050C946A0544
:100080000C946A050C946A050C946A050C946A0534
:100090000C946A050C946A050C946A050C946A0524
:1000A0000C946A050C946A050C946A050501090212
:1000B000A10185020901A100050919012905150001
:1000C00025019505750181029501750381010501E1
:1000D000093009311581257F950275088106093897
:1000E0001581257F950175088106050C0A380215D2
:1000F00081257F950175088106C0C005010980A191
:1001000001850319012AB700150126B7009501756D
:10011000108100C0050C0901A101850419012AA064
:1001200002150126A002950175108100C00660FF2E
:100130000961A1010962150026FF0095207508815B
:10014000020963150026FF00952075089102C0057D
:10015000010906A101050719E029E7150025019508
:1001600008750181029501750881010507190029AB
:10017000FF150026FF009506750881000508190186
:100180002905950575019102950175039101C0013D
:10019000000005010502050305040505050006012B
:1001A0000602060306040605060007010702070308
:1001B00007040705070008010802080308040805EA
:1001C00008000901090209030904090509000001E1
:1001D0000002000300040005000001010102010308
:1001E00001040105010002010202020302040205EA
:1001F00002000301030203030304030503000401D7
:100200000402040304040405041E0F0500047F3FD8
:100210001F643214643214783C1E1E140A05FD3724
:100220007A585A000004E6D6B446020021011600AE
:100230000000742FE5A3E00A1302835D003D888966
:10024000C65436C3174FE4E62B87DC61F128B5AE00
:10025000A0A33C3CF45F7424B52C3D20C7689B3AB6
:100260008E08CE16E28FDD74FFA04F08D43D201D0E
:10027000D0558F11BBB13287318A341491884A49E5
:100280002E35E0342D0C400E9A3CEB2E927835B88A
:10029000F7CA8C4EBF5A96EBEE303561920102DE02
:1002A0006F5F63AE90736CF8694671D8821DD8D3C6
:1002B000A9851A3E623E8875E85002E1A14FF773A6
:1002C000396AC0FB22EC024FEB4116788F33048C65
:1002D000EA516F2796A6D3ACAF04B67ABC2EF805C8
:1002E00043F7F37562C0A37C2A4C3D8BE09E098ED8
:1002F000DE7EA59FFB9BF4A8750EBC851A8A140EA2
:10030000D55EEE477F28FD38773C34A1367D4D37EA
:100310003C30E9B52937D953A6BB856F48A2F17B9C
:10032000D59F9896DBA906E473826C984967F3948D
:10033000BC12A6DC40C35D848F868E37FC103688E5
:10034000E6E9D7FADD6FE79B5747C636B40CCB1703
:100350006A3705C36BC3B2C78FA35F49ABF0DA81BD
:100360005CA944DC9718C7195DF6E983E189271A6F
:10037000415E2A0326C27CABC82268A344EAAF02CE
:10038000F2FBF1D0B50315CD532FF73BA6AFC30257
:100390007549D451E8C3E4A88429F440364FF2ECFF
:1003A00048C789752670D0BEACF2641986B1DACE22
:1003B0000050254E591FE462F167FE2641270F7B4E
:1003C0009B0DEE33F47E9792DCF466B5715CEB4BDB
:1003D000B064230696404A8963DFD87FA271DBD5DB
:1003E0001A4CA2F2664384CA14FC83424DF4547939
:1003F0004792A7711F316FE325CB5E8BA039A72CE5
:1004000003DF14C1E5B0E480AEA0E79753BDF968FF
:100410000F7455BEF4701E3604B689BC8F774BD965
:10042000837393CB8BC5A6A5A98425AC38E9FB15AE
:100430001EFBA7D22FA3245B312DB6C8A6C34364ED
:1004400094E0D22C624756E3BD6FE1CFF9DA350B69
:100450009BB7EC0DBE65AE37833738F550D54943B1
:1004600073EBF7BDF099ABB31782CD04DF764FA4E1
:10047000CD6BEFF8FC2EA09BEF0FC00723F1381BCC
:100480001DDC16C7D275E3C8635E49122FB7C89248
:10049000B4B006F112BAD46CA5D3305512828CBE1A
:1004A00025D8C35AD905AA25183321FC65EFEB746A
:1004B00027E2D303FE307AB728E2513FB2C8720078
:1004C0000000146F2BC574529F1C00019F059414EB
:1004D0000000648288CEB1C467FB02000000000403
:1004E000595A000101010101010101010202020248
:1004F00002020202020303030303030303040404CE
:100500000404040405050505050606060606070796
:1005100007070708080808090909090A0A0A0B0B4E
:100520000B0C0C0C0D0D0D0E0E0E0F0F0F101011ED
:100530001111121213131414151516161717181873
:1005400019191A1A1B1B1C1D1D1E1E1F20202122DB
:1005500022232424252626272829292A2B2C2D2D21
:100560002E2F30313232333435363738393A3B3C3E
:100570003D3E3F404142434445464748494A4C4D31
:100580004E4F50515354555658595A5B5D5E5F61FA
:100590006264656668696B6C6D6F7072737577788D
:1005A0007A7B7D7E8082838587888A8C8E8F9193EB
:1005B0009596989A9C9EA0A2A3A5A7A9ABADAFB112
:1005C000B3B5B7BABCBEC0C2C4C6C9CBCDCFD1D4F7
:1005D000D6D8DBDDDFE2E4E7E9EBEEF0F3F5F8FA9D
:1005E000FDFFFFAA7F55401F05101C2314090A00B8
:1005F0000102030406070815160B0C0D0E0F11124D
:100600001322241718191A1B1D1E202A43382D26C1
:10061000353F3E484746454442414033333D3C3BED
:100620003A3937363427253231302F2E2C2B2922D8
:1006300023252628292A2C2D2F3032333536383AD7
:100640003B3D3E4042434547494A4C4E505153552D
:1006500057595A5C5E6062646668696B6D6F71734E
:100660007577797B7D7F81838587898A8C8E90924F
:100670009496989A9C9E9FA1A3A5A7A8AAACAEAF5A
:10068000B1B3B4B6B8B9BBBCBEBFC1C2C3C5C6C79F
:10069000C9CACBCCCDCED0D1D2D2D3D4D5D6D7D750
:1006A000D8D9D9DADADBDBDBDCDCDCDCDCDDDDDD98
:1006B000DDDCDCDCDCDCDBDBDBDADAD9D9D8D7D794
:1006C000D6D5D4D3D2D2D1D0CECDCCCBCAC9C7C641
:1006D000C5C3C2C1BFBEBCBBB9B8B6B4B3B1AFAE7F
:1006E000ACAAA8A7A5A3A19F9E9C9A989694929025
:1006F0008E8C8A89878583817F7D7B7977757371FD
:100700006F6D6B6968666462605E5C5A59575553D9
:1007100051504E4C4A4947454342403E3D3B3A3892
:1007200036353332302F2D2C2A292826252322A98D
:1007300000AA004B004E00A900AA004B004E00A9E1
:1007400000AA004B004E00AB00AC00C95CCA5C299B
:10075000001E001F002000210022002B0014001AA0
:1007600000080015001700390004001600070009F2
:10077000000A00E1001D001B00060019000500E052
:1007800000E300E20001512C00A8003500270026FC
:10079000002500240023002A00130012000C00187A
:1007A000001C00340033000F000E000D000B002869
:1007B00000380037003600100011004D004A0003D9
:1007C00051025128004C0001003A003B003C003D22
:1007D000003E0035001E001F002000210022002BDB
:1007E000001E021F02200221022202E1002E002D23
:1007F000002E022F023002E000E300E20001512C43
:10080000000100440043004200410040003F004519
:10081000002700260025002400230031022702269D
:10082000022502240223020100310033023300308A
:10083000002F004D004A0003510251280001000121
:1008400000010001000100010001002900490046EB
:10085000006500010001002B00E200E000E1000162
:10086000003900E1007A007B007C007D000100E09F
:1008700000E300E20001512C000100010001000131
:10088000000100010001002A002702260252002474
:10089000024B002A004C004F00510050004E000156
:1008A0000001004D0001004A0001004D004A000314
:1008B0005102512800010001000100010001000166
:1008C0000001000100010001000100010001000120
:1008D0000001000100010001000100010001000110
:1008E00000010001000100E000E300E20001512CE2
:1008F00000AE00C55CC65C0100010001000100C340
:100900005CC45C0100010001000100C95CCA5C011B
:1009100000010001000100CB5CCC5C010001000182
:100920000001004D004A00035102512800C25C0042
:1009300000000000000000000000000000000000B7
:1009400000000000000000000000000000000000A7
:100950000000007E0F00D4FFFFFFC70000007800FA
:10096000000000000000002A2B280000000000000A
:100970000000000000000000000029000000002C22
:100980001E3420212224342627252E362D373827C1
:100990001E1F202122232425263333362E37381FCD
:1009A0000405060708090A0B0C0D0E0F101112138F
:1009B0001415161718191A1B1C1D2F3130232D352D
:1009C0000405060708090A0B0C0D0E0F101112136F
:1009D0001415161718191A1B1C1D2F3130354C0908
:1009E000025B00030100A0FA0904000001030101F9
:1009F00000092111010001224000070581030800C0
:100A00000109040100020300000009211101000195
:100A100022220007058203200001070503032000AE
:100A20000109040200010300000009211101000175
:100A3000228100070584032000011201000200004A
:100A4000000832FC87020700010203011C03760044
:100A5000690061006C003A006600360034006300F3
:100A6000320062003300630000000C0353006F008B
:100A700066006C00650000001C03530070006C00F1
:100A80006900740074006500640053007000610028
:100A90006300650000000403090411241FBECFEFAA
:100AA000DAE0DEBFCDBF26E0AAEEB1E001C01D92C4
:100AB000A239B207E1F711E0A0E0B1E0E2EDFDE616
:100AC00002C005900D92AA3EB107D9F70E94A42A50
:100AD0000C94C3360C940000E8EDF0E080818E7F2A
:100AE00080831092E2001092DA001092E100A0EEF2
:100AF000B0E08C9181608C9380818F77808319BC6A
:100B0000A7EDB0E08C918E7F8C9380818F7E808367
:100B10001092790608952091E4003091E50095E661
:100B2000A9012091EC00822F817020FF06C08091E6
:100B3000E80080FF06C080E008952091E80022FDD3
:100B40001AC080918706882389F0853089F08091CA
:100B5000EB0085FD0FC02091E4003091E5004217C5
:100B60005307F9F29150E1F684E0089582E0089588
:100B700083E0089581E00895EF92FF920F931F9311
:100B8000CF937C018B010E948B05C82F811117C068
:100B90008091E80085FD0BC08091E8008E778093FE
:100BA000E8000E948B05882399F3C82F08C0F7013D
:100BB00081917F018093F1000150110949F78C2F39
:100BC000CF911F910F91FF90EF900895809189062A
:100BD00087FF13C08091E80082FF06C08091E80083
:100BE0008B778093E80004C0809187068111F2CF53
:100BF0000895809187068823D9F38091E80080FFCB
:100C0000F8CF8091E8008E77ECCF982F9093E90091
:100C1000242F762F50E0891731F07091EC0020914D
:100C2000ED005091F00021FD07C09F5F973071F7F4
:100C30008093E90081E008953091EB003E7F30938E
:100C4000EB003091ED003D7F3093ED003091EB00F3
:100C500031603093EB007093EC002093ED005093E3
:100C6000F0002091EE0027FDE0CF80E00895B0E095
:100C7000A0E0EDE3F6E00C94E634C8EDD0E0888126
:100C80008F7E8883E7EDF0E080818160808384E05F
:100C900082BF81E08093790688818E7F888302EE0F
:100CA00010E0F80110821092DA0081EEC82ED12CEB
:100CB000F601108288818F77888388818068888395
:100CC00088818F7D888319BC1092870610928806D0
:100CD000109286061092850690EEE92EF12CF7010F
:100CE00080818B7F808388818160888342E060E09F
:100CF00080E00E940506F60180818E7F8083F801E6
:100D0000808181608083808188608083F701808119
:100D10008E7F8083888180618883CDB7DEB7E8E0ED
:100D20000C940235FC0180918F06909190068617F5
:100D30009707A0F06115710529F49091E8009E775E
:100D40009093E80090E06115710551F4911108C08D
:100D50008091E80082FF34C080E00895BC01F2CFAA
:100D6000809187068823C1F18530C1F18091E80028
:100D700083FD30C08091E80082FDEACF8091E800D9
:100D800080FFE1CF8091F3002091F200382F6115B0
:100D9000710519F02830310558F091E028303105FF
:100DA00009F090E02091E8002E772093E800CBCF67
:100DB00081918093F100615071092F5F3F4FE7CF20
:100DC00080918706882341F0853041F08091E800CA
:100DD00083FFBECF81E0089582E0089583E0089507
:100DE000089580917C0608959C014FB7F8948091F6
:100DF000720690917306A0917406B09175064FBF6C
:100E0000821B930B08952FB7F8946091720670912E
:100E1000730680917406909175062FBF08952FB7C1
:100E2000F8948091720690917306A0917406B09127
:100E300075062FBF089520916F0630917006281710
:100E4000390771F09093700680936F06E0916D06FC
:100E5000F0916E06309721F00084F185E02D099520
:100E6000089520916B0630916C062817390771F0B0
:100E700090936C0680936B06E0916D06F0916E0680
:100E8000309721F00680F781E02D09950895452BD4
:100E900039F0682381E06F3F09F080E081700895A8
:100EA00081E0FCCFDC016091670680916806962F97
:100EB000891301C00895292F30E0F901EE0FFF1FBB
:100EC000E15AF94F408151814A175B07A1F487E04D
:100ED0008A9FA0018B9F500D1124475E594F81E0DE
:100EE000FA0184839613E6CF2F5F3F4F2370332799
:100EF0002093670608952F5F3F4F922F9370D8CFAE
:100F00001092B5051092B405E9E1F6E085818111F2
:100F100002C014821682379686E0EF35F807B1F7E3
:100F20000895FC01680F791F8FEF91E321918227CB
:100F300028E030E087FF09C0880F89272150310958
:100F4000C9F7E617F70791F70895880FF7CFFA0169
:100F5000811101C0FB01099508950895E1EFF2E0C8
:100F60001182828184608283089580914705982F41
:100F70009E7F61F4817082608093470580914A056D
:100F8000833818F082E880934A0508958635B0F3D7
:100F900081708465F1CFAF92BF92DF92EF92FF92A2
:100FA0000F931F93CF93DF93182F062FE901433838
:100FB00008F042E8E42FF0E0EE51FB4F011110C0C1
:100FC000E4915E2F4E2F4983E8835A83DF91CF91BE
:100FD0001F910F91FF90EF90DF90BF90AF90089519
:100FE000202F30E04491D42EE42EF12C56E0159FB2
:100FF000C0011124EFEFF0E0BF010E942D35812FD9
:1010000090E0880F991F55E5569FD001579FB00D6E
:1010100011248A1B9B0B982F990F890F5F01A21A2D
:10102000B30AAE9CD001AF9CB00DBE9CB00D112494
:101030005B2F089F80011124012F11275F01A01A47
:10104000B10AAE9C8001AF9C100DBE9C100D112406
:101050005F01A81AB108A29EC001A39E900DB29E86
:10106000900D1124892F9927E81BF90BEE9DC001E3
:10107000EF9D900DFE9D900D1124E92F62307105BA
:10108000A1F050F46115710509F49DCF613071052F
:1010900081F0EB2F512F97CF6430710569F080F00C
:1010A0006630710509F48FCFF4CFE42F4B2F592F01
:1010B0008ACFE42F412F87CFEB2F542F492F83CF97
:1010C0004B2F5D2DE12F7FCF0E940F079C01909148
:1010D000E7028091E802982B21F03093E4022093FC
:1010E000E3029091E9028091EA02982B21F030937B
:1010F000E2022093E102E0916D06F0916E063097D6
:1011000049F082E08093E5020480F581E02D85EED0
:1011100092E0099508959091E702803F59F48091FB
:10112000E80287FF0DC01092E80291110BC01092E7
:10113000DF0208C0813F81F48091E80218169CF319
:10114000992381F08091E9029091EA02892B09F0BC
:1011500064C01092DE020895823F49F497FFF0CFF9
:101160001092E7028091E8028111ECCFE0CF833F3B
:1011700019F41916ACF3E4CF2091E902893F29F460
:101180001216F4F61092E902DBCF8A3F19F427FF1A
:10119000D7CFF8CF2091EA028B3F29F427FFD0CF99
:1011A0001092EA02CDCF8C3F19F41216CCF3C8CFBF
:1011B000843F31F48091E6028E7F8093E602C0CFB7
:1011C000853F21F48091E6028D7FF7CF863F21F4A1
:1011D0008091E6028B7FF1CF873F21F48091E60278
:1011E000877FEBCF883F21F48091E6028F7EE5CFA9
:1011F0008D3F31F48091E0028E7F8093E002A0CF9A
:101200008E3F21F48091E0028D7FF7CF8F3F09F070
:1012100097CF8091E0028B7FF0CF08958091E0021C
:1012200080FD16C081FD16C082FD16C08091DE02D1
:101230008823A1F0883280F428E0829FC001112425
:1012400068E270E00E944135862F672B39F00895DF
:1012500082E0089584E0089588E0089581E008958B
:101260008091E00280FD14C081FD14C082FD16C093
:101270008091DF02882381F08E3180F420E5829F07
:10128000C00111246EE170E00E944135862F08955F
:1012900084E1089588E2089588E0089580E508953E
:1012A000803F31F40E94300981958093E8020895CF
:1012B000813F19F40E943009F8CF823F31F40E9437
:1012C000300981958093E7020895833F19F40E94C5
:1012D0003009F8CF893F29F40E940E098093E90272
:1012E00008958A3F21F40E940E098195F7CF8B3F24
:1012F00031F40E940E0981958093EA0208958C3F93
:1013000019F40E940E09F8CF843F31F48091E6026F
:1013100081608093E6020895853F21F48091E60282
:101320008260F7CF863F21F48091E6028460F1CF9E
:10133000873F21F48091E6028860EBCF883F21F45B
:101340008091E6028061E5CF8D3F31F48091E0022B
:1013500081608093E00208958E3F21F48091E00245
:101360008260F7CF8F3FB9F78091E0028460F1CFC0
:1013700080E00895F894E82FE295EF70F0E031A155
:10138000282F2F7081E090E001C0880F2A95EAF79E
:10139000982F9095932391A392A1892B82A378945F
:1013A00008959091B20292FF06C0282F287128302C
:1013B000F9F4877F846093FF06C0282F28712831B5
:1013C000F1F4877E84612091B30220FF06C0382F9C
:1013D00038713830D9F4877F816021FF06C0282F0B
:1013E00028712831D1F4877E816194FD877E08952C
:1013F000282F24712430F9F68B7F8860DCCF282FCA
:101400002471243101F78B7E8861DDCF382F317153
:10141000313019F78E7F8860E0CF282F217121317C
:1014200021F78E7E8861E1CFCF93DF93EC01823884
:101430009105B1F108F040C08133910509F49DC0D8
:1014400048F58932910509F48DC08A9709F49CC04A
:10145000C11521E5D20708F0C3C0C11530E5D30797
:1014600008F02CC1C83ED10508F0A3C0C03ED1058C
:1014700088F5C83AD10508F08EC0C53AD10508F004
:1014800015C1C130D10531F1209721F1C430D1050A
:1014900008F545C08533910509F45FC0C997C1F6C9
:1014A0008091B202837009F037C18091B30283FF4B
:1014B00011C0C9E2D0E00EC0833E910599F170F4ED
:1014C000803E910501F1823E910511F68091B202B4
:1014D00082FD21C0CE01DF91CF910895863E910516
:1014E00061F1873E910571F1843E910509F0B0CF1D
:1014F0008091B30281FFEECF8091B202C7EED0E0BF
:1015000084FD0DC0E7CF8091B20280FD33C0909181
:10151000B30290FFDFCFC3EED0E084FFDBCFD0E09B
:10152000C0E0D8CF8091B20282FDF3C09091B302A7
:1015300090FDF2C084FFCECFF2CF8091B20283FD46
:10154000DDCFC8CF8091B20283FDE9C09091B30294
:1015500091FFF0CFC4EED0E0BDCF8091B20285FF05
:10156000B9CFA7CF8091B20285FDDCC08091B302D4
:1015700083FFB0CFC9E3D0E0ADCF8091B20286FF48
:10158000A9CFCAE2D0E0A6CF8091B20286FFA2CF57
:10159000C1E3D0E09FCFCF3BD10508F6C85AD0E0D9
:1015A000CC0FDD1FCB59DE4F0990D881C02DD464FC
:1015B00091CFC11540E2D40758F4C11581E0D80796
:1015C00008F088CFC03FD10508F4A9CFD06582CFFD
:1015D000C11520E4D20708F4A2CFDF70D06A7ACF19
:1015E000C11537E5D307D8F5C11546E5D40708F08E
:1015F0008DC0C11583E5D807C8F4C11522E5D2070F
:1016000008F471C0CE018370992721E030E002C058
:10161000220F331F8A95E2F7C695C69580E2C89FD0
:10162000E0011124C22BD32BDC6854CFC11534E563
:10163000D30708F074CFCE018370992721E030E002
:1016400002C0220F331F8A95E2F7C695C69540E285
:10165000C49FE0011124C22BD32BDA683BCFC11504
:101660004AE5D40778F4C11589E5D80708F040C0E9
:10167000C11528E5D20708F452CFDC2FCC27C06F64
:10168000D06A28CFCE0190568115904208F047CFFE
:101690008D2F8F710E94D10990E0982F882788277D
:1016A0009F719C012C2BE901D06214CFC55AD0E068
:1016B000CE59DE4FC881D0E0D0640CCF2C2F2695B8
:1016C0002695237040E2249F900111248C2F837073
:1016D000C1E0D0E002C0CC0FDD1F8A95E2F7C22B3B
:1016E000D32BDD68F7CEDC2FCC27C16FD06AF2CECA
:1016F0008C2F8F700E94D10934E0D695C7953A950A
:10170000E1F7CF709C2FEC01D069E4CEDD27D066E5
:10171000E1CEC2EED0E0DECEC0EED0E0DBCEC6EE53
:10172000D0E0D8CEC5E3D0E0D5CE0E94030708951F
:101730008091630290912202981301C008958F5FF7
:101740008770FACFA82FA77023E0969587952A95E2
:10175000E1F7FC01EE0FFF1FE80FF91FE60FF71F7F
:1017600050E040E080E0219130E00A2E02C0369542
:1017700027950A94E2F721703327042E01C0220F27
:101780000A94EAF7822B4F5F5F4F4330510559F7B8
:101790000895903FC9F09A3080F48630A8F4282F3D
:1017A00030E060E072E0A901E6E09E9F400D511D2F
:1017B0001124CA010E94A20B08959C5F923020F46C
:1017C0006DEF71E090E0F6CF80E00895262F27704E
:1017D00091E001C0990F2A95EAF723E07695679585
:1017E0002A95E1F7FB01EE0FFF1FE60FF71FE40F4D
:1017F000F51F50E040E0682F70E08191DF01119704
:101800009B01042E02C0369527950A94E2F72170B9
:1018100021952827292328272C934F5F5F4F43309A
:10182000510559F70895282F862F903F79F09A3067
:1018300070F4263058F4622F70E026E0929F600D1D
:10184000711D112440E052E00E94E60B08959C5F58
:101850009230E0F7622F70E04DEF51E0F5CF9C0140
:101860003A9521153F4150F5FC01EE27F170BC017E
:1018700066277270AC01442754709C01222738708F
:1018800094FF0EC080E1EF2B09F480E0672B09F094
:101890008062452B09F08064232B89F080680895CD
:1018A00081E0EF2B09F480E0672B09F08260452B83
:1018B00009F08460232B19F08860089580E0089572
:1018C00080937606709378066093770680918706FA
:1018D0008430F9F48093E9008FEF9091E800815013
:1018E00095FD06C095ED9A95F1F700008111F5CFB1
:1018F0008091E80085FF0DC050E040E063E070E0BB
:1019000086E796E00E94BC058091E8008E77809380
:10191000E8000895BC0184E00E94600C0895BC01B9
:1019200083E00E94600C08959C0184E08093E900AC
:101930009FEF8091E800915085FD06C085ED8A9566
:10194000F1F700009111F5CF8091E80085FF0CC000
:1019500050E040E066E070E0C9010E94BC05809163
:10196000E8008E778093E8000895CF93DF93EC0131
:1019700081E08093E9008FEF9091E800815095FD20
:1019800006C095ED9A95F1F700008111F5CF809191
:10199000E80085FF14C050E040E068E070E0CE0150
:1019A0000E94BC058091E8008E778093E80088E073
:1019B000FE01ADE7B6E001900D928A95E1F7DF9167
:1019C000CF910895CF92DF92EF920F931F93CF9311
:1019D000DF93CDB7DEB7CE5DD1090FB6F894DEBF89
:1019E0000FBECDBF609152018091470580FF4CC072
:1019F000E7EEF5E09E012F5F3F4F8E0101521F4F32
:101A0000C901A4914A2F50E0DA01AA0FBB1FA40F0D
:101A1000B51FA950BD4FCD90DD90EC90D901CD926E
:101A2000DD92ED929D013196A017B10751F72091FB
:101A3000510143E0249F800D911D1124539A2BB135
:101A4000277F3BB138605FB7F894FC01649FE00DDD
:101A5000F11D1124BF018617970749F55FBFEFE518
:101A6000F4E03197F1F700C00000C252DF4F0FB62B
:101A7000F894DEBF0FBECDBFDF91CF911F910F91C4
:101A8000EF90DF90CF900895809153019091540191
:101A900023E0829FF0011124E950FD4F891708F0DF
:101AA000A7CF1182108212828F5F3396F7CFDC01AD
:101AB0004D91CD01E8E03BB9000000C047FF2BB9D4
:101AC000440F000000C000C000C02BB900C0EA9560
:101AD00091F7C1CF0F931F93CF93DF93EC0110E0E9
:101AE00000E0909155019017110609F06CF40E94E6
:101AF000E20C8C8190E00196817099278C83DF91B4
:101B0000CF911F910F91089520915301A801420F89
:101B1000511D9A01220F331F240F351F29503D4FAD
:101B20004C81609149058091480596959017110662
:101B300051F04CF0442349F040914A050E94CB07F4
:101B40000F5F1F4FCECF4423B9F340E0F7CFB0E093
:101B5000A0E0EDEAFDE00C94E234EC014C81042FAE
:101B600010E09801D8010E94B4369B01AC010E949C
:101B70007F364B015C01E0E2F0E0E01BF10BA5E5F4
:101B8000B0E0AC019B010E947F366B017C019F019C
:101B9000DF010E9462359B01AC010E948A369B01E5
:101BA000AC01280D391D4A1D5B1DC701B6010E94FD
:101BB0009236F22E822F90E039E23F1520F143E079
:101BC000249F9001112435952795122F109500E040
:101BD00085E5E82EEF1880915501081718F10E944D
:101BE000E20C9C8181E0992319F0903219F48FEF77
:101BF0008093500180915001890F8C83CDB7DEB75F
:101C0000ECE00C94FE3425E530E0B901681B790B5B
:101C10009B01220F331F260F371F37FFD4CF2F5FB3
:101C20003F4FD1CF8E2D01FD8F2D20915301622F7B
:101C3000600F7727771F9B01220F331F260F371F57
:101C400029503D4F412F609149050E94CB070F5FFE
:101C5000C2CFEF92FF920F931F93CF93DF93EC01CC
:101C60008C81811109C081E08C831092F50292E091
:101C700090934F0180934E018091530190915401B4
:101C800023E0829FF0011124E950FD4F891758F19C
:101C900010E003E060915501161758F10E94E20C24
:101CA00080914E012091F502280F2093F50290912A
:101CB0004F01980F90934F01191654F4022E000C07
:101CC000330B409155014150550B2417350734F023
:101CD000819580934E01813009F41C82CDB7DEB727
:101CE000E6E00C9404351182108212828F5F3396E5
:101CF000CDCFE12EF12C70E0C7010E94413520913B
:101D00005301820F482F50E02091F502022E000C63
:101D1000330BE216F306BCF020914F01022E000CAB
:101D2000330B2E153F057CF0809F90011124295024
:101D30003D4F40914A0560914905809148050E94B8
:101D4000CB071F5FA7CFFA01EE0FFF1FE40FF51FB0
:101D5000E950FD4F118210821282F3CFB0E0A0E073
:101D6000E4EBFEE00C94E234EC018A81BB24BA94EB
:101D700080FD02C0BB24B394A09055018C818111D9
:101D800009C081E0B81220C08FEF8A0D8093F40261
:101D900081E08C83F12CE12C4AE4942EEA14B8F013
:101DA0000E94E20C8091F40291E0B91257C08111B7
:101DB00050C08091550181508093F4021C82CDB7B0
:101DC000DEB7ECE00C94FE341092F402E1CF009107
:101DD00053010E0D1F2D111DC801880F991F080FEB
:101DE000191F09501D4FF80111821082128234E030
:101DF000C32ED12C812C8091F402880D8B342CF1D0
:101E0000692D0E941F35892F082E000C990B8E1505
:101E10009F0591F480914A058C9DA0018D9D500DE8
:101E20001124559547955595479598016091490519
:101E3000809148050E94CB078B0CF1E0CF1AD108A6
:101E4000D1F68FEFE81AF80AA9CF87FFDDCF8A0D08
:101E5000DBCF81508093F402BC82B1CF90E0019639
:101E60006091550170E00E9441358093F4028C83AB
:101E7000A6CFEF92FF921F93CF93DF93EC0110E078
:101E8000EE24EA94F12C60915501161770F00E942F
:101E9000E20C9A818C8190FF27C08F5F8C83DF9149
:101EA000CF911F91FF90EF90089520915301422F01
:101EB000410F5527551FCA019A01220F331F280FC2
:101EC000391F29503D4F70E0C7010E944135962FC0
:101ED0008C8140914A0560914905199F800D11241C
:101EE0000E94CB071F5FCFCF8150D8CF909147057D
:101EF00090FF0EC0909153012091540133E0939FC5
:101F0000F0011124E950FD4F921718F00E94E20CE5
:101F100008958183608342839F5F3396F5CFA3E06A
:101F2000B0E0E5E9FFE00C94EA348C018091F60220
:101F300081110AC09E012F5F3F4F42E86FEF0E9460
:101F4000CB078A818093F602F8016481613069F0E1
:101F50008091F60240E0662361F040E0623011F4C7
:101F60004091F60280E060E004C06091F60240E03B
:101F700080E00E94760FF801848190E0019663E092
:101F800070E00E94413584832396E4E00C9406358A
:101F9000A3E0B0E0EEECFFE00C94EC349091470548
:101FA00090FF0AC09E012F5F3F4F0E94CB074B81DD
:101FB00069818A810E94760F2396E2E00C940835AD
:101FC000CF93DF93EC01E7E4F5E0438162818C81FC
:101FD0000E94C80F8C818F5F8C83DF91CF91089511
:101FE000CF93DF93EC01EC81F0E0E15DF94F449198
:101FF000E7E4F5E0628181810E94C80F8C818F5FE8
:102000008C83DF91CF910895E7E4F5E080818E7FA6
:1020100080830E94AE07E1EFF2E0828181608283DB
:102020002FEF80E792E0215080409040E1F700C020
:1020300000000E94E20C0895B0E0A0E0E2E2F0E1CE
:102040000C94E4347C015B016A018091A10201E0FF
:1020500010E08A3010F40AE010E0C1E0D0E0B501F1
:10206000C701F6010995811104C021960C171D07BF
:102070002CF4CDB7DEB7EAE00C940035CC9F90018C
:10208000CD9F300D300D112490E080E045E34A955E
:10209000F1F70000019682179307C1F7E0CF809116
:1020A0007702811110C08091D80080618093D800A0
:1020B0008AE18A95F1F700C08091D90080FF0AC0BB
:1020C00081E08093770281E090917702913009F06E
:1020D00080E0089582E0809377020E946C05109260
:1020E0008706F1CF0E944F10882359F0E0916D06CA
:1020F000F0916E06309729F00190F081E02D09955E
:10210000089580E008950F931F930E944F10882335
:1021100029F00E9403071F910F9108950E94030761
:102120000091A2021091A3022091A4023091A50275
:10213000600F711F821F931FEECF0E944F108823E4
:1021400019F00E940F0708950E948310CB01089593
:10215000CF93DF93CBE8D2E060E0CE010E9424363B
:102160002196C11584E0D807B9F7DF91CF91089582
:102170000F931F93CF93DF93142F022F843020F5FA
:10218000623010F598E0899FE001112484E0689F97
:10219000B0011124C60FD71FC95FDD4F82E090E068
:1021A000442311F090E080E0632F8C0F9D1F0E946C
:1021B000243683E090E0112311F081E090E0602F5D
:1021C0008C0F9D1F0E942436DF91CF911F910F919C
:1021D00008951F93CF93DF93122F8430E0F46A3079
:1021E000D0F44630C0F4C42FD0E0CC0FDD1F9CE00B
:1021F000699FC00DD11D112498E7899FC00DD11D85
:102200001124632FCE0187960E942436612FCE01C0
:1022100088960E942436DF91CF911F910895CF9325
:10222000C82F6FEF81116EE483E290E00E942436A4
:102230006FEFC1116DED84E290E00E9424366FEFE4
:10224000C11166EB85E290E00E942436CF9108959B
:10225000AAE0B0E0EEE2F1E10C94DF3480905601A8
:102260009090570181E090E0909357018093560140
:102270008FE2A82E87E0B82E9FE4C92E97E0D92ED2
:1022800010E0760100E015C0F30125913491452D51
:10229000602F812F0E94E91082E0680E711C539418
:1022A00096E05912F1CFECE0EE0EF11C0F5F0A3010
:1022B00019F03701512CE8CF750100E0F7012591A5
:1022C000349141E0602F812F0E94B810F7013296BF
:1022D0002591349140E0602F812F0E94B810F4E0E6
:1022E000EF0EF11C013039F588E0A80EB11C1F5F1C
:1022F00098E7C90ED11C143009F0C3CFFE01319606
:102300007F018AE011928A95E9F707E212E04AE03C
:1023100050E0B801C7010E944836065F1F4F0B38D6
:10232000F2E01F07A1F790925701809256012A967A
:10233000EFE00C94FB3401E0C1CF80E00E940F116C
:1023400060E086E290E00E9424360E9428110E94FC
:10235000A81081E00E940F110895FF920F931F9320
:10236000CF93DF93F42E843070F5623060F528E06F
:10237000829F8001112434E0639FB0011124060F75
:10238000171F095F1D4F82E090E0442311F090E099
:1023900080E0800F911F0E941036C82FD0E0DC2F04
:1023A000CC2783E090E0FF2011F081E090E0800FE7
:1023B000911F0E9410369E01282BC901CDB7DEB7B0
:1023C000E5E00C94053590E080E0F8CF0F931F9383
:1023D000CF93DF93843030F56A3020F5463010F526
:1023E000C42FD0E0CC0FDD1F2CE0629FC00DD11DAB
:1023F000112438E7839FC00DD11D1124CE0187968B
:102400000E941036082F10E0102F0027CE0188966A
:102410000E9410369801282BC901DF91CF911F919E
:102420000F91089590E080E0F8CF2091B2053091AF
:10243000B305232BC9F4703F39F4603FA9F48091B0
:10244000B0059091B1050895843070F47A3038F475
:10245000663050F4462F672F0E94E61108957D3FA5
:1024600031F441E0623040F090E080E008957C3F3C
:10247000D9F76230C8F740E00E94AD110895CF92BD
:10248000DF92FF920F931F93CF93DF936C01009124
:10249000910680916C02082BC7E0D0E010E0FC2E82
:1024A000C8010C2E02C0959587950A94E2F780FD2D
:1024B0000CC02197A0F7F12C8F2DDF91CF911F91A8
:1024C0000F91FF90DF90CF900895B6018C2F0E945E
:1024D00015120E94140A019761F3EECFCF93DF9398
:1024E000EC010E943F12BE010E9415120E94140AC4
:1024F000DF91CF9108950F931F93CF938C01FC012F
:1025000043815481618180810E944707C82F8111D6
:102510002AC0F80186819781009791F00E94140AE1
:1025200092959F709630D1F080F4925F9F709230B8
:1025300080F4803F19F058F4883E58F4C1E009C097
:10254000808191810E946E12EBCF9A5FEFCF843F22
:10255000A9F38C2FCF911F910F910895883E70F3AE
:10256000813FB9F7EBCFC0E0F4CFA5E0B0E0EBEBF3
:10257000F2E10C94EB349C01FC0186819781009779
:10258000E1F485E0DE01119601900D928A95E1F764
:10259000F901228189819A81222399F0662389F0A9
:1025A0000E943F12182F682F89819A810E94130C74
:1025B00069817A81812F0E9415122596E3E00C949F
:1025C00007350E94C90B182FF3CF83E290E00E94D9
:1025D00010368E3489F484E290E00E9410368D3DEE
:1025E00059F485E290E00E94103691E0863B09F0B4
:1025F00090E0892F8170089580E0FCCFAAE0B0E0E0
:10260000E4E0F3E10C94E634ECE4F5E084E6DF0189
:102610001D928A95E9F7E9E1F6E086E4DF011D9273
:102620008A95E9F78CE4C82E85E0D82E7F0107E271
:1026300012E0F701D182C0824AE050E0B801CE0139
:1026400001960E94003688E0FE013196D601019085
:102650000D928A95E1F789859A85D70113969C9307
:102660008E931297BAE0CB0ED11CE7E0EE0EF11C70
:10267000065F1F4F0B38F2E01F07D9F62A96E8E0F5
:102680000C940235B0E0A0E0E8E4F3E10C94DE3411
:10269000FC016280448081E08483EFE2F6E0749084
:1026A000EEEAF6E0E491812C75E0972EF2E0CF2E71
:1026B000DD24D394AA24AA94B12C55245A94E71962
:1026C0000E2F10E080915501881638F00E94E20C20
:1026D000CDB7DEB7E0E10C94FA34E82CF12C82E0BF
:1026E000861568F09E9CF0019F9CF00D1124EB5222
:1026F000FC4F80914805808380914905818341107A
:1027000023C09E9CF0019F9CF00D1124EB52FC4FC6
:102710001382128220915301C701820F911D9C01E7
:10272000220F331F280F391F29503D4F9E9CF00167
:102730009F9CF00D1124EB52FC4F428161818081FE
:102740000E94CB078394BECF9E9CE0019F9CD00D3E
:102750001124CB52DC4F8B818823E9F081508B838D
:10276000859DC00111246C8170E00E942D35FB0114
:10277000FF27E15DF94F8491E82FE719E59DC0013E
:102780001124B8010E942D3580914A05689FB0013F
:1027900011247A83BFCF0E94BD3520914A0526952A
:1027A00021582C9DA0012D9D500D1124452F5527FA
:1027B000841795070CF0AECF82E0861588F40E944E
:1027C000BD35B5010E94413588830E94BD352091F9
:1027D00049052695622F70E00E944135280F298314
:1027E0009E9CF0019F9CF00D1124EB52FC4F128235
:1027F00080914A05893C58F088EC9E9CF0019F9C92
:10280000F00D1124EB52FC4F8483838383CF8431FA
:10281000A0F784E1F2CF60914705669570E04BE048
:1028200050E083E491E00E94D635892B19F481E0D1
:102830008093F2020E949D109093EC028093EB0231
:102840008091F30284608093F3020895CF92DF9227
:10285000EF92FF926B017C010E94B507B701A601C0
:1028600088E090E00E943636FF90EF90DF90CF90A6
:102870000895A3E0B0E0EFE3F4E10C94E534082F11
:10288000D62EF42EC22E9091470590FF3AC0E92F24
:10289000E695AE2FB0E0A055BE4F8C918093F1022B
:1028A0009E7F923091F59E012F5F3F4F802F0E94B7
:1028B000CB074B8169818A810E94760F8091480500
:1028C000801308C0809149058D1104C080914A058C
:1028D0008F1529F08091F30282608093F3020093B8
:1028E0004805D0924905F0924A05CC2051F06091FC
:1028F0004705709148058091490590914A050E94CD
:1029000026142396E9E00C940135823019F4F090F6
:102910004A05D4CF863019F400914805CFCF8930CD
:10292000D9F3893159F6E9516E2F6170B62EE695CB
:10293000F0E0EE51FA4F1491E12C60915501E6164A
:1029400018F00E94E20CBACFE19EC001112470E0A1
:102950000E942D35802FB11014C0860F2091530195
:10296000622F6E0D7727771F9B01220F331F260FD3
:10297000371F29503D4F4F2D6D2D0E94CB07E394FB
:10298000DCCF861BEBCFE7E4F5E0438125E0421B7B
:1029900008F440E021E0628181810E9439140895A9
:1029A000E7E4F5E0438125E0420F08F44FEF21E032
:1029B000628181810E9439140895E7E4F5E0628123
:1029C00021E1621B08F460E021E0438181810E94E3
:1029D00039140895E7E4F5E0628121E1620F08F41B
:1029E0006FEF21E0438181810E9439140895E7E46B
:1029F000F5E0818121E04381628188500E94391491
:102A00000895E7E4F5E0818121E043816281885FF8
:102A10000E943914089580914B05882319F0815044
:102A200080934B0560914705709148058091490559
:102A300090914A050E942614089580914B05833099
:102A400018F48F5F80934B0560914705709148059E
:102A50008091490590914A050E942614089590910D
:102A6000470590FF31C0917081112FC09260909303
:102A700047058091F30281608093F302662351F051
:102A800060914705709148058091490590914A05EC
:102A90000E94261460914705669570E04BE050E077
:102AA00083E491E00E94D635892BB1F00E94AE07F5
:102AB00081E08093EE0220E040914A056091490553
:102AC000809148050E94391408958B3210F0946566
:102AD000CECF880F982BCBCF0E940B14E9CF8091DB
:102AE00047058695815009F48AE261E00E942F151E
:102AF00008958091470586958F5F8B3208F081E0BD
:102B000061E00E942F1508959091470590FF08C03D
:102B10009695981728F0961718F40E94791508953D
:102B200061E00E942F150895E7E4F5E083E18083DA
:102B300011828FEF828388E783838483A1EFB2E0E1
:102B400012968C911297836012968C93608171819A
:102B5000828193810E942614089580917A06909133
:102B6000B605892B8093EC0148E050E064E672E002
:102B70008CEE91E00E94E335892BA9F088E0ECEE21
:102B8000F1E0A4E6B2E001900D928A95E1F7E091C0
:102B90006D06F0916E06309731F00280F381E02DE2
:102BA0008CEE91E00995089590E080E00E94310755
:102BB00090E080E00E941B071092B6050E94AD15C0
:102BC00086E0E5EEF2E0DF011D928A95E9F71092CA
:102BD000DF021092DE021092E0020E946408089563
:102BE000809391060E94D415089580919106982FA4
:102BF0009670963021F488600E94F0150895877FC2
:102C0000FBCF21E030E001C0220F8A95EAF7209542
:102C10008091910682230E94F015089521E030E012
:102C200001C0220F8A95EAF780919106822B0E94BB
:102C3000F015089580936C020E94D4150895EEEE6D
:102C4000F1E086E0DF011D928A95E9F70E94D41534
:102C50000895AAE2B0E0EFE2F6E10C94EB3489E8E3
:102C600096E02091F100DC012D93CD01B6E0813991
:102C70009B07B9F780918A06833009F472C0B8F4D3
:102C8000813009F449C0823009F4B5C08091E80070
:102C900083FF98C28091890690918A069A3008F045
:102CA00091C2E92FF0E0EB53F94C0C9455358A3082
:102CB00009F490C08B3009F471C0893039F78091E4
:102CC0008906813219F780918D0690918E060097C2
:102CD00011F00297D9F68091E800877F8093E80091
:102CE0008091E80082FF38C09091F3008091F2005B
:102CF000029731F48091F100813011F0863021F497
:102D00008091F10080937C068091E8008B7780931E
:102D1000E8000E94E605BACF80918906813A09F061
:102D2000B5CF8091E800877F8093E80080918D0681
:102D300090918E06892B61F468E08DE796E070E053
:102D40000E9492068091E8008B778093E8009ECFE6
:102D500060E090E080E0F3CF809187068111C0CFE2
:102D600095CF80918906813A09F090CF80918D06A8
:102D700090918E06892B09F089CF8091E800877F9A
:102D80008093E8008091E80080FFFCCF809159019A
:102D90008093F1008091E8008E77B9CF8091890609
:102DA000813209F073CF80918D0690918E06892B28
:102DB00009F06CCF8091E800877F8093E8000E9443
:102DC000E60580918B068093590110927A060E9445
:102DD0001F165CCF80918906813209F057CF809110
:102DE000E800877F8093E8000E94E60580918C06CA
:102DF00080937B064BCF80918906813A09F046CFBC
:102E00008091E800877F8093E8008091E80080FF50
:102E1000FCCF80917B06BCCF803899F0823809F0D6
:102E2000D1C180918D068F70873008F0CBC180931F
:102E3000E9008091EB0085FB882780F91092E9007A
:102E400006C08091850690918606911182609091CE
:102E5000E800977F9093E8008093F1001092F100D2
:102E60008091E8008E77AAC1882309F498C1823046
:102E700009F0A8C180918B0681119BC180918D06BC
:102E80008F702FEF280F263008F09CC18093E90047
:102E90002091EB0020FF8DC1933031F48091EB0045
:102EA00080628093EB0085C19091EB0090619093DC
:102EB000EB0021E030E001C0220F8A95EAF7209371
:102EC000EA001092EA008091EB008860EACF81115D
:102ED00079C110918B061F778091E3008078812B58
:102EE0008093E3008091E800877F8093E8000E9450
:102EF000E6058091E80080FFFCCF8091E3008068C8
:102F00008093E30082E0111183E0809387065AC129
:102F10008058823008F056C120918B0630918C0683
:102F20002C3DE3E03E07A1F583E08A838AE28983B2
:102F30004FB7F894DE01139620E03EE051E2E32F14
:102F4000F0E050935700E49120FF03C0E295EF704A
:102F50003F5FEF708E2F90E0EA30C0F0C7968D9300
:102F60009D932F5F243159F74FBF8091E800877FF1
:102F70008093E8006AE270E0CE0101960E9492061A
:102F80008091E8008B778093E8001CC1C096E7CF62
:102F900080918D0690918E06432F55274330510521
:102FA00009F44AC078F54130510509F485C08BE534
:102FB00090E0EFEDF9E04230510509F003C12091B6
:102FC000E800277F2093E80020918F06309190063B
:102FD0008217930708F49C0140E02115310509F0A0
:102FE00070C041116EC08091E80082FDC9CF809110
:102FF0008706882329F2853019F28091E80083FF43
:10300000F2CFBECF4132510509F447C042325105DB
:1030100009F0D8C08330910508F0D4C0FC01EE0F50
:10302000FF1FE252FE4F0190F081E02D85529E4F2E
:10303000DC018C9190E01DC0332721303105E9F08F
:103040002115310579F022303105F9F023303105B1
:1030500009F0B8C0ECE4FAE0E4918E2F90E0ECE4E3
:10306000FAE007C0E6E9FAE0E4918E2F90E0E6E9A5
:10307000FAE0009709F4A6C0A2CFE8E7FAE0E491ED
:103080008E2F90E0E8E7FAE0F4CFEAE6FAE0E49188
:103090008E2F90E0EAE6FAE0ECCF8330910508F05D
:1030A00091C0880F991FFC01EC51FE4F0190F081F7
:1030B000E02D89E090E083CF82E190E0EAE3FAE05E
:1030C0007ECF80918706882309F45ACF853009F492
:1030D00057CF8091E80083FD53CF8091E80082FDB7
:1030E00082CF8091E80080FF78CF9091F3008091AB
:1030F000F2002115310519F08830910550F041E0BA
:10310000089709F040E08091E8008E778093E8000E
:1031100064CF44914093F1003196215031090196DA
:10312000E8CF803809F04EC08091E800877F809317
:10313000E800809188068093F10092CE811142C010
:1031400010918B061230F0F58091E800877F809314
:10315000E800109388060E94E605112311F084E030
:1031600005C08091E30087FDFACF81E08093870658
:1031700042E061EC81E00E94050642E261EC84E0FD
:103180000E94050642E261EC82E00E94050642E2EE
:1031900060EC83E00E9405068091870613C0809151
:1031A0008B06813079F481E0933009F080E08093E0
:1031B00086061092E9008091E800877F8093E800FE
:1031C0000E94E6058091E80083FF0AC08091E80034
:1031D000877F8093E8008091EB0080628093EB0012
:1031E000AA96E3E00C940735882341F080959091EE
:1031F000B60589238093B6050E94AD1508958823EE
:1032000039F09091B605982B9093B6050E94AD15B4
:103210000895882341F0809590917A0689238093C0
:103220007A060E94AD150895882339F090917A06A8
:10323000982B90937A060E94AD150895882309F47F
:1032400041C09CEF980F913A80F4EEEEF1E024EF4C
:1032500031E09191891303C0DF0111971C922E1761
:103260003F07B9F70E94AD15089590E2980F983086
:1032700088F4877021E030E0A90102C0440F551F97
:103280008A95E2F7CA01809590917A068923809306
:103290007A06E8CF9BE5980F933028F490E080E021
:1032A0000E943107089598E5980F973128F490E02F
:1032B00080E00E941B070895803F20F00E948B0849
:1032C0000E94640808950F931F93CF93C82F8823FB
:1032D00049F18CEF8C0F813AB8F50EEE11E084EFD6
:1032E00091E0F8012191C21709F121E0E43FF207D2
:1032F000C9F7EFEF80E0D8019D918D01C91781F0EA
:10330000EF3F19F4911101C0E82F8F5F863099F7D4
:10331000EF3F31F00E2E000CFF0BE451FE4FC28345
:103320000E94AD15CF911F910F910895EEEEF1E03F
:103330002191C21303C0DF0111971C928E179F07C2
:10334000B9F70E94AD15D5CF80E28C0F883068F4B4
:10335000C77021E030E001C0220FCA95EAF78091E2
:103360007A06822B80937A06DBCFEBE5EC0FE33015
:1033700040F4F0E0EE59FE4F808190E00E9431076A
:10338000D1CFE8E5EC0FE73150F4F0E0EE0FFF1F8E
:10339000EB59FE4F808191810E941B07C3CFC03F34
:1033A00008F28C2F0E9450090E946408BBCF1F9323
:1033B000CF93DF93182FEB010E9463198FE99FE0F1
:1033C0000197F1F700C000002197C1F7812F0E94FB
:1033D0001E19DF91CF911F910895B0E0A0E0E3EFB7
:1033E000F9E10C94E334EC01A62E8AE0982E2881B2
:1033F000222309F4B3C0213009F051C08981813002
:10340000C1F48E010E5F1F4F8A816AE070E089333C
:1034100011F460E570E00E94D719E80121968A2D29
:10342000815028F3EFE9FFE03197F1F700C0000089
:10343000F7CF823039F48E010E5F1F4F8A810E94D0
:103440006319EBCF833039F48E010E5F1F4F8A81F1
:103450000E941E19E2CF843011F02196DFCF2A811D
:10346000229690E080E0AE014F5F5F4F2053330B18
:103470002A30310548F0019788F2EFE9FFE03197F3
:10348000F1F700C00000F7CF989EB001999E700D33
:103490001124C901860F971F2981EA01E4CFE22F89
:1034A000F0E0E15AF64FB490822F86958695869586
:1034B00090E0FC01E15BF64FE4902770F12C022EC6
:1034C00002C0F594E7940A94E2F731E0E322FF2486
:1034D000FC01E15CF64FC490D12C022E02C0D594C1
:1034E000C7940A94E2F7E1E0CE22DD24FC01E15D1D
:1034F000F64F049110E002C0159507952A95E2F762
:1035000001701127E114F10419F081EE0E94631992
:10351000C114D10419F086EE0E946319F9E36AE040
:1035200070E0BF1202C060E570E08B2D0E94D719D9
:10353000C114D10419F086EE0E941E19E114F104A1
:1035400019F081EE0E941E190115110509F466CFCC
:103550006AE070E08CE20E94D71960CFCDB7DEB789
:10356000EBE00C94FF3468EE7EEF90E080E00E9488
:10357000423660E082E090E00E94243660E083E022
:1035800090E00E94243610926C0260E084E090E0AB
:103590000E94243664E082E290E00E94243660E0DB
:1035A00085E090E00E94243660E086E090E00E9492
:1035B00024366FEF87E090E00E94243640E050E030
:1035C000BA0188E090E00E94363660E08DE090E03D
:1035D0000E94243640E050E0BA0188E190E00E9469
:1035E000363660E087E190E00E94243640E050E00B
:1035F000BA018CE190E00E94363670E060E080E233
:1036000090E00E94423640E050E0BA0188E190E04C
:103610000E94363680E00E940F110E949D1140E00A
:1036200050E0BA018FE090E00E94363640E050E072
:10363000BA0183E190E00E9436360895A4E0B0E03C
:10364000E4E2FBE10C94E5347C01FC01438154810C
:10365000618180810E9447078111CAC061E0C70172
:103660000E94B5128C01F7019281992309F487C356
:10367000980122513F452031310508F06FC38FEF8B
:1036800093E00E9410368111B3C002519BE8E92EED
:1036900092E0F92E011136C019821A821B821C8217
:1036A000BB24BA9487010F5F1F4FC7010E941036D9
:1036B00089831A82882309F49BC0813009F088C06D
:1036C000670142E0C40ED11CC8010E941036082FC9
:1036D0008A83882309F48CC0C6010E941036182FF3
:1036E0008FEF800F8330E8F4670153E0C50ED11CE3
:1036F0001B83112329F060E0CE0101960E94ED1991
:103700007601D0CFE114F4E0FF0609F471C0C701DF
:103710000E941036811101C001502FEFE21AF20A07
:10372000B9CF8BEF800F833068F5C70103961B83F9
:103730006C01112329F36701E4E0CE0ED11C0E9435
:1037400010368C838823E1F2EB80FC80F1E0EF16E9
:10375000FFEFFF0610F0FE2CEE24063079F0073064
:1037600049F0C7010E944E258FE39CE90197F1F7CC
:1037700000C00000C7010E941625C2CFC7010E94E9
:103780004E25BECF043009F0BBCF670194E0C90ECF
:10379000D11CC70103960E941036112349F18823DA
:1037A00039F18150990BB89E9001B99E300D1124CA
:1037B000E12FE150FF0BCF01820F931F019708F417
:1037C0009FCFEFE9FFE03197F1F700C00000F6CF9F
:1037D0006AE0CE0101960E94ED19680191CF81E067
:1037E0000E940E1603C081E00E9401160E94F5158A
:1037F0002496E9E00C94013582E0F2CF82E0F4CF28
:10380000043CECE51E0709F499C047EF54E161E080
:1038100075E1053CFCE51F0709F0D8C20E94A70727
:10382000E7CF093C2CE5120709F497C070F4073C78
:103830005CE5150709F48CC04AEE54E16DED74E1C6
:10384000083CECE51E0751F3C1C20A3CFCE51F072A
:1038500009F488C04BE055E16DE175E10B3C2CE5C6
:103860001207E1F2B3C2013D4CE5140709F48DC023
:10387000B0F40E3C8CE5180709F481C008F47CC054
:103880000F3CFCE51F0709F47DC06EE089E0003DB8
:103890002CE5120709F09AC20E948415A9CF043DB5
:1038A0004CE5140709F477C078F4023D8CE518075D
:1038B00009F46EC061E088E1033DECE51E0709F004
:1038C00085C20E942F1594CF053DFCE51F0709F422
:1038D00065C06AE285E20D351007F1F277C280918A
:1038E000470580FF20C08E7F809347056091470584
:1038F000709148058091490590914A050E942614CF
:103900000E94AE078091F30281608093F3024FEF33
:1039100050E782E0415050408040E1F700C0000095
:103920000E94E20C65CF81608093470561E0869537
:10393000C8CF4FE655E169E775E170CF49E755E13A
:103940006FE675E16BCF41E055E167EF74E166CF5B
:103950004DED54E16AEE74E161CF43EC54E160ED6A
:1039600074E15CCF40ED54E163EC74E157CF4DE17D
:1039700055E16BE075E152CF61E081E0A2CF65E0F7
:1039800082E08ACF68E086E087CF64E18FE084CF71
:1039900067E185E181CF62E289E17ECF61E083E288
:1039A00090CF00811181992369F0C8010E943F12D4
:1039B000D82E682FC8010E94130CB8018D2D0E94CB
:1039C00015120CC2C8010E94C90BD82EF6CF022FC7
:1039D0000F70207F11F00295007F3323C9F0002380
:1039E00069F080E2810F883010F011110BC08091D6
:1039F0007A06082B00937A060E94AD15812F0E944B
:103A0000631919C08091B605082B0093B605F4CF51
:103A1000812F0E941E19002371F0009580E2810F12
:103A2000883010F0111115C080917A060823009398
:103A30007A060E94AD15F8E0CF1AD10824E0C2162C
:103A4000D10410F40E94721060E0C7010E94B51208
:103A5000CFCE8091B60508230093B605EACF822F1A
:103A60008F70207F203211F08295807F113061F4B9
:103A7000332329F04330F8F60E941419DCCF42308A
:103A8000D0F60E940919D7CF332341F04423A1F384
:103A900050FFB4CF5F70F7015583EECF442389F315
:103AA000193309F0F5C0FFEF27EE43E0F150204055
:103AB0004040E1F700C00000812F0E941E19BBCFDB
:103AC000822F86958695837069F0813009F0B3CF97
:103AD000812F922F9370311102C090E080E00E94FC
:103AE0001B07A9CF812F922F9370311102C090E054
:103AF00080E00E9431079FCF812F332329F00E945D
:103B000050090E94640897CF0E948B08FACF822F39
:103B1000837089F531118FCF312F329536953770FB
:103B2000330F330F812F8F70032E01C0880F0A943B
:103B3000EAF7412F407114FF07C04FE050E001C089
:103B4000440F3A95EAF74095269526952370223042
:103B500069F050F430916C02213029F0842B8323DA
:103B60000E941A1668CF832B842BFACF482B8091A2
:103B70006C028427F5CF8695332311F0822F817054
:103B8000882309F458CF312F329536953770330F8B
:103B9000330F812F8F70032E01C0880F0A94EAF72C
:103BA000412F407114FF07C04FE050E001C0440FA7
:103BB0003A95EAF74095269526952370223069F0CC
:103BC00050F430919106213029F0842B83230E94F8
:103BD000F01531CF832B842BFACF482B809191069F
:103BE0008427F5CF022F0F70332329F0802F0E94F6
:103BF0000E16812F41CF812F0E940919802F0E941C
:103C0000011619CF113F61F148F4103FA9F0332399
:103C100099F14111F3CE822F8F7126C0123F39F1F5
:103C2000133FA9F780E0332391F22F7181E001C0A7
:103C3000880F2A95EAF7CBCF332371F0423008F092
:103C4000FACE2F7181E090E001C0880F2A95EAF743
:103C5000909191068927BBCF433008F0ECCEF1CF8D
:103C6000822F8F71332359F20E940E16E4CE822FD9
:103C70008F713323C9F3C3CF442379F0193341F44F
:103C80009FEFE7EEF3E09150E040F040E1F712CF14
:103C90008FE39CE90197F1F70DCF822F8F71AFCFA2
:103CA000123FD9F128F5103F61F1113F09F43DC0F1
:103CB00080911802442309F445C0882341F0809183
:103CC000190291E08927809319021092180231118C
:103CD00095CEEFE3FCE93197F1F700C00000812FAA
:103CE0000E941E1988E0F70111928A95E9F7A3CE88
:103CF000143FB1F080F0153FD9F631119CCE81E030
:103D000007C0332309F497CE8091190291E08927E7
:103D10008093190290CE81E03827309319028BCE20
:103D2000311189CE1092190286CE332339F0809159
:103D30001802882349F3109218027DCE423008F011
:103D40007ACEE2CF882309F476CE311174CE8091F9
:103D5000190291E0892780931902EDCF00314FE5D8
:103D6000140709F43CCD01315FE5150709F444CD92
:103D70000E3D2CE5120751F50E94B31A39CD0031E2
:103D80008FE5180709F42FCD0131EFE51E0709F47F
:103D900035CD80917A0682720C3C4CE5140709F40B
:103DA000E6CD08F060CD063CECE51E0709F4CBCD6E
:103DB00008F037CD033C2CE5120709F4BACD08F022
:103DC0001FCD023C5CE5150709F489CDF70126817A
:103DD00037812115310509F4E4CDC9010E94140A87
:103DE000182F292FF70132815581452F42954F70A9
:103DF00092959F70C92ED12C9C3008F01CCEF601F4
:103E0000E153F94C0C945535EF92FF920F931F93A9
:103E1000CF93DF9380911F02807F09F04CC0809187
:103E20001C02882309F447C0C0916302E09022027B
:103E3000D0911A02F0901B0200911D0210911E02F7
:103E4000EC16C9F1A8016F2D8D2F0E9447072C2F6A
:103E500030E0811135C0F90183E0EE0FFF1F8A9534
:103E6000E1F7DF01AD5DBD4F11968C9111978F1178
:103E700027C08C918D1324C012968C9112978111BA
:103E80001FC013968D919C91801B910B803A9105D8
:103E9000B8F480911F028F70806180931F02E85DEB
:103EA000FD4F80818F70806180838AE192E00E9463
:103EB0001E1B0E94980BCDB7DEB7E6E00C940435CC
:103EC0002F5F3F4FC22FC770BBCFA5E1B0E0EBE63D
:103ED000FFE10C94DD348C0185E0F801DE015196A0
:103EE00001900D928A95E1F7F801E2804AE1A42E53
:103EF00042E0B42E40901A0230901B0280901D02C6
:103F000090901E02A401632D842D0E944707582E15
:103F1000811151C1F80160807180C380D480F0901C
:103F20001C02960128193909FF2009F410C180915B
:103F30001F02982F907F203A310508F0C4C09111DC
:103F400076C0FE2C37101DC064101BC040912002AB
:103F500050912102268137814217530791F4E110D5
:103F600010C08F70806180931F02C5010E941E1BCC
:103F700080911F02F80185838F2D6596E1E10C94F5
:103F8000F934A601672D862D0E944707811122C0B2
:103F900081E08E25F82FF170DF2E80FF3EC08091EA
:103FA000630220912202821317C0698A7A8A898962
:103FB0009A890E946E12292F22952F70223008F1C3
:103FC000243030F59F7009F1F8019581907FE9F474
:103FD000F52CD2CF80E0DECF90E0FC0133E0EE0F95
:103FE000FF1F3A95E1F7ED5DFD4F3181371106C0B6
:103FF0003081631203C03281E3120FC001968770D3
:10400000D2CF9F7011F0882319F3805E883000F3BF
:10401000C8010E941E1B5D2CDBCFEE2009F4ACCF43
:1040200080911F02816080931F02F12CA5CF371071
:104030001AC0641018C040912002509121022681BC
:1040400037814217530779F4E1100DC08583C80109
:104050000E941E1B88E0F801AAE1B2E001900D92D7
:104060008A95E1F789CFC8010E947B12882339F134
:10407000EE2029F180911F028032A0F020911A02D7
:1040800030911B023A8729871B86DD86CC868E8776
:104090008091200290912102988B8F87CE01099602
:1040A0000E941E1B88E0F801AAE1B2E001900D9287
:1040B0008A95E1F70E94041FFF24F3945DCFC801A5
:1040C0000E941E1BF9CF91110AC08AE192E00E9462
:1040D0001E1B88E0F50111928A95E9F7A6CF3710EB
:1040E00017C0641015C04091200250912102268112
:1040F00037814217530761F4E1100AC08583C80174
:104100000E941E1B88E0F50111928A95E9F734CFD1
:10411000C8010E947B12882391F2EE2081F28091E7
:104120001F02803208F4BECF20911A0230911B0288
:104130003A8329831B82DD82CC828E838091200288
:104140009091210298878F83CE010196A9CF203AC2
:104150003105C0F6FE2CEE2009F4B1CF37101DC09A
:1041600064101BC02091200230912102868197812A
:104170002817390791F480911F0280FD6BCF982F8B
:10418000907F09F467CF8583903F09F460CF982F23
:10419000907F905F8F70892B59CFC8010E947B124E
:1041A000811180CF80911F02816080931F02C8011E
:1041B0000E941E1BE1CEEE2009F481CFC8010E94AF
:1041C0007B12F82E882309F47ACF88E0F801AAE15F
:1041D000B2E001900D928A95E1F780911A029091D8
:1041E0001B020E946E1292959F70963051F4863F8A
:1041F00041F08091190291E08927809319029093F0
:1042000018020E94041FB8CEA0E1B0E0EAE0F1E29B
:104210000C94EC3429873A874B875C876D877E87BF
:104220008F87988BCE0109960E94651F81112FC040
:1042300088E0FE013996DE01119601900D928A9573
:10424000E1F74C855D856A8589850E944707811164
:104250001EC0A0912202B0E0CD010196877099277F
:104260002091630228171906E1F093E0AA0FBB1F03
:104270009A95E1F7AD5DBD4F98E0FE013196019052
:104280000D929A95E1F7809322020E94980B8091FB
:10429000630290912202891314C06096E2E00C94AC
:1042A000083510927A060E941F1610922202109270
:1042B000630288E0EAE1F2E0DF011D928A95E9F706
:1042C000E6CFB8E08B9FC00111248D5D9D4F0E9409
:1042D000651F882311F38091630290E00196877037
:1042E000992780936302D3CFB0E0A0E0EAE7F1E240
:1042F0000C94E7348091B805882369F0C091B70524
:10430000E12C8CE0F82E8091B805C81748F0109287
:10431000B8051092B705CDB7DEB7E7E00C940335CA
:10432000DD24D394DC0ED092B7050C2F10E0CF9D86
:10433000E0011124C754DA4F4B815C816981888187
:104340000E94470781112CC08E819F81892B21F407
:1043500088859985019651F4288139814A815B814C
:104360006C817D818E819F810E940421F09EF001ED
:10437000F19EF00D1124E754FA4F1482138210922B
:10438000B605E1100DC0CE010E947B12811108C05C
:104390008FE39CE90197F1F700C00000EE24E3945D
:1043A000CD2DB1CF10926A06109269061092580175
:1043B00080916806809367060E9480070E9474219E
:1043C0000895B0E0A0E0E7EEF1E20C94DD34C09196
:1043D000670697E0892E01E010E02CE0322E3EEFD8
:1043E000932E44244394809168068C1309C00E9444
:1043F00074210E948007CDB7DEB7E1E10C94F93457
:10440000D0E0FE01EE0FFF1FE15AF94F808191814C
:10441000889ED001899EB00D1124A75EB94F1496D5
:104420002C911497211158C05090B805E9EBF5E094
:1044300030E020E0712C5D01251508F04BC0E284CE
:10444000F384D501CD90DC906FEF7FEF612C462D8A
:1044500050E0DA01AA0FBB1FAC0DBD1D0D90BC9141
:10446000A02D109731F0EA16FB0609F4BA01639407
:10447000EECF6F3F7607A9F1D80102C0AA0FBB1F8C
:104480006A95E2F77A2AB801062C02C0660F771FF8
:104490000A94E2F7AB014150510974161506F9F47C
:1044A000329EF001339EF00D1124E754FA4F889E9E
:1044B000D001899EB00D1124A75EB94F12962D919F
:1044C0003C911397378326839082918291878087CE
:1044D00015964C920E9452072196C37084CF148285
:1044E00013822F5F3F4F3C96A7CFA9E1B0E0EBE7E7
:1044F000F2E20C94DC34F62E6B8B7C8B8D8B8A0174
:1045000061111092B6054C895D89612F802F0E9440
:104510004707811134C01A3008F065C0063078F5BD
:10452000E02FF0E026E0129FE00DF11D11249F0125
:104530002770332781E090E001C0880F2A95EAF7C1
:10454000DF0173E0B695A7957A95E1F7AB50BE4FC2
:104550002C9130911902F11002C0322F38233323ED
:1045600009F463C0AF01440F551FFA01EE56FE4F28
:104570001491FA01EF56FE4F0491822B8C931D8605
:104580001E861F86188A098B1A8B85E0FE0171969C
:10459000DE01199601900D928A95E1F74C855D85B3
:1045A0006A8589850E944707811112C061E0CE01AA
:1045B00009960E94B5126C018B8537EFC3163CE556
:1045C000D306B1F5882309F449C081E080935801EE
:1045D00029853A854B855C856D857E858F85988993
:1045E0000E940421EAC084E0810F823040F6E02F6F
:1045F000F0E0202F277081E090E001C0880F2A951D
:10460000EAF7DF0133E0B695A7953A95E1F7AC50AC
:10461000BE4F2C9130911902F11002C0322F382375
:10462000332319F0E157FE4FA7CF80958223A6CF01
:1046300048EFC4164CE5D40629F4882379F00E948B
:10464000D221C6CF69EFC6166CE5D60639F48823A9
:1046500029F0809158018111F2CFB7CF09E116E01E
:10466000E12CB12CA12C88248394912C2EEF522E76
:1046700044244394F8014081518166246A94762C45
:1046800020E0822F90E0FC01EE0FFF1FE40FF51FEA
:10469000608171816115710531F0C616D70609F484
:1046A0003C012F5FEECFF12CFFEF6F167F0609F470
:1046B00046C0F8014481F09058018F2D411180E0EF
:1046C000F82FF170FF2EF801258086819B859923B4
:1046D00009F4F4C0FF2009F4F1C0211015C0A401B1
:1046E000062C01C0440F0A94EAF7842B868380913C
:1046F000B4059091B5058039914030F460E971E0DE
:104700007093B5056093B405C40102C0880F991F6A
:104710002A95E2F70197F80126812817190679F4FE
:104720008091690690916A06009709F44AC00E9438
:10473000F4068139914008F444C0F8014482EF281E
:10474000FFEFAF1ABF0A095F1F4F2AE0A216B1049C
:1047500009F090CF8B85882309F40CC1EE2009F471
:1047600009C10E940F0790936A06809369068091A1
:10477000B805883010F591E0980F9093B80598E04F
:10478000FE013996DE01119601900D929A95E1F79E
:104790003CE0839FC001112487549A4F28E0FE011A
:1047A0003196DC0101900D922A95E1F72FEF3FEF52
:1047B000FC0131872087D386C2866996E2E10C949A
:1047C000F8348091670650916806982FF0E0E0E099
:1047D000851314C0909367060E171F0709F4AFCF17
:1047E00090E0FC01EE0FFF1FE15AF94FB182A08269
:1047F00001968370992780936806A1CF282E312CCB
:10480000F101EE0FFF1FE15AF94F20813181F7E0EE
:10481000F29FD001F39FB00D1124A75EB94F2D91E7
:104820003C911197398F288F40E020E030E0E32F52
:10483000F0E0EE0FFF1F688D798DE60FF71F6080A7
:10484000718061147104E1F0F8010190F081E02DB4
:10485000FF8BEE8B20E005C06616770609F44F2D1E
:104860002F5FE22FF0E0EE0FFF1F6E897F89E60FCA
:10487000F71F608171816115710571F73F5FD7CFB7
:104880004423C9F0F801231708F0FD0144820E17F4
:104890001F0721F490936706F42E51CF891305C0AA
:1048A000AE17BF0711F49F5F937091012F5F3F4FC9
:1048B000822F83708DCFF0E0E0E0F7CF90E0211001
:1048C00020C0B40102C0660F771F2A95E2F79B0152
:1048D000215031098217930731F4442309F448C069
:1048E000C5010E945207C401062C01C0880F0A941A
:1048F000EAF7982F9095F801868189238683F22C18
:104900001ECF9C01062C02C0359527950A94E2F72C
:10491000A90141705527BC01615071098623972375
:10492000892B11F5452B01F1F80182819381892BA7
:10493000C1F01B821C821D821E8259825A820E94F3
:104940000F078160582F9D838C83F80182819381AA
:104950008F83988729813A814B816D817E810E9466
:104960000421F8011582BFCFF22FF1702F2EBBCF9B
:104970002F2CB9CF9091670680916806981731F077
:104980000E94E121EE2009F423CE17CF0E9474216A
:1049900010926A06109269060E948007F3CFAAE07F
:1049A000B0E0E5EDF4E20C94EA34182F062F66230C
:1049B00099F10E940F071E832DEF2F8321E0288796
:1049C00081609A8789874E815F81688579858A852C
:1049D0000E9475228FE39FE10197F1F700C000006C
:1049E0000023F9F00E940F0719832DEF2A831B8201
:1049F00081609D838C8349815A816B817C818D810B
:104A00000E9475228FE39FE10197F1F700C000003B
:104A10002A96E4E00C9406350E940F071E832CEFC3
:104A2000CCCF0E940F0719832CEFE0CFA5E0B0E0B8
:104A3000ECE1F5E20C94EA348C019093B10580939B
:104A4000B005011580E21807C0F4802F0E941E19DE
:104A5000C8010E942F0C9801205E310928303105D1
:104A600018F00115110531F40E9409192596E4E0AA
:104A70000C9406350E94F418F9CF80EF89838A835D
:104A80001B820E940F078160782F9D838C83498150
:104A90005A816B818D810E947522E8CFA5E0B0E03C
:104AA000E4E5F5E20C94EA348C019093B10580932F
:104AB000B005011580E21807C0F4C8010E942F0C50
:104AC0009801205E31092830310518F001151105D3
:104AD00049F40E941419802F0E9463192596E4E07E
:104AE0000C9406350E94FF18F6CF80EF89838A83E5
:104AF00081E08B830E940F078160782F9D838C83D8
:104B000049815A816B818D810E947522E7CFAFE088
:104B1000B0E0EDE8F5E20C94E1348E010F5F1F4F39
:104B20008AE0D8011D928A95E9F785E9C82E81E0CF
:104B3000D82EF12CE12CAA24A394B12C20EA822EA9
:104B400021E0922EF60181916F018F3F09F442C05E
:104B5000F894E82FE295EF70F0E021A18F70A501A5
:104B600002C0440F551F8A95E2F7CA01922F982B75
:104B700091A392A18095892382A3789400C0EAE949
:104B8000F1E0712C31E021912F3F09F46BC0A22F8D
:104B9000A295AF70B0E090968C9190E02F7002C01B
:104BA000959587952A95E2F780FD5CC0832F782A3A
:104BB000330F8E169F0639F7F601319780818F3FAC
:104BC00011F00E94BA0950EA5A95F1F7F801EE0D7A
:104BD000FF1D70828FEFE81AF80A95E0E916F104DC
:104BE00009F0B0CF4AE050E0B80186EA92E00E94B6
:104BF000E335009741F02AE0F801A6EAB2E001901F
:104C00000D922A95E1F70091B102892B69F181E0BB
:104C100080936F020E940F0790936E0280936D0243
:104C200080916D0290916E020E94F406059700F14A
:104C300010E00C521D4F45E050E066EA72E0C801FA
:104C40000E94E335D12C892B51F085E0E6EAF2E0B1
:104C5000D80101900D928A95E1F7DD24D39410924A
:104C60006F0207C080E0A3CF80916F028111D8CF7F
:104C7000D12C0E944F10C82EE091B102DE011B968C
:104C80007D01882309F47AC085E01D928A95E9F7B1
:104C90000E2F10E00C521D4F8091A1028A30D8F5E2
:104CA00044E059E2B701C8010E941C10882309F4AE
:104CB00054C04BEA58E2B701C8010E941C10882377
:104CC00009F44BC040EB57E2B701C8010E941C1029
:104CD000882309F442C04FE457E2B701C8010E949B
:104CE0001C108823D1F11092A1028091B00290E0B3
:104CF00045E050E0B7018C529D4F0E94E33521E022
:104D000020937602892BE1F4C12C8C2D8D292F96CE
:104D1000EDE00C94FD3480917002909171020E943C
:104D2000F406843F914008F0BBCF8091760288233F
:104D300059F385E0F70111928A95E9F7109276020E
:104D4000A091B002B0E0AC52BD4F85E0FE013B96B1
:104D500001900D928A95E1F7D8CF8091A1028F3F03
:104D600031F08F5F8093A1028A3008F4BECF0E9499
:104D70000F079093710280937002D7CFF0E0EC524E
:104D8000FD4F85E0AAE8B2E001900D928A95E1F727
:104D900065E070E08AE892E00E94910780938902C2
:104DA0004091CE0250E06091CD0270E067537D4F9C
:104DB000C7010E94F0358B858093900261E070E01E
:104DC000C7010E94910780938F028090910290907A
:104DD0009202A0909302B0909402809172029091FE
:104DE0007302A0917402B091750288169906AA0602
:104DF000BB06D1F08092720290927302A09274026C
:104E0000B09275020E944F1081110EC00E940307DC
:104E1000861A970AA80AB90A8092A2029092A3025F
:104E2000A092A402B092A50280919C02882309F46A
:104E30006CCF80FF0DC08091950280FF2AC09091B9
:104E4000470591609093470560E086950E942F1575
:104E500080919C0281FF09C020E0409198026091FE
:104E60009702809196020E94391480919C0282FFE1
:104E700006C080919B02882379F00E940B148091D8
:104E80009C0283FF03C081E08093EE0210929C029B
:104E90003CCF0E940410DCCF0E94AE07F0CFA8E008
:104EA000B0E0E5E5F7E20C94EC3485E0E7E4F5E00A
:104EB000DE01119601900D928A95E1F78091F10241
:104EC0009091F202A091F3028E839F83A887288598
:104ED00040919D0250919E0260919F027091A002AC
:104EE0003FB7F8948091720690917306A091740672
:104EF000B09175063FBF841B950BA60BB70B84368C
:104F00009105A105B10510F4222319F180912D011D
:104F100090912E0187579D4F40912C0150E04930D0
:104F2000510510F048E050E0BE016F5F7F4F0E94D6
:104F3000F03585E090E00E946634882369F00E9495
:104F4000030760939D0270939E0280939F0290934B
:104F5000A0021092F30281E02896E2E00C9408355A
:104F6000A4E0B0E0E6EBF7E20C94EB34409185026C
:104F70005091860260918702709188022FB7F89451
:104F80008091720690917306A0917406B091750697
:104F90002FBF841B950BA60BB70B11E08436910530
:104FA000A105B10570F10E9483106E5F7F4F8F4F96
:104FB0009F4F69837A838B839C8380912501909195
:104FC000260187579D4F4091240150E045305105FF
:104FD00010F044E050E0BE016F5F7F4F0E94F0355B
:104FE00084E090E00E946634182F882351F00E94DC
:104FF00003076093850270938602809387029093E3
:105000008802812F2496E3E00C9407354F925F923B
:105010007F928F929F92AF92BF92CF92DF92EF9248
:10502000FF920F931F93CF93DF930F92CDB7DEB70D
:10503000C62E4A015901482E880F5508C2010E9408
:105040006634782E882309F480C0C20133E0880FCB
:10505000991F3A95E1F7FC01EC5FFE4F438150E068
:105060004115510511F041E050E08C5F9E4FFC016D
:105070006481758167577D4FCE0101960E94F0359E
:10508000F40140815181628173812FB7F89480913E
:10509000720690917306A0917406B09175062FBFA9
:1050A000841B950BA60BB70B84369105A105B105A2
:1050B00040F4B701C8010E9491079981891709F44A
:1050C00044C00C2C000CDD08C6010E946634782E0A
:1050D000811113C0712C872D0F90DF91CF911F91FB
:1050E0000F91FF90EF90DF90CF90BF90AF909F9087
:1050F0008F907F905F904F900895C60123E0880FB6
:10510000991F2A95E1F7FC01EC5FFE4F438150E0C7
:10511000E416F50608F4A7018C5F9E4FFC0164813C
:10512000758167577D4FC5010E94F035B701C801F1
:105130000E94910799818913CDCF0E940307F40142
:105140006083718382839383C6CFA701B801C501B1
:105150000E94F035C0CFA1E0B0E0E1EBF8E20C94A2
:10516000E534EE24E394F12C00E912E09E012F5F78
:105170003F4F41E852E063E082E00E940628C82EDB
:10518000882339F100E080E01DC0D090B602D00E37
:105190002D2D30E0A90147535D4F7A01E1E0F0E0A9
:1051A000EC0FFD1FE00FF11D1081FA019081191B1A
:1051B000B12E1B149CF0912F17FD90E0191B1111BB
:1051C00018C00F5F9091B5020917F8F281110E9483
:1051D000950B8C2D2196E9E00C940135BA94F701DA
:1051E00080818F5F808360E08D2D0E94CF248C2D85
:1051F000E0CF1F5FF70180818150808361E08D2DBA
:105200000E94CF248C2DDBCFA5E0B0E0EAE0F9E2EC
:105210000C94E6346B0185E0E82EF12C0AE812E0EC
:105220009E012F5F3F4F4DE752E061E080E00E941A
:105230000628882349F095E0FE013196A8E7B2E000
:1052400001900D929A95E1F795E0E8E7F2E0D6013A
:1052500001900D929A95E1F72596E8E00C940235BD
:1052600090E080E00E941E36883E9E4F19F40E9416
:10527000E512089580E008951F920F920FB60F92E5
:1052800011242F933F934F935F936F937F938F934B
:105290009F93AF93BF93CF93DF93EF93FF93D091FF
:1052A000E900DF708091EC00C82FC17080FDC0E87C
:1052B0001092E9008091F000877F8093F00078944D
:1052C0000E9429161092E9008091F0008860809376
:1052D000F000CD2BCF70C093E900FF91EF91DF91EB
:1052E000CF91BF91AF919F918F917F916F915F917E
:1052F0004F913F912F910F900FBE0F901F901895D7
:105300001F920F920FB60F9211242F933F934F933A
:105310005F936F937F938F939F93AF93BF93EF931D
:10532000FF938091E10082FF09C08091E20082FF3B
:1053300005C08091E1008B7F8093E1008091DA00CD
:1053400080FF24C08091D80080FF20C08091DA00C7
:105350008E7F8093DA008091D90080FF9DC080E12C
:1053600089BD82E189BD09B400FEFDCF81E0809353
:10537000870680917906811109C00E946C050E9400
:1053800037068091E20084608093E2008091E10022
:1053900080FF17C08091E20080FF13C08091E2007F
:1053A0008E7F8093E2008091E20080618093E20032
:1053B0008091D80080628093D80019BC85E08093EA
:1053C00087068091E10084FF2BC08091E20084FF7A
:1053D00027C080E189BD82E189BD89B5982F917090
:1053E00080FFFBCF8091D8008F7D8093D800809183
:1053F000E1008F7E8093E1008091E2008F7E8093B8
:10540000E2008091E20081608093E2008091880652
:10541000882309F447C084E080938706809187063B
:105420008091E10083FF27C08091E20083FF23C0C9
:105430008091E100877F8093E10082E0809387067E
:10544000109288068091E1008E7F8093E100809128
:10545000E2008E7F8093E2008091E2008061809381
:10546000E20042E060E080E00E9405068091F000EA
:1054700088608093F000FF91EF91BF91AF919F9171
:105480008F917F916F915F914F913F912F910F90ED
:105490000FBE0F901F90189519BC1092870610929E
:1054A000790674CF8091E30087FD93E0909387069F
:1054B000B5CF78941F921FB61F9211248F939F939C
:1054C000AF93BF938091720690917306A09174067A
:1054D000B09175060196A11DB11D8093720690933F
:1054E0007306A0937406B0937506BF91AF919F9118
:1054F0008F911F901FBE1F9018951F921FB61F926D
:1055000011248F939F93AF93BF9380917106811164
:1055100013C08091720690917306A0917406B091A9
:1055200075064196A11DB11D809372069093730676
:10553000A0937406B0937506BF91AF919F918F9120
:105540001F901FBE1F901895CDB7DEB7E4970FB61A
:10555000F894DEBF0FBECDBF85B7806885BF85B725
:10556000806885BF84B7877F84BF0FB6F894A895FD
:1055700080916000886180936000109260000FBE8F
:1055800080E890E00FB6F8948093610090936100FA
:105590000FBE88EB99E09093EB018093EA010E94A3
:1055A000FE120E946C050E9437068091E200846022
:1055B0008093E2007894809187068823A1F010916F
:1055C000E9001F709091EC00892F817090FD80E8B8
:1055D000182B1092E9008091E80083FD0E942916A3
:1055E0001F701093E90082E084BD93E095BD9AEFAF
:1055F00097BD80936E001092A2021092A3021092A7
:10560000A4021092A5020E94E512811102C00E941C
:105610009D110E944F1080933401809134018823A2
:1056200009F485C01092510184E2809352010E94D6
:105630004F1081110E947A3380913401809134019E
:1056400095E0811190E09093B10285E0891B8093F1
:10565000B00205E911E07AE9E72E71E0F72ED801F2
:105660008D918D018F3F11F00E94BA09E016F1066D
:10567000B1F70AE911E060EAE62E61E0F62EF801E2
:1056800081918F018F3F11F00E94BA09E016F10657
:10569000B1F78AE0E4EDF2E0DF01282F1D922A95B0
:1056A000E9F7E6EAF2E0DF011D928A95E9F70E9448
:1056B0003029811102C00E94B31A82E090E00E945A
:1056C00010368093BB0284E090E00E941036182FC1
:1056D00082E290E00E941036982F812F9093B302BF
:1056E0008093B2020E948725EFE3FCE93197F1F73E
:1056F00000C000000E9487258091D40280FF1BC05B
:105700006FEF7FEF90E080E00E94423687E797E7F7
:10571000909301088093000888E19AE00FB6F8940E
:10572000A895809360000FBE90936000FFCF84E245
:10573000809351017ACF83E090E00E9410360E945E
:105740001A168091B402811138C00E94302981114B
:1057500004C00E94B31A0E94941588E090E00E9451
:1057600018366093470570934805809349059093D8
:105770004A058091F30283608093F3026E7F71F497
:105780000E94941588E090E00E94183660934705C7
:10579000709348058093490590934A050E94B50788
:1057A0000E94AE078091470580FF04C060E08695A7
:1057B0000E942F1581E08093B4029091340181E022
:1057C00098279093CD02F82FF91BF093B602909191
:1057D00034018093CE02909134018093B502809180
:1057E0003401811106C084EF8093420185EF8093DC
:1057F000410120914201E22FE295EF70F0E061A1BA
:105800002F7081E090E0AC0101C0440F2A95EAF7C7
:10581000342F3095362331A322A1242B22A32091AB
:105820004101E22FE295EF70F0E031A12F7001C04D
:10583000880F2A95EAF7982F9095932391A392A128
:10584000892B82A3AFE8B1E01197F1F700C0000007
:105850001091CE026FEC72E042E451E081E4E82E58
:1058600081E0F82EFB0128C0DA012D91AD01822FD5
:1058700082958F7090E0DC0190968C9190E02F7073
:1058800002C0959587952A95E2F78170D7019D9181
:105890007D01292F22952F7030E0D90190962C910F
:1058A00030E09F7002C0359527959A95E2F790E019
:1058B00020FD92E0892B81938E2F861B8117A0F209
:1058C0000E944F10811102C00E947D3385E391E058
:1058D00090936E0680936D064EED642E42E0742E1A
:1058E00052E0C52ED12C80918706FF24F39400E16D
:1058F00012E1853009F496C00E9487250CEB12E076
:1059000034EDA32E32E0B32E26EC32E0D501F801BF
:1059100091918D912E173F0709F4A1C09817C1F3FB
:105920000E944F10382E24EDE22E22E0F22E912C10
:10593000D7018D907D01F80121908F01281429F164
:105940002824512C44244394822D8421B1F0332007
:10595000A1F058AA99AA91E0882D842109F490E039
:105960009AAB0E940F078160782F9CAB8BAB48A944
:1059700059A96AA98CA90E9475225394440CF6E097
:105980005F12E2CFF8013197808293942AE092125D
:10599000CFCF0E94030783C080918706843009F42B
:1059A00033C00E94AE078091B802811109C0F09205
:1059B000B8028091470581708093B7020E9404105D
:1059C00010927106E8E1F0E020E40FB6F894A89593
:1059D000E09360000FBE2093600083B7817F8460F6
:1059E00083BF83B7816083BF7894889583B78E7FA8
:1059F00083BF0FB6F894A89580916000886180936A
:105A00006000109260000FBE80918606882351F0DE
:105A10000E948725E4EDF2E081918111E6C56E16C2
:105A20007F06D1F780918706853009F4B5CF1092B3
:105A30007A060E941F160E9472101092B80280917E
:105A4000B702882349F0809147058160809347051C
:105A500060E086950E942F150E940B144DCF98137D
:105A60005FCF0E940F078C018091B9029091BA021A
:105A700008171907A1F08FEF8BA78CA71DA60E940E
:105A80000F078160782F9FA78EA74BA55CA56DA5FA
:105A90008FA50E9475221093BA020093B9020E944A
:105AA0004F10882321F180915801882301F18091C2
:105AB000690690916A060097D1F00E94F406209141
:105AC000B4053091B5052817390788F49091670619
:105AD00080916806981709F476C00E94E12110921F
