:100000000C9445050C9462050C9462050C94CC3359
:100010000C9462050C9462050C9462050C946205C4
:100020000C9462050C9462050C945E290C941A29B8
:100030000C945B2A0C9462050C9462050C94620586
:100040000C9462050C9462050C9462050C94620594
:100050000C9462050C94372A0C9462050C9462058A
:100060000C9462050C9462050C9462050C94620574
:100070000C9462050C9462050C9462050C94620564
:100080000C9462050C9462050C9462050C94620554
:100090000C9462050C9462050C9462050C94620544
:1000A0000C9462050C9462050C946205050109022A
:1000B000A10185020901A100050919012905150001
:1000C00025019505750181029501750381010501E1
:1000D000093009311581257F950275088106093897
:1000E0001581257F950175088106050C0A380215D2
:1000F00081257F950175088106C0C005010980A191
:1001000001850319012AB700150126B7009501756D
:10011000108100C0050C0901A101850419012AA064
:1001200002150126A002950175108100C00660FF2E
:100130000961A1010962150026FF0095207508815B
:10014000020963150026FF00952075089102C0057D
:10015000010906A101050719E029E7150025019508
:1001600008750181029501750881010507190029AB
:10017000FF150026FF009506750881000508190186
:100180002905950575019102950175039101C0013D
:10019000000005010502050305040505050006012B
:1001A0000602060306040605060007010702070308
:1001B00007040705070008010802080308040805EA
:1001C00008000901090209030904090509000001E1
:1001D0000002000300040005000001010102010308
:1001E00001040105010002010202020302040205EA
:1001F00002000301030203030304030503000401D7
:10020000040204030404040504643214783C1E1E32
:10021000140A05FD377A585A000004E6D6B446029F
:1002200000210116000000742FE5A3E00A130283E9
:100230005D003D8889C65436C3174FE4E62B87DC42
:1002400061F128B5AEA0A33C3CF45F7424B52C3D0D
:1002500020C7689B3A8E08CE16E28FDD74FFA04F50
:1002600008D43D201DD0558F11BBB13287318A345F
:100270001491884A492E35E0342D0C400E9A3CEBFF
:100280002E927835B8F7CA8C4EBF5A96EBEE3035C1
:1002900061920102DE6F5F63AE90736CF869467124
:1002A000D8821DD8D3A9851A3E623E8875E85002CF
:1002B000E1A14FF773396AC0FB22EC024FEB411604
:1002C000788F33048CEA516F2796A6D3ACAF04B66F
:1002D0007ABC2EF80543F7F37562C0A37C2A4C3D27
:1002E0008BE09E098EDE7EA59FFB9BF4A8750EBC5D
:1002F000851A8A140ED55EEE477F28FD38773C3488
:10030000A1367D4D373C30E9B52937D953A6BB8599
:100310006F48A2F17BD59F9896DBA906E473826CA7
:10032000984967F394BC12A6DC40C35D848F868E27
:1003300037FC103688E6E9D7FADD6FE79B5747C6EA
:1003400036B40CCB176A3705C36BC3B2C78FA35F34
:1003500049ABF0DA815CA944DC9718C7195DF6E96E
:1003600083E189271A415E2A0326C27CABC8226832
:10037000A344EAAF02F2FBF1D0B50315CD532FF73A
:100380003BA6AFC3027549D451E8C3E4A88429F45D
:1003900040364FF2EC48C789752670D0BEACF26487
:1003A0001986B1DACE0050254E591FE462F167FE7E
:1003B0002641270F7B9B0DEE33F47E9792DCF4668B
:1003C000B5715CEB4BB064230696404A8963DFD875
:1003D0007FA271DBD51A4CA2F2664384CA14FC8357
:1003E000424DF454794792A7711F316FE325CB5EDC
:1003F0008BA039A72C03DF14C1E5B0E480AEA0E7E1
:100400009753BDF9680F7455BEF4701E3604B68953
:10041000BC8F774BD9837393CB8BC5A6A5A98425B5
:10042000AC38E9FB151EFBA7D22FA3245B312DB6F8
:10043000C8A6C3436494E0D22C624756E3BD6FE183
:10044000CFF9DA350B9BB7EC0DBE65AE3783373885
:10045000F550D5494373EBF7BDF099ABB31782CD97
:1004600004DF764FA4CD6BEFF8FC2EA09BEF0FC0FE
:100470000723F1381B1DDC16C7D275E3C8635E493C
:10048000122FB7C892B4B006F112BAD46CA5D3300B
:100490005512828CBE25D8C35AD905AA25183321F6
:1004A000FC65EFEB7427E2D303FE307AB728E25104
:1004B0003FB2C872000000146F2BC574529F1C001D
:1004C000019F0594140000648288CEB1C467FB02CA
:1004D0000000000004595A0001010101010101015D
:1004E00001020202020202020202030303030303E7
:1004F00003030404040404040405050505050606B5
:100500000606060707070707080808080909090972
:100510000A0A0A0B0B0B0C0C0C0D0D0D0E0E0E0F18
:100520000F0F1010111111121213131414151516A8
:10053000161717181819191A1A1B1B1C1D1D1E1E19
:100540001F2020212222232424252626272829296A
:100550002A2B2C2D2D2E2F30313232333435363795
:1005600038393A3B3C3D3E3F404142434445464793
:1005700048494A4C4D4E4F50515354555658595A6C
:100580005B5D5E5F616264656668696B6C6D6F7010
:1005900072737577787A7B7D7E8082838587888A7F
:1005A0008C8E8F91939596989A9C9EA0A2A3A5A7B6
:1005B000A9ABADAFB1B3B5B7BABCBEC0C2C4C6C9B2
:1005C000CBCDCFD1D4D6D8DBDDDFE2E4E7E9EBEE6B
:1005D000F0F3F5F8FAFDFF1F05101C2314090A00BB
:1005E0000102030406070815160B0C0D0E0F11125D
:1005F0001322241718191A1B1D1E202A43382D26D2
:10060000353F3E484746454442414033333D3C3BFD
:100610003A3937363427253231302F2E2C2B2922E8
:1006200023252628292A2C2D2F3032333536383AE7
:100630003B3D3E4042434547494A4C4E505153553D
:1006400057595A5C5E6062646668696B6D6F71735E
:100650007577797B7D7F81838587898A8C8E90925F
:100660009496989A9C9E9FA1A3A5A7A8AAACAEAF6A
:10067000B1B3B4B6B8B9BBBCBEBFC1C2C3C5C6C7AF
:10068000C9CACBCCCDCED0D1D2D2D3D4D5D6D7D760
:10069000D8D9D9DADADBDBDBDCDCDCDCDCDDDDDDA8
:1006A000DDDCDCDCDCDCDBDBDBDADAD9D9D8D7D7A4
:1006B000D6D5D4D3D2D2D1D0CECDCCCBCAC9C7C651
:1006C000C5C3C2C1BFBEBCBBB9B8B6B4B3B1AFAE8F
:1006D000ACAAA8A7A5A3A19F9E9C9A989694929035
:1006E0008E8C8A89878583817F7D7B79777573710D
:1006F0006F6D6B6968666462605E5C5A59575553EA
:1007000051504E4C4A4947454342403E3D3B3A38A2
:1007100036353332302F2D2C2A292826252322A99D
:1007200000AA004B004E00A900AA004B004E00A9F1
:1007300000AA004B004E00AB00AC00C95CCA5C29AB
:10074000001E001F002000210022002B0014001AB0
:100750000008001500170039000400160007000902
:10076000000A00E1001D001B00060019000500E062
:1007700000E300E20001512C00A80035002700260C
:10078000002500240023002A00130012000C00188A
:10079000001C00340033000F000E000D000B002879
:1007A00000380037003600100011004D004A0003E9
:1007B00051025128004C0001003A003B003C003D32
:1007C000003E0035001E001F002000210022002BEB
:1007D000001E021F02200221022202E1002E002D33
:1007E000002E022F023002E000E300E20001512C53
:1007F000000100440043004200410040003F00452A
:1008000000270026002500240023003102270226AD
:10081000022502240223020100310033023300309A
:10082000002F004D004A0003510251280001000131
:1008300000010001000100010001002900490046FB
:10084000006500010001002B00E200E000E1000172
:10085000003900E1007A007B007C007D000100E0AF
:1008600000E300E20001512C000100010001000141
:10087000000100010001002A002702260252002484
:10088000024B002A004C004F00510050004E000166
:100890000001004D0001004A0001004D004A000324
:1008A0005102512800010001000100010001000176
:1008B0000001000100010001000100010001000130
:1008C0000001000100010001000100010001000120
:1008D00000010001000100E000E300E20001512CF2
:1008E00000AE00C55CC65C0100010001000100C350
:1008F0005CC45C0100010001000100C95CCA5C012C
:1009000000010001000100CB5CCC5C010001000192
:100910000001004D004A00035102512800C25C0052
:1009200000000000000000000000000000000000C7
:1009300000000000000000000000000000000000B7
:100940000000007E0F00D4FFFFFFC700000078000A
:10095000000000000000002A2B280000000000001A
:100960000000000000000000000029000000002C32
:100970001E3420212224342627252E362D373827D1
:100980001E1F202122232425263333362E37381FDD
:100990000405060708090A0B0C0D0E0F101112139F
:1009A0001415161718191A1B1C1D2F3130232D353D
:1009B0000405060708090A0B0C0D0E0F101112137F
:1009C0001415161718191A1B1C1D2F3130354C0918
:1009D000025B00030100A0FA090400000103010109
:1009E00000092111010001224000070581030800D0
:1009F00001090401000203000000092111010001A6
:100A000022220007058203200001070503032000BE
:100A10000109040200010300000009211101000185
:100A2000228100070584032000011201000200005A
:100A3000000832FC87020700010203011C03760054
:100A4000690061006C003A00660036003400630003
:100A5000320062003300630000000C0353006F009B
:100A600066006C00650000001C03530070006C0001
:100A70006900740074006500640053007000610038
:100A80006300650000000403090411241FBECFEFBA
:100A9000DAE0DEBFCDBF11E0A0E0B1E0EAE1FCE6C4
:100AA00002C005900D92AE3BB107D9F725E0AEEB41
:100AB000B1E001C01D92AF36B207E1F70E94822A71
:100AC0000C94E7350C940000E8EDF0E080818E7F17
:100AD00080831092E2001092DA001092E100A0EE02
:100AE000B0E08C9181608C9380818F77808319BC7A
:100AF000A7EDB0E08C918E7F8C9380818F7E808378
:100B00001092560508952091E4003091E50095E695
:100B1000A9012091EC00822F817020FF06C08091F6
:100B2000E80080FF06C080E008952091E80022FDE3
:100B30001AC080916405882389F0853089F08091FE
:100B4000EB0085FD0FC02091E4003091E5004217D5
:100B50005307F9F29150E1F684E0089582E0089598
:100B600083E0089581E00895EF92FF920F931F9321
:100B7000CF937C018B010E948305C82F811117C080
:100B80008091E80085FD0BC08091E8008E7780930E
:100B9000E8000E948305882399F3C82F08C0F70155
:100BA00081917F018093F1000150110949F78C2F49
:100BB000CF911F910F91FF90EF900895809166055E
:100BC00087FF13C08091E80082FF06C08091E80093
:100BD0008B778093E80004C0809164058111F2CF87
:100BE0000895809164058823D9F38091E80080FFFF
:100BF000F8CF8091E8008E77ECCF982F9093E900A2
:100C0000242F762F50E0891731F07091EC0020915D
:100C1000ED005091F00021FD07C09F5F973071F704
:100C20008093E90081E008953091EB003E7F30939E
:100C3000EB003091ED003D7F3093ED003091EB0003
:100C400031603093EB007093EC002093ED005093F3
:100C5000F0002091EE0027FDE0CF80E00895B0E0A5
:100C6000A0E0E5E3F6E00C94F234C8EDD0E0888132
:100C70008F7E8883E7EDF0E080818160808384E06F
:100C800082BF81E08093560588818E7F888302EE43
:100C900010E0F80110821092DA0081EEC82ED12CFB
:100CA000F601108288818F778883888180688883A5
:100CB00088818F7D888319BC109264051092650528
:100CC000109263051092620590EEE92EF12CF70167
:100CD00080818B7F808388818160888342E060E0AF
:100CE00080E00E94FD05F60180818E7F8083F801FF
:100CF000808181608083808188608083F70180812A
:100D00008E7F8083888180618883CDB7DEB7E8E0FD
:100D10000C940E35FC0180916C0590916D05861741
:100D20009707A0F06115710529F49091E8009E776E
:100D30009093E80090E06115710551F4911108C09D
:100D40008091E80082FF34C080E00895BC01F2CFBA
:100D5000809164058823C1F18530C1F18091E8005C
:100D600083FD30C08091E80082FDEACF8091E800E9
:100D700080FFE1CF8091F3002091F200382F6115C0
:100D8000710519F02830310558F091E0283031050F
:100D900009F090E02091E8002E772093E800CBCF77
:100DA00081918093F100615071092F5F3F4FE7CF30
:100DB00080916405882341F0853041F08091E800FE
:100DC00083FFBECF81E0089582E0089583E0089517
:100DD00008958091590508959C014FB7F89480912A
:100DE0004F0590915005A0915105B09152054FBF0C
:100DF000821B930B08952FB7F89460914F05709163
:100E0000500580915105909152052FBF08952FB73D
:100E1000F89480914F0590915005A0915105B091A3
:100E200052052FBF089520914C0530914D0528178C
:100E3000390771F090934D0580934C05E0914A0578
:100E4000F0914B05309721F00084F185E02D099554
:100E5000089520914805309149052817390771F008
:100E60009093490580934805E0914A05F0914B0520
:100E7000309721F00680F781E02D09950895452BE4
:100E800039F0682381E06F3F09F080E081700895B8
:100E900081E0FCCFDC016091410580914205962FF5
:100EA000891301C00895292F30E0F901EE0FFF1FCB
:100EB000E75CFA4F408151814A175B07A1F487E054
:100EC0008A9FA0018B9F500D11244D505B4F81E0F4
:100ED000FA0184839613E6CF2F5F3F4F23703327A9
:100EE0002093410508952F5F3F4F922F9370D8CFE5
:100EF0001092900410928F04E3EFF4E08581811149
:100F000002C014821682379685E0E933F807B1F7FC
:100F10000895FC01680F791F8FEF91E321918227DB
:100F200028E030E087FF09C0880F89272150310968
:100F3000C9F7E617F70791F70895880FF7CFEFEB9A
:100F4000F3E090E080E06AEC74E241EF54E22CE2DE
:100F500034E276836583508747833287218794877D
:100F6000838701963D968830910599F708958115FC
:100F70002CE5920741F42091450130914601232B45
:100F800011F490E080E00895FA01811101C0FB01A5
:100F9000099508950895E7ECF2E01182828184605A
:100FA000828308958091A803982F9E7F61F48170B9
:100FB00082608093A8038091AB03833818F082E8A5
:100FC0008093AB0308958032B0F381708E61F1CFCE
:100FD000AF92BF92DF92EF92FF920F931F93CF9346
:100FE000DF93082F162FE901E42FF0E0E952FB4FC1
:100FF000611110C0E4915E2F4E2F4983E8835A831C
:10100000DF91CF911F910F91FF90EF90DF90BF90F4
:10101000AF900895E62EF12C4491D42EE42FF0E009
:1010200026E0829FC00111242FEF30E0B9010E9419
:101030001F35802F90E0880F991F55E5569FD001EE
:10104000579FB00D11248A1B9B0B982F990F890F66
:101050005901AE18BF08AE9ED001AF9EB00DBE9E26
:10106000B00D11245B2F189F80011124012F11272F
:101070005901A01AB10AAE9E8001AF9E100DBE9E0E
:10108000100D11245901A81AB108AE9CC001AF9CE3
:10109000900DBE9C900D1124892F9927281B390B88
:1010A0002E9FC0012F9F900D3E9F900D1124E92F80
:1010B00062307105A1F050F46115710509F49DCFFE
:1010C0006130710581F0EB2F512F97CF643071059E
:1010D00069F080F06630710509F48FCFF4CFE42F0A
:1010E0004B2F592F8ACFE42F412F87CFEB2F542F2F
:1010F000492F83CF4B2F5D2DE12F7FCF0E94070714
:101100009C019091BD028091BE02982B21F03093FA
:10111000BA022093B9029091BF028091C002982B2D
:1011200021F03093B8022093B702E0914A05F09184
:101130004B05309749F082E08093BB020480F58133
:10114000E02D8BEB92E0099508959091BD02803FD0
:1011500059F48091BE0287FF0DC01092BE0291111A
:101160000BC01092B50208C0813F81F48091BE028D
:1011700018169CF3992381F08091BF029091C002D0
:10118000892B09F064C01092B4020895823F49F49B
:1011900097FFF0CF1092BD028091BE028111ECCF7B
:1011A000E0CF833F19F41916ACF3E4CF2091BF02CE
:1011B000893F29F41216F4F61092BF02DBCF8A3F62
:1011C00019F427FFD7CFF8CF2091C0028B3F29F425
:1011D00027FFD0CF1092C002CDCF8C3F19F412164A
:1011E000CCF3C8CF843F31F48091BC028E7F8093D2
:1011F000BC02C0CF853F21F48091BC028D7FF7CF28
:10120000863F21F48091BC028B7FF1CF873F21F490
:101210008091BC02877FEBCF883F21F48091BC0294
:101220008F7EE5CF8D3F31F48091B6028E7F809323
:10123000B602A0CF8E3F21F48091B6028D7FF7CF0A
:101240008F3F09F097CF8091B6028B7FF0CF089542
:101250008091B60280FD16C081FD16C082FD16C0C9
:101260008091B4028823A1F0883280F428E0829F24
:10127000C001112468E270E00E943335862F672B8D
:1012800039F0089582E0089584E0089588E0089593
:1012900081E008958091B60280FD14C081FD14C0E4
:1012A00082FD16C08091B502882381F08E3180F4D2
:1012B00020E5829FC00111246EE170E00E94333569
:1012C000862F089584E1089588E2089588E00895BE
:1012D00080E50895803F31F40E944A09819580930A
:1012E000BE020895813F19F40E944A09F8CF823F57
:1012F00031F40E944A0981958093BD020895833F8D
:1013000019F40E944A09F8CF893F29F40E9428095C
:101310008093BF0208958A3F21F40E942809819595
:10132000F7CF8B3F31F40E94280981958093C0024A
:1013300008958C3F19F40E942809F8CF843F31F4B6
:101340008091BC0281608093BC020895853F21F4A6
:101350008091BC028260F7CF863F21F48091BC026D
:101360008460F1CF873F21F48091BC028860EBCF8D
:10137000883F21F48091BC028061E5CF8D3F31F43C
:101380008091B60281608093B60208958E3F21F469
:101390008091B6028260F7CF8F3FB9F78091B60295
:1013A0008460F1CF80E00895F894E82FE295EF7023
:1013B000F0E031A1282F2F7081E090E001C0880F6C
:1013C0002A95EAF7982F9095932391A392A1892BC0
:1013D00082A3789408959091860292FF06C0282FE8
:1013E00028712830F9F4877F846093FF06C0282F86
:1013F00028712831F1F4877E84612091870220FFD3
:1014000006C0382F38713830D9F4877F816021FFCA
:1014100006C0282F28712831D1F4877E816194FD80
:10142000877E0895282F24712430F9F68B7F8860F9
:10143000DCCF282F2471243101F78B7E8861DDCF2A
:10144000382F3171313019F78E7F8860E0CF282F27
:101450002171213121F78E7E8861E1CFCF93DF9317
:10146000EC0182389105B1F108F040C0813391055B
:1014700009F49DC048F58932910509F48DC08A9719
:1014800009F49CC0C11521E5D20708F0C3C0C115FD
:1014900030E5D30708F02CC1C83ED10508F0A3C041
:1014A000C03ED10588F5C83AD10508F08EC0C53ACE
:1014B000D10508F015C1C130D10531F1209721F1D6
:1014C000C430D10508F545C08533910509F45FC0E6
:1014D000C997C1F680918602837009F037C1809167
:1014E000870283FF11C0C9E2D0E00EC0833E9105A0
:1014F00099F170F4803E910501F1823E910511F65B
:101500008091860282FD21C0CE01DF91CF910895A6
:10151000863E910561F1873E910571F1843E91050A
:1015200009F0B0CF8091870281FFEECF80918602D3
:10153000C7EED0E084FD0DC0E7CF8091860280FD2C
:1015400033C09091870290FFDFCFC3EED0E084FFDD
:10155000DBCFD0E0C0E0D8CF8091860282FDF3C01F
:101560009091870290FDF2C084FFCECFF2CF8091A0
:10157000860283FDDDCFC8CF8091860283FDE9C05E
:101580009091870291FFF0CFC4EED0E0BDCF809163
:10159000860285FFB9CFA7CF8091860285FDDCC08A
:1015A0008091870283FFB0CFC9E3D0E0ADCF8091B7
:1015B000860286FFA9CFCAE2D0E0A6CF809186023C
:1015C00086FFA2CFC1E3D0E09FCFCF3BD10508F685
:1015D000C85AD0E0CC0FDD1FCC5ADE4F0990D8811D
:1015E000C02DD46491CFC11540E2D40758F4C11581
:1015F00081E0D80708F088CFC03FD10508F4A9CF13
:10160000D06582CFC11520E4D20708F4A2CFDF70E5
:10161000D06A7ACFC11537E5D307D8F5C11546E5AD
:10162000D40708F08DC0C11583E5D807C8F4C115EB
:1016300022E5D20708F471C0CE018370992721E01A
:1016400030E002C0220F331F8A95E2F7C695C69597
:1016500080E2C89FE0011124C22BD32BDC6854CF59
:10166000C11534E5D30708F074CFCE0183709927F4
:1016700021E030E002C0220F331F8A95E2F7C695C1
:10168000C69540E2C49FE0011124C22BD32BDA6837
:101690003BCFC1154AE5D40778F4C11589E5D807D1
:1016A00008F040C0C11528E5D20708F452CFDC2F5E
:1016B000CC27C06FD06A28CFCE01905681159042BA
:1016C00008F047CF8D2F8F710E94EB0990E0982F83
:1016D000882788279F719C012C2BE901D06214CFA9
:1016E000C55AD0E0CF5ADE4FC881D0E0D0640CCFCD
:1016F0002C2F26952695237040E2249F90011124DB
:101700008C2F8370C1E0D0E002C0CC0FDD1F8A9522
:10171000E2F7C22BD32BDD68F7CEDC2FCC27C16FCD
:10172000D06AF2CE8C2F8F700E94EB0934E0D695F0
:10173000C7953A95E1F7CF709C2FEC01D069E4CEC4
:10174000DD27D066E1CEC2EED0E0DECEC0EED0E046
:10175000DBCEC6EED0E0D8CEC5E3D0E0D5CE0E9439
:10176000FB060895809137029091F601981301C00D
:1017700008958F5F8770FACFA82FA77023E0969502
:1017800087952A95E1F7FC01EE0FFF1FE80FF91F7F
:10179000E60FF71F50E040E080E0219130E00A2E94
:1017A00002C0369527950A94E2F721703327042E5C
:1017B00001C0220F0A94EAF7822B4F5F5F4F43303C
:1017C000510559F70895903FC9F09A3080F486305A
:1017D000A8F4282F30E064ED71E0A901E6E09E9FB7
:1017E000400D511D1124CA010E94BC0B08959C5F3D
:1017F000923020F461ED71E090E0F6CF80E0089542
:10180000262F277091E001C0990F2A95EAF723E06F
:10181000769567952A95E1F7FB01EE0FFF1FE60F1E
:10182000F71FE40FF51F50E040E0682F70E0819152
:10183000DF0111979B01042E02C0369527950A946B
:10184000E2F7217021952827292328272C934F5F21
:101850005F4F4330510559F70895282F862F903F49
:1018600079F09A3070F4263058F4622F70E026E058
:10187000929F600D711D112444ED51E00E94000CF7
:1018800008959C5F9230E0F7622F70E041ED51E0E7
:10189000F5CF9C013A9521153F4150F5FC01EE270B
:1018A000F170BC0166277270AC01442754709C0132
:1018B0002227387094FF0EC080E1EF2B09F480E0FE
:1018C000672B09F08062452B09F08064232B89F097
:1018D0008068089581E0EF2B09F480E0672B09F020
:1018E0008260452B09F08460232B19F088600895ED
:1018F00080E00895809353057093550560935405D7
:10190000809164058430F9F48093E9008FEF909121
:10191000E800815095FD06C095ED9A95F1F700001D
:101920008111F5CF8091E80085FF0DC050E040E0C7
:1019300063E070E083E595E00E94B4058091E800E3
:101940008E778093E8000895BC0184E00E947A0CB1
:101950000895BC0183E00E947A0C08959C0184E004
:101960008093E9009FEF8091E800915085FD06C0CB
:1019700085ED8A95F1F700009111F5CF8091E8008F
:1019800085FF0CC050E040E066E070E0C9010E94B5
:10199000B4058091E8008E778093E8000895CF9396
:1019A000DF93EC0181E08093E9008FEF9091E800F4
:1019B000815095FD06C095ED9A95F1F700008111D3
:1019C000F5CF8091E80085FF14C050E040E068E06A
:1019D00070E0CE010E94B4058091E8008E7780937C
:1019E000E80088E0FE01AAE5B5E001900D928A9535
:1019F000E1F7DF91CF910895CF92DF92EF920F93AD
:101A00001F93CF93DF93CDB7DEB7CE5DD1090FB66D
:101A1000F894DEBF0FBECDBF609141018091A80355
:101A200080FF4CC0E7EDF5E09E012F5F3F4F8E0138
:101A300001521F4FC901A4914A2F50E0DA01AA0FA9
:101A4000BB1FA40FB51FA653BD4FCD90DD90EC90EA
:101A5000D901CD92DD92ED929D013196A017B1078B
:101A600051F72091400143E0249F800D911D1124E6
:101A7000539A2BB1277F3BB138605FB7F894FC01D4
:101A8000649FE00DF11D1124BF018617970749F5EA
:101A90005FBFEFE5F4E03197F1F700C00000C252FC
:101AA000DF4F0FB6F894DEBF0FBECDBFDF91CF91F1
:101AB0001F910F91EF90DF90CF9008958091420198
:101AC0009091430123E0829FF0011124E653FD4FE2
:101AD000891708F0A7CF1182108212828F5F339688
:101AE000F7CFDC014D91CD01E8E03BB9000000C02B
:101AF00047FF2BB9440F000000C000C000C02BB945
:101B000000C0EA9591F7C1CF0F931F93CF93DF9356
:101B1000EC0110E000E0909144019017110609F0EB
:101B20006CF40E94FC0C8C8190E0019681709927E6
:101B30008C83DF91CF911F910F91089520914201E5
:101B4000A801420F511D9A01220F331F240F351F88
:101B500026533D4F4C816091AA038091A90396952D
:101B60009017110669F064F0442361F04091AB03D3
:101B7000433808F042E80E94E8070F5F1F4FCBCFC1
:101B80004423A1F340E0F7CFEF92FF921F93CF934E
:101B9000DF93EC0110E0EE24EA94F12C6091440113
:101BA000161770F00E94FC0C9A818C8190FF2AC05D
:101BB0008F5F8C83DF91CF911F91FF90EF900895FD
:101BC00020914201422F410F5527551FCA019A010A
:101BD000220F331F280F391F26533D4F4091AB036F
:101BE000433808F042E870E0C7010E943335962F71
:101BF0008C816091AA03199F800D11240E94E8072F
:101C00001F5FCCCF8150D5CF9091A80390FF0EC01D
:101C1000909142012091430133E0939FF001112400
:101C2000E653FD4F921718F00E94FC0C0895818333
:101C3000608342839F5F3396F5CFA3E0B0E0E3E299
:101C4000FEE00C94F8349091A80390FF0DC0433847
:101C500008F042E89E012F5F3F4F0E94E8074B814A
:101C600069818A810E94040E2396E2E00C94143567
:101C7000CF93DF93EC01E8EAF3E0438162818C814A
:101C80000E941D0E8C818F5F8C83DF91CF91089510
:101C9000CF93DF93EC01EC81F0E0E15EF94F4491EA
:101CA000E8EAF3E0628181810E941D0E8C818F5FE2
:101CB0008C83DF91CF910895E8EAF3E080818E7FF5
:101CC00080830E94CB07E7ECF2E08281816082830F
:101CD0002FEF80E792E0215080409040E1F700C074
:101CE00000000E94FC0C0895B0E0A0E0EAE7FEE0EE
:101CF0000C94F0347C015B016A018091750201E073
:101D000010E08A3010F40AE010E0C1E0D0E0B50144
:101D1000C701F6010995811104C021960C171D0712
:101D20002CF4CDB7DEB7EAE00C940C35CC9F9001D3
:101D3000CD9F300D300D112490E080E045E34A95B1
:101D4000F1F70000019682179307C1F7E0CF809169
:101D50004B02811110C08091D80080618093D8001F
:101D60008AE18A95F1F700C08091D90080FF0AC00E
:101D700081E080934B0281E090914B02913009F019
:101D800080E0089582E080934B020E9464051092E7
:101D90006405F1CF0E94A70E882359F0E0914A050F
:101DA000F0914B05309729F00190F081E02D0995D5
:101DB000089580E008950F931F930E94A70E882333
:101DC00029F00E94FB061F910F9108950E94FB06C7
:101DD0000091760210917702209178023091790279
:101DE000600F711F821F931FEECF0E94A70E8823E2
:101DF00019F00E94070708950E94DB0ECB01089599
:101E0000CF93DF93CBEDD2E060E0CE010E94AB3503
:101E10002196C11584E0D807B9F7DF91CF910895D5
:101E20000F931F93CF93DF93142F022F843020F54D
:101E3000623010F598E0899FE001112484E0689FEA
:101E4000B0011124C60FD71FC95FDD4F82E090E0BB
:101E5000442311F090E080E0632F8C0F9D1F0E94BF
:101E6000AB3583E090E0112311F081E090E0602F2A
:101E70008C0F9D1F0E94AB35DF91CF911F910F9169
:101E800008951F93CF93DF93122F8430E0F46A30CC
:101E9000D0F44630C0F4C42FD0E0CC0FDD1F9CE05E
:101EA000699FC00DD11D112498E7899FC00DD11DD8
:101EB0001124632FCE0187960E94AB35612FCE018E
:101EC00088960E94AB35DF91CF911F910895CF93F3
:101ED000C82F6FEF811161E983E290E00E94AB357A
:101EE0006FEFC1116EE884E290E00E94AB356FEFB6
:101EF000C1116CED85E290E00E94AB35CF91089561
:101F0000A4E1B0E0E6E8FFE00C94EB34A0904501DA
:101F1000B090460181E090E09093460180934501A6
:101F20008FE1882E87E0982E9FE3C92E97E0D92E67
:101F300010E0760100E015C0F30125913491452DA4
:101F4000602F812F0E94410F82E0680E711C539414
:101F5000E6E05E12F1CFFCE0EF0EF11C0F5F0A30FD
:101F600019F03701512CE8CF740100E0F7012591F9
:101F7000349141E0602F812F0E94100FF7013296BB
:101F80002591349140E0602F812F0E94100F84E052
:101F9000E80EF11C013009F042C0E8E08E0E911C01
:101FA0001F5FF8E7CF0ED11C143009F0C2CF1A82A0
:101FB00019821C821B821E821D8218861F8280EA63
:101FC00090E09A87898707E212E04AE050E0B80182
:101FD000CE0101960E94CF35065F1F4F073782E082
:101FE000180799F77E01EBE0EE0EF11C8AE0F7018D
:101FF00011928A95E9F74AE050E0B801C7010E94C2
:10200000CF35065F1F4F0B3DF2E01F07A1F7B092DF
:102010004601A09245016496EFE00C94073501E07B
:10202000A5CF80E00E94670F60E086E290E00E940A
:10203000AB350E94800F0E94000F81E00E94670F65
:1020400008959B01883070F49AE0899FB0011124B3
:10205000695D7D4F4AE050E0C9010E94873590E0FC
:1020600080E008958FEF9FEF0895AAE0B0E0EBE3E2
:10207000F0E10C94F8349C0137552F3F310509F0FD
:1020800068F4BE016F5F7F4F0E942110892B31F4ED
:1020900089859A852A96E2E00C94143580EA90E0CE
:1020A000F9CFFF920F931F93CF93DF93F42E8430D9
:1020B00070F5623060F528E0829F8001112434E0E1
:1020C000639FB0011124060F171F095F1D4F82E0A7
:1020D00090E0442311F090E080E0800F911F0E9477
:1020E0009735C82FD0E0DC2FCC2783E090E0FF208D
:1020F00011F081E090E0800F911F0E9497359E01C2
:10210000282BC901CDB7DEB7E5E00C94113590E07E
:1021100080E0F8CF0F931F93CF93DF93843030F597
:102120006A3020F5463010F5C42FD0E0CC0FDD1F0B
:102130002CE0629FC00DD11D112438E7839FC00D94
:10214000D11D1124CE0187960E949735082F10E0EB
:10215000102F0027CE0188960E9497359801282BD2
:10216000C901DF91CF911F910F91089590E080E018
:10217000F8CF20918D0430918E04232BC9F4703F49
:1021800039F4603FA9F480918B0490918C040895F8
:10219000843070F47A3038F4663050F4462F672F6C
:1021A0000E948A1008957D3F31F441E0623040F092
:1021B00090E080E008957C3FD9F76230C8F740E0B6
:1021C0000E9451100895CF92DF92FF920F931F93B8
:1021D000CF93DF936C0100916E0580914002082B34
:1021E000C7E0D0E010E0FC2EC8010C2E02C095958F
:1021F00087950A94E2F780FD0CC02197A0F7F12C97
:102200008F2DDF91CF911F910F91FF90DF90CF9095
:102210000895B6018C2F0E94B9100E942E0A0197D2
:1022200061F3EECFCF93DF93EC010E94E310BE0188
:102230000E94B9100E942E0ADF91CF9108950F934A
:102240001F93CF938C01FC01438154816181808174
:102250000E943F07C82F81112AC0F801868197810B
:10226000009791F00E942E0A92959F709630D1F0BF
:1022700080F4925F9F70923080F4803F19F058F4A0
:10228000883E58F4C1E009C0808191810E941211FA
:10229000EBCF9A5FEFCF843FA9F38C2FCF911F91A3
:1022A0000F910895883E70F3813FB9F7EBCFC0E0FE
:1022B000F4CFA5E0B0E0EFE5F1E10C94F7349C0138
:1022C000FC01868197810097E1F485E0DE0111969B
:1022D00001900D928A95E1F7F901228189819A8115
:1022E000222399F0662389F00E94E310182F682FAB
:1022F00089819A810E942D0C69817A81812F0E94A7
:10230000B9102596E3E00C9413350E94E30B182FC7
:10231000F3CF83E290E00E949735813989F484E21B
:1023200090E00E9497358E3859F485E290E00E9443
:10233000973591E08C3D09F090E0892F81700895E8
:1023400080E0FCCFAAE0B0E0E8EAF1E10C94F234DE
:10235000E7E2F4E084E6DF011D928A95E9F7E3EF16
:10236000F4E086E4DF011D928A95E9F787E2C82E42
:1023700084E0D82E7F0107E712E0F701D182C08206
:102380004AE050E0B801CE0101960E94873588E00E
:10239000FE013196D60101900D928A95E1F789856B
:1023A0009A85D70113969C938E931297BAE0CB0E21
:1023B000D11CE7E0EE0EF11C065F1F4F0B3DF2E073
:1023C0001F07D9F62A96E8E00C940E356091A80311
:1023D000669570E041E050E08FE391E00E945D354A
:1023E000892B19F481E08093C8020E94F50E909326
:1023F000C2028093C1028091C90284608093C902A5
:102400000895CF92DF92EF92FF926B017C010E94C0
:10241000D207B701A60188E090E00E94BD35FF9089
:10242000EF90DF90CF900895A3E0B0E0EAE1F2E111
:102430000C94F434082FF62E142FE22E8091A8036A
:1024400080FF3DC0E82FE695F0E0E156FE4F908119
:102450009093C7028E7F8230B1F5433808F042E88E
:102460009E012F5F3F4F6F2D802F0E94E8074B8109
:1024700069818A810E94040E8091A903801308C09B
:102480008091AA038F1104C08091AB03811729F0BA
:102490008091C90282608093C9020093A903F092DF
:1024A000AA031093AB03EE2051F06091A803709142
:1024B000A9038091AA039091AB030E940112239675
:1024C000E6E00C941035923019F41091AB03D4CFA0
:1024D0008091A903963011F0993071F6082FCCCF76
:1024E000E8EAF3E0438125E0421B08F440E021E004
:1024F000628181810E9414120895E8EAF3E0438129
:1025000025E0420F08F44FEF21E0628181810E94B3
:1025100014120895E8EAF3E0628121E1621B08F4F5
:1025200060E021E0438181810E9414120895E8EA6D
:10253000F3E0628121E1620F08F46FEF21E0438153
:1025400081810E9414120895E8EAF3E0818121E07C
:102550004381628188500E9414120895E8EAF3E0F2
:10256000818121E043816281885F0E941412089575
:102570008091AC03882319F081508093AC03609163
:10258000A8037091A9038091AA039091AB030E94C4
:10259000011208958091AC03833018F48F5F80930B
:1025A000AC036091A8037091A9038091AA03909154
:1025B000AB030E94011208959091A80390FF31C0CF
:1025C000917081112FC092609093A8038091C902ED
:1025D00081608093C902662351F06091A8037091D5
:1025E000A9038091AA039091AB030E94011260910C
:1025F000A803669570E041E050E08FE391E00E940F
:102600005D35892BB1F00E94CB0781E08093C40235
:1026100020E04091AB036091AA038091A9030E943E
:1026200014120895803110F09E61CECF880F982B40
:10263000CBCF0E94E611E9CF8091A8038695815007
:1026400009F48FE061E00E94DC1208958091A803F4
:1026500086958F5F803108F081E061E00E94DC1296
:1026600008959091A80390FF08C09695981728F0B8
:10267000961718F40E942613089561E00E94DC1258
:102680000895E8EAF3E083E1808311828FEF82838B
:1026900088E783838483A7ECB2E012968C9112972B
:1026A000836012968C9360817181828193810E94F4
:1026B000011208958091570590914505892B8093CB
:1026C000C00148E050E068E372E080EC91E00E94D5
:1026D0006A35892BA9F088E0E0ECF1E0A8E3B2E0EC
:1026E00001900D928A95E1F7E0914A05F0914B0532
:1026F000309731F00280F381E02D80EC91E0099574
:102700000895CF93DF93EC01E985FA85309719F0AE
:102710006B857C8509958B81982F909580914505D7
:102720008923809345050E945A1385E0FE0111928A
:102730008A95E9F7DF91CF910895CF93DF93EC016C
:102740008C8181FD12C082608C83809145059B81C4
:10275000892B809345050E945A13EF81F8853097A5
:1027600021F06B857C85CE0109951092470510926A
:1027700046058C8180FD03C0CE010E948113DF914C
:10278000CF91089590E080E00E94290790E080E0DA
:102790000E941307109245050E945A1386E0EBEB46
:1027A000F2E0DF011D928A95E9F71092B5021092CE
:1027B000B4021092B6020E947E08089580936E05BE
:1027C0000E94C213089580916E05982F96709630DE
:1027D00021F488600E94DE130895877FFBCF21E0FB
:1027E00030E001C0220F8A95EAF7209580916E05AE
:1027F00082230E94DE13089521E030E001C0220F01
:102800008A95EAF780916E05822B0E94DE13089567
:10281000809340020E94C2130895E2ECF1E086E04A
:10282000DF011D928A95E9F70E94C2130895AAE27A
:10283000B0E0EDE1F4E10C94F73486E695E0209108
:10284000F100DC012D93CD01B5E08E369B07B9F781
:1028500080916705833009F472C0B8F4813009F4BF
:1028600049C0823009F4B5C08091E80083FF98C266
:1028700080916605909167059A3008F091C2E92F22
:10288000F0E0E751FA4C0C9447358A3009F490C0D7
:102890008B3009F471C0893039F780916605813237
:1028A00019F780916A0590916B05009711F00297D6
:1028B000D9F68091E800877F8093E8008091E80056
:1028C00082FF38C09091F3008091F200029731F4BA
:1028D0008091F100813011F0863021F48091F10077
:1028E000809359058091E8008B778093E8000E94DF
:1028F000DE05BACF80916605813A09F0B5CF8091A7
:10290000E800877F8093E80080916A0590916B05CD
:10291000892B61F468E08AE595E070E00E948A0600
:102920008091E8008B778093E8009ECF60E090E094
:1029300080E0F3CF809164058111C0CF95CF809165
:102940006605813A09F090CF80916A0590916B05F8
:10295000892B09F089CF8091E800877F8093E80078
:102960008091E80080FFFCCF809148018093F100C6
:102970008091E8008E77B9CF80916605813209F0A9
:1029800073CF80916A0590916B05892B09F06CCF0C
:102990008091E800877F8093E8000E94DE058091A7
:1029A000680580934801109257050E940D145CCF72
:1029B00080916605813209F057CF8091E800877FCA
:1029C0008093E8000E94DE05809169058093580598
:1029D0004BCF80916605813A09F046CF8091E8009F
:1029E000877F8093E8008091E80080FFFCCF809192
:1029F0005805BCCF803899F0823809F0D1C1809158
:102A00006A058F70873008F0CBC18093E900809110
:102A1000EB0085FB882780F91092E90006C08091C1
:102A2000620590916305911182609091E800977F13
:102A30009093E8008093F1001092F1008091E800FB
:102A40008E77AAC1882309F498C1823009F0A8C101
:102A50008091680581119BC180916A058F702FEF6D
:102A6000280F263008F09CC18093E9002091EB00EC
:102A700020FF8DC1933031F48091EB008062809310
:102A8000EB0085C19091EB0090619093EB0021E009
:102A900030E001C0220F8A95EAF72093EA001092F5
:102AA000EA008091EB008860EACF811179C1109132
:102AB00068051F778091E3008078812B8093E30085
:102AC0008091E800877F8093E8000E94DE05809176
:102AD000E80080FFFCCF8091E30080688093E300F2
:102AE00082E0111183E0809364055AC180588230DE
:102AF00008F056C120916805309169052C3DE3E04E
:102B00003E07A1F583E08A838AE289834FB7F89470
:102B1000DE01139620E03EE051E2E32FF0E0509317
:102B20005700E49120FF03C0E295EF703F5FEF7024
:102B30008E2F90E0EA30C0F0C7968D939D932F5F63
:102B4000243159F74FBF8091E800877F8093E800D8
:102B50006AE270E0CE0101960E948A068091E80048
:102B60008B778093E8001CC1C096E7CF80916A05FF
:102B700090916B05432F55274330510509F44AC006
:102B800078F54130510509F485C08BE590E0EFEC14
:102B9000F9E04230510509F003C12091E800277F98
:102BA0002093E80020916C0530916D058217930702
:102BB00008F49C0140E02115310509F070C0411175
:102BC0006EC08091E80082FDC9CF809164058823A2
:102BD00029F2853019F28091E80083FFF2CFBECF51
:102BE0004132510509F447C04232510509F0D8C0BD
:102BF0008330910508F0D4C0FC01EE0FFF1FEE54A6
:102C0000FE4F0190F081E02D81559E4FDC018C91AB
:102C100090E01DC0332721303105E9F02115310541
:102C200079F022303105F9F02330310509F0B8C0D0
:102C3000ECE3FAE0E4918E2F90E0ECE3FAE007C0D9
:102C4000E6E8FAE0E4918E2F90E0E6E8FAE00097FB
:102C500009F4A6C0A2CFE8E6FAE0E4918E2F90E056
:102C6000E8E6FAE0F4CFEAE5FAE0E4918E2F90E0AE
:102C7000EAE5FAE0ECCF8330910508F091C0880FC7
:102C8000991FFC01E854FE4F0190F081E02D89E08E
:102C900090E083CF82E190E0EAE2FAE07ECF80919B
:102CA0006405882309F45ACF853009F457CF809101
:102CB000E80083FD53CF8091E80082FD82CF8091B0
:102CC000E80080FF78CF9091F3008091F200211509
:102CD000310519F08830910550F041E0089709F06E
:102CE00040E08091E8008E778093E80064CF4491C3
:102CF0004093F1003196215031090196E8CF803898
:102D000009F04EC08091E800877F8093E8008091B1
:102D100065058093F10092CE811142C01091680543
:102D20001230F0F58091E800877F8093E8001093DF
:102D300065050E94DE05112311F084E005C0809135
:102D4000E30087FDFACF81E08093640542E061EC07
:102D500081E00E94FD0542E261EC84E00E94FD05F5
:102D600042E261EC82E00E94FD0542E260EC83E019
:102D70000E94FD058091640513C080916805813033
:102D800079F481E0933009F080E08093630510923C
:102D9000E9008091E800877F8093E8000E94DE05CB
:102DA0008091E80083FF0AC08091E800877F8093CC
:102DB000E8008091EB0080628093EB00AA96E3E04C
:102DC0000C941335882341F0809590914505892313
:102DD000809345050E945A130895882339F09091F5
:102DE0004505982B909345050E945A130895882312
:102DF00041F08095909157058923809357050E9453
:102E00005A130895882339F090915705982B909381
:102E100057050E945A130895882309F441C09CEF76
:102E2000980F913A80F4E2ECF1E028EC31E09191D6
:102E3000891303C0DF0111971C922E173F07B9F7C2
:102E40000E945A13089590E2980F983088F4877082
:102E500021E030E0A90102C0440F551F8A95E2F736
:102E6000CA01809590915705892380935705E8CF33
:102E70009BE5980F933028F490E080E00E942907AA
:102E8000089598E5980F973128F490E080E00E942B
:102E900013070895803F20F00E94A5080E947E0835
:102EA00008950F931F93CF93C82F882349F18CEF78
:102EB0008C0F813AB8F502EC11E088EC91E0F80152
:102EC0002191C21709F121E0E83CF207C9F7EFEFC1
:102ED00080E0D8019D918D01C91781F0EF3F19F471
:102EE000911101C0E82F8F5F863099F7EF3F31F0E5
:102EF0000E2E000CFF0BE054FE4FC2830E945A13AB
:102F0000CF911F910F910895E2ECF1E02191C2134E
:102F100003C0DF0111971C928E179F07B9F70E941B
:102F20005A13D5CF80E28C0F883068F4C77021E047
:102F300030E001C0220FCA95EAF780915705822B35
:102F400080935705DBCFEBE5EC0FE33040F4F0E086
:102F5000EF5AFE4F808190E00E942907D1CFE8E52B
:102F6000EC0FE73150F4F0E0EE0FFF1FEC5AFE4F8C
:102F7000808191810E941307C3CFC03F08F28C2F3C
:102F80000E946A090E947E08BBCF1F93CF93DF93F4
:102F9000182FEB010E9451178FE99FE00197F1F77D
:102FA00000C000002197C1F7812F0E940C17DF910C
:102FB000CF911F910895B0E0A0E0E1EEF7E10C940D
:102FC000EF34EC01A62E8AE0982E2881222309F402
:102FD000B3C0213009F051C089818130C1F48E0124
:102FE0000E5F1F4F8A816AE070E0893311F460E55B
:102FF00070E00E94C517E80121968A2D815028F3C0
:10300000EFE9FFE03197F1F700C00000F7CF823021
:1030100039F48E010E5F1F4F8A810E945117EBCF4A
:10302000833039F48E010E5F1F4F8A810E940C1786
:10303000E2CF843011F02196DFCF2A81229690E0F2
:1030400080E0AE014F5F5F4F2053330B2A303105D4
:1030500048F0019788F2EFE9FFE03197F1F700C0FF
:103060000000F7CF989EB001999E700D1124C90100
:10307000860F971F2981EA01E4CFE22FF0E0E15BA0
:10308000F64FB490822F86958695869590E0FC0148
:10309000E15CF64FE4902770F12C022E02C0F5940B
:1030A000E7940A94E2F731E0E322FF24FC01E15DBA
:1030B000F64FC490D12C022E02C0D594C7940A9426
:1030C000E2F7E1E0CE22DD24FC01E15EF64F04915F
:1030D00010E002C0159507952A95E2F701701127B7
:1030E000E114F10419F081EE0E945117C114D104CA
:1030F00019F086EE0E945117F9E36AE070E0BF1202
:1031000002C060E570E08B2D0E94C517C114D10488
:1031100019F086EE0E940C17E114F10419F081EE0B
:103120000E940C170115110509F466CF6AE070E0E2
:103130008CE20E94C51760CFCDB7DEB7EBE00C94F0
:103140000B3568EE7EEF90E080E00E94C93560E0CC
:1031500082E090E00E94AB3560E083E090E00E9466
:10316000AB351092400260E084E090E00E94AB3505
:1031700064E082E290E00E94AB3560E085E090E0A0
:103180000E94AB3560E086E090E00E94AB356FEFC7
:1031900087E090E00E94AB3540E050E0BA0188E063
:1031A00090E00E94BD3560E08DE090E00E94AB357C
:1031B00040E050E0BA0188E190E00E94BD3560E057
:1031C00087E190E00E94AB3540E050E0BA018CE12D
:1031D00090E00E94BD3570E060E080E290E00E94E7
:1031E000C93540E050E0BA0188E190E00E94BD3569
:1031F00080E00E94670F0E94111040E050E0BA0189
:103200008FE090E00E94BD3540E050E0BA0183E1DC
:1032100090E00E94BD350895A4E0B0E0E2E1F9E15C
:103220000C94F0347C01DC0113964D915C91149761
:1032300011966C9111978C910E943F078111E3C008
:1032400061E0C7010E9459118C01F7018281882336
:10325000E1F080914605909147050097B1F008177D
:10326000190799F0FDE08F9FC0011124FC01ED5377
:10327000FC4F20812460208381549C4FDC010D93FE
:103280001C930E949D1310924505F70182818823AB
:1032900009F440C4980122513F452031310508F01E
:1032A000AFC38FEF93E00E9497358111ACC03EEE23
:1032B000F32EF00E0BED12E0F11037C019821A82D6
:1032C0001B821C82BB24BA9478012FEFE21AF20A07
:1032D000C8010E94973589831A82882309F493C014
:1032E000813009F080C0680142E0C40ED11CC701E2
:1032F0000E949735E82E8A83882309F484C0C6018A
:103300000E949735F82E8FEF8E0D8330E0F4680120
:1033100053E0C50ED11CFB82FF2029F060E0CE01F6
:1033200001960E94DB178601CFCF0115F4E01F073D
:1033300009F469C0C8010E949735811101C0FA944F
:103340000F5F1F4FB9CF8BEF8E0D833030F5C80163
:103350000396FB826C01FF2031F36801A4E0CA0EE2
:10336000D11C0E9497358C838823E9F28B819C8144
:103370008130BFEF9B0710F0982F8827E6E0EE160C
:1033800031F0F7E0EF1631F00E94B924CCCF0E9463
:103390008024C9CF0E94F423C6CF24E0E212C3CF19
:1033A000680144E0C40ED11CC80103960E94973501
:1033B000FF2049F1882339F18150990BB89E900183
:1033C000B99E300D1124AF2DA150BB0BCD01820F42
:1033D000931F019708F4A7CFEFE9FFE03197F1F7CA
:1033E00000C00000F6CF6AE0CE0101960E94DB1714
:1033F000670199CF81E00E94FC1303C081E00E9425
:10340000EF130E94E3132496EAE00C940C3582E05B
:10341000F2CF823009F035C38091B9039091BA039D
:10342000892B09F42EC32DE02C9DC0012D9D900DFC
:103430001124FC01ED53FC4F20812E7F2083815409
:103440009C4F0E949D131DC35FEFC516D10409F068
:1034500008F417C3D70112969C919111E7C080918F
:10346000570582720A3CBCE51B0709F4CAC008F084
:1034700052C0053CFCE51F0709F4AFC0A8F5033CAA
:103480004CE5140709F49FC008F0A2C0023C8CE58B
:10349000180709F46CC0F701268137812115310521
:1034A00009F4CCC0C9010E942E0A182F292FF70158
:1034B00032815581452F42954F7092959F70C92E4C
:1034C000D12C9C3008F004C1F601ED50FA4C0C945C
:1034D0004735902F812F19C3F601848181FFBACF20
:1034E000C6010E948113B6CF073CACE51A0709F468
:1034F0007EC008F477C0083CECE51E0709F47CC0E8
:1035000040E752E16DE772E1093CFCE51F0719F65F
:103510000E94C40778CF0F3C2CE5120709F483C042
:10352000B0F40C3C5CE5150709F475C008F46EC0F6
:103530000D3CBCE51B0709F473C065E082E00E3C5E
:10354000ECE51E0709F0A7CF0E9431135CCF063DC2
:10355000FCE51F0738F46EE089E0013D2CE5120719
:1035600098F351CF0D35100709F44DCF94CF8091CA
:10357000A80380FF20C08E7F8093A8036091A803DA
:103580007091A9038091AA039091AB030E9401124C
:103590000E94CB078091C90281608093C9025FEFCE
:1035A00080E792E0515080409040E1F700C0000079
:1035B0000E94FC0C28CF81608093A80361E086956F
:1035C0000E94DC1220CF4CE153E166E273E1A0CF10
:1035D00046E253E16CE173E19BCF44EA52E16EEACB
:1035E00072E196CF4EEA52E164EA72E191CF4AE885
:1035F00052E167E972E18CCF47E952E16AE872E192
:1036000087CF4DE752E160E772E182CF48EB52E1AC
:103610006AEC72E17DCF4AEC52E168EB72E178CF5F
:1036200061E081E0CDCF68E086E08ECF0E3DACE575
:103630001A0709F030CF0E94A118E5CE0081118150
:10364000992369F0C8010E94E310D82E682FC801A1
:103650000E942D0CB8018D2D0E94B91024CFC801F5
:103660000E94E30BD82EF6CF022F0F70207F11F0AF
:103670000295007F3323C9F0002369F080E2810FB7
:10368000883010F011110BC080915705082B009362
:1036900057050E945A13812F0E94511719C080911B
:1036A0004505082B00934505F4CF812F0E940C1788
:1036B000002371F0009580E2810F883010F0111125
:1036C00015C0809157050823009357050E945A138F
:1036D000B8E0CB1AD108E4E0CE16D10410F40E9471
:1036E000CA0E60E0C7010E9459118DCE8091450538
:1036F000082300934505EACF822F8F70207F203268
:1037000011F08295807F113061F4332329F043302A
:10371000F8F60E940217DCCF4230D0F60E94F7166E
:10372000D7CF332349F04423A1F350FFB4CF5F70C8
:10373000D70115965C93EDCF442381F3193369F4D7
:10374000BFEFE7EEF3E0B150E040F040E1F700C03A
:103750000000812F0E940C17BBCF8FE39CE90197DB
:10376000F1F7F5CF822F86958695837069F08130C9
:1037700009F0AECF812F922F9370311102C090E0EB
:1037800080E00E941307A4CF812F922F93703111F4
:1037900002C090E080E00E9429079ACF812F332356
:1037A00029F00E946A090E947E0892CF0E94A50813
:1037B000FACF822F837089F531118ACF312F32955C
:1037C00036953770330F330F812F8F70032E01C062
:1037D000880F0A94EAF7412F407114FF07C04FE0A9
:1037E00050E001C0440F3A95EAF74095269526959A
:1037F0002370223069F050F430914002213029F0DA
:10380000842B83230E94081463CF832B842BFACF4D
:10381000482B809140028427F5CF8695332311F001
:10382000822F8170882309F453CF312F329536953A
:103830003770330F330F812F8F70032E01C0880F25
:103840000A94EAF7412F407114FF07C04FE050E09F
:1038500001C0440F3A95EAF74095269526952370C6
:10386000223069F050F430916E05213029F0842B1C
:1038700083230E94DE132CCF832B842BFACF482B7B
:1038800080916E058427F5CF022F0F70332329F026
:10389000802F0E94FC13812F3CCF812F0E94F716AE
:1038A000802F0E94EF1314CF113F61F148F4103FB5
:1038B000A9F0332399F14111EECE822F8F7126C0EA
:1038C000123F39F1133FA9F780E0332391F22F71B2
:1038D00081E001C0880F2A95EAF7CBCF332371F03E
:1038E000423008F0F5CE2F7181E090E001C0880FE2
:1038F0002A95EAF790916E058927BBCF433008F0EF
:10390000E7CEF1CF822F8F71332359F20E94FC133F
:10391000DFCE822F8F713323C9F3C3CF442379F0D5
:10392000193341F49FEFA7EEB3E09150A040B040AF
:10393000E1F70DCFEFE3FCE93197F1F708CF822FE4
:103940008F71AFCF123FD9F128F5103F61F1113FD0
:1039500009F43DC08091EC01442309F445C088235B
:1039600041F08091ED0191E089278093ED01109263
:10397000EC01311190CE8FE39CE90197F1F700C083
:103980000000812F0E940C1788E0D7011D928A95B4
:10399000E9F79ECE143FB1F080F0153FD9F6311112
:1039A00097CE81E007C0332309F492CE8091ED01D8
:1039B00091E089278093ED018BCE81E03827309309
:1039C000ED0186CE311184CE1092ED0181CE3323EC
:1039D00039F08091EC01882349F31092EC0178CE04
:1039E000423008F075CEE2CF882309F471CE311150
:1039F0006FCE8091ED0191E089278093ED01EDCFAD
:103A00000031FFE51F0709F4F5CC01312FE512075E
:103A100009F4FDCC680127E5D21A811115CD4FEFCD
:103A2000C416D10411F008F015CD65EB73E08C2DB0
:103A30000E942110892B29F58DE08C9DF0018D9D30
:103A4000F00D1124E154FC4F8281813009F0E1CC6A
:103A50008091B5039091B603892B99F08091B703BB
:103A60009091B803892B69F08091B9039091BA03C2
:103A70002091BB033091BC03822B932B892B09F43B
:103A8000D2CC5801BB248DE0089FF0011124DF0146
:103A9000A154BC4F6D01D70112968C91ED53FC4F90
:103AA000908180FB90F99083882309F415CD0E94C2
:103AB000070790939B0280939A02D60112968C91ED
:103AC00012978F5F12968C93129780914505909173
:103AD0005705892B13968C9313971596ED91FC91AE
:103AE0001697309729F01B966D917C91C601099528
:103AF0008DE08A9DF0018B9DF00D1124E154FC4F67
:103B0000848181FFE6CC90E080E09093460580932D
:103B10004705A0CC00314FE5140709F46FCC013103
:103B20005FE5150709F076CF82E069CCB0E0A0E050
:103B3000ECE9FDE10C94F2348091F301807F31F4E3
:103B40008091F001C0913702811107C0CDB7DEB777
:103B5000E8E00C940E352196C7708091F6018C1721
:103B6000A9F3F090EE01E090EF01C090F101D09048
:103B7000F201A6016E2D8F2D0E943F07D0E081112A
:103B8000EACF8E0183E0000F111F8A95E1F7F8015B
:103B9000E950FE4F81818E11DECF80818F11DBCF06
:103BA00082818111D8CFE380F480EC18FD0860E0B9
:103BB0008EEE91E00E9459110E943510E816F90628
:103BC00050F68091F3018F7080618093F301F801CA
:103BD000E450FE4F80818F70806180838EEE91E093
:103BE0000E940C190E94B20BB1CFA5E1B0E0EBEF3F
:103BF000FDE10C94EA348C0185E0F801DE01519678
:103C000001900D928A95E1F7F801E2804EEEA42E24
:103C100041E0B42E8090F1019090F201A4016091F6
:103C2000EF018091EE010E943F07682E8111A1C132
:103C3000F801C380D480F090F001C6018819990979
:103C40004C01FF2009F447C14080518060E0C5016C
:103C50000E9459110E9435107090F3018816990640
:103C600008F0E1C04091F1015091F201B090EE01F5
:103C7000A090EF01872D807F6A2D09F080C08B2DE9
:103C80000E943F07FE2C811124C0F80181818A1116
:103C900020C080818B111DC02091F4013091F5016D
:103CA0008681978128173907A1F4E11012C0872D6A
:103CB0008F7080618093F3018EEE91E00E940C1969
:103CC0008091F301F80185838F2D6596E0E10C94D6
:103CD0000635A601652D842D0E943F07811122C063
:103CE00081E08E25F82FF170DF2E80FF3EC080919D
:103CF00037022091F601821317C0498A5A8A8989AE
:103D00009A890E941211292F22952F70223008F1D2
:103D1000243030F59F7009F1F8019581907FE9F426
:103D2000F62CD2CF80E0DECF90E0FC0133E0EE0F46
:103D3000FF1F3A95E1F7E950FE4F3181531206C05B
:103D40003081431203C03281E3120FC001968770A5
:103D5000D2CF9F7011F0882319F3805E883000F372
:103D6000C8010E940C196D2CDBCFEE2009F4ACCFFA
:103D70008091F30181608093F301F12CA5CF8B2D0D
:103D80000E943F0781111FC0F80181818A111BC069
:103D900080818B1118C02091F4013091F50186814A
:103DA00097812817390779F4E1100DC07582C80191
:103DB0000E940C1988E0F801AEEEB1E001900D927E
:103DC0008A95E1F781CFC8010E941F11882339F13C
:103DD000EE2029F18091F3018032A0F02091EE01D4
:103DE0003091EF013A8729871B86DD86CC868E8746
:103DF0008091F4019091F501988B8F87CE010996FF
:103E00000E940C1988E0F801AEEEB1E001900D922D
:103E10008A95E1F70E94961DFF24F39455CFC801BF
:103E20000E940C19F9CF872D807F51F48EEE91E01E
:103E30000E940C1988E0F50111928A95E9F79DCF4F
:103E40009090EE018090EF014091F1015091F201CC
:103E5000682D892D0E943F0781111CC0F8018181C6
:103E6000881118C08081891115C02091F40130910A
:103E7000F501868197812817390761F4E1100AC09E
:103E80007582C8010E940C1988E0F50111928A958B
:103E9000E9F71ACFC8010E941F11882309F4BFCF88
:103EA000EE2009F4BCCF8091F301803208F4AACF50
:103EB0002091EE013091EF013A8329831B82DD824C
:103EC000CC828E838091F4019091F50198878F8345
:103ED000CE01019695CF60E08EEE91E00E945911DF
:103EE0000E9435108816990678F6FE2CEE2009F40B
:103EF00096CFE090EE01D090EF014091F10150910A
:103F0000F2016D2D8E2D0E943F07811124C0F80112
:103F100081818D1120C080818E111DC02091F401FE
:103F20003091F5018681978128173907A1F4909186
:103F3000F30190FD3FCF907F09F43CCF8091F301D6
:103F40008583903F09F433CF982F907F905F8F70D7
:103F5000892B85832CCFC8010E941F11811152CF5C
:103F60008091F30181608093F301C8010E940C19D4
:103F7000ABCEEE2009F453CFC8010E941F11F82EDA
:103F8000882309F44CCF88E0F801AEEEB1E001904F
:103F90000D928A95E1F78091EE019091EF010E94D8
:103FA000121192959F70963051F4863F41F08091A6
:103FB000ED0191E089278093ED019093EC010E943F
:103FC000961D82CEA0E1B0E0E8EEFFE10C94F8345B
:103FD00029873A874B875C876D877E878F87988B89
:103FE000CE0109960E94F51D81112FC088E0FE01C7
:103FF0003996DE01119601900D928A95E1F74C8574
:104000005D856A8589850E943F0781111EC0A09148
:10401000F601B0E0CD010196877099272091370213
:1040200028171906E1F093E0AA0FBB1F9A95E1F754
:10403000A950BE4F98E0FE01319601900D929A95DD
:10404000E1F78093F6010E94B20B809137029091C4
:10405000F601891314C06096E2E00C9414351092B6
:1040600057050E940D141092F6011092370288E055
:10407000EEEEF1E0DF011D928A95E9F7E6CFB8E0B8
:104080008B9FC001112489509E4F0E94F51D8823EB
:1040900011F38091370290E0019687709927809301
:1040A0003702D3CFB0E0A0E0E8E5F0E20C94F334BF
:1040B00080919204882369F0C0919104E12C8CE0F6
:1040C000F82E80919204C81748F010929204109232
:1040D0009104CDB7DEB7E7E00C940F35DD24D3941F
:1040E000DC0ED09291040C2F10E0CF9DE001112442
:1040F000CD56DB4F4B815C81698188810E943F07EF
:1041000081112CC08E819F81892B21F4888599850E
:10411000019651F4288139814A815B816C817D81CE
:104120008E819F810E94E21FF09EF001F19EF00DB2
:104130001124ED56FB4F1482138210924505E110B5
:104140000DC0CE010E941F11811108C08FE39CE9B0
:104150000197F1F700C00000EE24E394CD2DB1CF1C
:104160001092440510924305109247018091420538
:10417000809341050E9478070E9452200895B0E084
:10418000A0E0E5ECF0E20C94E934C091410597E041
:10419000892E01E010E02CE0322E3EEF932E4424D5
:1041A0004394809142058C1309C00E9452200E94C2
:1041B0007807CDB7DEB7E1E10C940535D0E0FE011C
:1041C000EE0FFF1FE75CFA4F80819181889ED0013E
:1041D000899EB00D1124AD50BB4F14962C911497AD
:1041E000211158C050909204E3E9F4E030E020E05F
:1041F000712C5D01251508F04BC0E284F384D501D4
:10420000CD90DC906FEF7FEF612C462D50E0DA010E
:10421000AA0FBB1FAC0DBD1D0D90BC91A02D10971A
:1042200031F0EA16FB0609F4BA016394EECF6F3F52
:104230007607A9F1D80102C0AA0FBB1F6A95E2F761
:104240007A2AB801062C02C0660F771F0A94E2F79B
:10425000AB014150510974161506F9F4329EF00174
:10426000339EF00D1124ED56FB4F889ED001899EA0
:10427000B00D1124AD50BB4F12962D913C91139768
:1042800037832683908291829187808715964C92FE
:104290000E944A072196C37084CF148213822F5F35
:1042A0003F4F3C96A7CFA9E1B0E0E9E5F1E20C94DD
:1042B000E834F62E6B8B7C8B8D8B8A01611110920A
:1042C00045054C895D89612F802F0E943F07811130
:1042D00034C01A3008F065C0063078F5E02FF0E001
:1042E00026E0129FE00DF11D11249F012770332756
:1042F00081E090E001C0880F2A95EAF7DF0173E0C2
:10430000B695A7957A95E1F7A753BE4F2C913091BA
:10431000ED01F11002C0322F3823332309F463C0BA
:10432000AF01440F551FFA01EE56FE4F1491FA01EA
:10433000EF56FE4F0491822B8C931D861E861F869E
:10434000188A098B1A8B85E0FE017196DE01199699
:1043500001900D928A95E1F74C855D856A85898586
:104360000E943F07811112C061E0CE0109960E94B0
:1043700059116C018B8537EFC3163CE5D306B1F5B7
:10438000882309F449C081E08093470129853A8553
:104390004B855C856D857E858F8598890E94E21F9F
:1043A000EAC084E0810F823040F6E02FF0E0202F59
:1043B000277081E090E001C0880F2A95EAF7DF01BD
:1043C00033E0B695A7953A95E1F7A853BE4F2C91E7
:1043D0003091ED01F11002C0322F3823332319F050
:1043E000E157FE4FA7CF80958223A6CF48EFC41692
:1043F0004CE5D40629F4882379F00E94B020C6CF7A
:1044000069EFC6166CE5D60639F4882329F0809149
:1044100047018111F2CFB7CF03EF14E0E12CB12CAB
:10442000A12C88248394912C2EEF522E4424439463
:10443000F8014081518166246A94762C20E0822F15
:1044400090E0FC01EE0FFF1FE40FF51F608171810A
:104450006115710531F0C616D70609F43C012F5FCE
:10446000EECFF12CFFEF6F167F0609F446C0F8017E
:104470004481F09047018F2D411180E0F82FF170B9
:10448000FF2EF801258086819B85992309F4F4C0CD
:10449000FF2009F4F1C0211015C0A401062C01C0B1
:1044A000440F0A94EAF7842B868380918F049091BD
:1044B00090048039914030F460E971E07093900489
:1044C00060938F04C40102C0880F991F2A95E2F7F8
:1044D0000197F80126812817190679F48091430580
:1044E00090914405009709F44AC00E94EC06813976
:1044F000914008F444C0F8014482EF28FFEFAF1A5E
:10450000BF0A095F1F4F2AE0A216B10409F090CF3D
:104510008B85882309F40CC1EE2009F409C10E949F
:104520000707909344058093430580919204883057
:1045300010F591E0980F9093920498E0FE0139965F
:10454000DE01119601900D929A95E1F73CE0839F70
:10455000C00111248D569B4F28E0FE013196DC01ED
:1045600001900D922A95E1F72FEF3FEFFC01318783
:104570002087D386C2866996E2E10C940435809147
:10458000410550914205982FF0E0E0E0851314C0FA
:10459000909341050E171F0709F4AFCF90E0FC017F
:1045A000EE0FFF1FE75CFA4FB182A0820196837085
:1045B000992780934205A1CF282E312CF101EE0FCF
:1045C000FF1FE75CFA4F20813181F7E0F29FD001B5
:1045D000F39FB00D1124AD50BB4F2D913C9111971D
:1045E000398F288F40E020E030E0E32FF0E0EE0F3D
:1045F000FF1F688D798DE60FF71F60807180611451
:104600007104E1F0F8010190F081E02DFF8BEE8B59
:1046100020E005C06616770609F44F2D2F5FE22FC4
:10462000F0E0EE0FFF1F6E897F89E60FF71F6081B4
:1046300071816115710571F73F5FD7CF4423C9F0D0
:10464000F801231708F0FD0144820E171F0721F41B
:1046500090934105F42E51CF891305C0AE17BF07C3
:1046600011F49F5F937091012F5F3F4F822F8370F2
:104670008DCFF0E0E0E0F7CF90E0211020C0B40152
:1046800002C0660F771F2A95E2F79B01215031097E
:104690008217930731F4442309F448C0C5010E94EE
:1046A0004A07C401062C01C0880F0A94EAF7982F24
:1046B0009095F801868189238683F22C1ECF9C0178
:1046C000062C02C0359527950A94E2F7A90141709E
:1046D0005527BC016150710986239723892B11F559
:1046E000452B01F1F80182819381892BC1F01B8256
:1046F0001C821D821E8259825A820E940707816095
:10470000582F9D838C83F801828193818F839887B2
:1047100029813A814B816D817E810E94E21FF801DF
:104720001582BFCFF22FF1702F2EBBCF2F2CB9CF18
:104730009091410580914205981731F00E94BF2069
:10474000EE2009F423CE17CF0E9452201092440588
:10475000109243050E947807F3CFAAE0B0E0E3EBA4
:10476000F3E20C94F634182F062F662399F10E9479
:1047700007071E832DEF2F8321E0288781609A870A
:1047800089874E815F81688579858A850E9453215A
:104790008FE39FE10197F1F700C000000023F9F0DB
:1047A0000E94070719832DEF2A831B8281609D8356
:1047B0008C8349815A816B817C818D810E94532138
:1047C0008FE39FE10197F1F700C000002A96E4E033
:1047D0000C9412350E9407071E832CEFCCCF0E9449
:1047E000070719832CEFE0CFA5E0B0E0EAEFF3E292
:1047F0000C94F6348C0190938C0480938B040115F7
:1048000080E21807C0F4802F0E940C17C8010E9494
:10481000490C9801205E31092830310518F0011546
:10482000110531F40E94F7162596E4E00C94123538
:104830000E94E216F9CF80EF89838A831B820E944F
:1048400007078160782F9D838C8349815A816B8112
:104850008D810E945321E8CF0F931F93CF93DF9355
:104860008C01EB0165EB73E08C2F0E942110892BEA
:10487000A1F48FE39CE90197F1F700C00000DD2768
:10488000C355DC4F8881F801128218828330F1F021
:1048900048F4813059F0823081F0DF91CF911F913F
:1048A0000F9108958430B9F08530B9F78091B50340
:1048B0009091B603009789F306C08091B703909159
:1048C000B803009799F30E94F423E7CF8091B903CE
:1048D0009091BA03F6CF8091BB039091BC030097EF
:1048E00091F72091B5033091B6038091B703909171
:1048F000B80321153105F1F2009729F7C901E3CF7B
:10490000A5E0B0E0E6E8F4E20C94F6348C01909374
:104910008C0480938B04011580E21807C0F4C80151
:104920000E94490C9801205E31092830310518F0A9
:104930000115110549F40E940217802F0E9451179A
:104940002596E4E00C9412350E94ED16F6CF80EF28
:1049500089838A8381E08B830E9407078160782F97
:104960009D838C8349815A816B818D810E94532163
:10497000E7CFCF93DF93EC010E9480248FE39CE983
:104980000197F1F700C00000CE010E94F423DF91EF
:10499000CF9108950F931F93CF93DF938C01862FB0
:1049A00065EB73E00E942110892BB1F4C091B5032F
:1049B000D091B603209781F0F8018281833051F4C1
:1049C000CE010E94B924CE010E94B924CE010E94DA
:1049D000B92402C08430D0F7DF91CF911F910F919D
:1049E00008950F931F93CF93DF938C01EB0165EB39
:1049F00073E08C2F0E942110892B09F05CC0FE010E
:104A0000FF27D80112968C911297E355FC4F813005
:104A1000B9F414969C9192FF02C080830AC090FF63
:104A2000FCCF82E080838091B7039091B803009718
:104A3000B9F48091B5039091B6030097E1F110C0ED
:104A40008230B9F514968C9182FD28C080FD0BC090
:104A500083E080838091B9039091BA03009701F1BC
:104A60000E94802428C084E080838091BB039091C1
:104A7000BC030097A9F78091B5039091B603009706
:104A8000F9F00E94B9248091B7039091B803009780
:104A900039F78091B5039091B603E2CF85E080832A
:104AA0008091B5039091B603009729F00E94B92434
:104AB000F0CF86E08083DF91CF911F910F91089511
:104AC0008091B7039091B803B8CFAFE0B0E0EBE6C8
:104AD000F5E20C94ED348E010F5F1F4F8AE0D80190
:104AE0001D928A95E9F784E8C82E81E0D82EF12C32
:104AF000E12CAA24A394B12C2FE8822E21E0922E3F
:104B0000F60181916F018F3F09F442C0F894E82FBC
:104B1000E295EF70F0E021A18F70A50102C0440F73
:104B2000551F8A95E2F7CA01922F982B91A392A163
:104B30008095892382A3789400C0E9E8F1E0712C84
:104B400031E021912F3F09F46BC0A22FA295AF70E5
:104B5000B0E090968C9190E02F7002C0959587956B
:104B60002A95E2F780FD5CC0832F782A330F8E16DA
:104B70009F0639F7F601319780818F3F11F00E942F
:104B8000D40950EA5A95F1F7F801EE0DFF1D708235
:104B90008FEFE81AF80A95E0E916F10409F0B0CFB2
:104BA0004AE050E0B8018AE792E00E946A35009737
:104BB00041F02AE0F801AAE7B2E001900D922A95AF
:104BC000E1F700918502892B69F181E0809343022E
:104BD0000E94070790934202809341028091410214
:104BE000909142020E94EC06059700F110E00655F4
:104BF0001D4F45E050E06AE772E0C8010E946A3547
:104C0000D12C892B51F085E0EAE7F2E0D801019040
:104C10000D928A95E1F7DD24D3941092430207C0E8
:104C200080E0A3CF809143028111D8CFD12C0E9484
:104C3000A70EC82EE0918502DE011B967D01882318
:104C400009F47AC085E01D928A95E9F70E2F10E0ED
:104C500006551D4F809175028A30D8F542EE58E214
:104C6000B701C8010E94740E882309F454C049E8B2
:104C700058E2B701C8010E94740E882309F44BC0A2
:104C80004EE857E2B701C8010E94740E882309F468
:104C900042C04DE257E2B701C8010E94740E88235A
:104CA000D1F1109275028091840290E045E050E0CD
:104CB000B70186559D4F0E946A3521E020934A0234
:104CC000892BE1F4C12C8C2D8D292F96EDE00C94CD
:104CD000093580914402909145020E94EC06843F80
:104CE000914008F0BBCF80914A02882359F385E0B8
:104CF000F70111928A95E9F710924A02A091840275
:104D0000B0E0A655BD4F85E0FE013B9601900D92A7
:104D10008A95E1F7D8CF809175028F3F31F08F5F90
:104D2000809375028A3008F4BECF0E9407079093E3
:104D3000450280934402D7CFF0E0E655FD4F85E071
:104D4000AEE5B2E001900D928A95E1F765E070E082
:104D50008EE592E00E94890780935D024091A40253
:104D600050E06091A30270E061567D4FC7010E9440
:104D700077358B858093640261E070E0C7010E9403
:104D80008907809363028090650290906602A090EC
:104D90006702B09068028091460290914702A0910C
:104DA0004802B091490288169906AA06BB06D1F0BE
:104DB0008092460290924702A0924802B092490225
:104DC0000E94A70E81110EC00E94FB06861A970A48
:104DD000A80AB90A8092760290927702A09278028D
:104DE000B092790280917002882309F46CCF80FF21
:104DF0000DC08091690280FF2AC09091A803916044
:104E00009093A80360E086950E94DC128091700266
:104E100081FF09C020E040916C0260916B0280919B
:104E20006A020E9414128091700282FF06C0809173
:104E30006F02882379F00E94E6118091700283FF4F
:104E400003C081E08093C402109270023CCF0E94A4
:104E50005C0EDCCF0E94CB07F0CFA8E0B0E0E3E32C
:104E6000F7E20C94F83485E0E8EAF3E0DE0111960D
:104E700001900D928A95E1F78091C7029091C80246
:104E8000A091C9028E839F83A887288540917102D3
:104E90005091720260917302709174023FB7F8945E
:104EA00080914F0590915005A0915105B091520508
:104EB0003FBF841B950BA60BB70B84369105A1054C
:104EC000B10510F4222319F18091290190912A0152
:104ED000835A9D4F4091280150E04930510510F010
:104EE00048E050E0BE016F5F7F4F0E94773585E05C
:104EF00090E00E947234882369F00E94FB06609360
:104F000071027093720280937302909374021092F4
:104F1000C90281E02896E2E00C941435A4E0B0E0E8
:104F2000E4E9F7E20C94F7344091590250915A02A7
:104F300060915B0270915C022FB7F89480914F05ED
:104F400090915005A0915105B09152052FBF841B3F
:104F5000950BA60BB70B11E084369105A105B105A1
:104F600070F10E94DB0E6E5F7F4F8F4F9F4F698302
:104F70007A838B839C838091210190912201835AB3
:104F80009D4F4091200150E04530510510F044E024
:104F900050E0BE016F5F7F4F0E94773584E090E064
:104FA0000E947234182F882351F00E94FB066093F0
:104FB000590270935A0280935B0290935C02812F96
:104FC0002496E3E00C9413354F925F927F928F9278
:104FD0009F92AF92BF92CF92DF92EF92FF920F9388
:104FE0001F93CF93DF930F92CDB7DEB7C62E4A0142
:104FF0005901482E880F5508C2010E947234782E3C
:10500000882309F480C0C20133E0880F991F3A95C4
:10501000E1F7FC01E050FF4F438150E0411551059D
:1050200011F041E050E080509F4FFC016481758198
:10503000635A7D4FCE0101960E947735F40140817D
:105040005181628173812FB7F89480914F059091BF
:105050005005A0915105B09152052FBF841B950BAF
:10506000A60BB70B84369105A105B10540F4B70135
:10507000C8010E9489079981891709F444C00C2C42
:10508000000CDD08C6010E947234782E811113C015
:10509000712C872D0F90DF91CF911F910F91FF9071
:1050A000EF90DF90CF90BF90AF909F908F907F90C8
:1050B0005F904F900895C60123E0880F991F2A95AD
:1050C000E1F7FC01E050FF4F438150E0E416F506A4
:1050D00008F4A70180509F4FFC0164817581635AD9
:1050E0007D4FC5010E947735B701C8010E9489072D
:1050F00099818913CDCF0E94FB06F40160837183EF
:1051000082839383C6CFA701B801C5010E9477357A
:10511000C0CFA1E0B0E0EFE8F8E20C94F134EE2467
:10512000E394F12C04E612E09E012F5F3F4F45E52A
:1051300052E063E082E00E94E427C82E882339F120
:1051400000E080E01DC0D0908A02D00E2D2D30E00E
:10515000A90141565D4F7A01E1E0F0E0EC0FFD1F3F
:10516000E00FF11D1081FA019081191BB12E1B1463
:105170009CF0912F17FD90E0191B111118C00F5FC3
:10518000909189020917F8F281110E94AF0B8C2DC2
:105190002196E9E00C940D35BA94F70180818F5F78
:1051A000808360E08D2D0E94AD238C2DE0CF1F5FAA
:1051B000F70180818150808361E08D2D0E94AD23B5
:1051C0008C2DDBCFA5E0B0E0E8EEF8E20C94F234F1
:1051D0006B0185E0E82EF12C0EE512E09E012F5FB9
:1051E0003F4F41E552E061E080E00E94E4278823E0
:1051F00049F095E0FE013196ACE4B2E001900D92E9
:105200009A95E1F795E0ECE4F2E0D60101900D9279
:105210009A95E1F72596E8E00C940E3590E080E051
:105220000E94A535883E9E4F19F40E948911089569
:1052300080E008951F920F920FB60F9211242F93C2
:105240003F934F935F936F937F938F939F93AF930E
:10525000BF93CF93DF93EF93FF93D091E900DF707B
:105260008091EC00C82FC17080FDC0E81092E90069
:105270008091F000877F8093F00078940E9417144B
:105280001092E9008091F00088608093F000CD2BAF
:10529000CF70C093E900FF91EF91DF91CF91BF9163
:1052A000AF919F918F917F916F915F914F913F91BE
:1052B0002F910F900FBE0F901F9018951F920F9275
:1052C0000FB60F9211242F933F934F935F936F93D9
:1052D0007F938F939F93AF93BF93EF93FF938091AF
:1052E000E10082FF09C08091E20082FF05C0809149
:1052F000E1008B7F8093E1008091DA0080FF24C081
:105300008091D80080FF20C08091DA008E7F80934A
:10531000DA008091D90080FF9DC080E189BD82E1E3
:1053200089BD09B400FEFDCF81E0809364058091C2
:105330005605811109C00E9464050E942F068091C4
:10534000E20084608093E2008091E10080FF17C05A
:105350008091E20080FF13C08091E2008E7F8093F5
:10536000E2008091E20080618093E2008091D800A9
:1053700080628093D80019BC85E080936405809199
:10538000E10084FF2BC08091E20084FF27C080E110
:1053900089BD82E189BD89B5982F917080FFFBCFCF
:1053A0008091D8008F7D8093D8008091E1008F7E1E
:1053B0008093E1008091E2008F7E8093E2008091F3
:1053C000E20081608093E20080916505882309F402
:1053D00047C084E080936405809164058091E1007A
:1053E00083FF27C08091E20083FF23C08091E1000A
:1053F000877F8093E10082E08093640510926505C9
:105400008091E1008E7F8093E1008091E2008E7FA9
:105410008093E2008091E20080618093E20042E0AC
:1054200060E080E00E94FD058091F000886080933C
:10543000F000FF91EF91BF91AF919F918F917F917C
:105440006F915F914F913F912F910F900FBE0F90F1
:105450001F90189519BC109264051092560574CFD0
:105460008091E30087FD93E090936405B5CF789435
:105470001F921FB61F9211248F939F93AF93BF93D8
:1054800080914F0590915005A0915105B091520522
:105490000196A11DB11D80934F0590935005A093D7
:1054A0005105B0935205BF91AF919F918F911F907D
:1054B0001FBE1F9018951F921FB61F9211248F9325
:1054C0009F93AF93BF9380914E05811113C080913C
:1054D0004F0590915005A0915105B091520541960C
:1054E000A11DB11D80934F0590935005A0935105C8
:1054F000B0935205BF91AF919F918F911F901FBEA6
:105500001F901895CDB7DEB7E4970FB6F894DEBFBD
:105510000FBECDBF85B7806885BF85B7806885BF62
:1055200084B7877F84BF0FB6F894A89580916000F8
:10553000886180936000109260000FBE80E890E068
:105540000FB6F89480936100909361000FBE82EDD6
:1055500099E09093BF018093BE010E949F070E9433
:10556000A2110E9464050E942F068091E2008460CF
:105570008093E2007894809164058823A1F01091D3
:10558000E9001F709091EC00892F817090FD80E8F8
:10559000182B1092E9008091E80083FD0E941714F7
:1055A0001F701093E90082E084BD93E095BD9AEFEF
:1055B00097BD80936E00109276021092770210923F
:1055C0007802109279020E948911811102C00E9412
:1055D00011100E94A70E8093300180913001882322
:1055E00009F482C01092400184E2809341010E943C
:1055F000A70E81110E948633809130018091300185
:1056000095E0811190E09093850285E0891B80935D
:10561000840204E811E089E8E82E81E0F82ED80140
:105620008D918D018F3F11F00E94D409E016F10693
:10563000B1F709E811E0F80181918F018F3F11F076
:105640000E94D409F1E00F381F07A9F78AE0EAEABF
:10565000F2E0DF01282F1D922A95E9F7EAE7F2E050
:10566000DF011D928A95E9F70E940E29811102C07F
:105670000E94A11882E090E00E94973580938F02EB
:1056800084E090E00E949735182F82E290E00E941B
:105690009735982F812F90938702809386020E94DE
:1056A0006525EFE3FCE93197F1F700C000000E94A7
:1056B00065258091AA0280FF1BC06FEF7FEF90E00D
:1056C00080E00E94C93587E797E7909301088093AF
:1056D000000888E19AE00FB6F894A89580936000DE
:1056E0000FBE90936000FFCF84E2809340017DCF96
:1056F00083E090E00E9497350E9408148091880210
:10570000811138C00E940E29811104C00E94A11885
:105710000E94411388E090E00E949F356093A803A7
:105720007093A9038093AA039093AB038091C9025D
:1057300083608093C9026E7F71F40E94411388E0F8
:1057400090E00E949F356093A8037093A903809313
:10575000AA039093AB030E94D2070E94CB078091CB
:10576000A80380FF04C060E086950E94DC1281E0FF
:10577000809388029091300181E098279093A30252
:10578000F82FF91BF0938A02909130018093A402C4
:10579000909130018093890280913001811106C07F
:1057A00084EF80933E0185EF80933D0120913E017F
:1057B000E22FE295EF70F0E061A12F7081E090E0C0
:1057C000AC0101C0440F2A95EAF7342F30953623F7
:1057D00031A322A1242B22A320913D01E22FE295A7
:1057E000EF70F0E031A12F7001C0880F2A95EAF721
:1057F000982F9095932391A392A1892B82A38FE850
:1058000091E00197F1F700C000001091A40265EA51
:1058100072E04EE351E08DE3E82E81E0F82EFB01CB
:1058200028C0DA012D91AD01822F82958F7090E012
:10583000DC0190968C9190E02F7002C09595879531
:105840002A95E2F78170D7019D917D01292F22953C
:105850002F7030E0D90190962C9130E09F7002C0FB
:10586000359527959A95E2F790E020FD92E0892BF7
:1058700081938E2F861B8117A0F20E94A70E8111A3
:1058800002C00E94893381E391E090934B0580939D
:105890004A0514EB612E12E0712E02E0C02ED12CCD
:1058A00080916405FF24F39400E112E1853009F44E
:1058B00096C00E94652500E912E0BAEAAB2EB2E07C
:1058C000BB2E2AE932E0D501F80191918D912E1776
:1058D0003F0709F4A1C09817C1F30E94A70E382E04
:1058E000AAEAEA2EA2E0FA2E912CD7018D907D0132
:1058F000F80121908F01281429F12824512C4424E7
:105900004394822D8421B1F03320A1F058AA99AAA2
:1059100091E0882D842109F490E09AAB0E9407075A
:105920008160782F9CAB8BAB48A959A96AA98CA937
:105930000E9453215394440CF6E05F12E2CFF80129
:105940003197808293942AE09212CFCF0E94FB0677
:1059500083C080916405843009F433C00E94CB0772
:1059600080918C02811109C0F0928C028091A80371
:10597000817080938B020E945C0E10924E05E8E1CC
:10598000F0E020E40FB6F894A895E09360000FBE15
:105990002093600083B7817F846083BF83B7816079
:1059A00083BF7894889583B78E7F83BF0FB6F894B2
:1059B000A8958091600088618093600010926000DB
:1059C0000FBE80916305882351F00E946525EAEAA5
:1059D000F2E08191811115C66E167F06D1F7809194
:1059E0006405853009F4B5CF109257050E940D1457
:1059F0000E94CA0E10928C0280918B02882349F07B
:105A00008091A80381608093A80360E086950E943E
:105A1000DC120E94E6114DCF98135FCF0E9407075A
:105A20008C0180918D0290918E0208171907A1F0C8
:105A30008FEF8BA78CA71DA60E9407078160782F88
:105A40009FA78EA74BA55CA56DA58FA50E9453218E
:105A500010938E0200938D020E94A70E882309F4F2
:105A600048C0009146051091470501151105E9F060
:105A700080919A0290919B020E94EC067C01C801E1
:105A80000E9435108E159F0580F4809146053DE0FB
:105A9000839FC0011124FC01ED53FC4F208122FDA6
:105AA00004C081549C4F0E949D138091470188231C
:105AB00001F180914305909144050097D1F00E9437
:105AC000EC0620918F04309190042817390788F450
:105AD0009091410580914205981709F476C00E9483
