:100000000C9440050C945D050C945D050C946934CA
:100010000C945D050C945D050C945D050C945D05D8
:100020000C945D050C945D050C94F2290C94AE299A
:100030000C94EF2A0C945D050C945D050C945D0501
:100040000C945D050C945D050C945D050C945D05A8
:100050000C945D050C94CB2A0C945D050C945D0505
:100060000C945D050C945D050C945D050C945D0588
:100070000C945D050C945D050C945D050C945D0578
:100080000C945D050C945D050C945D050C945D0568
:100090000C945D050C945D050C945D050C945D0558
:1000A0000C945D050C945D050C945D050501090239
:1000B000A10185020901A100050919012905150001
:1000C00025019505750181029501750381010501E1
:1000D000093009311581257F950275088106093897
:1000E0001581257F950175088106050C0A380215D2
:1000F00081257F950175088106C0C005010980A191
:1001000001850319012AB700150126B7009501756D
:10011000108100C0050C0901A101850419012AA064
:1001200002150126A002950175108100C00660FF2E
:100130000961A1010962150026FF0095207508815B
:10014000020963150026FF00952075089102C0057D
:10015000010906A101050719E029E7150025019508
:1001600008750181029501750881010507190029AB
:10017000FF150026FF009506750881000508190186
:100180002905950575019102950175039101C0013D
:10019000000005010502050305040505050006012B
:1001A0000602060306040605060007010702070308
:1001B00007040705070008010802080308040805EA
:1001C00008000901090209030904090509000001E1
:1001D0000002000300040005000001010102010308
:1001E00001040105010002010202020302040205EA
:1001F00002000301030203030304030503000401D7
:100200000402040304040405041E0F056432147878
:100210003C1E1E140A05FD377A585A000004E6D623
:10022000B4460200210116000000742FE5A3E00A85
:100230001302835D003D8889C65436C3174FE4E638
:100240002B87DC61F128B5AEA0A33C3CF45F74249D
:10025000B52C3D20C7689B3A8E08CE16E28FDD7420
:10026000FFA04F08D43D201DD0558F11BBB1328760
:10027000318A341491884A492E35E0342D0C400ED1
:100280009A3CEB2E927835B8F7CA8C4EBF5A96EB53
:10029000EE303561920102DE6F5F63AE90736CF8F1
:1002A000694671D8821DD8D3A9851A3E623E8875E9
:1002B000E85002E1A14FF773396AC0FB22EC024F0C
:1002C000EB4116788F33048CEA516F2796A6D3AC96
:1002D000AF04B67ABC2EF80543F7F37562C0A37C71
:1002E0002A4C3D8BE09E098EDE7EA59FFB9BF4A8E9
:1002F000750EBC851A8A140ED55EEE477F28FD3830
:10030000773C34A1367D4D373C30E9B52937D95398
:10031000A6BB856F48A2F17BD59F9896DBA906E422
:1003200073826C984967F394BC12A6DC40C35D8469
:100330008F868E37FC103688E6E9D7FADD6FE79BAB
:100340005747C636B40CCB176A3705C36BC3B2C761
:100350008FA35F49ABF0DA815CA944DC9718C71919
:100360005DF6E983E189271A415E2A0326C27CAB48
:10037000C82268A344EAAF02F2FBF1D0B50315CD61
:10038000532FF73BA6AFC3027549D451E8C3E4A885
:100390008429F440364FF2EC48C789752670D0BEE8
:1003A000ACF2641986B1DACE0050254E591FE462D2
:1003B000F167FE2641270F7B9B0DEE33F47E97926B
:1003C000DCF466B5715CEB4BB064230696404A8959
:1003D00063DFD87FA271DBD51A4CA2F2664384CAD0
:1003E00014FC83424DF454794792A7711F316FE397
:1003F00025CB5E8BA039A72C03DF14C1E5B0E480C8
:10040000AEA0E79753BDF9680F7455BEF4701E3661
:1004100004B689BC8F774BD9837393CB8BC5A6A5C4
:10042000A98425AC38E9FB151EFBA7D22FA3245BBA
:10043000312DB6C8A6C3436494E0D22C624756E37C
:10044000BD6FE1CFF9DA350B9BB7EC0DBE65AE376A
:10045000833738F550D5494373EBF7BDF099ABB30B
:100460001782CD04DF764FA4CD6BEFF8FC2EA09B56
:10047000EF0FC00723F1381B1DDC16C7D275E3C888
:10048000635E49122FB7C892B4B006F112BAD46CA9
:10049000A5D3305512828CBE25D8C35AD905AA25BA
:1004A000183321FC65EFEB7427E2D303FE307AB7F3
:1004B00028E2513FB2C872000000146F2BC574527D
:1004C0009F1C00019F0594140000648288CEB1C473
:1004D00067FB020000000004595A000101010101FC
:1004E00001010101020202020202020202030303ED
:1004F00003030303030404040404040405050505BD
:10050000050606060606070707070708080808097C
:100510000909090A0A0A0B0B0B0C0C0C0D0D0D0E28
:100520000E0E0F0F0F1010111111121213131414BD
:10053000151516161717181819191A1A1B1B1C1D32
:100540001D1E1E1F2020212222232424252626278B
:100550002829292A2B2C2D2D2E2F303132323334BD
:1005600035363738393A3B3C3D3E3F4041424344C3
:1005700045464748494A4C4D4E4F505153545556A5
:1005800058595A5B5D5E5F616264656668696B6C51
:100590006D6F7072737577787A7B7D7E80828385CC
:1005A00087888A8C8E8F91939596989A9C9EA0A20C
:1005B000A3A5A7A9ABADAFB1B3B5B7BABCBEC0C216
:1005C000C4C6C9CBCDCFD1D4D6D8DBDDDFE2E4E7DA
:1005D000E9EBEEF0F3F5F8FAFDFF1718191A1C1BFA
:1005E00012131415160D0E0F101108090A0B0C0426
:1005F000050607000102032221201F1D1E272625B4
:1006000024232C2B2A292831302F2E2D3534333218
:10061000393837362223252628292A2C2D2F303207
:10062000333536383A3B3D3E4042434547494A4CD4
:100630004E5051535557595A5C5E60626466686902
:100640006B6D6F71737577797B7D7F81838587890A
:100650008A8C8E90929496989A9C9E9FA1A3A5A70F
:10066000A8AAACAEAFB1B3B4B6B8B9BBBCBEBFC13B
:10067000C2C3C5C6C7C9CACBCCCDCED0D1D2D2D3C6
:10068000D4D5D6D7D7D8D9D9DADADBDBDBDCDCDCDA
:10069000DCDCDDDDDDDDDCDCDCDCDCDBDBDBDADA9D
:1006A000D9D9D8D7D7D6D5D4D3D2D2D1D0CECDCC14
:1006B000CBCAC9C7C6C5C3C2C1BFBEBCBBB9B8B629
:1006C000B4B3B1AFAEACAAA8A7A5A3A19F9E9C9AB4
:1006D00098969492908E8C8A89878583817F7D7B82
:1006E00079777573716F6D6B6968666462605E5C63
:1006F0005A5957555351504E4C4A49474543424029
:100700003E3D3B3A3836353332302F2D2C2A2928BE
:1007100026252322A900AA004B004E00A900AA000A
:100720004B004E00A900AA004B004E00AB00AC00ED
:10073000C95CCA5C29001E001F00200021002200A5
:100740002B0014001A0008001500170039000400DF
:100750001600070009000A00E1001D001B0006004A
:1007600019000500E000E300E20001512C00A800A0
:100770003500270026002500240023002A0013004E
:1007800012000C0018001C00340033000F000E0093
:100790000D000B0028003800370036001000110053
:1007A0004D004A000351025128004C0001003A005C
:1007B0003B003C003D003E0035001E001F002000B5
:1007C000210022002B001E021F0220022102220211
:1007D000E1002E002D002E022F023002E000E30087
:1007E000E20001512C00010044004300420041009E
:1007F00040003F004500270026002500240023007C
:1008000031022702260225022402230201003100C0
:100810003302330030002F004D004A0003510251D3
:100820002800010001000100010001000100010099
:100830002900490046006500010001002B00E2008C
:10084000E000E10001003900E1007A007B007C005B
:100850007D000100E000E300E20001512C000100F6
:100860000100010001000100010001002A0027022F
:100870002602520024024B002A004C004F00510077
:1008800050004E00010001004D0001004A0001002F
:100890004D004A00035102512800010001000100EF
:1008A0000100010001000100010001000100010040
:1008B0000100010001000100010001000100010030
:1008C000010001000100010001000100E000E3005F
:1008D000E20001512C00AE00C55CC65C01000100C5
:1008E00001000100C35CC45C0100010001000100C3
:1008F000C95CCA5C0100010001000100CB5CCC5C5A
:1009000001000100010001004D004A0003510251A5
:100910002800C25C00000000000000000000000091
:1009200000000000000000000000000000000000C7
:1009300000000000000000007E0F00D4FFFFFFC792
:100940000000007800000000000000002A2B2800B2
:10095000000000000000000000000000000000296E
:10096000000000002C1E3420212224342627252EAE
:10097000362D3738271E1F202122232425263333E6
:10098000362E37381F0405060708090A0B0C0D0E12
:100990000F101112131415161718191A1B1C1D2FDE
:1009A0003130232D350405060708090A0B0C0D0EFE
:1009B0000F101112131415161718191A1B1C1D2FBE
:1009C0003130354C09025B00030100A0FA09040034
:1009D000000103010100092111010001224000076B
:1009E0000581030800010904010002030000000959
:1009F00021110100012222000705820320000107C6
:100A0000050303200001090402000103000000099E
:100A10002111010001228100070584032000011239
:100A20000100020000000832FC87020700010203F7
:100A3000011C037600690061006C003A0066003614
:100A40000034006300320062003300630000000CD9
:100A50000353006F0066006C00650000001C035328
:100A60000070006C0069007400740065006400533D
:100A700000700061006300650000000403090400C9
:100A800011241FBECFEFDAE0DEBFCDBF26E0A8EC19
:100A9000B1E001C01D92AB36B207E1F711E0A0E072
:100AA000B1E0EAEEFEE602C005900D92A83CB10767
:100AB000D9F70E94162B0C944F370C940000E8EDE8
:100AC000F0E080818E7F80831092E2001092DA0045
:100AD0001092E100A0EEB0E08C9181608C93808157
:100AE0008F77808319BCA7EDB0E08C918E7F8C93BB
:100AF00080818F7E80831092520608952091E400B9
:100B00003091E50095E6A9012091EC00822F8170DB
:100B100020FF06C08091E80080FF06C080E00895B5
:100B20002091E80022FD1AC080916006882389F098
:100B3000853089F08091EB0085FD0FC02091E400A5
:100B40003091E50042175307F9F29150E1F684E045
:100B5000089582E0089583E0089581E00895EF927A
:100B6000FF920F931F93CF937C018B010E947E0510
:100B7000C82F811117C08091E80085FD0BC08091BE
:100B8000E8008E778093E8000E947E05882399F321
:100B9000C82F08C0F70181917F018093F1000150B7
:100BA000110949F78C2FCF911F910F91FF90EF9072
:100BB00008958091620687FF13C08091E80082FF4C
:100BC00006C08091E8008B778093E80004C0809194
:100BD00060068111F2CF0895809160068823D9F3D1
:100BE0008091E80080FFF8CF8091E8008E77ECCF0D
:100BF000982F9093E900242F762F50E0891731F039
:100C00007091EC002091ED005091F00021FD07C0A3
:100C10009F5F973071F78093E90081E008953091EC
:100C2000EB003E7F3093EB003091ED003D7F309341
:100C3000ED003091EB0031603093EB007093EC00ED
:100C40002093ED005093F0002091EE0027FDE0CFBF
:100C500080E00895B0E0A0E0E0E3F6E00C948F358A
:100C6000C8EDD0E088818F7E8883E7EDF0E0808159
:100C70008160808384E082BF81E080935206888116
:100C80008E7F888302EE10E0F80110821092DA0065
:100C900081EEC82ED12CF601108288818F7788834F
:100CA00088818068888388818F7D888319BC1092B1
:100CB00060061092610610925F0610925E0690EE3A
:100CC000E92EF12CF70180818B7F80838881816000
:100CD000888342E060E080E00E94F805F6018081B0
:100CE0008E7F8083F801808181608083808188602D
:100CF0008083F70180818E7F8083888180618883F3
:100D0000CDB7DEB7E8E00C94AB35FC018091680606
:100D10009091690686179707A0F06115710529F46F
:100D20009091E8009E779093E80090E0611571053E
:100D300051F4911108C08091E80082FF34C080E036
:100D40000895BC01F2CF809160068823C1F18530FF
:100D5000C1F18091E80083FD30C08091E80082FD00
:100D6000EACF8091E80080FFE1CF8091F3002091ED
:100D7000F200382F6115710519F02830310558F04F
:100D800091E02830310509F090E02091E8002E77BD
:100D90002093E800CBCF81918093F10061507109DD
:100DA0002F5F3F4FE7CF80916006882341F0853069
:100DB00041F08091E80083FFBECF81E0089582E09A
:100DC000089583E0089508958091550608959C0143
:100DD0004FB7F89480914B0690914C06A0914D0628
:100DE000B0914E064FBF821B930B08952FB7F89416
:100DF00060914B0670914C0680914D0690914E0685
:100E00002FBF08952FB7F89480914B0690914C0610
:100E1000A0914D06B0914E062FBF0895209148062F
:100E2000309149062817390771F09093490680934D
:100E30004806E0914606F0914706309721F000847D
:100E4000F185E02D099508952091440630914506DD
:100E50002817390771F09093450680934406E09176
:100E60004606F0914706309721F00680F781E02D85
:100E700009950895452B39F0682381E06F3F09F00B
:100E800080E08170089581E0FCCFDC0160913D0637
:100E900080913E06962F891301C00895292F30E0D6
:100EA000F901EE0FFF1FEB5CF94F408151814A17AA
:100EB0005B07A1F487E08A9FA0018B9F500D11244E
:100EC00041515A4F81E0FA0184839613E6CF2F5F98
:100ED0003F4F2370332720933D0608952F5F3F4FE8
:100EE000922F9370D8CF10928C0510928B05EFEE55
:100EF000F5E08581811102C014821682379686E062
:100F0000E533F807B1F70895FC01680F791F8FEFFB
:100F100091E32191822728E030E087FF09C0880F04
:100F2000892721503109C9F7E617F70791F7089586
:100F3000880FF7CFEBEBF4E090E080E06EE575E230
:100F400045E855E220EC34E2768365835087478399
:100F5000328721879487838701963D968830910553
:100F600099F7089581152CE5920741F420914901E4
:100F700030914A01232B11F490E080E00895FA01AA
:100F8000811101C0FB01099508950895E1EDF2E09A
:100F9000118282818460828308958091A404982FB5
:100FA0009E7F61F4817082608093A4048091A70485
:100FB0008D3818F08CE88093A70408958A32B0F336
:100FC00081708862F1CFAF92BF92DF92EF92FF9271
:100FD0000F931F93CF93DF93082F162FE901E42F70
:100FE000F0E0E652FB4F611110C0E4915E2F4E2FEE
:100FF0004983E8835A83DF91CF911F910F91FF902E
:10100000EF90DF90BF90AF900895E62EF12C4491C1
:10101000D42EE42FF0E026E0829FC00111242FEFB0
:1010200030E0B9010E94C835802F90E0880F991FE9
:1010300055E5569FD001579FB00D11248A1B9B0B7D
:10104000982F990F890F5901AE18BF08AE9ED00195
:10105000AF9EB00DBE9EB00D11245B2F189F800176
:101060001124012F11275901A01AB10AAE9E800147
:10107000AF9E100DBE9E100D11245901A81AB10883
:10108000AE9CC001AF9C900DBE9C900D1124892F89
:101090009927281B390B2E9FC0012F9F900D3E9F33
:1010A000900D1124E92F62307105A1F050F4611503
:1010B000710509F49DCF6130710581F0EB2F512F3F
:1010C00097CF6430710569F080F06630710509F4DE
:1010D0008FCFF4CFE42F4B2F592F8ACFE42F412FFE
:1010E00087CFEB2F542F492F83CF4B2F5D2DE12F2F
:1010F0007FCF0E9402079C019091C7028091C80295
:10110000982B21F03093C4022093C3029091C9021E
:101110008091CA02982B21F03093C2022093C10221
:10112000E0914606F0914706309749F082E08093BF
:10113000C5020480F581E02D85EC92E009950895C3
:101140009091C702803F59F48091C80287FF0DC07B
:101150001092C80291110BC01092BF0208C0813FCB
:1011600081F48091C80218169CF3992381F0809134
:10117000C9029091CA02892B09F064C01092BE0284
:101180000895823F49F497FFF0CF1092C7028091F3
:10119000C8028111ECCFE0CF833F19F41916ACF3EC
:1011A000E4CF2091C902893F29F41216F4F6109277
:1011B000C902DBCF8A3F19F427FFD7CFF8CF2091A0
:1011C000CA028B3F29F427FFD0CF1092CA02CDCF9D
:1011D0008C3F19F41216CCF3C8CF843F31F48091C0
:1011E000C6028E7F8093C602C0CF853F21F48091D6
:1011F000C6028D7FF7CF863F21F48091C6028B7F98
:10120000F1CF873F21F48091C602877FEBCF883FE3
:1012100021F48091C6028F7EE5CF8D3F31F480911D
:10122000C0028E7F8093C002A0CF8E3F21F48091B8
:10123000C0028D7FF7CF8F3F09F097CF8091C0021A
:101240008B7FF0CF08958091C00280FD16C081FD94
:1012500016C082FD16C08091BE028823A1F088329C
:1012600080F428E0829FC001112468E270E00E94AF
:10127000DC35862F672B39F0089582E0089584E0ED
:10128000089588E0089581E008958091C00280FD6E
:1012900014C081FD14C082FD16C08091BF02882356
:1012A00081F08E3180F420E5829FC00111246EE12F
:1012B00070E00E94DC35862F089584E1089588E26D
:1012C000089588E0089580E50895803F31F40E94F4
:1012D000450981958093C8020895813F19F40E94C1
:1012E0004509F8CF823F31F40E94450981958093EA
:1012F000C7020895833F19F40E944509F8CF893F3A
:1013000029F40E9423098093C90208958A3F21F499
:101310000E9423098195F7CF8B3F31F40E94230966
:1013200081958093CA0208958C3F19F40E94230985
:10133000F8CF843F31F48091C60281608093C60269
:101340000895853F21F48091C6028260F7CF863FE1
:1013500021F48091C6028460F1CF873F21F480910F
:10136000C6028860EBCF883F21F48091C60280617D
:10137000E5CF8D3F31F48091C00281608093C0023F
:1013800008958E3F21F48091C0028260F7CF8F3F95
:10139000B9F78091C0028460F1CF80E00895F8949D
:1013A000E82FE295EF70F0E031A1282F2F7081E057
:1013B00090E001C0880F2A95EAF7982F9095932323
:1013C00091A392A1892B82A3789408959091900281
:1013D00092FF06C0282F28712830F9F4877F846097
:1013E00093FF06C0282F28712831F1F4877E84618D
:1013F0002091910220FF06C0382F38713830D9F47F
:10140000877F816021FF06C0282F28712831D1F401
:10141000877E816194FD877E0895282F2471243072
:10142000F9F68B7F8860DCCF282F2471243101F7F7
:101430008B7E8861DDCF382F3171313019F78E7F87
:101440008860E0CF282F2171213121F78E7E8861BD
:10145000E1CFCF93DF93EC0182389105B1F108F031
:1014600040C08133910509F49DC048F5893291054A
:1014700009F48DC08A9709F49CC0C11521E5D207F3
:1014800008F0C3C0C11530E5D30708F02CC1C83E31
:10149000D10508F0A3C0C03ED10588F5C83AD105F2
:1014A00008F08EC0C53AD10508F015C1C130D1058C
:1014B00031F1209721F1C430D10508F545C08533BD
:1014C000910509F45FC0C997C1F6809190028370BD
:1014D00009F037C18091910283FF11C0C9E2D0E0C9
:1014E0000EC0833E910599F170F4803E910501F1A3
:1014F000823E910511F68091900282FD21C0CE01BD
:10150000DF91CF910895863E910561F1873E910567
:1015100071F1843E910509F0B0CF8091910281FF75
:10152000EECF80919002C7EED0E084FD0DC0E7CFF2
:101530008091900280FD33C09091910290FFDFCFA7
:10154000C3EED0E084FFDBCFD0E0C0E0D8CF809105
:10155000900282FDF3C09091910290FDF2C084FF51
:10156000CECFF2CF8091900283FDDDCFC8CF8091A6
:10157000900283FDE9C09091910291FFF0CFC4EEFB
:10158000D0E0BDCF8091900285FFB9CFA7CF8091E9
:10159000900285FDDCC08091910283FFB0CFC9E34A
:1015A000D0E0ADCF8091900286FFA9CFCAE2D0E013
:1015B000A6CF8091900286FFA2CFC1E3D0E09FCF5B
:1015C000CF3BD10508F6C85AD0E0CC0FDD1FC85A72
:1015D000DE4F0990D881C02DD46491CFC11540E26F
:1015E000D40758F4C11581E0D80708F088CFC03F70
:1015F000D10508F4A9CFD06582CFC11520E4D20768
:1016000008F4A2CFDF70D06A7ACFC11537E5D307CF
:10161000D8F5C11546E5D40708F08DC0C11583E59E
:10162000D807C8F4C11522E5D20708F471C0CE016D
:101630008370992721E030E002C0220F331F8A9582
:10164000E2F7C695C69580E2C89FE0011124C22B3F
:10165000D32BDC6854CFC11534E5D30708F074CF21
:10166000CE018370992721E030E002C0220F331FA2
:101670008A95E2F7C695C69540E2C49FE001112421
:10168000C22BD32BDA683BCFC1154AE5D40778F4D7
:10169000C11589E5D80708F040C0C11528E5D20773
:1016A00008F452CFDC2FCC27C06FD06A28CFCE01F0
:1016B00090568115904208F047CF8D2F8F710E9470
:1016C000E60990E0982F882788279F719C012C2B92
:1016D000E901D06214CFC55AD0E0CB5ADE4FC881A1
:1016E000D0E0D0640CCF2C2F26952695237040E2B5
:1016F000249F900111248C2F8370C1E0D0E002C0A0
:10170000CC0FDD1F8A95E2F7C22BD32BDD68F7CE15
:10171000DC2FCC27C16FD06AF2CE8C2F8F700E9445
:10172000E60934E0D695C7953A95E1F7CF709C2F3E
:10173000EC01D069E4CEDD27D066E1CEC2EED0E088
:10174000DECEC0EED0E0DBCEC6EED0E0D8CEC5E334
:10175000D0E0D5CE0E94F606089580914102909186
:101760000002981301C008958F5F8770FACFA82FE9
:10177000A77023E0969587952A95E1F7FC01EE0F77
:10178000FF1FE80FF91FE60FF71F50E040E080E071
:10179000219130E00A2E02C0369527950A94E2F78F
:1017A00021703327042E01C0220F0A94EAF7822BFE
:1017B0004F5F5F4F4330510559F70895903FC9F08F
:1017C0009A3080F48630A8F4282F30E06EED71E076
:1017D000A901E6E09E9F400D511D1124CA010E94FF
:1017E000B70B08959C5F923020F46BED71E090E0B0
:1017F000F6CF80E00895262F277091E001C0990F61
:101800002A95EAF723E0769567952A95E1F7FB019B
:10181000EE0FFF1FE60FF71FE40FF51F50E040E04B
:10182000682F70E08191DF0111979B01042E02C0A7
:10183000369527950A94E2F72170219528272923C8
:1018400028272C934F5F5F4F4330510559F7089578
:10185000282F862F903F79F09A3070F4263058F474
:10186000622F70E026E0929F600D711D11244EEDF5
:1018700051E00E94FB0B08959C5F9230E0F7622FCD
:1018800070E04BED51E0F5CF9C013A9521153F41B9
:1018900050F5FC01EE27F170BC0166277270AC01B7
:1018A000442754709C012227387094FF0EC080E1B9
:1018B000EF2B09F480E0672B09F08062452B09F0DB
:1018C0008064232B89F08068089581E0EF2B09F470
:1018D00080E0672B09F08260452B09F08460232BA0
:1018E00019F08860089580E0089580934F06709302
:1018F000510660935006809160068430F9F480931D
:10190000E9008FEF9091E800815095FD06C095EDBC
:101910009A95F1F700008111F5CF8091E80085FFDD
:101920000DC050E040E063E070E08FE496E00E947C
:10193000AF058091E8008E778093E8000895BC01A0
:1019400084E00E94750C0895BC0183E00E94750C30
:1019500008959C0184E08093E9009FEF8091E80066
:10196000915085FD06C085ED8A95F1F70000911133
:10197000F5CF8091E80085FF0CC050E040E066E0C4
:1019800070E0C9010E94AF058091E8008E778093D6
:10199000E8000895CF93DF93EC0181E08093E900A4
:1019A0008FEF9091E800815095FD06C095ED9A95D6
:1019B000F1F700008111F5CF8091E80085FF14C098
:1019C00050E040E068E070E0CE010E94AF058091F9
:1019D000E8008E778093E80088E0FE01A6E5B6E097
:1019E00001900D928A95E1F7DF91CF910895CF9202
:1019F000DF92EF920F931F93CF93DF93CDB7DEB7B4
:101A0000CE5AD1090FB6F894DEBF0FBECDBF60919C
:101A100045018091A40480FF4CC0EAEDF5E09E01F1
:101A20002F5F3F4F8E0101551F4FC901A4914A2FCF
:101A300050E0DA01AA0FBB1FA40FB51FAC52BD4F77
:101A4000CD90DD90EC90D901CD92DD92ED929D018B
:101A50003196A017B10751F72091440143E0249F2C
:101A6000800D911D1124539A2BB1277F3BB1386013
:101A70005FB7F894FC01649FE00DF11D1124BF01D4
:101A80008617970749F55FBFEFE5F4E03197F1F767
:101A900000C00000C255DF4F0FB6F894DEBF0FBE86
:101AA000CDBFDF91CF911F910F91EF90DF90CF903D
:101AB0000895809146019091470123E0829FF001B3
:101AC0001124EC52FD4F891708F0A7CF1182108224
:101AD00012828F5F3396F7CFDC014D91CD01E8E0A4
:101AE0003BB9000000C047FF2BB9440F000000C005
:101AF00000C000C02BB900C0EA9591F7C1CFEF92AA
:101B0000FF921F93CF93DF93EC0110E0EE24EA9451
:101B1000F12C60914801161770F00E94F70C9A8121
:101B20008C8190FF2AC08F5F8C83DF91CF911F91B2
:101B3000FF90EF90089520914601422F410F5527C5
:101B4000551FCA019A01220F331F280F391F2C522B
:101B50003D4F4091A7044D3808F04CE870E0C701B4
:101B60000E94DC35962F8C816091A604199F800D10
:101B700011240E94E3071F5FCCCF8150D5CF9091F5
:101B8000A40490FF0EC0909146012091470133E0DC
:101B9000939FF0011124EC52FD4F921718F00E9410
:101BA000F70C08958183608342839F5F3396F5CF5E
:101BB000A3E0B0E0EEEDFDE00C9495359091A40427
:101BC00090FF0DC04D3808F04CE89E012F5F3F4F4D
:101BD0000E94E3074B8169818A810E94BF0D239691
:101BE000E2E00C94B135CF93DF93EC01E4EAF4E04A
:101BF000438162818C810E94D80D8C818F5F8C83A0
:101C0000DF91CF910895CF93DF93EC01EC81F0E069
:101C1000EC5EF94F4491E4EAF4E0628181810E9434
:101C2000D80D8C818F5F8C83DF91CF910895E4EA8A
:101C3000F4E080818E7F80830E94C607E1EDF2E0B0
:101C40008281816082832FEF80E792E02150804083
:101C50009040E1F700C000000E94F70C0895B0E04A
:101C6000A0E0E5E3FEE00C948D357C015B016A01A8
:101C700080917F0201E010E08A3010F40AE010E069
:101C8000C1E0D0E0B501C701F6010995811104C09A
:101C900021960C171D072CF4CDB7DEB7EAE00C94A3
:101CA000A935CC9F9001CD9F300D300D112490E0CF
:101CB00080E045E34A95F1F700000196821793070B
:101CC000C1F7E0CF80915502811110C08091D800FA
:101CD00080618093D8008AE18A95F1F700C08091F5
:101CE000D90080FF0AC081E08093550281E0909185
:101CF0005502913009F080E0089582E0809355020A
:101D00000E945F0510926006F1CF0E94620E882348
:101D100059F0E0914606F0914706309729F001907E
:101D2000F081E02D0995089580E008950F931F93A9
:101D30000E94620E882329F00E94F6061F910F91DF
:101D400008950E94F6060091800210918102209170
:101D5000820230918302600F711F821F931FEECFAA
:101D60000E94620E882319F00E94020708950E94C3
:101D7000960ECB010895CF93DF93CBEDD2E060E0D8
:101D8000CE010E94B0362196C11584E0D807B9F77C
:101D9000DF91CF9108950F931F93CF93DF93142F6B
:101DA000022F843020F5623010F598E0899FE00121
:101DB000112484E0689FB0011124C60FD71FC95FAA
:101DC000DD4F82E090E0442311F090E080E0632F4B
:101DD0008C0F9D1F0E94B03683E090E0112311F01C
:101DE00081E090E0602F8C0F9D1F0E94B036DF9144
:101DF000CF911F910F9108951F93CF93DF93122FCF
:101E00008430E0F46A30D0F44630C0F4C42FD0E01F
:101E1000CC0FDD1F9CE0699FC00DD11D112498E7F8
:101E2000899FC00DD11D1124632FCE0187960E947A
:101E3000B036612FCE0188960E94B036DF91CF91E7
:101E40001F910895CF93C82F6FEF811164E183E252
:101E500090E00E94B0366FEFC11161EA84E290E039
:101E60000E94B0366FEFC11165EA85E290E00E94F2
:101E7000B036CF910895A4E1B0E0E1E4FFE00C9426
:101E80008835A0904901B0904A0181E090E090939C
:101E90004A018093490184E1882E87E0982E94E3DB
:101EA000C92E97E0D92E10E0760100E015C0F301AD
:101EB00025913491452D602F812F0E94FC0E82E0E8
:101EC000680E711C5394E6E05E12F1CFFCE0EF0E59
:101ED000F11C0F5F0A3019F03701512CE8CF740163
:101EE00000E0F7012591349141E0602F812F0E949D
:101EF000CB0EF70132962591349140E0602F812F6F
:101F00000E94CB0E84E0E80EF11C013009F042C0C3
:101F1000E8E08E0E911C1F5FF8E7CF0ED11C143045
:101F200009F0C2CF1A8219821C821B821E821D8276
:101F300018861F8280EA90E09A87898707E212E07C
:101F40004AE050E0B801CE0101960E94D436065F07
:101F50001F4F073782E0180799F77E01EBE0EE0E7E
:101F6000F11C8AE0F70111928A95E9F74AE050E006
:101F7000B801C7010E94D436065F1F4F0B3DF2E047
:101F80001F07A1F7B0924A01A09249016496EFE0C1
:101F90000C94A43501E0A5CF80E00E94220F60E000
:101FA00086E290E00E94B0360E943B0F0E94BB0E7A
:101FB00081E00E94220F08959B01883070F49AE01E
:101FC000899FB0011124695D7D4F4AE050E0C9014D
:101FD0000E948C3690E080E008958FEF9FEF089587
:101FE000AAE0B0E0E6EFFFE00C9495359C01375590
:101FF0002F3F310509F068F4BE016F5F7F4F0E94EB
:10200000DC0F892B31F489859A852A96E2E00C94BD
:10201000B13580EA90E0F9CFFF920F931F93CF93F1
:10202000DF93F42E843070F5623060F528E0829FF3
:102030008001112434E0639FB0011124060F171FA3
:10204000095F1D4F82E090E0442311F090E080E0B2
:10205000800F911F0E949C36C82FD0E0DC2FCC2728
:1020600083E090E0FF2011F081E090E0800F911F6D
:102070000E949C369E01282BC901CDB7DEB7E5E052
:102080000C94AE3590E080E0F8CF0F931F93CF9380
:10209000DF93843030F56A3020F5463010F5C42FD8
:1020A000D0E0CC0FDD1F2CE0629FC00DD11D1124AC
:1020B00038E7839FC00DD11D1124CE0187960E9461
:1020C0009C36082F10E0102F0027CE0188960E9422
:1020D0009C369801282BC901DF91CF911F910F9158
:1020E000089590E080E0F8CF2091890530918A052D
:1020F000232BC9F4703F39F4603FA9F48091870520
:10210000909188050895843070F47A3038F4663000
:1021100050F4462F672F0E94451008957D3F31F4FB
:1021200041E0623040F090E080E008957C3FD9F7D4
:102130006230C8F740E00E940C100895CF92DF9201
:10214000FF920F931F93CF93DF936C0100916A0668
:1021500080914A02082BC7E0D0E010E0FC2EC801B5
:102160000C2E02C0959587950A94E2F780FD0CC06D
:102170002197A0F7F12C8F2DDF91CF911F910F9117
:10218000FF90DF90CF900895B6018C2F0E947410BD
:102190000E94290A019761F3EECFCF93DF93EC0100
:1021A0000E949E10BE010E9474100E94290ADF91B5
:1021B000CF9108950F931F93CF938C01FC0143811E
:1021C0005481618180810E943A07C82F81112AC001
:1021D000F80186819781009791F00E94290A9295D3
:1021E0009F709630D1F080F4925F9F70923080F4AF
:1021F000803F19F058F4883E58F4C1E009C080814E
:1022000091810E94CD10EBCF9A5FEFCF843FA9F36D
:102210008C2FCF911F910F910895883E70F3813FCD
:10222000B9F7EBCFC0E0F4CFA5E0B0E0EAE1F1E12F
:102230000C9494359C01FC01868197810097E1F410
:1022400085E0DE01119601900D928A95E1F7F90182
:10225000228189819A81222399F0662389F00E9444
:102260009E10182F682F89819A810E94280C6981FD
:102270007A81812F0E9474102596E3E00C94B0358A
:102280000E94DE0B182FF3CF83E290E00E949C3671
:10229000843189F484E290E00E949C36813A59F4BA
:1022A00085E290E00E949C3691E0853A09F090E04A
:1022B000892F8170089580E0FCCFAAE0B0E0E3E6CA
:1022C000F1E10C948F35E3E2F5E084E6DF011D9245
:1022D0008A95E9F7EFEEF5E086E4DF011D928A9535
:1022E000E9F783E2C82E85E0D82E7F0107E712E0E8
:1022F000F701D182C0824AE050E0B801CE010196D8
:102300000E948C3688E0FE013196D60101900D9234
:102310008A95E1F789859A85D70113969C938E93C8
:102320001297BAE0CB0ED11CE7E0EE0EF11C065F6F
:102330001F4F0B3DF2E01F07D9F62A96E8E00C94F8
:10234000AB35B0E0A0E0E7EAF1E10C948735FC01A1
:102350006280448081E08483E4E1F6E07490E3E904
:10236000F6E0E491812C75E0972EF2E0CF2EDD248B
:10237000D394AA24AA94B12C55245A94E719EE2E8A
:10238000F12C80914801881638F00E94F70CCDB7E7
:10239000DEB7E0E10C94A335C82DD0E082E08615CD
:1023A00068F09C9EF0019D9EF00D1124EE57FC4FAD
:1023B0008091A50480838091A604818341102DC063
:1023C0009C9EF0019D9EF00D1124EE57FC4F138250
:1023D0001282209146012C0F3D2F311DC901880F1B
:1023E000991F280F391F2C523D4F9C9EF0019D9E36
:1023F000F00D1124EE57FC4F42814D3808F04CE8A7
:102400009C9EF0019D9EF00D1124EE57FC4F6181C2
:1024100080810E94E3078394B4CF9C9E80019D9E9F
:10242000100D11240E571C4FF80183818823F1F001
:1024300081508383859DC0011124648170E00E94D6
:10244000C835FB01FF27EC5EF94F8491E82FE719AF
:10245000E59DC0011124B7010E94C8358091A704F1
:10246000689FB0011124F8017283B3CF0E944936EE
:102470002091A704269521582C9DA0012D9D500D3B
:102480001124452F5527841795070CF0A2CFF2E0B1
:10249000F61598F40E944936B5010E94DC35F80122
:1024A00080830E9449362091A6042695622F70E011
:1024B0000E94DC35280FF80121839C9EF0019D9E2F
:1024C000F00D1124EE57FC4F12828091A704893C35
:1024D00058F088EC9C9EF0019D9EF00D1124EE5763
:1024E000FC4F8483838375CF8431A0F784E1F2CFDE
:1024F0006091A404669570E041E050E083E491E0CF
:102500000E946236892B19F481E08093D2020E94E6
:10251000B00E9093CC028093CB028091D302846062
:102520008093D3020895CF92DF92EF92FF926B01D6
:102530007C010E94CD07B701A60188E090E00E94CF
:10254000C236FF90EF90DF90CF900895A3E0B0E007
:10255000ECEAF2E10C949135082FF62E142FE22EBE
:102560008091A40480FF3DC0E82FE695F0E0ED5592
:10257000FE4F90819093D1028E7F8230B1F54D381D
:1025800008F04CE89E012F5F3F4F6F2D802F0E9477
:10259000E3074B8169818A810E94BF0D8091A50468
:1025A000801308C08091A6048F1104C08091A704F5
:1025B000811729F08091D30282608093D302009327
:1025C000A504F092A6041093A704EE2051F06091A8
:1025D000A4047091A5048091A6049091A7040E9480
:1025E00093122396E6E00C94AD35923019F41091D5
:1025F000A704D4CF8091A504963011F0993071F6DC
:10260000082FCCCFE4EAF4E0438125E0421B08F434
:1026100040E021E0628181810E94A6120895E4EAEF
:10262000F4E0438125E0420F08F44FEF21E062819E
:1026300081810E94A6120895E4EAF4E0628121E11A
:10264000621B08F460E021E0438181810E94A612B0
:102650000895E4EAF4E0628121E1620F08F46FEF8B
:1026600021E0438181810E94A6120895E4EAF4E00A
:10267000818121E04381628188500E94A6120895E1
:10268000E4EAF4E0818121E043816281885F0E9475
:10269000A61208958091A804882319F08150809390
:1026A000A8046091A4047091A5048091A60490915F
:1026B000A7040E94931208958091A804833018F40F
:1026C0008F5F8093A8046091A4047091A504809109
:1026D000A6049091A7040E94931208959091A404D7
:1026E00090FF31C0917081112FC092609093A4042B
:1026F0008091D30281608093D302662351F0609170
:10270000A4047091A5048091A6049091A7040E944E
:1027100093126091A404669570E041E050E083E478
:1027200091E00E946236892BB1F00E94C60781E0D9
:102730008093CE0220E04091A7046091A60480918E
:10274000A5040E94A6120895853110F09862CECF9C
:10275000880F982BCBCF0E947812E9CF8091A404E8
:102760008695815009F484E161E00E946E1308951A
:102770008091A40486958F5F853108F081E061E047
:102780000E946E1308959091A40490FF08C096953E
:10279000981728F0961718F40E94B813089561E06E
:1027A0000E946E130895E4EAF4E083E180831182CD
:1027B0008FEF828388E783838483A1EDB2E0129652
:1027C0008C911297836012968C93608171818281C3
:1027D00093810E949312089580915306909141062F
:1027E000892B8093CA0148E050E062E472E08AECF1
:1027F00091E00E946F36892BA9F088E0EAECF1E0C5
:10280000A2E4B2E001900D928A95E1F7E0914606CC
:10281000F0914706309731F00280F381E02D8AEC89
:1028200091E009950895CF93DF93EC01E985FA854E
:10283000309719F06B857C8509958B81982F909541
:10284000809141068923809341060E94EC1385E024
:10285000FE0111928A95E9F7DF91CF910895CF9308
:10286000DF93EC018C8181FD12C082608C838091AA
:1028700041069B81892B809341060E94EC13EF81D6
:10288000F885309721F06B857C85CE0109951092F3
:102890004306109242068C8180FD03C0CE010E9447
:1028A0001314DF91CF91089590E080E00E942407F7
:1028B00090E080E00E940E07109241060E94EC1307
:1028C00086E0E5ECF2E0DF011D928A95E9F71092CF
:1028D000BF021092BE021092C0020E9479080895B1
:1028E00080936A060E945414089580916A06982F76
:1028F0009670963021F488600E9470140895877F46
:10290000FBCF21E030E001C0220F8A95EAF7209545
:1029100080916A0682230E947014089521E030E0BD
:1029200001C0220F8A95EAF780916A06822B0E94E5
:102930007014089580934A020E9454140895ECEC98
:10294000F1E086E0DF011D928A95E9F70E945414B8
:102950000895AAE2B0E0EFEAF4E10C94943582E63F
:1029600096E02091F100DC012D93CD01B6E08A368E
:102970009B07B9F780916306833009F472C0B8F4FD
:10298000813009F449C0823009F4B5C08091E80073
:1029900083FF98C280916206909163069A3008F096
:1029A00091C2E92FF0E0EF5AF84C0C94F0358A30E0
:1029B00009F490C08B3009F471C0893039F78091E7
:1029C0006206813219F7809166069091670600973A
:1029D00011F00297D9F68091E800877F8093E80094
:1029E0008091E80082FF38C09091F3008091F2005E
:1029F000029731F48091F100813011F0863021F49A
:102A00008091F100809355068091E8008B77809348
:102A1000E8000E94D905BACF80916206813A09F098
:102A2000B5CF8091E800877F8093E80080916606AB
:102A300090916706892B61F468E086E596E070E086
:102A40000E9485068091E8008B778093E8009ECFF6
:102A500060E090E080E0F3CF809160068111C0CF0C
:102A600095CF80916206813A09F090CF80916606F9
:102A700090916706892B09F089CF8091E800877FC4
:102A80008093E8008091E80080FFFCCF80914C01AA
:102A90008093F1008091E8008E77B9CF8091620633
:102AA000813209F073CF8091660690916706892B79
:102AB00009F06CCF8091E800877F8093E8000E9446
:102AC000D9058091640680934C01109253060E94B0
:102AD0009F145CCF80916206813209F057CF8091BC
:102AE000E800877F8093E8000E94D9058091650601
:102AF000809354064BCF80916206813A09F046CF0D
:102B00008091E800877F8093E8008091E80080FF53
:102B1000FCCF80915406BCCF803899F0823809F000
:102B2000D1C1809166068F70873008F0CBC1809349
:102B3000E9008091EB0085FB882780F91092E9007D
:102B400006C080915E0690915F069111826090911F
:102B5000E800977F9093E8008093F1001092F100D5
:102B60008091E8008E77AAC1882309F498C1823049
:102B700009F0A8C18091640681119BC1809166060D
:102B80008F702FEF280F263008F09CC18093E9004A
:102B90002091EB0020FF8DC1933031F48091EB0048
:102BA00080628093EB0085C19091EB0090619093DF
:102BB000EB0021E030E001C0220F8A95EAF7209374
:102BC000EA001092EA008091EB008860EACF811160
:102BD00079C1109164061F778091E3008078812B82
:102BE0008093E3008091E800877F8093E8000E9453
:102BF000D9058091E80080FFFCCF8091E3008068D8
:102C00008093E30082E0111183E0809360065AC153
:102C10008058823008F056C12091640630916506D4
:102C20002C3DE3E03E07A1F583E08A838AE28983B5
:102C30004FB7F894DE01139620E03EE051E2E32F17
:102C4000F0E050935700E49120FF03C0E295EF704D
:102C50003F5FEF708E2F90E0EA30C0F0C7968D9303
:102C60009D932F5F243159F74FBF8091E800877FF4
:102C70008093E8006AE270E0CE0101960E9485062A
:102C80008091E8008B778093E8001CC1C096E7CF65
:102C90008091660690916706432F55274330510572
:102CA00009F44AC078F54130510509F485C08BE537
:102CB00090E0E4ECF9E04230510509F003C12091C5
:102CC000E800277F2093E80020916806309169068C
:102CD0008217930708F49C0140E02115310509F0A3
:102CE00070C041116EC08091E80082FDC9CF809113
:102CF0006006882329F2853019F28091E80083FF6D
:102D0000F2CFBECF4132510509F447C042325105DE
:102D100009F0D8C08330910508F0D4C0FC01EE0F53
:102D2000FF1FE554FE4F0190F081E02D88549E4F27
:102D3000DC018C9190E01DC0332721303105E9F092
:102D40002115310579F022303105F9F023303105B4
:102D500009F0B8C0E1E3FAE0E4918E2F90E0E1E3FE
:102D6000FAE007C0EBE7FAE0E4918E2F90E0EBE7A2
:102D7000FAE0009709F4A6C0A2CFEDE5FAE0E491ED
:102D80008E2F90E0EDE5FAE0F4CFEFE4FAE0E49185
:102D90008E2F90E0EFE4FAE0ECCF8330910508F05D
:102DA00091C0880F991FFC01EF53FE4F0190F081F5
:102DB000E02D89E090E083CF82E190E0EFE1FAE05E
:102DC0007ECF80916006882309F45ACF853009F4BC
:102DD00057CF8091E80083FD53CF8091E80082FDBA
:102DE00082CF8091E80080FF78CF9091F3008091AE
:102DF000F2002115310519F08830910550F041E0BD
:102E0000089709F040E08091E8008E778093E80011
:102E100064CF44914093F1003196215031090196DD
:102E2000E8CF803809F04EC08091E800877F80931A
:102E3000E800809161068093F10092CE811142C03A
:102E4000109164061230F0F58091E800877F80933E
:102E5000E800109361060E94D905112311F084E067
:102E600005C08091E30087FDFACF81E08093600682
:102E700042E061EC81E00E94F80542E261EC84E00E
:102E80000E94F80542E261EC82E00E94F80542E20D
:102E900060EC83E00E94F8058091600613C0809189
:102EA0006406813079F481E0933009F080E080930A
:102EB0005F061092E9008091E800877F8093E80028
:102EC0000E94D9058091E80083FF0AC08091E80044
:102ED000877F8093E8008091EB0080628093EB0015
:102EE000AA96E3E00C94B035882341F08095909148
:102EF00041068923809341060E94EC13089588239C
:102F000039F090914106982B909341060E94EC1362
:102F10000895882341F080959091530689238093EA
:102F200053060E94EC130895882339F090915306BC
:102F3000982B909353060E94EC130895882309F46C
:102F400041C09CEF980F913A80F4ECECF1E022ED57
:102F500031E09191891303C0DF0111971C922E1764
:102F60003F07B9F70E94EC13089590E2980F98304C
:102F700088F4877021E030E0A90102C0440F551F9A
:102F80008A95E2F7CA018095909153068923809330
:102F90005306E8CF9BE5980F933028F490E080E04B
:102FA0000E942407089598E5980F973128F490E03F
:102FB00080E00E940E070895803F20F00E94A00844
:102FC0000E94790808950F931F93CF93C82F8823E9
:102FD00049F18CEF8C0F813AB8F50CEC11E082EDE1
:102FE00091E0F8012191C21709F121E0E23DF207D9
:102FF000C9F7EFEF80E0D8019D918D01C91781F0ED
:10300000EF3F19F4911101C0E82F8F5F863099F7D7
:10301000EF3F31F00E2E000CFF0BE653FE4FC28344
:103020000E94EC13CF911F910F910895ECECF1E009
:103030002191C21303C0DF0111971C928E179F07C5
:10304000B9F70E94EC13D5CF80E28C0F883068F47A
:10305000C77021E030E001C0220FCA95EAF78091E5
:103060005306822B80935306DBCFEBE5EC0FE33066
:1030700040F4F0E0EB5AFE4F808190E00E9424077C
:10308000D1CFE8E5EC0FE73150F4F0E0EE0FFF1F91
:10309000E85AFE4F808191810E940E07C3CFC03F46
:1030A00008F28C2F0E9465090E947908BBCF1F93FC
:1030B000CF93DF93182FEB010E94E3178FE99FE076
:1030C0000197F1F700C000002197C1F7812F0E94FE
:1030D0009E17DF91CF911F910895B0E0A0E0E3E744
:1030E000F8E10C948C35EC01A62E8AE0982E28810C
:1030F000222309F4B3C0213009F051C08981813005
:10310000C1F48E010E5F1F4F8A816AE070E089333F
:1031100011F460E570E00E945718E80121968A2DAD
:10312000815028F3EFE9FFE03197F1F700C000008C
:10313000F7CF823039F48E010E5F1F4F8A810E94D3
:10314000E317EBCF833039F48E010E5F1F4F8A8176
:103150000E949E17E2CF843011F02196DFCF2A81A2
:10316000229690E080E0AE014F5F5F4F2053330B1B
:103170002A30310548F0019788F2EFE9FFE03197F6
:10318000F1F700C00000F7CF989EB001999E700D36
:103190001124C901860F971F2981EA01E4CFE22F8C
:1031A000F0E0EC5BF64FB490822F8695869586957D
:1031B00090E0FC01EC5CF64FE4902770F12C022EBD
:1031C00002C0F594E7940A94E2F731E0E322FF2489
:1031D000FC01EC5DF64FC490D12C022E02C0D594B8
:1031E000C7940A94E2F7E1E0CE22DD24FC01EC5E14
:1031F000F64F049110E002C0159507952A95E2F765
:1032000001701127E114F10419F081EE0E94E31717
:10321000C114D10419F086EE0E94E317F9E36AE0C5
:1032200070E0BF1202C060E570E08B2D0E9457185D
:10323000C114D10419F086EE0E949E17E114F10426
:1032400019F081EE0E949E170115110509F466CF51
:103250006AE070E08CE20E94571860CFCDB7DEB70D
:10326000EBE00C94A83568EE7EEF90E080E00E94E1
:10327000CE3660E082E090E00E94B03660E083E00D
:1032800090E00E94B03610924A0260E084E090E044
:103290000E94B03664E082E290E00E94B03660E0C6
:1032A00085E090E00E94B03660E086E090E00E9409
:1032B000B0366FEF87E090E00E94B03640E050E01B
:1032C000BA0188E090E00E94C23660E08DE090E0B4
:1032D0000E94B03640E050E0BA0188E190E00E94E0
:1032E000C23660E087E190E00E94B03640E050E0F6
:1032F000BA018CE190E00E94C23670E060E080E2AA
:1033000090E00E94CE3640E050E0BA0188E190E0C3
:103310000E94C23680E00E94220F0E94CC0F40E043
:1033200050E0BA018FE090E00E94C23640E050E0E9
:10333000BA0183E190E00E94C2360895A4E0B0E0B3
:10334000E4EAF9E10C948D357C01DC0113964D9192
:103350005C91149711966C9111978C910E943A0789
:103360008111E3C061E0C7010E9414118C01F701D3
:1033700082818823E1F08091420690914306009774
:10338000B1F00817190799F0FDE08F9FC0011124D3
:10339000FC01E154FB4F20812460208385549B4F26
:1033A000DC010D931C930E942F1410924106F7012B
:1033B0008281882309F442C4980122513F4520317B
:1033C000310508F0B1C38FEF93E00E949C36811164
:1033D000ACC03EEEF32EF00E0BED12E0F11037C054
:1033E00019821A821B821C82BB24BA9478012FEFA7
:1033F000E21AF20AC8010E949C3689831A82882345
:1034000009F493C0813009F080C0680142E0C40E25
:10341000D11CC7010E949C36E82E8A83882309F4B8
:1034200084C0C6010E949C36F82E8FEF8E0D83302B
:10343000E0F4680153E0C50ED11CFB82FF2029F0A7
:1034400060E0CE0101960E946D188601CFCF011574
:10345000F4E01F0709F469C0C8010E949C3681117D
:1034600001C0FA940F5F1F4FB9CF8BEF8E0D8330E1
:1034700030F5C8010396FB826C01FF2031F368012F
:10348000A4E0CA0ED11C0E949C368C838823E9F2EA
:103490008B819C818130BFEF9B0710F0982F88278C
:1034A000E6E0EE1631F0F7E0EF1631F00E944D2520
:1034B000CCCF0E941425C9CF0E948824C6CF24E017
:1034C000E212C3CF680144E0C40ED11CC8010396C8
:1034D0000E949C36FF2049F1882339F18150990BD5
:1034E000B89E9001B99E300D1124AF2DA150BB0B99
:1034F000CD01820F931F019708F4A7CFEFE9FFE0FA
:103500003197F1F700C00000F6CF6AE0CE010196D6
:103510000E946D18670199CF81E00E948E1403C04C
:1035200081E00E9481140E9475142496EAE00C94B4
:10353000A93582E0F2CF823009F037C38091B5041B
:103540009091B604892B09F430C32DE02C9DC00165
:103550002D9D900D1124FC01E154FB4F20812E7F05
:10356000208385549B4F0E942F141FC35FEFC51605
:10357000D10409F008F419C3D70112969C91911156
:10358000E9C08091530682720A3CBCE51B0709F42E
:10359000CCC008F052C0053CFCE51F0709F4B1C0DF
:1035A000A8F5033C4CE5140709F4A1C008F0A4C039
:1035B000023C8CE5180709F46EC0F70126813781BB
:1035C0002115310509F4CEC0C9010E94290A182F1E
:1035D000292FF70132815581452F42954F709295E1
:1035E0009F70C92ED12C9C3008F006C1F601E55A17
:1035F000F84C0C94F035902F812F1BC3F601848179
:1036000081FFBACFC6010E941314B6CF073CACE5C8
:103610001A0709F480C008F479C0083CECE51E07DD
:1036200009F47EC042E053E16FE073E1093CFCE540
:103630001F0719F60E94BF0778CF0F3C2CE5120731
:1036400009F485C0B0F40C3C5CE5150709F477C0BB
:1036500008F470C00D3CBCE51B0709F475C065E0BB
:1036600082E00E3CECE51E0709F0A7CF0E94C313D1
:103670005CCF063DFCE51F0740F4013D2CE5120739
:1036800008F053CF6EE089E0F1CF64E18FE00D35B3
:10369000100761F392CF8091A40480FF20C08E7F39
:1036A0008093A4046091A4047091A5048091A60461
:1036B0009091A7040E9493120E94C6078091D302A2
:1036C00081608093D3025FEF80E792E051508040A9
:1036D0009040E1F700C000000E94F70C26CF816007
:1036E0008093A40461E086950E946E131ECF4EEA7B
:1036F00053E168EB73E19ECF48EB53E16EEA73E16F
:1037000099CF46E353E160E473E194CF40E453E1A1
:1037100066E373E18FCF4CE153E169E273E18ACF55
:1037200049E253E16CE173E185CF4FE053E162E0A0
:1037300073E180CF4AE453E16CE573E17BCF4CE564
:1037400053E16AE473E176CF61E081E0CDCF68E0D8
:1037500086E08CCF0E3DACE51A0709F02ECF0E9413
:103760003319E3CE00811181992369F0C8010E94C9
:103770009E10D82E682FC8010E94280CB8018D2DEC
:103780000E94741022CFC8010E94DE0BD82EF6CF03
:10379000022F0F70207F11F00295007F3323C9F0B4
:1037A000002369F080E2810F883010F011110BC006
:1037B00080915306082B009353060E94EC13812F2F
:1037C0000E94E31719C080914106082B009341061F
:1037D000F4CF812F0E949E17002371F0009580E2A4
:1037E000810F883010F0111115C080915306082305
:1037F000009353060E94EC13B8E0CB1AD108E4E022
:10380000CE16D10410F40E94850E60E0C7010E941C
:1038100014118BCE80914106082300934106EACF14
:10382000822F8F70207F203211F08295807F11309F
:1038300061F4332329F04330F8F60E949417DCCF6B
:103840004230D0F60E948917D7CF332349F0442362
:10385000A1F350FFB4CF5F70D70115965C93EDCF05
:10386000442381F3193369F4BFEFE7EEF3E0B1507D
:10387000E040F040E1F700C00000812F0E949E1759
:10388000BBCF8FE39CE90197F1F7F5CF822F8695A7
:103890008695837069F0813009F0AECF812F922F29
:1038A0009370311102C090E080E00E940E07A4CF17
:1038B000812F922F9370311102C090E080E00E941E
:1038C00024079ACF812F332329F00E9465090E9493
:1038D000790892CF0E94A008FACF822F837089F5D1
:1038E00031118ACF312F329536953770330F330F20
:1038F000812F8F70032E01C0880F0A94EAF7412FA1
:10390000407114FF07C04FE050E001C0440F3A95EA
:10391000EAF74095269526952370223069F050F4F9
:1039200030914A02213029F0842B83230E949A147B
:1039300063CF832B842BFACF482B80914A028427B4
:10394000F5CF8695332311F0822F8170882309F4F7
:1039500053CF312F329536953770330F330F812F78
:103960008F70032E01C0880F0A94EAF7412F40712F
:1039700014FF07C04FE050E001C0440F3A95EAF74A
:103980004095269526952370223069F050F43091A9
:103990006A06213029F0842B83230E9470142CCFD7
:1039A000832B842BFACF482B80916A068427F5CF8E
:1039B000022F0F70332329F0802F0E948E14812F45
:1039C0003CCF812F0E948917802F0E94811414CF31
:1039D000113F61F148F4103FA9F0332399F14111EF
:1039E000EECE822F8F7126C0123F39F1133FA9F717
:1039F00080E0332391F22F7181E001C0880F2A9576
:103A0000EAF7CBCF332371F0423008F0F5CE2F71B7
:103A100081E090E001C0880F2A95EAF790916A064C
:103A20008927BBCF433008F0E7CEF1CF822F8F71CB
:103A3000332359F20E948E14DFCE822F8F713323ED
:103A4000C9F3C3CF442379F0193341F49FEFA7EEB4
:103A5000B3E09150A040B040E1F70DCFEFE3FCE9B7
:103A60003197F1F708CF822F8F71AFCF123FD9F185
:103A700028F5103F61F1113F09F43DC08091F60136
:103A8000442309F445C0882341F08091F70191E077
:103A900089278093F7011092F601311190CE8FE3C0
:103AA0009CE90197F1F700C00000812F0E949E174A
:103AB00088E0D7011D928A95E9F79ECE143FB1F0B8
:103AC00080F0153FD9F6311197CE81E007C033233E
:103AD00009F492CE8091F70191E089278093F70154
:103AE0008BCE81E038273093F70186CE311184CE1A
:103AF0001092F70181CE332339F08091F6018823AB
:103B000049F31092F60178CE423008F075CEE2CF3C
:103B1000882309F471CE31116FCE8091F70191E0C5
:103B200089278093F701EDCF0031FFE51F0709F4E6
:103B3000F3CC01312FE5120709F4FBCC680127E52E
:103B4000D21A811113CD4FEFC416D10411F008F031
:103B500013CD61EB74E08C2D0E94DC0F892B29F5CD
:103B60008DE08C9DF0018D9DF00D1124E554FB4FEF
:103B70008281813009F0DFCC8091B1049091B20450
:103B8000892B99F08091B3049091B404892B69F04A
:103B90008091B5049091B6042091B7043091B80497
:103BA000822B932B892B09F4D0CC5801BB248DE0B8
:103BB000089FF0011124DF01A554BB4F6D01D7010F
:103BC00012968C91E154FB4F908180FB90F9908389
:103BD000882309F413CD0E9402079093A5028093D5
:103BE000A402D60112968C9112978F5F12968C9335
:103BF00012978091410690915306892B13968C93CE
:103C000013971596ED91FC911697309729F01B9616
:103C10006D917C91C60109958DE08A9DF0018B9D87
:103C2000F00D1124E554FB4F848181FFE4CC90E03A
:103C300080E090934206809343069ECC00314FE58E
:103C4000140709F46DCC01315FE5150709F076CF53
:103C500082E067CCB0E0A0E0E0E3FEE10C948F35B9
:103C60008091FD01807F31F48091FA01C091410281
:103C7000811107C0CDB7DEB7E8E00C94AB352196D3
:103C8000C770809100028C17A9F3F090F801E090C2
:103C9000F901C090FB01D090FC01A6016E2D8F2D83
:103CA0000E943A07D0E08111EACF8E0183E0000F35
:103CB000111F8A95E1F7F801EF5FFD4F81818E11A9
:103CC000DECF80818F11DBCF82818111D8CFE3805D
:103CD000F480EC18FD0860E088EF91E00E94141178
:103CE0000E94F00FE816F90650F68091FD018F70E2
:103CF00080618093FD01F801EA5FFD4F80818F7044
:103D00008061808388EF91E00E949E190E94AD0B34
:103D1000B1CFA5E1B0E0EFE8FEE10C9487358C016E
:103D200085E0F801DE01519601900D928A95E1F748
:103D3000F801E28048EFA42E41E0B42E8090FB0110
:103D40009090FC01A4016091F9018091F8010E941A
:103D50003A07682E8111A1C1F801C380D480F09088
:103D6000FA01C601881999094C01FF2009F447C1DD
:103D70004080518060E0C5010E9414110E94F00F44
:103D80007090FD018816990608F0E1C04091FB0192
:103D90005091FC01B090F801A090F901872D807F2F
:103DA0006A2D09F080C08B2D0E943A07FE2C8111EC
:103DB00024C0F80181818A1120C080818B111DC02F
:103DC0002091FE013091FF018681978128173907E4
:103DD000A1F4E11012C0872D8F7080618093FD01E6
:103DE00088EF91E00E949E198091FD01F801858382
:103DF0008F2D6596E0E10C94A335A601652D842DE9
:103E00000E943A07811122C081E08E25F82FF170BF
:103E1000DF2E80FF3EC0809141022091000282137C
:103E200017C0498A5A8A89899A890E94CD10292FF8
:103E300022952F70223008F1243030F59F7009F15F
:103E4000F8019581907FE9F4F62CD2CF80E0DECFA7
:103E500090E0FC0133E0EE0FFF1F3A95E1F7EF5FD2
:103E6000FD4F3181531206C03081431203C03281AD
:103E7000E3120FC001968770D2CF9F7011F0882394
:103E800019F3805E883000F3C8010E949E196D2CE2
:103E9000DBCFEE2009F4ACCF8091FD0181608093EF
:103EA000FD01F12CA5CF8B2D0E943A0781111FC077
:103EB000F80181818A111BC080818B1118C020916B
:103EC000FE013091FF01868197812817390779F427
:103ED000E1100DC07582C8010E949E1988E0F801AA
:103EE000A8EFB1E001900D928A95E1F781CFC8016A
:103EF0000E94DA10882339F1EE2029F18091FD012A
:103F00008032A0F02091F8013091F9013A87298799
:103F10001B86DD86CC868E878091FE019091FF0105
:103F2000988B8F87CE0109960E949E1988E0F80130
:103F3000A8EFB1E001900D928A95E1F70E942A1E48
:103F4000FF24F39455CFC8010E949E19F9CF872D05
:103F5000807F51F488EF91E00E949E1988E0F5017E
:103F600011928A95E9F79DCF9090F8018090F90120
:103F70004091FB015091FC01682D892D0E943A0768
:103F800081111CC0F8018181881118C080818911BC
:103F900015C02091FE013091FF018681978128177D
:103FA000390761F4E1100AC07582C8010E949E19A8
:103FB00088E0F50111928A95E9F71ACFC8010E94AD
:103FC000DA10882309F4BFCFEE2009F4BCCF80912A
:103FD000FD01803208F4AACF2091F8013091F90157
:103FE0003A8329831B82DD82CC828E838091FE01FD
:103FF0009091FF0198878F83CE01019695CF60E065
:1040000088EF91E00E9414110E94F00F8816990623
:1040100078F6FE2CEE2009F496CFE090F801D090CF
:10402000F9014091FB015091FC016D2D8E2D0E94F4
:104030003A07811124C0F80181818D1120C080814F
:104040008E111DC02091FE013091FF018681978164
:1040500028173907A1F49091FD0190FD3FCF907F83
:1040600009F43CCF8091FD018583903F09F433CF63
:10407000982F907F905F8F70892B85832CCFC801FC
:104080000E94DA10811152CF8091FD0181608093EE
:10409000FD01C8010E949E19ABCEEE2009F453CF5A
:1040A000C8010E94DA10F82E882309F44CCF88E06A
:1040B000F801A8EFB1E001900D928A95E1F78091A7
:1040C000F8019091F9010E94CD1092959F70963061
:1040D00051F4863F41F08091F70191E08927809368
:1040E000F7019093F6010E942A1E82CEA0E1B0E073
:1040F000ECE7F0E20C94953529873A874B875C878B
:104100006D877E878F87988BCE0109960E94891EC6
:1041100081112FC088E0FE013996DE0111960190D1
:104120000D928A95E1F74C855D856A8589850E94A7
:104130003A0781111EC0A0910002B0E0CD010196A6
:10414000877099272091410228171906E1F093E022
:10415000AA0FBB1F9A95E1F7AF5FBD4F98E0FE0134
:10416000319601900D929A95E1F7809300020E949A
:10417000AD0B8091410290910002891314C06096AA
:10418000E2E00C94B135109253060E949F141092F5
:1041900000021092410288E0E8EFF1E0DF011D9299
:1041A0008A95E9F7E6CFB8E08B9FC00111248F5FB5
:1041B0009D4F0E94891E882311F38091410290E057
:1041C00001968770992780934102D3CFB0E0A0E099
:1041D000ECEEF0E20C94903580918E05882369F026
:1041E000C0918D05E12C8CE0F82E80918E05C817CA
:1041F00048F010928E0510928D05CDB7DEB7E7E03E
:104200000C94AC35DD24D394DC0ED0928D050C2FAC
:1042100010E0CF9DE0011124C157DA4F4B815C8142
:10422000698188810E943A0781112CC08E819F810B
:10423000892B21F488859985019651F4288139814B
:104240004A815B816C817D818E819F810E94762075
:10425000F09EF001F19EF00D1124E157FA4F148207
:10426000138210924106E1100DC0CE010E94DA10B7
:10427000811108C08FE39CE90197F1F700C00000AD
:10428000EE24E394CD2DB1CF1092400610923F065C
:1042900010924B0180913E0680933D060E94730769
:1042A0000E94E6200895B0E0A0E0E9E5F1E20C9478
:1042B0008635C0913D0697E0892E01E010E02CE0A4
:1042C000322E3EEF932E4424439480913E068C136D
:1042D00009C00E94E6200E947307CDB7DEB7E1E176
:1042E0000C94A235D0E0FE01EE0FFF1FEB5CF94FFE
:1042F00080819181889ED001899EB00D1124A151A9
:10430000BA4F14962C911497211158C050908E05D5
:10431000EFE8F5E030E020E0712C5D01251508F0B4
:104320004BC0E284F384D501CD90DC906FEF7FEF3A
:10433000612C462D50E0DA01AA0FBB1FAC0DBD1D4C
:104340000D90BC91A02D109731F0EA16FB0609F4F0
:10435000BA016394EECF6F3F7607A9F1D80102C08E
:10436000AA0FBB1F6A95E2F77A2AB801062C02C091
:10437000660F771F0A94E2F7AB014150510974169A
:104380001506F9F4329EF001339EF00D1124E15729
:10439000FA4F889ED001899EB00D1124A151BA4FC9
:1043A00012962D913C9113973783268390829182A8
:1043B0009187808715964C920E9445072196C3707D
:1043C00084CF148213822F5F3F4F3C96A7CFA9E181
:1043D000B0E0EDEEF1E20C948535F62E6B8B7C8B24
:1043E0008D8B8A016111109241064C895D89612F84
:1043F000802F0E943A07811134C01A3008F065C03E
:10440000063078F5E02FF0E026E0129FE00DF11D78
:1044100011249F012770332781E090E001C0880FAD
:104420002A95EAF7DF0173E0B695A7957A95E1F74B
:10443000AD52BE4F2C913091F701F11002C0322FD6
:104440003823332309F463C0AF01440F551FFA0129
:10445000EE56FE4F1491FA01EF56FE4F0491822B57
:104460008C931D861E861F86188A098B1A8B85E001
:10447000FE017196DE01199601900D928A95E1F781
:104480004C855D856A8589850E943A07811112C035
:1044900061E0CE0109960E9414116C018B8537EF03
:1044A000C3163CE5D306B1F5882309F449C081E081
:1044B00080934B0129853A854B855C856D857E858A
:1044C0008F8598890E947620EAC084E0810F82302F
:1044D00040F6E02FF0E0202F277081E090E001C04F
:1044E000880F2A95EAF7DF0133E0B695A7953A954C
:1044F000E1F7AE52BE4F2C913091F701F11002C09E
:10450000322F3823332319F0E157FE4FA7CF809580
:104510008223A6CF48EFC4164CE5D40629F488239D
:1045200079F00E944421C6CF69EFC6166CE5D60625
:1045300039F4882329F080914B018111F2CFB7CF54
:104540000FEE15E0E12CB12CA12C88248394912C42
:104550002EEF522E44244394F80140815181662469
:104560006A94762C20E0822F90E0FC01EE0FFF1F72
:10457000E40FF51F608171816115710531F0C61678
:10458000D70609F43C012F5FEECFF12CFFEF6F1639
:104590007F0609F446C0F8014481F0904B018F2D4D
:1045A000411180E0F82FF170FF2EF80125808681FF
:1045B0009B85992309F4F4C0FF2009F4F1C0211070
:1045C00015C0A401062C01C0440F0A94EAF7842BFD
:1045D000868380918B0590918C058039914030F4D1
:1045E00060E971E070938C0560938B05C40102C093
:1045F000880F991F2A95E2F70197F801268128175D
:10460000190679F480913F0690914006009709F4CD
:104610004AC00E94E7068139914008F444C0F8017D
:104620004482EF28FFEFAF1ABF0A095F1F4F2AE04D
:10463000A216B10409F090CF8B85882309F40CC130
:10464000EE2009F409C10E9402079093400680936E
:104650003F0680918E05883010F591E0980F909379
:104660008E0598E0FE013996DE01119601900D92BB
:104670009A95E1F73CE0839FC001112481579A4F3E
:1046800028E0FE013196DC0101900D922A95E1F7B8
:104690002FEF3FEFFC0131872087D386C2866996D2
:1046A000E2E10C94A13580913D0650913E06982F91
:1046B000F0E0E0E0851314C090933D060E171F074D
:1046C00009F4AFCF90E0FC01EE0FFF1FEB5CF94F58
:1046D000B182A08201968370992780933E06A1CF74
:1046E000282E312CF101EE0FFF1FEB5CF94F2081DA
:1046F0003181F7E0F29FD001F39FB00D1124A15159
:10470000BA4F2D913C911197398F288F40E020E0CE
:1047100030E0E32FF0E0EE0FFF1F688D798DE60F9C
:10472000F71F6080718061147104E1F0F80101905D
:10473000F081E02DFF8BEE8B20E005C0661677063A
:1047400009F44F2D2F5FE22FF0E0EE0FFF1F6E896F
:104750007F89E60FF71F608171816115710571F71F
:104760003F5FD7CF4423C9F0F801231708F0FD01BC
:1047700044820E171F0721F490933D06F42E51CF6B
:10478000891305C0AE17BF0711F49F5F93709101A5
:104790002F5F3F4F822F83708DCFF0E0E0E0F7CFA7
:1047A00090E0211020C0B40102C0660F771F2A9547
:1047B000E2F79B01215031098217930731F444231A
:1047C00009F448C0C5010E944507C401062C01C078
:1047D000880F0A94EAF7982F9095F801868189232B
:1047E0008683F22C1ECF9C01062C02C0359527959E
:1047F0000A94E2F7A90141705527BC016150710983
:1048000086239723892B11F5452B01F1F80182812D
:104810009381892BC1F01B821C821D821E825982CA
:104820005A820E9402078160582F9D838C83F80171
:10483000828193818F83988729813A814B816D8111
:104840007E810E947620F8011582BFCFF22FF17091
:104850002F2EBBCF2F2CB9CF90913D0680913E06D5
:10486000981731F00E945321EE2009F423CE17CF80
:104870000E94E6201092400610923F060E947307A5
:10488000F3CFAAE0B0E0E7E4F4E20C949335182FFC
:10489000062F662399F10E9402071E832DEF2F83B6
:1048A00021E0288781609A8789874E815F816885AA
:1048B00079858A850E94E7218FE39FE10197F1F7CF
:1048C00000C000000023F9F00E94020719832DEFB9
:1048D0002A831B8281609D838C8349815A816B81ED
:1048E0007C818D810E94E7218FE39FE10197F1F7A1
:1048F00000C000002A96E4E00C94AF350E94020745
:104900001E832CEFCCCF0E94020719832CEFE0CF3F
:10491000A5E0B0E0EEE8F4E20C9493358C019093BE
:10492000880580938705011580E21807C0F4802F61
:104930000E949E17C8010E94440C9801205E310914
:104940002830310518F00115110531F40E9489173E
:104950002596E4E00C94AF350E947417F9CF80EFF0
:1049600089838A831B820E9402078160782F9D833E
:104970008C8349815A816B818D810E94E721E8CF28
:104980000F931F93CF93DF938C01EB0161EB74E0E6
:104990008C2F0E94DC0F892BA1F48FE39CE90197F7
:1049A000F1F700C00000DD27C755DB4F8881F80113
:1049B000128218828330F1F048F4813059F082304D
:1049C00081F0DF91CF911F910F9108958430B9F05C
:1049D0008530B9F78091B1049091B204009789F3C2
:1049E00006C08091B3049091B404009799F30E949B
:1049F0008824E7CF8091B5049091B604F6CF8091DA
:104A0000B7049091B804009791F72091B1043091C8
:104A1000B2048091B3049091B40421153105F1F2F0
:104A2000009729F7C901E3CFA5E0B0E0EAE1F5E29C
:104A30000C9493358C01909388058093870501151C
:104A400080E21807C0F4C8010E94440C9801205E5F
:104A500031092830310518F00115110549F40E947B
:104A60009417802F0E94E3172596E4E00C94AF354D
:104A70000E947F17F6CF80EF89838A8381E08B8342
:104A80000E9402078160782F9D838C8349815A811F
:104A90006B818D810E94E721E7CFCF93DF93EC01FB
:104AA0000E9414258FE39CE90197F1F700C00000F4
:104AB000CE010E948824DF91CF9108950F931F9318
:104AC000CF93DF938C01862F61EB74E00E94DC0FA3
:104AD000892BB1F4C091B104D091B204209781F038
:104AE000F8018281833051F4CE010E944D25CE0120
:104AF0000E944D25CE010E944D2502C08430D0F782
:104B0000DF91CF911F910F9108950F931F93CF9332
:104B1000DF938C01EB0161EB74E08C2F0E94DC0FC2
:104B2000892B09F05CC0FE01FF27D80112968C91F9
:104B30001297E755FB4F8130B9F414969C9192FF80
:104B400002C080830AC090FFFCCF82E08083809106
:104B5000B3049091B4040097B9F48091B10490919A
:104B6000B2040097E1F110C08230B9F514968C912F
:104B700082FD28C080FD0BC083E080838091B50456
:104B80009091B604009701F10E94142528C084E09A
:104B900080838091B7049091B8040097A9F7809121
:104BA000B1049091B2040097F9F00E944D258091D4
:104BB000B3049091B404009739F78091B1049091B7
:104BC000B204E2CF85E080838091B1049091B20479
:104BD000009729F00E944D25F0CF86E08083DF9179
:104BE000CF911F910F9108958091B3049091B404D7
:104BF000B8CFAFE0B0E0EFEFF5E20C948A358E016C
:104C00000F5F1F4F8AE0D8011D928A95E9F788E867
:104C1000C82E81E0D82EF12CE12CAA24A394B12C2B
:104C200023E9822E21E0922EF60181916F018F3FC0
:104C300009F442C0F894E82FE295EF70F0E021A16A
:104C40008F70A50102C0440F551F8A95E2F7CA0173
:104C5000922F982B91A392A18095892382A3789477
:104C600000C0EDE8F1E0712C31E021912F3F09F413
:104C70006BC0A22FA295AF70B0E090968C9190E09F
:104C80002F7002C0959587952A95E2F780FD5CC04C
:104C9000832F782A330F8E169F0639F7F601319746
:104CA00080818F3F11F00E94CF0950EA5A95F1F7A9
:104CB000F801EE0DFF1D70828FEFE81AF80A95E0FB
:104CC000E916F10409F0B0CF4AE050E0B80184E8F9
:104CD00092E00E946F36009741F02AE0F801A4E8C4
:104CE000B2E001900D922A95E1F700918F02892B95
:104CF00069F181E080934D020E94020790934C027B
:104D000080934B0280914B0290914C020E94E706E7
:104D1000059700F110E00C541D4F45E050E064E8A9
:104D200072E0C8010E946F36D12C892B51F085E0CA
:104D3000E4E8F2E0D80101900D928A95E1F7DD24D4
:104D4000D39410924D0207C080E0A3CF80914D0212
:104D50008111D8CFD12C0E94620EC82EE0918F0213
:104D6000DE011B967D01882309F47AC085E01D923F
:104D70008A95E9F70E2F10E00C541D4F80917F02A9
:104D80008A30D8F546E759E2B701C8010E942F0ED4
:104D9000882309F454C04DE159E2B701C8010E94CB
:104DA0002F0E882309F44BC042E258E2B701C80134
:104DB0000E942F0E882309F442C041EC57E2B7014C
:104DC000C8010E942F0E8823D1F110927F0280919A
:104DD0008E0290E045E050E0B7018C549D4F0E9458
:104DE0006F3621E020935402892BE1F4C12C8C2DE5
:104DF0008D292F96EDE00C94A63580914E0290916E
:104E00004F020E94E706843F914008F0BBCF80919B
:104E10005402882359F385E0F70111928A95E9F746
:104E200010925402A0918E02B0E0AC54BD4F85E0C8
:104E3000FE013B9601900D928A95E1F7D8CF8091C3
:104E40007F028F3F31F08F5F80937F028A3008F4BA
:104E5000BECF0E94020790934F0280934E02D7CF9D
:104E6000F0E0EC54FD4F85E0A8E6B2E001900D9231
:104E70008A95E1F765E070E088E692E00E94840799
:104E8000809367024091AE0250E06091AD0270E005
:104E900067557D4FC7010E947C368B8580936E02DB
:104EA00061E070E0C7010E94840780936D028090EA
:104EB0006F0290907002A0907102B0907202809187
:104EC000500290915102A0915202B0915302881663
:104ED0009906AA06BB06D1F0809250029092510228
:104EE000A0925202B09253020E94620E81110EC033
:104EF0000E94F606861A970AA80AB90A80928002CA
:104F000090928102A0928202B092830280917A02F2
:104F1000882309F46CCF80FF0DC08091730280FF5D
:104F20002AC09091A40491609093A40460E08695B7
:104F30000E946E1380917A0281FF09C020E04091A7
:104F4000760260917502809174020E94A61280918F
:104F50007A0282FF06C080917902882379F00E944C
:104F6000781280917A0283FF03C081E08093CE02A1
:104F700010927A023CCF0E94170EDCCF0E94C60727
:104F8000F0CFA8E0B0E0E7ECF7E20C94953585E0CF
:104F9000E4EAF4E0DE01119601900D928A95E1F7C2
:104FA0008091D1029091D202A091D3028E839F83EF
:104FB000A887288540917B0250917C0260917D02F8
:104FC00070917E023FB7F89480914B0690914C0609
:104FD000A0914D06B0914E063FBF841B950BA60BCA
:104FE000B70B84369105A105B10510F4222319F100
:104FF00080912D0190912E0189599D4F40912C0156
:1050000050E04930510510F048E050E0BE016F5FBC
:105010007F4F0E947C3685E090E00E940F35882308
:1050200069F00E94F60660937B0270937C02809385
:105030007D0290937E021092D30281E02896E2E0F6
:105040000C94B135A4E0B0E0E8E2F8E20C949435B9
:105050004091630250916402609165027091660212
:105060002FB7F89480914B0690914C06A0914D0675
:10507000B0914E062FBF841B950BA60BB70B11E00A
:1050800084369105A105B10570F10E94960E6E5F00
:105090007F4F8F4F9F4F69837A838B839C8380914F
:1050A00025019091260189599D4F4091240150E09E
:1050B0004530510510F044E050E0BE016F5F7F4F76
:1050C0000E947C3684E090E00E940F35182F8823E0
:1050D00051F00E94F606609363027093640280931D
:1050E000650290936602812F2496E3E00C94B0351C
:1050F0004F925F927F928F929F92AF92BF92CF9288
:10510000DF92EF92FF920F931F93CF93DF930F9253
:10511000CDB7DEB7C62E4A015901482E880F550873
:10512000C2010E940F35782E882309F480C0C20185
:1051300033E0880F991F3A95E1F7FC01EC5FFE4FD1
:10514000438150E04115510511F041E050E08C5F82
:105150009E4FFC016481758169597D4FCE01019696
:105160000E947C36F40140815181628173812FB7A6
:10517000F89480914B0690914C06A0914D06B09109
:105180004E062FBF841B950BA60BB70B84369105DB
:10519000A105B10540F4B701C8010E9484079981B7
:1051A000891709F444C00C2C000CDD08C6010E94CC
:1051B0000F35782E811113C0712C872D0F90DF9140
:1051C000CF911F910F91FF90EF90DF90CF90BF9004
:1051D000AF909F908F907F905F904F900895C60101
:1051E00023E0880F991F2A95E1F7FC01EC5FFE4F41
:1051F000438150E0E416F50608F4A7018C5F9E4F4A
:10520000FC016481758169597D4FC5010E947C361E
:10521000B701C8010E94840799818913CDCF0E94EC
:10522000F606F4016083718382839383C6CFA7015E
:10523000B801C5010E947C36C0CFA1E0B0E0E3E236
:10524000F9E20C948E35EE24E394F12C0EE612E094
:105250009E012F5F3F4F4FE552E063E082E00E94E6
:105260007828C82E882339F100E080E01DC0D09056
:105270009402D00E2D2D30E0A90147555D4F7A01E3
:10528000E1E0F0E0EC0FFD1FE00FF11D1081FA01ED
:105290009081191BB12E1B149CF0912F17FD90E0EB
:1052A000191B111118C00F5F909193020917F8F2A2
:1052B00081110E94AA0B8C2D2196E9E00C94AA354D
:1052C000BA94F70180818F5F808360E08D2D0E940A
:1052D00041248C2DE0CF1F5FF701808181508083B6
:1052E00061E08D2D0E9441248C2DDBCFA5E0B0E044
:1052F000ECE7F9E20C948F356B0185E0E82EF12C98
:1053000008E612E09E012F5F3F4F4BE552E061E05F
:1053100080E00E947828882349F095E0FE013196CC
:10532000A6E5B2E001900D929A95E1F795E0E6E5E9
:10533000F2E0D60101900D929A95E1F72596E8E00A
:105340000C94AB3590E080E00E94AA36883E9E4FD8
:1053500019F40E944411089580E008951F920F925D
:105360000FB60F9211242F933F934F935F936F9338
:105370007F938F939F93AF93BF93CF93DF93EF93DD
:10538000FF93D091E900DF708091EC00C82FC170CD
:1053900080FDC0E81092E9008091F000877F809343
:1053A000F00078940E94A9141092E9008091F00016
:1053B00088608093F000CD2BCF70C093E900FF91FF
:1053C000EF91DF91CF91BF91AF919F918F917F919D
:1053D0006F915F914F913F912F910F900FBE0F9062
:1053E0001F9018951F920F920FB60F9211242F93B2
:1053F0003F934F935F936F937F938F939F93AF935D
:10540000BF93EF93FF938091E10082FF09C08091E9
:10541000E20082FF05C08091E1008B7F8093E10074
:105420008091DA0080FF24C08091D80080FF20C0E6
:105430008091DA008E7F8093DA008091D90080FF1E
:105440009DC080E189BD82E189BD09B400FEFDCF28
:1054500081E08093600680915206811109C00E940C
:105460005F050E942A068091E20084608093E2003A
:105470008091E10080FF17C08091E20080FF13C09F
:105480008091E2008E7F8093E2008091E200806153
:105490008093E2008091D80080628093D80019BC8C
:1054A00085E0809360068091E10084FF2BC08091AD
:1054B000E20084FF27C080E189BD82E189BD89B512
:1054C000982F917080FFFBCF8091D8008F7D8093C3
:1054D000D8008091E1008F7E8093E1008091E2000E
:1054E0008F7E8093E2008091E20081608093E200F1
:1054F00080916106882309F447C084E080936006A8
:10550000809160068091E10083FF27C08091E200D6
:1055100083FF23C08091E100877F8093E10082E0D8
:1055200080936006109261068091E1008E7F8093E7
:10553000E1008091E2008E7F8093E2008091E200A2
:1055400080618093E20042E060E080E00E94F80524
:105550008091F00088608093F000FF91EF91BF91FF
:10556000AF919F918F917F916F915F914F913F91FB
:105570002F910F900FBE0F901F90189519BC10928D
:1055800060061092520674CF8091E30087FD93E08D
:1055900090936006B5CF78941F921FB61F92112486
:1055A0008F939F93AF93BF9380914B0690914C063E
:1055B000A0914D06B0914E060196A11DB11D80939C
:1055C0004B0690934C06A0934D06B0934E06BF91A8
:1055D000AF919F918F911F901FBE1F9018951F92A2
:1055E0001FB61F9211248F939F93AF93BF93809107
:1055F0004A06811113C080914B0690914C06A091F0
:105600004D06B0914E064196A11DB11D80934B06EB
:1056100090934C06A0934D06B0934E06BF91AF9168
:105620009F918F911F901FBE1F901895CDB7DEB729
:10563000E4970FB6F894DEBF0FBECDBF85B7806884
:1056400085BF85B7806885BF84B7877F84BF0FB665
:10565000F894A89580916000886180936000109212
:1056600060000FBE80E890E00FB6F8948093610070
:10567000909361000FBE8DEC99E09093C9018093E7
:10568000C8010E949A070E945D110E945F050E9456
:105690002A068091E20084608093E20078948091F1
:1056A00060068823A1F01091E9001F709091EC0032
:1056B000892F817090FD80E8182B1092E90080916D
:1056C000E80083FD0E94A9141F701093E90082E096
:1056D00084BD93E095BD9AEF97BD80936E001092C4
:1056E00080021092810210928202109283020E9424
:1056F0004411811102C00E94CC0F0E94620E80935F
:10570000340180913401882309F482C0109244014D
:105710008DE1809345010E94620E81110E94233425
:10572000809134018091340195E0811190E0909353
:105730008F0285E0891B80938E0208E811E0D80172
:105740008D918D018F3F11F00E94CF09B1E00D388E
:105750001B07A9F70DE811E083E9E82E81E0F82E98
:10576000F80181918F018F3F11F00E94CF09E0165F
:10577000F106B1F78AE0E4EBF2E0DF01282F1D9299
:105780002A95E9F7E4E8F2E0DF011D928A95E9F74E
:105790000E94A229811102C00E94331982E090E088
:1057A0000E949C368093990284E090E00E949C368F
:1057B000182F82E290E00E949C36982F812F9093C0
:1057C0009102809390020E94F925EFE3FCE9319762
:1057D000F1F700C000000E94F9258091B40280FF1B
:1057E0001BC06FEF7FEF90E080E00E94CE3687E72E
:1057F00097E7909301088093000888E19AE00FB63C
:10580000F894A895809360000FBE90936000FFCF3E
:105810008DE1809344017DCF83E090E00E949C362F
:105820000E949A1480919202811138C00E94A2298C
:10583000811104C00E9433190E94D31388E090E0C4
:105840000E94A4366093A4047093A5048093A604D8
:105850009093A7048091D30283608093D3026E7FDC
:1058600071F40E94D31388E090E00E94A436609304
:10587000A4047093A5048093A6049093A7040E94A7
:10588000CD070E94C6078091A40480FF04C060E099
:1058900086950E946E1381E080939202909134016C
:1058A00081E098279093AD02F82FF91BF0939402B2
:1058B000909134018093AE029091340180939302D1
:1058C00080913401811106C084EF8093420185EFFD
:1058D0008093410120914201E22FE295EF70F0E0C8
:1058E00061A12F7081E090E0AC0101C0440F2A95C6
:1058F000EAF7342F3095362331A322A1242B22A39B
:1059000020914101E22FE295EF70F0E031A12F707C
:1059100001C0880F2A95EAF7982F9095932391A3B9
:1059200092A1892B82A38FE891E00197F1F700C043
:1059300000001091AE026FEA72E042E451E081E4AF
:10594000E82E81E0F82EFB0128C0DA012D91AD018F
:10595000822F82958F7090E0DC0190968C9190E080
:105960002F7002C0959587952A95E2F78170D7012F
:105970009D917D01292F22952F7030E0D9019096BD
:105980002C9130E09F7002C0359527959A95E2F7EB
:1059900090E020FD92E0892B81938E2F861B81174A
:1059A000A0F20E94620E811102C00E94263485E39B
:1059B00091E090934706809346061EEB612E12E01D
:1059C000712E02E0C02ED12C80916006FF24F3944A
:1059D00000E112E1853009F496C00E94F9250AE938
:1059E00012E0B4EBAB2EB2E0BB2E24EA32E0D501DC
:1059F000F80191918D912E173F0709F4A1C09817D6
:105A0000C1F30E94620E382EA4EBEA2EA2E0FA2E19
:105A1000912CD7018D907D01F80121908F012814E0
:105A200029F12824512C44244394822D8421B1F05F
:105A30003320A1F058AA99AA91E0882D842109F475
:105A400090E09AAB0E9402078160782F9CAB8BABF1
:105A500048A959A96AA98CA90E94E7215394440C2A
:105A6000F6E05F12E2CFF8013197808293942AE04A
:105A70009212CFCF0E94F60683C0809160068430D8
:105A800009F433C00E94C60780919602811109C0B3
:105A9000F09296028091A4048170809395020E94F6
:105AA000170E10924A06E8E1F0E020E40FB6F894F1
:105AB000A895E09360000FBE2093600083B7817FBC
:105AC000846083BF83B7816083BF7894889583B7F0
:105AD0008E7F83BF0FB6F894A8958091600088618F
