:100000000C944F040C946C040C946C040C94EB331F
:100010000C946C040C946C040C946C040C946C04A0
:100020000C946C040C946C040C94E32A0C949F2A9A
:100030000C94E02B0C946C040C946C040C946C04E5
:100040000C946C040C946C040C946C040C946C0470
:100050000C946C040C94BC2B0C946C040C946C04E9
:100060000C946C040C946C040C946C040C946C0450
:100070000C946C040C946C040C946C040C946C0440
:100080000C946C040C946C040C946C040C946C0430
:100090000C946C040C946C040C946C040C946C0420
:1000A0000C946C040C946C040C946C04050109020F
:1000B000A10185020901A100050919012905150001
:1000C00025019505750181029501750381010501E1
:1000D000093009311581257F950275088106093897
:1000E0001581257F950175088106050C0A380215D2
:1000F00081257F950175088106C0C005010980A191
:1001000001850319012AB700150126B7009501756D
:10011000108100C0050C0901A101850419012AA064
:1001200002150126A002950175108100C005010984
:1001300006A1018506050719E029E71500250195A7
:1001400008750181020507190029EF1500250195A1
:10015000F0750181020508190129059505750191C0
:1001600002950175039101C00660FF0961A10109B3
:1001700062150026FF0095207508810209631500AD
:1001800026FF00952075089102C005010906A1010E
:10019000050719E029E71500250195087501810279
:1001A0009501750881010507190029FF150026FF33
:1001B0000095067508810005081901290595057542
:1001C000019102950175039101C0643214643214E7
:1001D000783C1E1E140A05FD377A585A000004E6C2
:1001E000D6B4460200210116000000742FE5A3E0FA
:1001F00004BC019A5D003D8889C65436C3174FE49C
:10020000DCCBB3DF6320E7D71739D83D5F52C90B8A
:10021000ECB7E6D5195224B0736759B3E0B456C7AA
:100220004788C96520CF4A3C940C015E29865C8EC4
:1002300045BDB36475555AE53895D3A636E143F00C
:10024000E57DA54EF2FAD0F9A7BD92DC4E3A08A59D
:100250006C0077122D63D505D4F8BF27002D6204FA
:1002600078AFC46D165D53B98CEBB897D3EA25957A
:100270006C9790B1939EB07E49F9F66A4A6BE3E1C0
:10028000CC609804629488A6E994233A3F94FA8457
:100290004C3EBBC3F4401373DCAD12FF0DF40B1ADC
:1002A0003AD11E067F95C715906C4321474D7FC4F8
:1002B0004D2DBC1E3FA0D011F7E9DECF27B956184F
:1002C00040E0039BE8BC9D5FF03849C8E6ED021FA3
:1002D000775CE6D7B694F9BEFF57245C0FB32105CF
:1002E000617FA436262923163BCF24376F405F93C6
:1002F000EC9AFF7E02EC95D80FAC61C923D4A1BB68
:1003000096DEAD54788FA8C9BA3BF04581A33BD4A3
:10031000F205C154C1E0BDAE7CE5435266F238C07F
:1003200082C84EDB3680B777ED21FE0B89CA06C541
:100330003333A09BD46831DFA0443474E63984673A
:10034000CA51153E5DA2C705B6339A43A25D8A36EF
:1003500065C8EF49DC962875915A9A89D8A0D33898
:10036000A94828800471FAC17490986F1BA0A21349
:100370007EAEA34D6E1CF86F98E0326958495C4D13
:100380001F78889B680CFF078F036F14E8900A00A2
:10039000000000A84018E9436651A00001B603BD63
:1003A000090000ADF3AFA8B1C467FB020000000074
:1003B00004595A0001010101010101010102020277
:1003C0000202020202020303030303030303040401
:1003D00004040404040505050505060606060607CB
:1003E0000707070708080808090909090A0A0A0B84
:1003F0000B0B0C0C0C0D0D0D0E0E0E0F0F0F101025
:1004000011111112121313141415151616171718AB
:100410001819191A1A1B1B1C1D1D1E1E1F20202116
:100420002222232424252626272829292A2B2C2D5D
:100430002D2E2F30313232333435363738393A3B7E
:100440003C3D3E3F404142434445464748494A4C73
:100450004D4E4F50515354555658595A5B5D5E5F3F
:10046000616264656668696B6C6D6F7072737577D5
:10047000787A7B7D7E8082838587888A8C8E8F9137
:10048000939596989A9C9EA0A2A3A5A7A9ABADAF61
:10049000B1B3B5B7BABCBEC0C2C4C6C9CBCDCFD14B
:1004A000D4D6D8DBDDDFE2E4E7E9EBEEF0F3F5F8F4
:1004B000FAFDFF2223252628292A2C2D2F3032331E
:1004C0003536383A3B3D3E4042434547494A4C4E1B
:1004D0005051535557595A5C5E6062646668696B47
:1004E0006D6F71737577797B7D7F81838587898A4D
:1004F0008C8E90929496989A9C9E9FA1A3A5A7A853
:10050000AAACAEAFB1B3B4B6B8B9BBBCBEBFC1C282
:10051000C3C5C6C7C9CACBCCCDCED0D1D2D2D3D415
:10052000D5D6D7D7D8D9D9DADADBDBDBDCDCDCDC33
:10053000DCDDDDDDDDDCDCDCDCDCDBDBDBDADAD901
:10054000D9D8D7D7D6D5D4D3D2D2D1D0CECDCCCB83
:10055000CAC9C7C6C5C3C2C1BFBEBCBBB9B8B6B4A1
:10056000B3B1AFAEACAAA8A7A5A3A19F9E9C9A9831
:10057000969492908E8C8A89878583817F7D7B7902
:10058000777573716F6D6B6968666462605E5C5AE3
:100590005957555351504E4C4A4947454342403EA6
:1005A0003D3B3A3836353332302F2D2C2A29282638
:1005B0002523222B0014001A00080015001700E064
:1005C0000004001600070009000A00E1001D001BDE
:1005D00000060019000500000000000000E3001004
:1005E0005F2C002A00130012000C0018001C0034BD
:1005F0000033000F000E000D000B002900380037FB
:1006000000360010001100000000000000E600119C
:100610005F28002B001E001F00200021002200E0A8
:100620000000000000000000000000E100000000E9
:1006300000000000000000000000000000E30001D6
:10064000002C002A0027002600250024002300009B
:100650000000004F00520051005000000000000058
:1006600000000000000000000000000000E60001A3
:100670000028002B001E021F02200221022202E09D
:100680000000000000000000000000E10000000089
:1006900000000000000000000000000000E3000176
:1006A000002C002A002702260225022402230235FC
:1006B00000310030002F002E002D003502310230B5
:1006C000022F022E022D02000000000000E60001B1
:1006D000002800005C00000000000000000000C2D4
:1006E0005CC55CC75CC95C00000000C35CC65CC83C
:1006F0005CCA5C00000000000000000000E3000194
:10070000002C0000000000000000000000000000BD
:1007100000000000000000000000000000000000D9
:1007200000000000000000000000000000E60001E2
:1007300000280009025B00030100A0FA0904000080
:1007400001030101000921110100012240000705F8
:1007500081030800010904010002030000000921CF
:100760001101000122220007058203200001070574
:100770000303200001090402000103000000092115
:100780001101000122BC00070584032000011201B1
:1007900000020000000853460100010001020301AD
:1007A0001C037600690061006C003A0066003600A8
:1007B00034006300320062003300630000000C0369
:1007C00043006F0072006E00650000001C035300C0
:1007D00070006C00690074007400650064005300D0
:1007E000700061006300650000000403090400005C
:1007F00000000000000000000000000000000000F9
:1008000000000000000000000000000000000000E8
:1008100000007E0F00D4FFFFFFC70000007800003B
:100820000000000000002A2B28000000000000004B
:1008300000000000000000000029000000002C1E45
:100840003420212224342627252E362D3738271E02
:100850001F202122232425263333362E37381F0428
:1008600005060708090A0B0C0D0E0F1011121314C0
:1008700015161718191A1B1C1D2F3130232D35047E
:1008800005060708090A0B0C0D0E0F1011121314A0
:1008900015161718191A1B1C1D2F3130354C112431
:1008A0001FBECFEFDAE0DEBFCDBF11E0A0E0B1E0C8
:1008B000ECE8FCE602C005900D92A23AB107D9F728
:1008C00025E0A2EAB1E001C01D92A332B207E1F730
:1008D0000E94072C0C9420360C940000FC01AC0103
:1008E0004C5F5F4F8FEF91E32191822728E030E04A
:1008F00087FF09C0880F892721503109C9F7E417FC
:10090000F50791F70895880FF7CFE8EDF0E08081C3
:100910008E7F80831092E2001092DA001092E10044
:10092000A0EEB0E08C9181608C9380818F77808382
:1009300019BCA7EDB0E08C918E7F8C9380818F7E67
:1009400080831092F30408952091E4003091E50033
:1009500095E6A9012091EC00822F817020FF06C04E
:100960008091E80080FF06C080E008952091E800B3
:1009700022FD1AC080911805882389F0853089F0FE
:100980008091EB0085FD0FC02091E4003091E500DF
:1009900042175307F9F29150E1F684E0089582E09E
:1009A000089583E0089581E00895EF92FF920F93F8
:1009B0001F93CF937C018B010E94A404C82F811147
:1009C00017C08091E80085FD0BC08091E8008E770C
:1009D0008093E8000E94A404882399F3C82F08C0DC
:1009E000F70181917F018093F1000150110949F7CE
:1009F0008C2FCF911F910F91FF90EF9008958091D0
:100A00001A0587FF13C08091E80082FF06C080911D
:100A1000E8008B778093E80004C08091180581116D
:100A2000F2CF0895809118058823D9F38091E800CA
:100A300080FFF8CF8091E8008E77ECCF982F9093CD
:100A4000E900242F762F50E0891731F07091EC00E7
:100A50002091ED005091F00021FD07C09F5F97307D
:100A600071F78093E90081E008953091EB003E7FBB
:100A70003093EB003091ED003D7F3093ED003091ED
:100A8000EB0031603093EB007093EC002093ED00AD
:100A90005093F0002091EE0027FDE0CF80E0089514
:100AA000B0E0A0E0E6E5F5E00C941135C8EDD0E04B
:100AB00088818F7E8883E7EDF0E08081816080838C
:100AC00084E082BF81E08093F30488818E7F8883F5
:100AD00002EE10E0F80110821092DA0081EEC82ECA
:100AE000D12CF601108288818F7788838881806875
:100AF000888388818F7D888319BC10921805109295
:100B00001905109217051092160590EEE92EF12C9A
:100B1000F70180818B7F808388818160888342E0B8
:100B200060E080E00E941E05F60180818E7F808358
:100B3000F801808181608083808188608083F701F3
:100B400080818E7F8083888180618883CDB7DEB786
:100B5000E8E00C942D35FC01809120059091210551
:100B600086179707A0F06115710529F49091E800A8
:100B70009E779093E80090E06115710551F4911112
:100B800008C08091E80082FF34C080E00895BC0175
:100B9000F2CF809118058823C1F18530C1F1809191
:100BA000E80083FD30C08091E80082FDEACF8091AB
:100BB000E80080FFE1CF8091F3002091F200382F10
:100BC0006115710519F02830310558F091E0283091
:100BD000310509F090E02091E8002E772093E8009D
:100BE000CBCF81918093F100615071092F5F3F4F0E
:100BF000E7CF80911805882341F0853041F080913E
:100C0000E80083FFBECF81E0089582E0089583E08D
:100C1000089508958091F504089587E797E79093E4
:100C200001088093000888E19AE00FB6F894A8952F
:100C3000809360000FBE90936000FFCF9C014FB780
:100C4000F8948091EA049091EB04A091EC04B091A7
:100C5000ED044FBF821B930B08952FB7F89460915A
:100C6000EA047091EB048091EC049091ED042FBFA5
:100C700008952FB7F8948091EA049091EB04A09125
:100C8000EC04B091ED042FBF08952091360122238A
:100C9000C9F02091EE0427FF15C0E62FE695E695F2
:100CA000E695EE31D8F4E80FF92FF11D677021E0D9
:100CB00030E001C0220F6A95EAF72095828128234F
:100CC00022830895FC01329608962191621303C095
:100CD000DF0111971C92E817F907B9F708952091E1
:100CE00036012223C1F02091EE0427FF14C0E62F25
:100CF000E695E695E695EE31F8F4E80FF92FF11D4B
:100D0000677021E030E001C0220F6A95EAF7828126
:100D1000822B82830895FC0132962FEF30E04191BF
:100D2000641751F02F3F19F4411101C0232F3F5F89
:100D30003630A9F72F3F09F40895820F911D27FD42
:100D40009A95FC01628308952091E7043091E804AC
:100D50002817390771F09093E8048093E704E09135
:100D6000E504F091E604309721F00084F185E02D50
:100D7000099508952091E3043091E4042817390778
:100D800071F09093E4048093E304E091E504F09122
:100D9000E604309721F00680F781E02D099508954B
:100DA000452B39F0682381E06F3F09F080E08170C6
:100DB000089581E0FCCFDC016091D8048091D904D2
:100DC000962F891301C00895292F30E0F901EE0F05
:100DD000FF1FE053FB4F408151814A175B07A1F48D
:100DE00087E08A9FA0018B9F500D112448565B4FCE
:100DF00081E0FA0184839613E6CF2F5F3F4F237083
:100E000033272093D80408952F5F3F4F922F93707C
:100E1000D8CF1092350410923404E8E9F4E08581CB
:100E2000811102C014821682379684E0E03DF807F3
:100E3000B1F70895E0E7F3E090E080E067EE76E256
:100E40004EE057E225E536E2778366835187408797
:100E5000338722879587848701963E96883091054F
:100E600099F7089581152CE5920741F420913301FB
:100E700030913401232B11F490E080E00895FA01C1
:100E8000811101C0FB01099508950895E3EBF2E09B
:100E90001182828184608283089580915903982F02
:100EA0009E7F61F4817082608093590380915C031E
:100EB000833818F082E880935C0308958C32B0F395
:100EC00081708A62F1CFAF92BF92DF92EF92FF9270
:100ED0000F931F93CF93DF93082F162FE901E42F71
:100EE000F0E0ED54FC4F611110C0E4915E2F4E2FE5
:100EF0004983E8835A83DF91CF911F910F91FF902F
:100F0000EF90DF90BF90AF900895E62EF12C4491C2
:100F1000D42EE42FF0E026E0829FC00111242FEFB1
:100F200030E0B9010E944C35802F90E0880F991F66
:100F300055E5569FD001579FB00D11248A1B9B0B7E
:100F4000982F990F890F5901AE18BF08AE9ED00196
:100F5000AF9EB00DBE9EB00D11245B2F189F800177
:100F60001124012F11275901A01AB10AAE9E800148
:100F7000AF9E100DBE9E100D11245901A81AB10884
:100F8000AE9CC001AF9C900DBE9C900D1124892F8A
:100F90009927281B390B2E9FC0012F9F900D3E9F34
:100FA000900D1124E92F62307105A1F050F4611504
:100FB000710509F49DCF6130710581F0EB2F512F40
:100FC00097CF6430710569F080F06630710509F4DF
:100FD0008FCFF4CFE42F4B2F592F8ACFE42F412FFF
:100FE00087CFEB2F542F492F83CF4B2F5D2DE12F30
:100FF0007FCF0E9439069C019091A9028091AA029C
:10100000982B21F03093A6022093A5029091AB0279
:101010008091AC02982B21F03093A4022093A3027C
:10102000E091E504F091E604309749F082E0809386
:10103000A7020480F581E02D87EA92E009950895E2
:101040009091A902803F59F48091AA0287FF0DC0B8
:101050001092AA0291110BC01092A10208C0813F08
:1010600081F48091AA0218169CF3992381F0809153
:10107000AB029091AC02892B09F064C01092A002DF
:101080000895823F49F497FFF0CF1092A902809112
:10109000AA028111ECCFE0CF833F19F41916ACF30B
:1010A000E4CF2091AB02893F29F41216F4F6109296
:1010B000AB02DBCF8A3F19F427FFD7CFF8CF2091BF
:1010C000AC028B3F29F427FFD0CF1092AC02CDCFDA
:1010D0008C3F19F41216CCF3C8CF843F31F48091C1
:1010E000A8028E7F8093A802C0CF853F21F4809113
:1010F000A8028D7FF7CF863F21F48091A8028B7FD5
:10110000F1CF873F21F48091A802877FEBCF883F02
:1011100021F48091A8028F7EE5CF8D3F31F480913C
:10112000A2028E7F8093A202A0CF8E3F21F48091F5
:10113000A2028D7FF7CF8F3F09F097CF8091A20257
:101140008B7FF0CF08958091A20280FD16C081FDB3
:1011500016C082FD16C08091A0028823A1F08832BB
:1011600080F428E0829FC001112468E270E00E94B0
:101170006035862F672B39F0089582E0089584E06A
:10118000089588E0089581E008958091A20280FD8D
:1011900014C081FD14C082FD16C08091A102882375
:1011A00081F08E3180F420E5829FC00111246EE130
:1011B00070E00E946035862F089584E1089588E2EA
:1011C000089588E0089580E50895803F31F40E94F5
:1011D000C50881958093AA020895813F19F40E9461
:1011E000C508F8CF823F31F40E94C50881958093ED
:1011F000A9020895833F19F40E94C508F8CF893FDA
:1012000029F40E94A3088093AB0208958A3F21F439
:101210000E94A3088195F7CF8B3F31F40E94A30869
:1012200081958093AC0208958C3F19F40E94A30825
:10123000F8CF843F31F48091A80281608093A802A6
:101240000895853F21F48091A8028260F7CF863F00
:1012500021F48091A8028460F1CF873F21F480912E
:10126000A8028860EBCF883F21F48091A8028061BA
:10127000E5CF8D3F31F48091A20281608093A2027C
:1012800008958E3F21F48091A2028260F7CF8F3FB4
:10129000B9F78091A2028460F1CF80E00895F894BC
:1012A000E82FE295EF70F0E031A1282F2F7081E058
:1012B00090E001C0880F2A95EAF7982F9095932324
:1012C00091A392A1892B82A3789408959091EE0422
:1012D00092FF06C0282F28712830F9F4877F846098
:1012E00093FF06C0282F28712831F1F4877E84618E
:1012F0002091EF0420FF06C0382F38713830D9F420
:10130000877F816021FF06C0282F28712831D1F402
:10131000877E816194FD877E0895282F2471243073
:10132000F9F68B7F8860DCCF282F2471243101F7F8
:101330008B7E8861DDCF382F3171313019F78E7F88
:101340008860E0CF282F2171213121F78E7E8861BE
:10135000E1CFCF93DF93EC0182389105B1F108F032
:1013600040C08133910509F49DC048F5893291054B
:1013700009F48DC08A9709F49CC0C11521E5D207F4
:1013800008F0C3C0C11530E5D30708F01EC1C83E40
:10139000D10508F0A3C0C03ED10588F5C83AD105F3
:1013A00008F08EC0C53AD10508F007C1C130D1059B
:1013B00031F1209721F1C430D10508F545C08533BE
:1013C000910509F45FC0C997C1F68091EE0483705E
:1013D00009F044C18091EF0483FF11C0C9E2D0E05D
:1013E0000EC0833E910599F170F4803E910501F1A4
:1013F000823E910511F68091EE0482FD21C0CE015E
:10140000DF91CF910895863E910561F1873E910568
:1014100071F1843E910509F0B0CF8091EF0481FF16
:10142000EECF8091EE04C7EED0E084FD0DC0E7CF93
:101430008091EE0480FD33C09091EF0490FFDFCFE8
:10144000C3EED0E084FFDBCFD0E0C0E0D8CF809106
:10145000EE0482FD00C19091EF0490FDFFC084FF77
:10146000CECFF2CF8091EE0483FDDDCFC8CF809147
:10147000EE0483FDF6C09091EF0491FFF0CFC4EE2F
:10148000D0E0BDCF8091EE0485FFB9CFA7CF80918A
:10149000EE0485FDE9C08091EF0483FFB0CFC9E37E
:1014A000D0E0ADCF8091EE0486FFA9CFCAE2D0E0B4
:1014B000A6CF8091EE0486FFA2CFC1E3D0E09FCFFC
:1014C000CF3BD10508F6C85AD0E0CC0FDD1FCE5B6C
:1014D000DE4F0990D881C02DD46491CFC11540E270
:1014E000D40758F4C11581E0D80708F088CFC03F71
:1014F000D10508F4A9CFD06582CFC11520E4D20769
:1015000008F4A2CFDF70D06A7ACFC11535E5D307D2
:1015100018F5C11544E5D40708F085C0C11583E569
:10152000D80708F06CC0C11522E5D20708F462C0E4
:10153000CE018370992721E030E002C0220F331FD3
:101540008A95E2F7C695C69580E2C89FE00111240E
:10155000C22BD32BDC6853CFC11539E5D307A8F4D0
:10156000C11548E5D40708F063C0C11586E5D80762
:1015700008F06ACF8C2F0E946609C82FD0E0DC2FBC
:10158000CC27CC27DF71D0623ACFC1152AE5D2072C
:1015900008F453C0CE0190568115904208F054CF04
:1015A0008D2F8F710E94660990E0982F88278827D9
:1015B0009F719C012C2BE901E6CFC55AD0E0C15C9C
:1015C000DE4FC881D0E0D0641ACF2C2F2695269507
:1015D000237040E2249F900111248C2F8370C1E07E
:1015E000D0E002C0CC0FDD1F8A95E2F7C22BD32BCF
:1015F000DD6805CFDC2FCC27C16FD06A00CFCE01CC
:101600008370992721E030E002C0220F331F8A95B2
:10161000E2F7C695C69540E2C49FE0011124C22BB3
:10162000D32BDA68ECCEDC2FCC27C46FD06AE7CEA0
:10163000DC2FCC27C06FD06AE2CE8C2F8F700E9437
:10164000660934E0D695C7953A95E1F7CF709C2F9F
:10165000EC01D069D4CEC2EED0E0D1CEC0EED0E065
:10166000CECEC6EED0E0CBCEC5E3D0E0C8CE8091E2
:101670004702882331F010924702109246021092DE
:101680004502089580959091DF0498239093DF049C
:10169000089580959091E00498239093E004089534
:1016A0001092240210922302109222020895809137
:1016B00021029091E001981301C008958F5F877017
:1016C000FACF292F983078F5863068F590E036E02B
:1016D000239F800D911D1124682F677023E096953C
:1016E00087952A95E1F7FC01EE0FFF1FE80FF91F20
:1016F000EA53FE4F50E040E080E0219130E0062EBA
:1017000002C0369527950A94E2F721703327042EFC
:1017100001C0220F0A94EAF7822B4F5F5F4F4330DC
:10172000510559F7089580E00895292F983098F5CC
:10173000863088F590E036E0239F800D911D1124BE
:10174000282F277041E001C0440F2A95EAF723E0D3
:10175000969587952A95E1F7FC01EE0FFF1FE80F9C
:10176000F91FEA53FE4F30E020E070E05191DF01B5
:101770001197CB01022E02C0969587950A94E2F745
:10178000817081958527842385278C932F5F3F4F18
:101790002330310559F708959C013A9521153F41B1
:1017A00050F5FC01EE27F170BC0166277270AC01A8
:1017B000442754709C012227387094FF0EC080E1AA
:1017C000EF2B09F480E0672B09F08062452B09F0CC
:1017D0008064232B89F08068089581E0EF2B09F461
:1017E00080E0672B09F08260452B09F08460232B91
:1017F00019F08860089580E008958093F004709354
:10180000F2046093F104809118058430F9F4809318
:10181000E9008FEF9091E800815095FD06C095EDAD
:101820009A95F1F700008111F5CF8091E80085FFCE
:101830000DC050E040E063E070E080EF94E00E9473
:10184000D5048091E8008E778093E8000895BC016C
:1018500084E00E94FD0B0895BC0183E00E94FD0B13
:1018600008959C0184E08093E9009FEF8091E80057
:10187000915085FD06C085ED8A95F1F70000911124
:10188000F5CF8091E80085FF0CC050E040E066E0B5
:1018900070E0C9010E94D5048091E8008E778093A2
:1018A000E8000895CF93DF93EC01809136018823FF
:1018B000B1F18091EE0487FF32C060E284E0809352
:1018C000E9008FEF9091E800815095FD06C095EDFD
:1018D0009A95F1F700008111F5CF8091E80085FF1E
:1018E0001BC08091360170E050E040E0811104C0DF
:1018F00050E040E068E070E0CE010E94D5048091A5
:10190000E8008E778093E80080E2FE01A6EFB4E065
:1019100001900D928A95E1F7DF91CF91089568E0EB
:1019200081E0CDCF60912F018091590380FF20C0CD
:1019300080912E0143E0849FC001112489549D4F62
:10194000539A2BB1277F3BB138605FB7F894FC0105
:10195000649FE00DF11D1124BF0168177907D1F4D0
:101960005FBF8FE594E00197F1F700C00000089594
:10197000809130019091310123E0829FF001112488
:10198000E954FD4F8917A0F61182108212828F5FF1
:101990003396F8CFFC014191CF01E8E03BB900005C
:1019A00000C047FF2BB9440F000000C000C000C0BA
:1019B0002BB900C0EA9591F7D0CF0F931F93CF9327
:1019C000DF93EC0110E000E09091320190171106D6
:1019D00009F06CF40E94920C8C8190E00196817069
:1019E00099278C83DF91CF911F910F9108952091BA
:1019F0003001A801420F511D9A01220F331F240FFD
:101A0000351F29543D4F4C8160915B0380915A03EF
:101A100096959017110669F064F0442361F04091A7
:101A20005C03433808F042E80E9463070F5F1F4FD2
:101A3000CBCF4423A1F340E0F7CFB0E0A0E0E3E256
:101A4000FDE00C940D35EC018A81BB24BA9480FD35
:101A500002C0BB24B394A09032018C81811109C0D3
:101A600081E0B81220C08FEF8A0D8093B60281E02A
:101A70008C83F12CE12C46E3842EEA14B8F00E940A
:101A8000920C8091B60291E0B9125AC0811153C0F4
:101A90008091320181508093B6021C82CDB7DEB7AF
:101AA000ECE00C9429351092B602E1CF00913001A0
:101AB0000E0D1F2D111DC801880F991F080F191F2A
:101AC00009541D4FF80111821082128234E0C32E96
:101AD000D12C912C8091B602890D873344F1682D69
:101AE0000E943E35892F082E000C990B8E159F05FC
:101AF000A9F480915C038C9DA0018D9D500D112453
:101B00005595479555954795433808F042E8980113
:101B100060915B0380915A030E9463079B0CF1E084
:101B2000CF1AD108B9F68FEFE81AF80AA6CF87FFC7
:101B3000DACF8A0DD8CF81508093B602BC82AECF67
:101B400090E001966091320170E00E9460358093D0
:101B5000B6028C83A3CFEF92FF921F93CF93DF93B4
:101B6000EC0110E0EE24EA94F12C6091320116179A
:101B700070F00E94920C9A818C8190FF2AC08F5F36
:101B80008C83DF91CF911F91FF90EF90089520916A
:101B90003001422F410F5527551FCA019A01220FCC
:101BA000331F280F391F29543D4F40915C034338A0
:101BB00008F042E870E0C7010E946035962F8C81E2
:101BC00060915B03199F800D11240E9463071F5FC2
:101BD000CCCF8150D5CF9091590390FF0EC09091FA
:101BE00030012091310133E0939FF0011124E95439
:101BF000FD4F921718F00E94920C08958183608324
:101C000042839F5F3396F5CFA3E0B0E0EAE0FEE0C9
:101C10000C9417359091590390FF0DC0433808F08C
:101C200042E89E012F5F3F4F0E9463074B8169810D
:101C30008A810E94EB0D2396E2E00C943335CF931A
:101C4000DF93EC01E9E5F3E0438162818C810E943E
:101C5000040E8C818F5F8C83DF91CF910895CF9399
:101C6000DF93EC01EC81F0E0ED54FB4F4491E9E5AA
:101C7000F3E0628181810E94040E8C818F5F8C83EE
:101C8000DF91CF910895E9E5F3E080818E7F808335
:101C90000E944607E3EBF2E08281816082832FEFAE
:101CA00080E792E0215080409040E1F700C00000C2
:101CB0000E94920C0895B0E0A0E0E1E6FEE00C94F2
:101CC0000F357C015B016A018091750201E010E033
:101CD0008A3010F40AE010E0C1E0D0E0B501C7019D
:101CE000F6010995811104C021960C171D072CF4EB
:101CF000CDB7DEB7EAE00C942B35CC9F9001CD9F99
:101D0000300D300D112490E080E045E34A95F1F765
:101D10000000019682179307C1F7E0CF809153022C
:101D2000811110C08091D80080618093D8008AE131
:101D30008A95F1F700C08091D90080FF0AC081E048
:101D40008093530281E090915302913009F080E03A
:101D5000089582E0809353020E9485041092180532
:101D6000F1CF0E948E0E882359F0E091E504F091A6
:101D7000E604309729F00190F081E02D099508954F
:101D800080E008950F931F930E948E0E882329F000
:101D90000E942D061F910F9108950E942D0600911B
:101DA0007602109177022091780230917902600FCB
:101DB000711F821F931FEECF0E948E0E882319F091
:101DC0000E94390608950E94C20ECB010895CF9358
:101DD000DF93C7E4D2E060E0CE010E94E4352196B3
:101DE000C11584E0D807B9F7DF91CF9108951F930B
:101DF000CF93DF93122F8430E0F46830D0F4463074
:101E0000C0F4C42FD0E0CC0FDD1F9CE0699FC00D53
:101E1000D11D112490E6899FC00DD11D1124632F7F
:101E2000CE0187960E94E435612FCE0188960E94EC
:101E3000E435DF91CF911F910895CF93C82F6FEFB5
:101E4000811164EC83E290E00E94E4356FEFC111F0
:101E500064E984E290E00E94E4356FEFC11160EE26
:101E600085E290E00E94E435CF910895A4E1B0E0CE
:101E7000ECE3FFE00C940C35A0903301B0903401FA
:101E800081E090E0909334018093330183EBC82E7E
:101E900085E0D82E00E0760110E015C0F401259110
:101EA0003491472D612F802F0E94F70E82E0880E1B
:101EB000911C7394E6E07E12F1CFFCE0EF0EF11C72
:101EC0001F5F183019F04701712CE8CF0F5F80E6D3
:101ED000C80ED11C0430F9F61A8219821C821B82AA
:101EE0001E821D8218861F8288EC90E09A8789875F
:101EF00007EA11E04AE050E0B801CE0101960E94E5
:101F00000836065F1F4F073FE1E01E0799F77E0185
:101F1000FBE0EF0EF11C8AE0F70111928A95E9F7D8
:101F20004AE050E0B801C7010E940836065F1F4F23
:101F30000734F2E01F07A1F7B0923401A0923301F9
:101F40006496EDE00C94283580E00E941D0F60E05F
:101F500086E290E00E94E4350E94360F0E94E70E70
:101F600081E00E941D0F08959B01883070F49AE073
:101F7000899FB001112469557E4F4AE050E0C901A4
:101F80000E94C03590E080E008958FEF9FEF0895A4
:101F9000AAE0B0E0EEECFFE00C9417359C01375559
:101FA0002F3F310509F068F4BE016F5F7F4F0E943B
:101FB000B40F892B31F489859A852A96E2E00C9436
:101FC000333588EC90E0F9CF0F931F93CF93DF93D5
:101FD000843030F5683020F5463010F5C42FD0E05D
:101FE000CC0FDD1F2CE0629FC00DD11D112430E607
:101FF000839FC00DD11D1124CE0187960E94D0353C
:10200000082F10E0102F0027CE0188960E94D035AF
:102010009801282BC901DF91CF911F910F9108954D
:1020200090E080E0F8CF462F2091320430913304C5
:10203000232B99F4703F39F4603F79F48091300498
:10204000909131040895843040F4783030F4663053
:1020500020F4672F0E94E40F089590E080E0089537
:10206000CF92DF92FF920F931F93CF93DF936C0178
:102070000091220580914802082BC7E0D0E010E0D3
:10208000FC2EC8010C2E02C0959587950A94E2F7A4
:1020900080FD0CC02197A0F7F12C8F2DDF91CF91FF
:1020A0001F910F91FF90DF90CF900895B6018C2F74
:1020B0000E9413100E94A909019761F3EECFCF93FC
:1020C000DF93EC010E943010BE010E9413100E94A9
:1020D000A909DF91CF9108950F931F93CF938C019E
:1020E000FC0143815481618180810E94D006C82F08
:1020F00081112AC0F80186819781009791F00E9492
:10210000A90992959F709630D1F080F4925F9F70EC
:10211000923080F4803F19F058F4883E58F4C1E0C2
:1021200009C0808191810E945F10EBCF9A5FEFCF51
:10213000843FA9F38C2FCF911F910F910895883E72
:1021400070F3813FB9F7EBCFC0E0F4CFA5E0B0E08A
:10215000ECEAF0E10C9416359C01FC018681978134
:102160000097E1F485E0DE01119601900D928A95C9
:10217000E1F7F901228189819A81222399F066236E
:1021800089F00E943010182F682F89819A810E944F
:10219000950B69817A81812F0E9413102596E3E0C7
:1021A0000C9432350E94610B182FF3CF83E290E03C
:1021B0000E94D035843C89F484E290E00E94D035BE
:1021C000843959F485E290E00E94D03591E0803E58
:1021D00009F090E0892F8170089580E0FCCFCF93C3
:1021E00084E090E00E94D035C82F82E290E00E9407
:1021F000D035982F8C2FCF910895AAE0B0E0E3E07E
:10220000F1E10C941135E0EEF3E080E5DF011D9281
:102210008A95E9F7E8E9F4E088E3DF011D928A9501
:10222000E9F780EEC82E83E0D82E7F0107EF11E09A
:10223000F701D182C0824AE050E0B801CE01019698
:102240000E94C03588E0FE013196D60101900D92C2
:102250008A95E1F789859A85D70113969C938E9389
:102260001297BAE0CB0ED11CE7E0EE0EF11C065F30
:102270001F4F0734F2E01F07D9F62A96E8E00C94C6
:102280002D3560915903669570E041E050E08DE294
:1022900091E00E949635892B19F481E08093B40275
:1022A0000E94DC0E9093AE028093AD028091B50245
:1022B00084608093B5020895CF92DF92EF92FF92EF
:1022C0006B017C010E944D07B701A60188E090E0F8
:1022D0000E94F635FF90EF90DF90CF900895A3E035
:1022E000B0E0E5E7F1E10C941335082FF62E142F3A
:1022F000E22E8091590380FF3DC0E82FE695F0E083
:10230000E458FE4F90819093B3028E7F8230B1F5F6
:10231000433808F042E89E012F5F3F4F6F2D802F1A
:102320000E9463074B8169818A810E94EB0D809135
:102330005A03801308C080915B038F1104C0809101
:102340005C03811729F08091B50282608093B50209
:1023500000935A03F0925B0310935C03EE2051F05C
:102360006091590370915A0380915B0390915C03D3
:102370000E945C112396E6E00C942F35923019F4FC
:1023800010915C03D4CF80915A03963011F09930AC
:1023900071F6082FCCCFE9E5F3E0438125E0421B3D
:1023A00008F440E021E0628181810E946F1108956C
:1023B000E9E5F3E0438125E0420F08F44FEF21E027
:1023C000628181810E946F110895E9E5F3E06281E5
:1023D00021E1621B08F460E021E0438181810E94D9
:1023E0006F110895E9E5F3E0628121E1620F08F4DD
:1023F0006FEF21E0438181810E946F110895E9E52B
:10240000F3E0818121E04381628188500E946F1155
:102410000895E9E5F3E0818121E043816281885FED
:102420000E946F11089580915D03882319F08150F7
:1024300080935D036091590370915A0380915B030F
:1024400090915C030E945C11089580915D0383303C
:1024500018F48F5F80935D036091590370915A0364
:1024600080915B0390915C030E945C1108959091B0
:10247000590390FF31C0917081112FC092609093E9
:1024800059038091B50281608093B502662351F0B3
:102490006091590370915A0380915B0390915C03A2
:1024A0000E945C1160915903669570E041E050E034
:1024B0008DE291E00E949635892BB1F00E9446078B
:1024C00081E08093B00220E040915C0360915B0367
:1024D00080915A030E946F110895863110F09A621C
:1024E000CECF880F982BCBCF0E944111E9CF80919E
:1024F00059038695815009F485E161E00E94371205
:1025000008958091590386958F5F863108F081E0A8
:1025100061E00E94371208959091590390FF08C01E
:102520009695981728F0961718F40E94811208952E
:1025300061E00E9437120895E9E5F3E083E08083CB
:1025400011828FEF828388E783838483A3EBB2E0D9
:1025500012968C911297836012968C936081718190
:10256000828193810E945C1108958091E004909192
:10257000DF04892B8093A40180914702882329F1ED
:102580000E9439062091450230914602821B930B2E
:102590008838934110F00E94370B8091A4019091EC
:1025A0004702892B8093A401809136018823E1F1B1
:1025B0008091EE0487FF38C08EE1E6EAF1E090E01A
:1025C0008150A0F591110E94370B40E250E065E286
:1025D00072E084EA91E00E94A335892B21F180E228
:1025E000E4EAF1E0A5E2B2E001900D928A95E1F70C
:1025F000E091E504F091E6043097A9F0809136016E
:10260000882359F08091EE0487FF07C08091A401D0
:102610008093A50186E08093A4010280F381E02DE0
:1026200084EA91E00995089586E0C7CF219122239D
:1026300039F29F5FC5CFCF93DF93EC01EA85FB852D
:10264000309719F06C857D8509958B810E94420B2E
:102650008C810E94490B0E94B51286E0FE01119206
:102660008A95E9F7DF91CF910895CF93DF93EC013D
:102670008D8181FD18C082608D838091DF049B81F4
:10268000892B8093DF048091E0049C81892B8093C7
:10269000E0040E94B512E885F985309721F06C8539
:1026A0007D85CE0109951092E2041092E1048D819E
:1026B00080FD03C0CE010E941B13DF91CF910895CE
:1026C00090E080E00E94BA0690E080E00E94A406BC
:1026D0001092DF040E94B51286E0E7EAF2E0DF0123
:1026E0001D928A95E9F71092A1021092A002109211
:1026F000A2020E94F9070895809322050E946013A8
:10270000089580912205982F9670963021F4886064
:102710000E947C130895877FFBCF21E030E001C049
:10272000220F8A95EAF720958091220582230E9444
:102730007C1308959091240280958923809324022C
:10274000282F277091F4282F082E000C330B921796
:10275000130659F09091EF0492FF07C08595859577
:1027600085950E948D130E94500B0895CF93C091C0
:10277000EF04C2FB992790F9981791F080FBC2F9FA
:10278000C093EF046091EE0484E090E00E94E43591
:102790006C2F82E290E00E94E43582E00E949A135E
:1027A000CF91089521E030E001C0220F8A95EAF729
:1027B00080912205822B0E947C1308959091EF0452
:1027C00092FF10C098E0899F90011124622B6093C2
:1027D00024020E94D2130E94390690932302809310
:1027E000220208950E94D2130895809348020E9405
:1027F000601308951092E00480913601E6EAF1E05A
:10280000882361F08091EE0487FF08C08EE1DF012C
:102810001D928A95E9F70E946013089586E0F7CF2C
:10282000AAE2B0E0E6E1F4E10C9416358AE195E025
:102830002091F100DC012D93CD01B5E082329B07A0
:10284000B9F780911B05833009F472C0B8F4813068
:1028500009F449C0823009F4B3C08091E80083FFD5
:1028600096C280911A0590911B059A3008F08FC28C
:10287000E92FF0E0EE5DF94C0C9474358A3009F4E0
:102880008EC08B3009F471C0893039F780911A05F8
:10289000813219F780911E0590911F05009711F064
:1028A0000297D9F68091E800877F8093E8008091B5
:1028B000E80082FF38C09091F3008091F200029707
:1028C00031F48091F100813011F0863021F4809153
:1028D000F1008093F5048091E8008B778093E80005
:1028E0000E94FF04BACF80911A05813A09F0B5CF52
:1028F0008091E800877F8093E80080911E05909189
:102900001F05892B61F460E286EF94E070E00E947D
:10291000AB058091E8008B778093E8009ECF60E064
:1029200090E080E0F3CF809118058111C0CF95CF62
:1029300080911A05813A09F090CF80911E059091FF
:102940001F05892B09F089CF8091E800877F80934C
:10295000E8008091E80080FFFCCF809136018093F1
:10296000F1008091E8008E77B9CF80911A0581320D
:1029700009F073CF80911E0590911F05892B09F0F6
:102980006CCF8091E800877F8093E8000E94FF046D
:1029900080911C05809336010E94FA135ECF8091CE
:1029A0001A05813209F059CF8091E800877F809322
:1029B000E8000E94FF0480911D058093F4044DCF30
:1029C00080911A05813A09F048CF8091E800877F0D
:1029D0008093E8008091E80080FFFCCF8091F404B0
:1029E000BECF803899F0823809F0D1C180911E05A0
:1029F0008F70873008F0CBC18093E9008091EB00A5
:102A000085FB882780F91092E90006C080911605A1
:102A100090911705911182609091E800977F9093B3
:102A2000E8008093F1001092F1008091E8008E7729
:102A3000AAC1882309F498C1823009F0A8C1809105
:102A40001C0581119BC180911E058F702FEF280FEF
:102A5000263008F09CC18093E9002091EB0020FF14
:102A60008DC1933031F48091EB0080628093EB0054
:102A700085C19091EB0090619093EB0021E030E0F4
:102A800001C0220F8A95EAF72093EA001092EA002B
:102A90008091EB008860EACF811179C110911C050B
:102AA0001F778091E3008078812B8093E3008091F1
:102AB000E800877F8093E8000E94FF048091E8008F
:102AC00080FFFCCF8091E30080688093E30082E088
:102AD000111183E0809318055AC18058823008F0A4
:102AE00056C120911C0530911D052C3DE3E03E07A9
:102AF000A1F583E08A838AE289834FB7F894DE01E7
:102B0000139620E03EE051E2E32FF0E050935700AF
:102B1000E49120FF03C0E295EF703F5FEF708E2FCE
:102B200090E0EA30C0F0C7968D939D932F5F2431DB
:102B300059F74FBF8091E800877F8093E8006AE2F1
:102B400070E0CE0101960E94AB058091E8008B7782
:102B50008093E8001CC1C096E7CF80911E0590913C
:102B60001F05432F55274330510509F44AC078F516
:102B70004130510509F485C08BE590E0E3E3F7E0CF
:102B80004230510509F003C12091E800277F2093CE
:102B9000E80020912005309121058217930708F461
:102BA0009C0140E02115310509F070C041116EC053
:102BB0008091E80082FDC9CF80911805882329F211
:102BC000853019F28091E80083FFF2CFBECF413209
:102BD000510509F447C04232510509F0D8C083308D
:102BE000910508F0D4C0FC01EE0FFF1FEB56FE4F1D
:102BF0000190F081E02D8E569E4FDC018C9190E08B
:102C00001DC0332721303105E9F02115310579F058
:102C100022303105F9F02330310509F0B8C0E0EA7F
:102C2000F7E0E4918E2F90E0E0EAF7E007C0EAEEEB
:102C3000F7E0E4918E2F90E0EAEEF7E0009709F4D8
:102C4000A6C0A2CFECECF7E0E4918E2F90E0ECEC84
:102C5000F7E0F4CFEEEBF7E0E4918E2F90E0EEEBAF
:102C6000F7E0ECCF8330910508F091C0880F991FF1
:102C7000FC01E556FE4F0190F081E02D89E090E0E7
:102C800083CF82E190E0EEE8F7E07ECF80911805F7
:102C9000882309F45ACF853009F457CF8091E80092
:102CA00083FD53CF8091E80082FD82CF8091E800C0
:102CB00080FF78CF9091F3008091F20021153105CB
:102CC00019F08830910550F041E0089709F040E094
:102CD0008091E8008E778093E80064CF4491409320
:102CE000F1003196215031090196E8CF803809F082
:102CF0004EC08091E800877F8093E800809119059D
:102D00008093F10092CE811142C010911C051230C7
:102D1000F0F58091E800877F8093E8001093190513
:102D20000E94FF04112311F084E005C08091E300AC
:102D300087FDFACF81E08093180542E061EC81E0E5
:102D40000E941E0542E261EC84E00E941E0542E200
:102D500061EC82E00E941E0542E260EC83E00E948A
:102D60001E058091180513C080911C05813079F4EF
:102D700081E0933009F080E0809317051092E9001C
:102D80008091E800877F8093E8000E94FF04809193
:102D9000E80083FF0AC08091E800877F8093E80005
:102DA0008091EB0080628093EB00AA96E3E00C94A4
:102DB00032350E94FA132FEF84E39CE021508040CB
:102DC0009040E1F700C0000088E19AE00FB6F89467
:102DD000A895809360000FBE90936000FFCF88237A
:102DE00021F00E94420B0E94B5120895882339F009
:102DF0009091DF04982B9093DF040E94B512089500
:102E0000882321F00E94490B0E94B512089588235F
:102E100039F09091E004982B9093E0040E94B51251
:102E20000895882391F19CEF980F913A40F4682F10
:102E300084EA91E00E9445060E94B512089590E24E
:102E4000980F983050F4877091E001C0990F8A95DF
:102E5000EAF7892F0E94490BEFCF9BE5980F93303B
:102E600028F490E080E00E94BA06089598E5980F53
:102E7000973128F490E080E00E94A4060895803FF6
:102E800020F00E9420080E94F9070895CF93C82FD0
:102E90008823D9F18CEF8C0F813AC8F580913601E7
:102EA000882311F18091EE0487FF1EC0EC2FE69578
:102EB000E695E695F0E0EC55FE4F828190E04C2FD0
:102EC000477021E030E002C0220F331F4A95E2F73D
:102ED00082239323892B91F06C2F84EA91E00E9446
:102EE00045060E94B5120AC0E6EAF1E08CEA91E0DC
:102EF0002191C21789F38E179F07D1F76C2F84EAAF
:102F000091E00E946F060E94B512CF91089580E271
:102F10008C0F883068F4C77021E030E001C0220FC8
:102F2000CA95EAF78091E004822B8093E004EBCF0E
:102F3000EBE5EC0FE33040F4F0E0E15CFE4F808124
:102F400090E00E94BA06E1CFE8E5EC0FE73150F4DB
:102F5000F0E0EE0FFF1FEE5BFE4F808191810E943B
:102F6000A406D3CFC03F88F28C2F0E94E5080E94B0
:102F7000F907CBCF1F93CF93DF93182FD0E0C0E09A
:102F8000893311F4C0E5D0E0812F0E9446172097C5
:102F900039F4812F0E941117DF91CF911F9108956D
:102FA0008FE99FE00197F1F700C000002197EFCF74
:102FB000B0E0A0E0EEEDF7E10C940F35EC018AE013
:102FC000A82E2881222309F48FC02130C9F59981C8
:102FD0008A81913021F422960E94BA1705C092305E
:102FE00029F422960E9446172196EBCF933021F4C4
:102FF00022960E941117F8CF943011F02196F4CF49
:10300000229630E020E0AE014F5F5F4F8053990B76
:103010008A30910550F02150310930F38FE99FE05B
:103020000197F1F700C00000F6CFA29EB001A39E69
:10303000700D11249C01260F371F8981EA01E3CF0F
:10304000E22FF0E0E25EF74FB490822F86958695EE
:10305000869590E0FC01E25FF74FE4902770F12C39
:10306000022E02C0F594E7940A94E2F731E0E322DD
:10307000FF24FC01E250F84FC490D12C022E02C074
:10308000D594C7940A94E2F731E0C322DD24FC0111
:10309000E251F84F049110E002C0159507952A956A
:1030A000E2F701701127E114F10419F081EE0E949A
:1030B0004617C114D10419F086EE0E9446178B2DD5
:1030C0000E94BA17C114D10419F086EE0E9411179C
:1030D000E114F10419F081EE0E9411170115110598
:1030E00009F482CF8CE278CFCDB7DEB7EAE00C945A
:1030F0002B35B0E0A0E0EFE7F8E10C9411356B015F
:10310000C42FD22FFC0182818823A9F04093DE04D2
:103110000E9439069093DD048093DC04C77081E03F
:1031200001C0880FCA95EAF70E940717CDB7DEB72E
:10313000E8E00C942D351091DE04141337C0809113
:10314000DC049091DD040E941E067C01C6010E94F1
:10315000C80FE816F90650F5C0E2CD0F1D17C1F0F3
:1031600080E2810F883048F4177081E0012E01C0A1
:10317000880F0A94EAF70E940017C83048F481E0EB
:103180009D2F977001C0880F9A95EAF70E94071744
:10319000802F0E94BA17C83048F6D77081E001C06E
:1031A000880FDA95EAF70E940017C0CFC77081E058
:1031B00001C0880FCA95EAF7F6CF68EE7EEF90E07F
:1031C00080E00E94023660E082E090E00E94E435F8
:1031D00060E083E090E00E94E4351092480260E0F5
:1031E00084E090E00E94E43564E082E290E00E9496
:1031F000E43560E085E090E00E94E43560E086E040
:1032000090E00E94E4356FEF87E090E00E94E435A3
:1032100040E050E0BA0188E090E00E94F63560E0BE
:103220008DE090E00E94E43540E050E0BA0188E192
:1032300090E00E94F63560E087E190E00E94E4357E
:1032400040E050E0BA018CE190E00E94F63570E079
:1032500060E080E290E00E94023640E050E0BA0177
:1032600088E190E00E94F63580E00E941D0F0E94E8
:10327000A40F40E050E0BA018FE090E00E94F635E4
:1032800040E050E0BA0183E190E00E94F6350895F5
:10329000A4E0B0E0EEE4F9E10C940E357C01DC0131
:1032A00013964D915C91149711966C9111978C9196
:1032B0000E94D0068111EDC061E0C7010E94A610F6
:1032C0008C01F70182818823E1F08091E1049091E3
:1032D000E2040097B1F00817190799F0FEE08F9FFC
:1032E000C0011124FC01EB58FC4F20812460208395
:1032F00080599C4FDC010D931C930E943513109252
:10330000DF04F7018281882309F41BC6980122514A
:103310003F452031310508F036C58FEF93E00E941C
:10332000D0358111A6C05EEED52ED00E07E412E096
:10333000D11036C019821A821B821C8299249A9459
:1033400068012FEFC21AD20AC8010E94D0358983C2
:103350001A82882309F48DC0813009F07FC058019A
:1033600032E0A30EB11CC6010E94D035C82E8A835C
:10337000882309F47EC0C5010E94D035D82E8FEF76
:103380008C0D8330D8F4580143E0A40EB11CDB82CD
:10339000DD2021F0CE0101960E94D8178501D0CF03
:1033A0000115F4E01F0709F464C0C8010E94D0357C
:1033B000811101C0DA940F5F1F4FBACF8BEF8C0DD4
:1033C000833030F5C8010396DB825C01DD2031F3E8
:1033D000580154E0A50EB11C0E94D0358C8388237F
:1033E000E9F28B819C818130AFEF9A0710F0982F22
:1033F0008827B6E0CB1631F0E7E0CE1631F00E9418
:10340000DC26CCCF0E94A326C9CF0E941D26C6CFA2
:10341000F4E0CF12C3CF580124E0A20EB11CC801C2
:1034200003960E94D035DD2021F1882311F18150CF
:10343000990B989E9001999E300D11244D2D41506D
:10344000550BCA01820F931F019708F4A7CFAFE96C
:10345000BFE01197F1F700C00000F6CFCE01019652
:103460000E94D81756019ACF81E00E94D2130E9481
:10347000811380912402877061F0D70112968C919C
:10348000882339F08091EF0482FF03C082E00E941C
:103490009A132496EBE00C942A3581E00E948D1358
:1034A000E6CF82E0E2CF823009F0AEC480916A03B9
:1034B00090916B03892B09F4A7C42EE02C9DC001C9
:1034C0002D9D900D1124FC01EB58FC4F20812E7F87
:1034D000208380599C4F0E94351396C42FEFC2164B
:1034E000D10409F008F490C4033FFCE51F07C9F1BB
:1034F00010F5083D3CE5130771F1093D4CE5140753
:1035000009F441C0073D5CE5150709F0CAC406E2AD
:1035100021EE41EE67ED7CE5C7010E947918A9CF45
:10352000902F812FBAC4F601858181FFBAC4C601EC
:103530000E941B13B6C4053F8CE51807F1F0B8F0E4
:10354000063FACE51A0709F0ACC407E225EE46EEEB
:1035500066EF7CE5E1CF07E225EE45EE68ED7CE520
:10356000DBCF06E221EE40EE63EF7CE5D5CF07E24C
:1035700025EE44EE64EF7CE5CFCF06E221EE42EE8D
:1035800065EF7CE5C9CF08E221E045EE69ED7CE519
:10359000C3CF053A3DE5130709F499C4E0F40136B9
:1035A0005DE5150709F493C406318CE5180709F0A9
:1035B000E2C48091E0048A7A91E009F490E090936B
:1035C000C40169E2811165E384EA91E00E946F061B
:1035D0000E94B5124ECFC8018D5A9D45039720F722
:1035E00076C48091EE04806207305CE5150791F1A6
:1035F00008F4BFC08091EE0480642CC00D309CE5BF
:10360000190709F4C4C090F48091EE048E7F0B304A
:10361000BCE51B07F9F08091EE048C600C30ECE502
:103620001E07C0F08091EE048D7F14C00F30FCE5C2
:103630001F0709F4BCC008F4AEC000313CE5130715
:1036400009F4B9C08091EE048F7B01314CE5140779
:1036500009F067C48093EE0464C40F3F5CE515076E
:1036600009F4B7C0A8F50A3F9CE5190709F479C029
:10367000C0F40431BCE51B0709F4B9C008F4A5C0C7
:103680000531FCE51F0709F04CC48091EE0482FB74
:10369000992790F921E0922790FB82F990FB83F91A
:1036A000D9CF0C3F2CE5120709F479C008F45DC0AE
:1036B0000D3F4CE5140709F476C08091EF04836058
:1036C0000E3F5CE5150709F02CC48093EF0429C474
:1036D00001368DE5180709F495C090F40130ADE589
:1036E0001A0709F48DC008F478C060E00230EDE5F7
:1036F0001E0709F016C48EE090E00E94E43511C464
:103700000D3AFDE51F07E9F060F49091EE04892F72
:103710008E7F90FF8160053A3DE5130709F49ACF4B
:1037200000C40E3A4DE5140771F10F3A5DE5150737
:1037300009F0F7C39091EF04892F877F93FF88608A
:10374000C4CF8091EF048860C0CF8091EE04826086
:1037500081CF8091EE0484607DCF8091EE048860FB
:1037600079CF8091EF048160B0CF8091EF048260C7
:10377000ACCF8091EE0480616DCF0E94FA138091EE
:10378000EE04806867CF8091EF04877F9ECF8091A1
:10379000EE048B7F5FCF8091EE04877F5BCF8091BB
:1037A000EF048E7F92CF8091EF048D7F8ECF80913A
:1037B000EE048F7E4FCF8091EE048F7D4BCF0E9421
:1037C000FA138091EE048F7745CF8091EE04837FCA
:1037D00041CF8091EF048C7F78CF8091EF04982FB8
:1037E000909591708E7F892B90FB81F96ECF0E940E
:1037F000FA139091EE04892F97FB87F980582ACF0E
:1038000061E079CF9091EE04892F8F7E94FF8061E3
:1038100021CF81608093590361E086950E94371221
:1038200028CE47E752E161E872E10E943F0721CECE
:1038300041E852E167E772E1F8CF49E052E16FEF0A
:1038400071E1F3CF45EE51E162EF71E1EECF42EF6E
:1038500051E165EE71E1E9CF4BEC51E168ED71E1C9
:10386000E4CF43E152E165E272E1DFCF45E252E1AC
:1038700063E172E1DACF61E081E0D0CF65E082E020
:103880000E948C12F6CD6EE089E0FACF0E94FA1306
:10389000EFEFF4E32CE0E150F0402040E1F700C00E
:1038A00000000E940D068091EF0482FB882780F9BA
:1038B00091E089270E94B613F701868197810097CE
:1038C000C1F10E94A9098C01F701C280B580B294B0
:1038D0003FE0B322809124028770C1F0AC2CCC2051
:1038E000B1F0812F807F803421F080E2800F88301A
:1038F00068F08091EF0482FF09C082E00E949A1371
:10390000809124028770AA24A3948111A12C912E66
:1039100092942FE09222FBE0F91508F484C0E92D7F
:10392000F0E0E45DF94C0C94743581E0C3CF80E0A5
:10393000C1CF828100811181882369F0C8010E9472
:103940003010D82E682FC8010E94950BB8018D2D1C
:103950000E941310B6CFC8010E94610BD82EF6CF7B
:10396000212F2F70D22E107F19F0D29490EFD922F0
:10397000CC20B9F0DD2069F080E2800F883010F0B3
:10398000011109C08091E004D82AD092E0040E947D
:10399000B512802F46C08091DF04D82AD092DF0470
:1039A000F6CF802F0E941117DD20E9F180E2800F11
:1039B000883010F0011104C08D2D0E94490B03C006
:1039C0008D2D0E94420B0E94B5122DC0312F3F70E9
:1039D000D32E107F103219F0D29480EFD82200231A
:1039E00081F0013009F495C0CC2009F49EC0BB20C1
:1039F00009F46BC0F701858180FFCBCF8F70858381
:103A000064C08091EF0482FD39C0CC2089F1DD20B3
:103A100039F08091E004D82AD092E0040E94B512D7
:103A200080E00E944617292D2850330B24303105A1
:103A300010F40E94B10EAA20B1F08091240280FD02
:103A400012C0D70112961C928595859585950E9486
:103A5000D213C7010E94481980912402859585954B
:103A600085950E948D1360E0C7010E94A61011CDBC
:103A700080E00E941117DD20B1F29ECFCC2049F1E9
:103A8000B11004C0809147028D2920C041E0B412DA
:103A900010C082FFC8CF80914702D82AD81619F2E9
:103AA0000E9439069093460280934502D0924702C5
:103AB000BACF55E0B512E6CF0E94370B9091C50101
:103AC0008D2D892B89138093C5018D2D0E94071799
:103AD000AACFB11003C00E94370B12C081E0B81208
:103AE00013C08091E0048D2109F49DCF0E94370B13
:103AF0009091C5018D2D8095892389138093C501EF
:103B00008D2D0E9400178FCF95E0B91609F48BCF49
:103B1000E2CFCC2029F0A5E0AB1508F484CFD5CFB7
:103B2000B4E0BB1508F47FCFEBCFBB2049F30933DA
:103B300049F4FFEF27EE33E0F15020403040E1F749
:103B400000C00000802F0E9411176DCF812F869535
:103B50008695837061F0813009F065CFC80193705C
:103B6000C11002C090E080E00E94A4065CCFC801B2
:103B70009370C11002C090E080E00E94BA0653CF5B
:103B8000802FCC2029F00E94E5080E94F9074BCF36
:103B90000E942008FACF812F837089F5C11043CF8E
:103BA000402F429546954770440F440F802F8F70E9
:103BB000042E01C0880F0A94EAF7202F207104FF19
:103BC00007C02FE030E001C0220F4A95EAF72095A8
:103BD000169516951370123069F050F43091480222
:103BE000113029F0822B83230E94F5131CCF832BE5
:103BF000822BFACF282B809148028227F5CF869519
:103C0000CC2011F0812F8170882309F40CCF402F34
:103C1000429546954770440F440F802F8F70042EB5
:103C200001C0880F0A94EAF7202F207104FF07C013
:103C30002FE030E001C0220F4A95EAF72095169553
:103C400016951370123069F050F43091220511303E
:103C500029F0822B83230E947C13E5CE832B822BB9
:103C6000FACF282B809122058227F5CF1F70CC2018
:103C700029F0812F0E94D213802F28CF802F0E94FD
:103C80000017812F0E948D13CECE023F89F160F480
:103C9000003FB9F0013F81F0CC2009F464C0B110BD
:103CA00078CE812F8F7128C0033F49F1043FA1F7DF
:103CB0008091EF0482FD2FC0812F8F71CC2011F3F2
:103CC0001BC0CC2081F044E04B1508F4ACCE1F7132
:103CD00081E090E0012E01C0880F0A94EAF79091EC
:103CE00022058927B8CF55E05B1508F49CCEEFCFAD
:103CF000812F8F71C110C6CF0E94D21394CE80E065
:103D0000CC2009F4A8CF1F7181E0012E01C0880FDB
:103D10000A94EAF7A0CFCC20C9F0809124028770E2
:103D2000843041F40E94500B812F8F710E948D13BB
:103D3000A12C79CE84E08B15D8F31F71812F0E94BE
:103D4000D21363E0812F0E94DE13F2CF94E09B1523
:103D500030F40E94500B64E0812F8F71F4CF81E02A
:103D60000E949A13E5CFBB2059F0093309F0EACE3F
:103D7000AFEFB7EEE3E0A150B040E040E1F7E0CEB6
:103D8000812F8F717FCF0031BFE51B0709F46CCB0A
:103D90000131EFE51E0709F484CB6801E7E5DE1A7F
:103DA00081119CCBFFEFCF16D10411F008F09CCB12
:103DB00066E673E08C2D0E94B40F892B29F58EE006
:103DC0008C9DF0018D9DF00D1124E059FC4F8281F6
:103DD000813009F068CB8091660390916703892B4D
:103DE00099F08091680390916903892B69F0809123
:103DF0006A0390916B0320916C0330916D03822BC9
:103E0000932B892B09F459CB5801BB243EE0039F27
:103E1000F0011124AF0140595C4F6A01D70112969D
:103E20008C91EB58FC4F908180FB90F99083882314
:103E300009F479CB0E943906909391028093900205
:103E4000D60112968C9112978F5F12968C931297CF
:103E50008091DF049091E004892B13968C93139743
:103E60008091470214968C9314971696ED91FC91CD
:103E70001797309729F01C966D917C91C601099592
:103E80008EE08A9DF0018B9DF00D1124E059FC4FCE
:103E9000858181FF45CB90E080E09093E1048093A1
:103EA000E204F7018281882309F457C01092DE04EE
:103EB0000330FDE51F0708F06CCB0A3F2CE5120725
:103EC00030F4C80182509C45449708F06DCB0E94A5
:103ED000EF109093EF048093EE0402318CE5180705
:103EE00009F46DCC08F0B9CB0930ACE51A0709F438
:103EF00044CC08F083CB0530ECE51E0709F42DCC4B
:103F000008F06FCB03302CE5120709F41ECC08F043
:103F100020CC8091EE04816002304CE5140709F456
:103F200099CB6091EE041091EF0484E090E00E9440
:103F3000E435612F82E290E00E94E4350E94FA139A
:103F400098CA0031FFE51F0709F4A7CA01312FE520
:103F5000120709F022CF82E0A1CA0631BCE51B0797
:103F600041F58091C40169E2811165E384EA91E041
:103F70000E9445062DCB0A35EDE51E0709F4D5CC88
:103F800068F401152CE5120709F480CC0E3D1C45A0
:103F900009F092CC0E94DD180E94D9160C354DE52F
:103FA000140709F480CC08F4C2CC073A1D45A1F3EC
:103FB00083CC8091E00482720B3C9CE5190709F4E4
:103FC00050CC08F05AC0063CBCE51B0709F435CCC0
:103FD000F0F5033CFCE51F0709F423CC48F5023C4F
:103FE0003CE5130709F068CC8091590380FF11CCA0
:103FF0008E7F809359036091590370915A03809189
:104000005B0390915C030E945C110E9446078091C3
:10401000B50281608093B5029FEFA0E7B2E09150B6
:10402000A040B040E1F700C000000E94920C21CAFD
:10403000043C4CE5140709F4FBCB053C5CE5150793
:1040400009F03ACC4FEF51E169E072E1EECB083C68
:104050009CE5190709F4FBCB08F4F4CB093CBCE55B
:104060001B0709F4F9CB48ED51E16BEC71E10A3C17
:10407000ECE51E0709F4D9CB1FCC003DFCE51F077A
:1040800009F401CCA0F40D3C3CE5130709F4F3CB93
:1040900008F4ECCB0E3C5CE5150709F4EFCB0F3CC4
:1040A0008CE5180709F008CC68E086E0E9CB063D0E
:1040B0009CE5190740F464E18FE0023DACE51A0786
:1040C00008F4DECBD6C90D35100709F4D2C9F4CBFC
:1040D000B0E0A0E0EEE6F0E20C9411358091DD0155
:1040E000807F31F48091DA01C0912102811107C0F3
:1040F000CDB7DEB7E8E00C942D352196C7708091DE
:10410000E0018C17A9F3F090D801E090D901C0909C
:10411000DB01D090DC01A6016E2D8F2D0E94D00610
:10412000D0E08111EACF8E0183E0000F111F8A9544
:10413000E1F7F801EF51FE4F81818E11DECF8081D2
:104140008F11DBCF82818111D8CFE380F480EC180E
:10415000FD0860E088ED91E00E94A6100E94C80F63
:10416000E816F90650F68091DD018F70806180932A
:10417000DD01F801EA51FE4F80818F7080618083FC
:1041800088ED91E00E9448190E94570BB1CFA5E13C
:10419000B0E0EDECF0E20C9409358C0185E0F8011B
:1041A000DE01519601900D928A95E1F7F801E280C7
:1041B00048EDA42E41E0B42E8090DB019090DC010C
:1041C000A4016091D9018091D8010E94D006682E87
:1041D0008111A1C1F801C380D480F090DA01C60139
:1041E000881999094C01FF2009F447C1408051808A
:1041F00060E0C5010E94A6100E94C80F7090DD010A
:104200008816990608F0E1C04091DB015091DC016D
:10421000B090D801A090D901872D807F6A2D09F038
:1042200080C08B2D0E94D006FE2C811124C0F80185
:1042300081818A1120C080818B111DC02091DE01F7
:104240003091DF018681978128173907A1F4E110A9
:1042500012C0872D8F7080618093DD0188ED91E021
:104260000E9448198091DD01F80185838F2D6596A4
:10427000E0E10C942535A601652D842D0E94D00621
:10428000811122C081E08E25F82FF170DF2E80FF92
:104290003EC0809121022091E001821317C0498A1B
:1042A0005A8A89899A890E945F10292F22952F7036
:1042B000223008F1243030F59F7009F1F801958122
:1042C000907FE9F4F62CD2CF80E0DECF90E0FC01C5
:1042D00033E0EE0FFF1F3A95E1F7EF51FE4F3181CA
:1042E000531206C03081431203C03281E3120FC063
:1042F00001968770D2CF9F7011F0882319F3805EEA
:10430000883000F3C8010E9448196D2CDBCFEE20E5
:1043100009F4ACCF8091DD0181608093DD01F12C47
:10432000A5CF8B2D0E94D00681111FC0F80181817D
:104330008A111BC080818B1118C02091DE01309141
:10434000DF01868197812817390779F4E1100DC0C4
:104350007582C8010E94481988E0F801A8EDB1E013
:1043600001900D928A95E1F781CFC8010E946C10EF
:10437000882339F1EE2029F18091DD018032A0F00F
:104380002091D8013091D9013A8729871B86DD8693
:10439000CC868E878091DE019091DF01988B8F878C
:1043A000CE0109960E94481988E0F801A8EDB1E015
:1043B00001900D928A95E1F70E946820FF24F39402
:1043C00055CFC8010E944819F9CF872D807F51F43D
:1043D00088ED91E00E94481988E0F50111928A95D4
:1043E000E9F79DCF9090D8018090D9014091DB01F1
:1043F0005091DC01682D892D0E94D00681111CC0CE
:10440000F8018181881118C08081891115C020911F
:10441000DE013091DF01868197812817390761F429
:10442000E1100AC07582C8010E94481988E0F501B0
:1044300011928A95E9F71ACFC8010E946C1088235F
:1044400009F4BFCFEE2009F4BCCF8091DD018032AA
:1044500008F4AACF2091D8013091D9013A83298359
:104460001B82DD82CC828E838091DE019091DF0100
:1044700098878F83CE01019695CF60E088ED91E01B
:104480000E94A6100E94C80F8816990678F6FE2C86
:10449000EE2009F496CFE090D801D090D901409158
:1044A000DB015091DC016D2D8E2D0E94D006811113
:1044B00024C0F80181818D1120C080818E111DC022
:1044C0002091DE013091DF0186819781281739071D
:1044D000A1F49091DD0190FD3FCF907F09F43CCF96
:1044E0008091DD018583903F09F433CF982F907F31
:1044F000905F8F70892B85832CCFC8010E946C1030
:10450000811152CF8091DD0181608093DD01C8016E
:104510000E944819ABCEEE2009F453CFC8010E9487
:104520006C10F82E882309F44CCF88E0F801A8ED30
:10453000B1E001900D928A95E1F78091D8019091B8
:10454000D9010E945F100E94682090CEA0E1B0E0E7
:10455000ECEAF2E20C94173529873A874B875C879F
:104560006D877E878F87988BCE0109960E94C72022
:1045700081112FC088E0FE013996DE01119601906D
:104580000D928A95E1F74C855D856A8589850E9443
:10459000D00681111EC0A091E001B0E0CD010196CE
:1045A000877099272091210228171906E1F093E0DE
:1045B000AA0FBB1F9A95E1F7AF51BE4F98E0FE01DD
:1045C000319601900D929A95E1F78093E0010E9457
:1045D000570B809121029091E001891312C06096DF
:1045E000E2E00C9433350E94FA131092E00110922D
:1045F000210288E0E8EDF1E0DF011D928A95E9F7FC
:10460000E8CFB8E08B9FC00111248F519E4F0E94CC
:10461000C720882321F38091210290E001968770C2
:10462000992780932102D5CFEF92FF920F931F938A
:10463000CF93DF9380913704882361F0C0913604D3
:104640008CE0F82E80913704C81748F01092370498
:1046500010923604CDB7DEB7E6E00C942F35EE2489
:10466000E394EC0EE09236040C2F10E0CF9DE001B5
:104670001124C85CDB4F4B815C81698188810E9479
:10468000D00681111DC08E819F81892B21F48885E0
:104690009985019651F4288139814A815B816C8129
:1046A0007D818E819F810E94A622F09EF001F19E65
:1046B000F00D1124E85CFB4F148213821092DF048A
:1046C000CE2DC0CF1092DB041092DA041092350187
:1046D0008091D9048093D8040E9409070E94142372
:1046E0000895B0E0A0E0E7E7F3E20C940835C0914C
:1046F000D80497E0892E01E010E02CE0322E3EEF46
:10470000932E442443948091D9048C1309C00E94B1
:1047100014230E940907CDB7DEB7E1E10C942435DC
:10472000D0E0FE01EE0FFF1FE053FB4F808191812F
:10473000889ED001899EB00D1124A856BB4F1496B7
:104740002C911497211158C050903704E8E3F4E0FD
:1047500030E020E0712C5D01251508F04BC0E284AB
:10476000F384D501CD90DC906FEF7FEF612C462D67
:1047700050E0DA01AA0FBB1FAC0DBD1D0D90BC911E
:10478000A02D109731F0EA16FB0609F4BA016394E4
:10479000EECF6F3F7607A9F1D80102C0AA0FBB1F69
:1047A0006A95E2F77A2AB801062C02C0660F771FD5
:1047B0000A94E2F7AB014150510974161506F9F459
:1047C000329EF001339EF00D1124E85CFB4F889E71
:1047D000D001899EB00D1124A856BB4F12962D9181
:1047E0003C911397378326839082918291878087AB
:1047F00015964C920E94DB062196C37084CF1482DA
:1048000013822F5F3F4F3C96A7CFA9E1B0E0EBE0CA
:10481000F4E20C940735498B5A8B6B8B7C8B8D8B18
:1048200061111092DF041D861E861F86188A85E09E
:10483000FE017196DE01199601900D928A95E1F7BD
:104840008091EF0482FF1CC00E9439062091220251
:1048500030912302821B930B8838934120F0809182
:10486000240282FFE6C10E94390620914502309160
:104870004602821B930B8838934110F00E94370B3D
:104880004C855D856A8589850E94D006811111C09D
:1048900061E0CE0109960E94A6106C018B8547EF5E
:1048A000C4164CE5D40681F4882321F181E080937D
:1048B000350129853A854B855C856D857E858F859B
:1048C00098890E94A622C3C068EFC6166CE5D6067A
:1048D00029F4882379F00E946223EBCF79EFC71681
:1048E0007CE5D70639F4882329F0809135018111C0
:1048F000F2CFDCCF08E914E0E12CB12CA12C882404
:104900008394912C2EEF522E44244394F80140813D
:10491000518166246A94762C20E0822F90E0FC017D
:10492000EE0FFF1FE40FF51F6081718161157105A6
:1049300031F0C616D70609F43C012F5FEECFF12CFB
:10494000FFEF6F167F0609F444C0F8014481F09030
:1049500035018F2D411180E0F82FF170FF2EF80105
:10496000258086819B85992309F4F2C0FF2009F4F4
:10497000EFC0211014C0A401062C01C0440F0A94FA
:10498000EAF7842B86838091340490913504C29792
:1049900030F462E370E07093350460933404C40132
:1049A00002C0880F991F2A95E2F70197F801268126
:1049B0002817190671F48091DA049091DB040097AE
:1049C00009F449C00E941E06C39708F444C0F801C8
:1049D0004482EF28FFEFAF1ABF0A095F1F4F28E09C
:1049E000A216B10409F092CF8B85882309F40CC17B
:1049F000EE2009F409C10E9439069093DB048093EC
:104A0000DA0480913704883010F591E0980F909384
:104A1000370498E0FE013996DE01119601900D925F
:104A20009A95E1F73CE0839FC0011124885C9B4F7D
:104A300028E0FE013196DC0101900D922A95E1F704
:104A40002FEF3FEFFC0131872087D386C28669961E
:104A5000E2E10C9423358091D8045091D904982F29
:104A6000F0E0E0E0851314C09093D804E017F1075C
:104A700009F4AFCF90E0FC01EE0FFF1FE053FB4FB6
:104A8000B182A0820196837099278093D904A1CF27
:104A9000282E312CF101EE0FFF1FE053FB4F208138
:104AA0003181F7E0F29FD001F39FB00D1124A85699
:104AB000BB4F2D913C911197398F288F40E020E01A
:104AC00030E0E32FF0E0EE0FFF1F688D798DE60FE9
:104AD000F71F6080718061147104E1F0F8010190AA
:104AE000F081E02DFF8BEE8B20E005C06616770687
:104AF00009F44F2D2F5FE22FF0E0EE0FFF1F6E89BC
:104B00007F89E60FF71F608171816115710571F76B
:104B10003F5FD7CF4423C9F0F801231708F0FD0108
:104B200044820E171F0721F49093D804F42E51CF1E
:104B3000981305C0AE17BF0711F49F5F93709101E2
:104B40002F5F3F4F822F83708DCFF0E0E0E0F7CFF3
:104B500090E0211020C0B40102C0660F771F2A9593
:104B6000E2F79B01215031098217930731F4442366
:104B700009F448C0C5010E94DB06C401062C01C02F
:104B8000880F0A94EAF7982F9095F8018681892377
:104B90008683F22C1ECF9C01062C02C035952795EA
:104BA0000A94E2F7A90141705527BC0161507109CF
:104BB00086239723892B11F5452B01F1F80182817A
:104BC0009381892BC1F01B821C821D821E82598217
:104BD0005A820E9439068160582F9D838C83F80188
:104BE000828193818F83988729813A814B816D815E
:104BF0007E810E94A622F8011582BFCFF22FF170AC
:104C00002F2EBBCF2F2CB9CF9091D8048091D904EF
:104C1000981731F00E947123EE2009F44ACE17CF85
:104C20000E9414231092DB041092DA040E940907F8
:104C3000F3CF82E00E949A1316CEA5E0B0E0E3E243
:104C4000F6E20C9415358C01909331048093300476
:104C5000011580E21807C0F4802F0E941117C801C7
:104C60000E94CC0B9801205E31092830310518F0E4
:104C70000115110531F40E9400172596E4E00C940B
:104C800031350E94EF16F9CF80EF89838A831B822A
:104C90000E9439068160782F9D838C8349815A81D7
:104CA0006B818D810E940524E8CF0F931F93CF93D2
:104CB000DF938C01EB0166E673E08C2F0E94B40F4A
:104CC000892B71F4DD27C25ADC4F8881F8011282EA
:104CD00018828330F1F048F4813059F0823081F04D
:104CE000DF91CF911F910F9108958430B9F08530F5
:104CF000B9F78091660390916703009789F306C026
:104D00008091680390916903009799F30E941D2692
:104D1000E7CF80916A0390916B03F6CF80916C038B
:104D200090916D03009791F720916603309167038E
:104D3000809168039091690321153105F1F2009784
:104D400029F7C901E3CFA5E0B0E0E9EAF6E20C9467
:104D500015358C019093310480933004011580E265
:104D60001807C0F4C8010E94CC0B9801205E3109DD
:104D70002830310518F00115110549F40E94071774
:104D8000802F0E9446172596E4E00C9431350E944E
:104D9000F616F6CF80EF89838A8381E08B830E94A9
:104DA00039068160782F9D838C8349815A816B817C
:104DB0008D810E940524E7CFCF93DF93EC010E9401
:104DC000A326CE010E941D26DF91CF9108950F9357
:104DD0001F93CF93DF938C01862F66E673E00E94CA
:104DE000B40F892BB1F4C0916603D091670320976B
:104DF00081F0F8018281833051F4CE010E94DC26DB
:104E0000CE010E94DC26CE010E94DC2602C0843046
:104E1000D0F7DF91CF911F910F9108950F931F93BA
:104E2000CF93DF938C01EB0166E673E08C2F0E9439
:104E3000B40F892B09F05CC0FE01FF27D801129640
:104E40008C911297E25AFC4F8130B9F415969C91DF
:104E500092FF02C080830AC090FFFCCF82E0808373
:104E600080916803909169030097B9F4809166037B
:104E7000909167030097E1F110C08230B9F5159663
:104E80008C9182FD28C080FD0BC083E080838091DF
:104E90006A0390916B03009701F10E94A32628C03A
:104EA00084E0808380916C0390916D030097A9F753
:104EB00080916603909167030097F9F00E94DC26C9
:104EC0008091680390916903009739F78091660398
:104ED00090916703E2CF85E0808380916603909193
:104EE0006703009729F00E94DC26F0CF86E08083DC
:104EF000DF91CF911F910F91089580916803909158
:104F00006903B8CFA4E0B0E0E8E8F7E20C94163506
:104F100040915C0250915D0260915E0270915F026F
:104F20002FB7F8948091EA049091EB04A091EC04DF
:104F3000B091ED042FBF841B950BA60BB70B11E0AE
:104F400084369105A105B10570F10E94C20E6E5F15
:104F50007F4F8F4F9F4F69837A838B839C83809190
:104F6000110190911201805A9D4F4091100150E023
:104F70004530510510F044E050E0BE016F5F7F4FB7
:104F80000E94B03582E090E00E949134182F88236F
:104F900051F00E942D0660935C0270935D02809335
:104FA0005E0290935F02812F2496E3E00C943235E9
:104FB000A8E0B0E0EEEDF7E20C94173585E0E9E506
:104FC000F3E0DE01119601900D928A95E1F7809150
:104FD000B3029091B402A091B5028E839F83A887FB
:104FE0002885409171025091720260917302709114
:104FF00074023FB7F8948091EA049091EB04A09179
:10500000EC04B091ED043FBF841B950BA60BB70BCE
:1050100084369105A105B10510F4222319F1809180
:10502000190190911A01805A9D4F4091180150E04A
:105030004930510510F048E050E0BE016F5F7F4FEE
:105040000E94B03583E090E00E949134882369F09B
:105050000E942D0660937102709372028093730216
:10506000909374021092B50281E02896E2E00C94CD
:105070003335EF92FF921F93CF93DF9300D000D090
:105080000F92CDB7DEB77B0190E080E00E949134B3
:10509000182F882309F487C04091030150E041157F
:1050A000510511F041E050E060910401709105015B
:1050B000605A7D4FCE0105960E94B035409158024E
:1050C0005091590260915A0270915B022FB7F89487
:1050D0008091EA049091EB04A091EC04B091ED046E
:1050E0002FBF841B950BA60BB70B84369105A1052A
:1050F000B10540F481E692E00E946E049D8189171B
:1051000009F451C081E090E00E94913481111AC0ED
:1051100010E08091540290915502A0915602B091F6
:105120005702F70180839183A283B383812F0F906D
:105130000F900F900F900F90DF91CF911F91FF90E4
:10514000EF90089540910B0150E04530510510F06B
:1051500044E050E060910C0170910D01605A7D4F68
:10516000CE0101960E94B03581E692E00E946E0465
:105170009D818913CDCF0E942D06609358027093B4
:10518000590280935A0290935B0289819A81AB8184
:10519000BC818093540290935502A0935602B09321
:1051A000570211E0B6CF8091610290916202A09106
:1051B0006302B091640289839A83AB83BC8311112B
:1051C000E4CFA7CFACE0B0E0E8EEF8E20C940C3509
:1051D0008E010F5F1F4F88E0D8011D928A95E9F775
:1051E00082E7C82E81E0D82EF12CE12CAA24A394CA
:1051F000B12C2CE7822E21E0922EF60181916F01D5
:105200008F3F09F442C0F894E82FE295EF70F0E088
:1052100021A18F70A50102C0440F551F8A95E2F7A6
:10522000CA01922F982B91A392A18095892382A3E2
:10523000789400C0E6E7F1E0712C31E021912F3F36
:1052400009F46BC0A22FA295AF70B0E090968C913C
:1052500090E02F7002C0959587952A95E2F780FD22
:105260005CC0832F782A330F8E169F0639F7F6011C
:10527000319780818F3F11F00E944F0950EA5A9573
:10528000F1F7F801EE0DFF1D70828FEFE81AF80AB2
:10529000A4E0EA16F10409F0B0CF48E050E0B8010C
:1052A0008AE792E00E94A335009741F028E0F801D8
:1052B000AAE7B2E001900D922A95E1F700918302EE
:1052C000892B69F181E080934B020E94390690930B
:1052D0004A02809349028091490290914A020E94B9
:1052E0001E06059700F110E008561D4F44E050E0FF
:1052F0006AE772E0C8010E94A335B12C892B51F0F6
:1053000084E0EAE7F2E0D80101900D928A95E1F796
:10531000BB24B39410924B0207C080E0A3CF8091CE
:105320004B028111D8CFB12C0E948E0EA82EE09195
:105330008302882309F47DC019861A861B861C8681
:105340000E2F10E008561D4F809175028A30D8F557
:1053500049E358E2BE01675F7F4FC8010E945B0EC0
:10536000882309F455C042E857E2BE01675F7F4FCA
:10537000C8010E945B0E882309F44AC048ED57E239
:10538000BE01675F7F4FC8010E945B0E882309F44E
:105390003FC0109275028091820290E044E050E09C
:1053A000BE01675F7F4F88569D4F0E94A33521E065
:1053B00020935202892BF1F4A12C8A2D8B292C9653
:1053C000EDE00C94283580914C0290914D020E94A2
:1053D0001E06843F914008F0BBCF80915202882383
:1053E00059F3FE01399684E0DF011D928A95E9F7B1
:1053F00010925202E0918202F0E0E856FD4F89855A
:105400009A85AB85BC8580839183A283B383D5CFF6
:10541000809175028F3F31F08F5F809375028A30E3
:1054200008F4B9CF0E94390690934D0280934C0244
:10543000D4CFF0E0E856FD4F84E0A1E6B2E0019061
:105440000D928A95E1F781E692E00E946E048093C6
:105450006002C0906502D0906602E0906702F09012
:10546000680280914E0290914F02A0915002B0913B
:105470005102C816D906EA06FB06D1F0C0924E02C8
:10548000D0924F02E0925002F09251020E948E0E92
:1054900081110EC00E942D06C61AD70AE80AF90A21
:1054A000C0927602D0927702E0927802F09279026E
:1054B00080917002882309F480CF80FF0DC0809115
:1054C000690280FF2AC0909159039160909359031B
:1054D00060E086950E9437128091700281FF09C0BA
:1054E00020E040916C0260916B0280916A020E9400
:1054F0006F118091700282FF06C080916F02882335
:1055000079F00E9441118091700283FF03C081E015
:105510008093B0021092700250CF0E94430EDCCFF5
:105520000E944607F0CF90E080E00E94DE35883E82
:105530009E4F19F40E94D610089580E008951F929E
:105540000F920FB60F9211242F933F934F935F93B7
:105550006F937F938F939F93AF93BF93CF93DF937B
:10556000EF93FF93D091E900DF708091EC00C82F9A
:10557000C17080FDC0E81092E9008091F000877F43
:105580008093F00078940E9410141092E9008091AA
:10559000F00088608093F000CD2BCF70C093E900BD
:1055A000FF91EF91DF91CF91BF91AF919F918F913B
:1055B0007F916F915F914F913F912F910F900FBE0F
:1055C0000F901F9018951F920F920FB60F921124F3
:1055D0002F933F934F935F936F937F938F939F93FB
:1055E000AF93BF93EF93FF938091E10082FF09C0D7
:1055F0008091E20082FF05C08091E1008B7F809363
:10560000E1008091DA0080FF24C08091D80080FF03
:1056100020C08091DA008E7F8093DA008091D900DB
:1056200080FF9DC080E189BD82E189BD09B400FE93
:10563000FDCF81E0809318058091F304811109C0AA
:105640000E9485040E9450058091E200846080934E
:10565000E2008091E10080FF17C08091E20080FFAE
:1056600013C08091E2008E7F8093E2008091E2007F
:1056700080618093E2008091D80080628093D8009E
:1056800019BC85E0809318058091E10084FF2BC050
:105690008091E20084FF27C080E189BD82E189BD5D
:1056A00089B5982F917080FFFBCF8091D8008F7DB6
:1056B0008093D8008091E1008F7E8093E1008091FB
:1056C000E2008F7E8093E2008091E200816080930F
:1056D000E20080911905882309F447C084E0809393
:1056E0001805809118058091E10083FF27C0809103
:1056F000E20083FF23C08091E100877F8093E10077
:1057000082E080931805109219058091E1008E7F48
:105710008093E1008091E2008E7F8093E20080918F
:10572000E20080618093E20042E060E080E00E945D
:105730001E058091F00088608093F000FF91EF914A
:10574000BF91AF919F918F917F916F915F914F9199
:105750003F912F910F900FBE0F901F90189519BC7D
:10576000109218051092F30474CF8091E30087FD26
:1057700093E090931805B5CF78941F921FB61F92AF
:1057800011248F939F93AF93BF938091EA049091DC
:10579000EB04A091EC04B091ED040196A11DB11DA4
:1057A0008093EA049093EB04A093EC04B093ED048F
:1057B000BF91AF919F918F911F901FBE1F90189521
:1057C0001F921FB61F9211248F939F93AF93BF9385
:1057D0008091E904811113C08091EA049091EB0457
:1057E000A091EC04B091ED044196A11DB11D8093F0
:1057F000EA049093EB04A093EC04B093ED04BF9102
:10580000AF919F918F911F901FBE1F901895CDB79C
:10581000DEB7E5970FB6F894DEBF0FBECDBF85B7F4
:10582000806885BF85B7806885BF84B7877F84BF60
:105830000FB6F894A895809160008861809360000D
:10584000109260000FBE80E890E00FB6F89480934D
:105850006100909361000FBE8DE499E09093A301E5
:105860008093A2010E941A070E94FD100E948504E5
:105870000E9450058091E20084608093E200789459
:10588000809118058823A1F01091E9001F70909174
:10589000EC00892F817090FD80E8182B1092E900B0
:1058A0008091E80083FD0E9410141F701093E9009E
:1058B00082E084BD93E095BD9AEF97BD80936E0022
:1058C000109276021092770210927802109279026A
:1058D0000E94D610811102C00E94A40F0E948E0E59
:1058E0008093200180912001882309F470C01092D8
:1058F0002E018BE180932F010E948E0E81110E9458
:10590000A533809120018091200194E0811190E0E5
:105910009093830284E0891B8093820284E90E9431
:105920004F0986E60E944F0987E90E944F0986ECDD
:105930000E944F0906E711E09CE7E92E91E0F92E5D
:10594000D8018D918D018F3F11F00E944F09E01613
:10595000F106B1F788E0E8E9F2E0DF01282F1D92B7
:105960002A95E9F7EAE7F2E0DF011D928A95E9F767
:105970000E94932A811102C00E94DD1882E090E00B
:105980000E94D035809387020E94EF109093EF041D
:105990008093EE040E94E228EFE3FCE93197F1F7EF
:1059A00000C000000E94E2280E948E0EE4E08111F7
:1059B000E0E0F0E0E856FD4F808181FF0CC06FEF22
:1059C0007FEF90E080E00E9402360E940D068BE19E
:1059D00080932E018FCF83E090E00E94D0350E940B
:1059E000F51380918402811138C00E94932A81119D
:1059F00004C00E94DD180E949C1288E090E00E9482
:105A0000D8356093590370935A0380935B03909346
:105A10005C038091B50283608093B5026E7F71F460
:105A20000E949C1288E090E00E94D8356093590350
:105A300070935A0380935B0390935C030E944D071D
:105A40000E9446078091590380FF04C060E086955C
:105A50000E94371281E0809384020E948E0E811191
:105A600002C00E94A83381E291E09093E604809303
:105A7000E5049E012F5F3F4F79015E0133E0A30EE5
:105A8000B11C772473948091180500E112E18530F0
:105A900009F488C00E94E22808E812E088E9C82ECC
:105AA00082E0D82ED601F80191918D9120E932E063
:105AB0002E173F0709F480C09817B1F30E948E0E8D
:105AC000282EB8E98B2EB2E09B2E512CD4014D909C
:105AD0004D01F80181918F01841531F184258DAB41
