:100000000C94F4070C9411080C9411080C94C93248
:100010000C9411080C9411080C9411080C941108FC
:100020000C9411080C9411080C941B170C943C1E92
:100030000C94B1290C9411080C9411080C9411081B
:100040000C9411080C9411080C9411080C941108CC
:100050000C9411080C94F4170C9411080C941108CA
:100060000C9411080C9411080C9411080C941108AC
:100070000C9411080C9411080C9411080C9411089C
:100080000C9411080C9411080C9411080C9411088C
:100090000C9411080C9411080C9411080C9411087C
:1000A0000C9411080C9411080C9411080501098096
:1000B000A101850319012AB700150126B700950192
:1000C00075108100C0050C0901A101850419012AE0
:1000D000A002150126A002950175108100C005013E
:1000E0000906A1018506050719E029E71500250184
:1000F0009508750181020507190029EF15002501F2
:1001000095F075018102050819012905950575010C
:100110009102950175039101C00660FF0961A1017B
:100120000962150026FF00952075088102096315F4
:100130000026FF00952075089102C005010906A15F
:1001400001050719E029E7150025019508750181CA
:10015000029501750881010507190029FF15002680
:10016000FF00950675088100050819012905950508
:1001700075019102950175039101C000DA02815A5F
:10018000D9F1DB20A4A62EAF00A0C000A1C800AE0C
:10019000D580A81FD300408D14200064321464322F
:1001A00014783C1E1E140A054D6F640A00000000FE
:1001B00000000000000080E00838E080000000003F
:1001C0000000000000000000070F19B1E10101006C
:1001D0000000000101E1B1190F070000000000005C
:1001E0000000081F0D0C0606030000040C0D1F087C
:1001F000000000000000000080C0603018080808FF
:100200000C0C080808183060C080000000000018BE
:10021000FF0000000C1C3870606070381C0C00007F
:1002200080FF1800000000000103060C18101010D9
:100230003030101018180C060301000000000000F8
:1002400080C06030180808080C0C080808183060D6
:10025000C080000000000018FF00000030381C0EB5
:1002600006060E1C3830000080FF18000000000059
:100270000103060C181010103030101018180C065E
:10028000030100000000000000000080C060301882
:100290000808183060C08000000000000000000066
:1002A000FCFE03010080E020303020E080000103EC
:1002B000FEFC0000000000000F1F1818181F0F00A0
:1002C0000000000F1F1818181F0F00000080808406
:1002D0000810C060272760C01008848080000000DC
:1002E000000000C0F038E4F8FEFFFFFFFEFEFEFC59
:1002F000FCFCF8F8F8F0F0F0E0E0E0C000000000EE
:10030000E0F83FE7F8FFFFFFFFFFFFFFFFFFFF1FE2
:100310001F5FFFFFFFFFFFFFFF7FC7F800F0FCF745
:10032000FBFCFEFEFDFDF9FBFBF3F7F7E7EFEFCE7D
:10033000DEDE9CBCB9393F3FE3FC3F030000000117
:1003400001010303030707070F0F0F1F1F1F3F3F85
:100350003F7F7F7FFFFFFF781F030000000000004A
:100360000000000080E07098ECF8FCFFFFFFFEFE4C
:10037000FCF8F8F0F0E0E0C0C08000000000008071
:10038000E0789C8F337DFFF7E3E7CFCF9F8FC7FFE8
:10039000FFFFFFFFFFFFFFFFFFFF9FE7300C1F3F47
:1003A0003E7F7FFFFFFFFEFEFDF9FBF3F7E7EFDF88
:1003B000DFBFBF7F7F7F9FEF791E07010000000036
:1003C000000000000001010307070F0F1F1F3F3F40
:1003D0007F7FFFFF7E3C0F030000000000FD377AA7
:1003E000585A000004E6D6B4460200210116000067
:1003F00000742FE5A3E004BC019A5D003D8889C626
:100400005436C3174FE4DCCBB3DF6320E7D717398B
:10041000D83D5F52C90BECB7E6D5195224B07367CB
:1004200059B3E0B456C74788C96520CF4A3C940CFD
:10043000015E29865C8E45BDB36475555AE53895D5
:10044000D3A636E143F0E57DA54EF2FAD0F9A7BD7B
:1004500092DC4E3A08A56C0077122D63D505D4F8CE
:10046000BF27002D620478AFC46D165D53B98CEBC5
:10047000B897D3EA25956C9790B1939EB07E49F9D1
:10048000F66A4A6BE3E1CC609804629488A6E9942A
:10049000233A3F94FA844C3EBBC3F4401373DCAD63
:1004A00012FF0DF40B1A3AD11E067F95C715906CFA
:1004B0004321474D7FC44D2DBC1E3FA0D011F7E90D
:1004C000DECF27B9561840E0039BE8BC9D5FF038AB
:1004D00049C8E6ED021F775CE6D7B694F9BEFF5730
:1004E000245C0FB32105617FA436262923163BCF58
:1004F00024376F405F93EC9AFF7E02EC95D80FACE7
:1005000061C923D4A1BB96DEAD54788FA8C9BA3B8C
:10051000F04581A33BD4F205C154C1E0BDAE7CE5FA
:10052000435266F238C082C84EDB3680B777ED2181
:10053000FE0B89CA06C53333A09BD46831DFA044C3
:100540003474E6398467CA51153E5DA2C705B633D7
:100550009A43A25D8A3665C8EF49DC962875915AA0
:100560009A89D8A0D338A94828800471FAC1749018
:10057000986F1BA0A2137EAEA34D6E1CF86F98E07F
:10058000326958495C4D1F78889B680CFF078F03C0
:100590006F14E8900A00000000A84018E943665173
:1005A000A00001B603BD090000ADF3AFA8B1C46758
:1005B000FB020000000004595A0001010101010181
:1005C000010101020202020202020202030303030A
:1005D00003030303040404040404040505050505DA
:1005E0000606060606070707070708080808090998
:1005F00009090A0A0A0B0B0B0C0C0C0D0D0D0E0E43
:100600000E0F0F0F101011111112121313141415D5
:100610001516161717181819191A1A1B1B1C1D1D49
:100620001E1E1F202021222223242425262627289F
:1006300029292A2B2C2D2D2E2F30313232333435CF
:10064000363738393A3B3C3D3E3F404142434445D2
:10065000464748494A4C4D4E4F50515354555658B1
:10066000595A5B5D5E5F616264656668696B6C6D5B
:100670006F7072737577787A7B7D7E8082838587D1
:10068000888A8C8E8F91939596989A9C9EA0A2A30F
:10069000A5A7A9ABADAFB1B3B5B7BABCBEC0C2C414
:1006A000C6C9CBCDCFD1D4D6D8DBDDDFE2E4E7E9D4
:1006B000EBEEF0F3F5F8FAFDFF2223252628292A90
:1006C0002C2D2F3032333536383A3B3D3E404243B5
:1006D0004547494A4C4E5051535557595A5C5E60F4
:1006E00062646668696B6D6F71737577797B7D7F06
:1006F00081838587898A8C8E90929496989A9C9E05
:100700009FA1A3A5A7A8AAACAEAFB1B3B4B6B8B920
:10071000BBBCBEBFC1C2C3C5C6C7C9CACBCCCDCE88
:10072000D0D1D2D2D3D4D5D6D7D7D8D9D9DADADB6B
:10073000DBDBDCDCDCDCDCDDDDDDDDDCDCDCDCDCF7
:10074000DBDBDBDADAD9D9D8D7D7D6D5D4D3D2D236
:10075000D1D0CECDCCCBCAC9C7C6C5C3C2C1BFBE1E
:10076000BCBBB9B8B6B4B3B1AFAEACAAA8A7A5A389
:10077000A19F9E9C9A98969492908E8C8A89878548
:1007800083817F7D7B79777573716F6D6B69686627
:100790006462605E5C5A5957555351504E4C4A49F9
:1007A00047454342403E3D3B3A3836353332302FA1
:1007B0002D2C2A2928262523222B0014001A000874
:1007C0000015001700E00004001600070009000AE9
:1007D00000E1001D001B00060019000500000000DC
:1007E000000000E300105F2C002A00130012000C30
:1007F0000018001C00340033000F000E000D000B29
:1008000000290038003700360010001100000000F9
:10081000000000E600115F28002B001E001F0020D2
:100820000021002200E000000000000000000000A5
:1008300000E10000000000000000000000000000D7
:10084000000000E30001002C002A002700260025FC
:100850000024002300000000004F0052005100500F
:100860000000000000000000000000000000000088
:10087000000000E600010028002B001E021F0220DD
:100880000221022202E0000000000000000000003F
:1008900000E1000000000000000000000000000077
:1008A000000000E30001002C002A00270226022598
:1008B00002240223023500310030002F002E002DCB
:1008C000003502310230022F022E022D02000000FC
:1008D000000000E60001002800005C0000000000AD
:1008E0000000000000C25CC55CC75CC95C00000081
:1008F00000C35CC65CC85CCA5C000000000000006D
:10090000000000E30001002C0000000000000000D7
:1009100000000000000000000000000000000000D7
:1009200000000000000000000000000000000000C7
:10093000000000E6000100280000AF00AE09025BE5
:1009400000030100A0FA09040000010301010009ED
:10095000211101000122400007058103080001095F
:1009600004010002030000000921110100012222FC
:100970000007058203200001070503032000010989
:100980000402000103000000092111010001226D91
:100990000007058403200001120100020000000886
:1009A000534601000100010203011C0376006900A7
:1009B00061006C003A0066003600340063003200CB
:1009C00062003300630000000C0343006F007200FC
:1009D0006E00650000001C03530070006C0069008D
:1009E00074007400650064005300700061006300CF
:1009F000650000000403090400000000000000007E
:100A000000000000000000000000000000000000E6
:100A10000000000000000000000000007E0F00D475
:100A2000FFFFFFC70000007800000000000000008A
:100A30002A2B280000000000000000000000000039
:100A400000000029000000002C1E34202122243444
:100A50002627252E362D3738271E1F202122232416
:100A600025263333362E37381F0405060708090AB2
:100A70000B0C0D0E0F101112131415161718191A4E
:100A80001B1C1D2F3130232D350405060708090ACC
:100A90000B0C0D0E0F101112131415161718191A2E
:100AA0001B1C1D2F3130354C0000000000003E5B48
:100AB0004F5B3E003E6B4F6B3E001C3E7C3E1C007D
:100AC000183C7E3C18001C577D571C001C5E7F5E46
:100AD0001C0000183C180000FFE7C3E7FF000018E7
:100AE00024180000FFE7DBE7FF0030483A060E005D
:100AF000262979292600407F05050700407F052526
:100B00003F005A3CE73C5A007F3E1C1C0800081C72
:100B10001C3E7F0014227F2214005F5F005F5F0095
:100B200006097F017F00006689956A006060606049
:100B3000600094A2FFA2940008047E040800102024
:100B40007E20100008082A1C0800081C2A0808003B
:100B50001E10101010000C1E0C1E0C0030383E38F9
:100B60003000060E3E0E06000000000000000000EF
:100B70005F000000000700070000147F147F1400CE
:100B8000242A7F2A12002313086462003649562063
:100B90005000000807030000001C22410000004133
:100BA000221C00002A1C7F1C2A0008083E0808009E
:100BB000008070300000080808080800000060602D
:100BC00000002010080402003E5149453E0000424A
:100BD0007F4000007249494946002141494D330098
:100BE0001814127F10002745454539003C4A4949F1
:100BF000310041211109070036494949360046496B
:100C000049291E00000014000000004034000000CC
:100C1000000814224100141414141400004122147A
:100C200008000201590906003E415D594E007C1240
:100C300011127C007F49494936003E414141220062
:100C40007F4141413E007F49494941007F090909EF
:100C500001003E41415173007F0808087F000041B8
:100C60007F4100002040413F01007F0814224100E5
:100C70007F40404040007F021C027F007F0408103C
:100C80007F003E4141413E007F09090906003E4187
:100C900051215E007F091929460026494949320041
:100CA00003017F0103003F4040403F001F204020E0
:100CB0001F003F4038403F006314081463000304E2
:100CC000780403006159494D4300007F41414100D0
:100CD000020408102000004141417F00040201028B
:100CE000040040404040400000030708000020543A
:100CF000547840007F284444380038444444280055
:100D0000384444287F0038545454180000087E09A1
:100D100002001824241C78007F0804047800004492
:100D20007D4000002040403D00007F10284400002E
:100D300000417F4000007C04780478007C080404B3
:100D400078003844444438007C18242418001824BF
:100D500024187C007C0804040800485454542400DF
:100D600004043F4424003C4040207C001C204020E0
:100D70001C003C4030403C004428102844004C906B
:100D800090907C004464544C4400000836410000BC
:100D90000000770000000041360800000201020454
:100DA00002003C2623263C0000000000000000005A
:100DB0000000000000000000C0E0F0F8F81800C0DB
:100DC000F0FCFEFFFFFFFFFFFFFF7E0000000000C2
:100DD0000000000080C0E0E0E0E0E0E0E0E0C08093
:100DE0000000000080C0E0E0E0E0E0E0E0E0C08083
:100DF000000000E0E0C0C0E0E0E0E00000E0E0C0B3
:100E0000C0E0E0E0E0E0C0800000000080C0E0E082
:100E1000E0E0E0E0E0E0C080000000000000000052
:100E2000000000000000E0F0F0F0E0ECEEF7F370FE
:100E300020007C7C7C7E007E7E7E7F7F7F00008029
:100E4000C0E07E5B4F5BFEC00000C000DCD7DEDE92
:100E5000DED7DC00C0000000000000000000000041
:100E60000000000000000000000000000000000082
:100E700000F8FCFEFFE000FFFFFFFFFFFF80FFFF29
:100E8000FFFFFFFFFFFFFF1F070100000000000042
:100E9000000000FFFFFF8100000000000081C3C3CD
:100EA000C30000FFFFFF8100000000000081FFFF82
:100EB000FF0000FFFFFF01000000000000FFFFFF38
:100EC000010000000001FFFFFF0000FFFFFF9D1C6D
:100ED0001C1C1C1C1C9DDFDFDF000000000000004C
:100EE0000000000000000F1F3F7F7F7F7F7F3F1EBD
:100EF0000C001F1F1F3F003F3F3F7F7F7F00307B65
:100F00007F7830202030787F3B0003000F7F0F0F69
:100F10000F7F0F0003000000000000000000000031
:100F200000000000000000000000000000000000C1
:100F300000030F1F3F3F3F3F1F1F3F3F7F7F7F3F0C
:100F40003F1F3F7F7F7F7F7C7878381C0F00000039
:100F50000000000001030707070707070707030151
:100F60000000000001030707070707070707030141
:100F70000000000707070000000000000007070747
:100F8000000000000000070707000000010307073A
:100F90000707070707070301000000000000000023
:100FA0000000000000000000000000000000000041
:100FB0000000000000000000000000000000000031
:100FC0000000000000000000000000000000000021
:100FD0000000000000000000000000000000000011
:100FE000000000000000000011241FBECFEFDAE077
:100FF000DEBFCDBF11E0A0E0B1E0ECE3FFE602C050
:1010000005900D92AC3BB107D9F725E0ACEBB1E010
:1010100001C01D92A836B207E1F70E94D8290C94AE
:1010200078370C940000FC01AC014C5F5F4F8FEFF0
:1010300091E32191822728E030E087FF09C0880FE3
:10104000892721503109C9F7E417F50791F7089569
:10105000880FF7CFE8EDF0E080818E7F80831092DB
:10106000E2001092DA001092E100A0EEB0E08C9164
:1010700081608C9380818F77808319BCA7EDB0E06D
:101080008C918E7F8C9380818F7E808310922A0337
:1010900008952091E4003091E50095E6A9012091A2
:1010A000EC00822F817020FF06C08091E80080FF55
:1010B00006C080E008952091E80022FD1AC08091CA
:1010C0004F03882389F0853089F08091EB0085FDFE
:1010D0000FC02091E4003091E50042175307F9F268
:1010E0009150E1F684E0089582E0089583E0089548
:1010F00081E00895EF92FF920F931F93CF937C01AD
:101100008B010E944908C82F811117C08091E80007
:1011100085FD0BC08091E8008E778093E8000E94E7
:101120004908882399F3C82F08C0F70181917F01EE
:101130008093F1000150110949F78C2FCF911F9135
:101140000F91FF90EF9008958091510387FF13C096
:101150008091E80082FF06C08091E8008B77809341
:10116000E80004C080914F038111F2CF089580916F
:101170004F038823D9F38091E80080FFF8CF809156
:10118000E8008E77ECCF982F9093E900242F762FEC
:1011900050E0891731F07091EC002091ED005091F2
:1011A000F00021FD07C09F5F973071F78093E90041
:1011B00081E008953091EB003E7F3093EB00309159
:1011C000ED003D7F3093ED003091EB0031603093C6
:1011D000EB007093EC002093ED005093F000209111
:1011E000EE0027FDE0CF80E00895B0E0A0E0EBEF57
:1011F000F8E00C940334C8EDD0E088818F7E8883BA
:10120000E7EDF0E080818160808384E082BF81E04F
:1012100080932A0388818E7F888302EE10E0F80194
:1012200010821092DA0081EEC82ED12CF6011082C5
:1012300088818F77888388818068888388818F7D83
:10124000888319BC10924F031092500310924E03E2
:1012500010924D0390EEE92EF12CF70180818B7FE7
:10126000808388818160888342E060E080E00E9422
:10127000C308F60180818E7F8083F80180818160C0
:101280008083808188608083F70180818E7F808366
:10129000888180618883CDB7DEB7E8E00C941F3485
:1012A000FC01809157039091580386179707A0F08F
:1012B0006115710529F49091E8009E779093E800FC
:1012C00090E06115710551F4911108C08091E8001A
:1012D00082FF34C080E00895BC01F2CF80914F03BB
:1012E0008823C1F18530C1F18091E80083FD30C0D1
:1012F0008091E80082FDEACF8091E80080FFE1CF95
:101300008091F3002091F200382F6115710519F0DA
:101310002830310558F091E02830310509F090E08F
:101320002091E8002E772093E800CBCF8191809325
:10133000F100615071092F5F3F4FE7CF80914F035C
:10134000882341F0853041F08091E80083FFBECFD3
:1013500081E0089582E0089583E008950895089556
:10136000089580912C03089587E797E790930108EB
:101370008093000888E19AE00FB6F894A8958093CE
:1013800060000FBE90936000FFCF2FB7F89460917C
:1013900021037091220380912303909124032FBF96
:1013A0000895209145012223C9F02091250327FFAC
:1013B00015C0E62FE695E695E695EE31D8F4E80FF0
:1013C000F92FF11D677021E030E001C0220F6A950E
:1013D000EAF720958281282322830895FC01329622
:1013E00008962191621303C0DF0111971C92E81740
:1013F000F907B9F70895209145012223C1F0209102
:10140000250327FF14C0E62FE695E695E695EE3115
:10141000F8F4E80FF92FF11D677021E030E001C00A
:10142000220F6A95EAF78281822B82830895FC015C
:1014300032962FEF30E04191641751F02F3F19F4AD
:10144000411101C0232F3F5F3630A9F72F3F09F428
:101450000895820F911D27FD9A95FC0162830895DE
:1014600020911E0330911F032817390771F09093C4
:101470001F0380931E03E0911C03F0911D0330971E
:1014800021F00084F185E02D0995089520911A033B
:1014900030911B032817390771F090931B03809339
:1014A0001A03E0911C03F0911D03309721F0068090
:1014B000F781E02D09950895CF93DF93209166057C
:1014C0003091670520563340A901460F571F413020
:1014D000524020F060E072E0621B730B40915E03AB
:1014E00050915F03FC01C901620F731FC1E0D0E09E
:1014F0008617970738F050935F0340935E03DF91A0
:10150000CF9108952491DC01A05ABC4F3C91321731
:1015100081F02C939C01A5E036952795AA95E1F7DB
:10152000DE0102C0AA0FBB1F2A95E2F79D014A2BDC
:10153000532B01963196DCCF20915D0336E0839FDB
:10154000C0011124629F800D911D1124811522E09C
:10155000920714F090E080E0805A9C4F90936705CA
:10156000809366050895FA01811101C0FB01099578
:101570000895E7EDF2E0118282818460828308950C
:1015800080910B03982F9E7F29F481708260809355
:101590000B0308958C32E8F381708A62F8CFAF9222
:1015A000BF92DF92EF92FF920F931F93CF93DF933F
:1015B000082F162FE901E42FF0E0E754FA4F6111EC
:1015C00011C0E4915E2F4E2F4983E8835A831B821A
:1015D000DF91CF911F910F91FF90EF90DF90BF901F
:1015E000AF900895E62EF12C4491D42EE42FF0E034
:1015F00026E0829FC00111242FEF30E0B9010E9444
:10160000E533802F90E0880F991F55E5569FD00154
:10161000579FB00D11248A1B9B0B982F990F890F90
:101620005901AE18BF08AE9ED001AF9EB00DBE9E50
:10163000B00D11245B2F189F80011124012F112759
:101640005901A01AB10AAE9E8001AF9E100DBE9E38
:10165000100D11245901A81AB108AE9CC001AF9C0D
:10166000900DBE9C900D1124892F9927281B390BB2
:101670002E9FC0012F9F900D3E9F900D1124E92FAA
:1016800062307105A1F050F46115710509F49CCF29
:101690006130710581F0EB2F512F96CF64307105C9
:1016A00069F080F06630710509F48ECFF4CFE42F35
:1016B0004B2F592F89CFE42F412F86CFEB2F542F5B
:1016C000492F82CF4B2F5D2DE12F7ECF80E00895F3
:1016D000F894E82FE295EF70F0E031A1282F2F70F9
:1016E00081E090E001C0880F2A95EAF7982F909545
:1016F000932391A392A1892B82A37894089590912A
:10170000250392FF06C0282F28712830F9F4877F1F
:10171000846093FF06C0282F28712831F1F4877E5A
:1017200084612091260320FF06C0382F387138309D
:10173000D9F4877F816021FF06C0282F28712831C6
:10174000D1F4877E816194FD877E0895282F2471CE
:101750002430F9F68B7F8860DCCF282F2471243168
:1017600001F78B7E8861DDCF382F3171313019F769
:101770008E7F8860E0CF282F2171213121F78E7E66
:101780008861E1CFCF93DF93EC0182389105B1F10D
:1017900008F040C08133910509F49DC048F58932B5
:1017A000910509F48DC08A9709F49CC0C11522E502
:1017B000D20708F0BDC0C11531E5D30708F025C137
:1017C000C83ED10508F0A3C0C13ED10588F5C83A8E
:1017D000D10508F08EC0C53AD10508F0F6C0C13079
:1017E000D10531F1209721F1C430D10508F545C06C
:1017F0008533910509F45FC0C997C1F6809125032F
:10180000837009F037C18091260383FF11C0C9E2BC
:10181000D0E00EC0833E910599F170F4803E9105B1
:1018200001F1823E910511F68091250382FD21C0D0
:10183000CE01DF91CF910895863E910561F1873EFB
:10184000910571F1843E910509F0B0CF8091260396
:1018500081FFEECF80912503C7EED0E084FD0DC05F
:10186000E7CF8091250380FD33C09091260390FF40
:10187000DFCFC3EED0E084FFDBCFD0E0C0E0D8CF35
:101880008091250382FDF3C09091260390FDF2C064
:1018900084FFCECFF2CF8091250383FDDDCFC8CF6B
:1018A0008091250383FDE9C09091260391FFF0CF3D
:1018B000C4EED0E0BDCF8091250385FFB9CFA7CF7F
:1018C0008091250385FDDCC08091260383FFB0CF86
:1018D000C9E3D0E0ADCF8091250386FFA9CFCAE24E
:1018E000D0E0A6CF8091250386FFA2CFC1E3D0E050
:1018F0009FCFCF3BD10508F6C85AD0E0CC0FDD1FF3
:10190000CC5ADE4F0990D881C02DD46491CFC11537
:1019100040E5D40708F064C0C11580E4D80708F09A
:101920005CC0CE019A9581159F4108F481CFA5CF67
:10193000C11536E5D30718F5C11545E5D40708F0FC
:101940007DC0C11584E5D80708F073C09C2F96951B
:1019500096959E0123703327C115D34508F45AC0CC
:10196000C1E0D0E002C0CC0FDD1F2A95E2F730E2E3
:10197000939FC0011124C82BD92BDA6859CFC11508
:101980008AE5D80778F4C11529E5D20708F061C0C7
:10199000C11538E5D30708F470CFDC2FCC27C06F12
:1019A000D06A46CFCE0190568115904208F065CF9F
:1019B0008D2F8F710E947F0B90E0982F88278827AA
:1019C0009F719C012C2BE90142C0C55AD0E0CF5A2F
:1019D000DE4FC881D0E0D0642BCFDF70D06A28CF33
:1019E0002C2F26952695237080E2289F90011124A4
:1019F0008C2F8370C1E0D0E002C0CC0FDD1F8A9530
:101A0000E2F7C22BD32BDD6813CFDC2FCC27C16FBD
:101A1000D06A0ECFC1E0D0E002C0CC0FDD1F2A9506
:101A2000E2F720E2929FC0011124C82BD92BDC6879
:101A3000FFCEDC2FCC27C46FD06AFACE8C2F0E9449
:101A40007F0BC82FD0E0DC2FCC27CC27DF71D062F2
:101A5000EFCE8C2F8F700E947F0B34E0D695C79508
:101A60003A95E1F7CF709C2FEC01D069E1CEC2EE40
:101A7000D0E0DECEC0EED0E0DBCEC6EED0E0D8CEF9
:101A8000C5E3D0E0D5CE80915102882331F0109289
:101A900051021092500210924F0208958095909139
:101AA0004E02982390934E02089510922C021092A9
:101AB0002B0210922A020895809129029091F80138
:101AC000981301C008958F5F8770FACF292F98303F
:101AD00078F5863068F590E036E0239F800D911D03
:101AE0001124682F677023E0969587952A95E1F772
:101AF000FC01EE0FFF1FE80FF91FE052FE4F50E010
:101B000040E080E0219130E0062E02C03695279516
:101B10000A94E2F721703327042E01C0220F0A94A1
:101B2000EAF7822B4F5F5F4F4330510559F7089515
:101B300080E00895292F983098F5863088F590E058
:101B400036E0239F800D911D1124282F277041E03E
:101B500001C0440F2A95EAF723E0969587952A95C8
:101B6000E1F7FC01EE0FFF1FE80FF91FE052FE4FF7
:101B700030E020E070E05191DF011197CB01022E9F
:101B800002C0969587950A94E2F781708195852722
:101B9000842385278C932F5F3F4F2330310559F7DE
:101BA0000895982F92959F7011F0892F94E0282F17
:101BB0002695269511F09E5F822F869509F09F5FEE
:101BC000892F08959C013A9521153F4150F5FC015C
:101BD000EE27F170BC0166277270AC014427547087
:101BE0009C012227387094FF0EC080E1EF2B09F48E
:101BF00080E0672B09F08062452B09F08064232B7D
:101C000089F08068089581E0EF2B09F480E0672B6C
:101C100009F08260452B09F08460232B19F088605D
:101C2000089580E00895CF93DF93682F81E06A30B4
:101C300019F06D3031F480E00E94930EDF91CF9166
:101C40000895809166059091670526E0FC01A0E665
:101C5000B5E001900D922A95E1F7603E08F458C076
:101C600026E0FC0111922A95E9F7C0916605D09112
:101C7000670546E050E0BE0180E695E00E948134B1
:101C80009E0120563340892B41F1C90145E09695CC
:101C900087954A95E1F741E050E0BA0102C0660F2E
:101CA000771F8A95E2F7CB0160915E0370915F0325
:101CB000862B972BB9016B5F7F4FE5E07695679593
:101CC000EA95E1F702C0440F551F6A95E2F7842BAD
:101CD000952B90935F0380935E032A5F3F4F409163
:101CE0005D03642F70E0C9010E94E533481B463054
:101CF00010F4240F311D211572E0370710F030E089
:101D000020E0205A3C4F309367052093660596CF1C
:101D1000F6E06F9FB00111246855754F46E050E022
:101D20000E946B34A2CFCF93382FE0916605F091DB
:101D30006705E056F34020915D03622F70E0CF010C
:101D40000E94E533281B822F332361F066E00E9456
:101D50003034C82FC15010F4CF91089580E20E9412
:101D6000130EF8CF9F01280F311D2115324018F0B6
:101D700080E0F0E0E0E08E0F9F2F911D805A9C4F95
:101D80009093670580936605E7CF6F927F929F924D
:101D9000AF92BF92CF92DF92EF92FF920F931F9379
:101DA000CF93DF93CDB7DEB768970FB6F894DEBF59
:101DB0000FBECDBF8C01B3E09B2E7E0149E1E40E46
:101DC000F11CA12C82E0B82ECC24C394D12C692D17
:101DD00081E00E949C0ADE011196F801BD01849108
:101DE0008D933196AE15BF05D1F780916605909120
:101DF0006705805693409C01285E3F4F213032405A
:101E000078F19501281B390B40915E0350915F03D7
:101E1000280F391F8217930730F150935F034093C7
:101E20005E0393940FB6F894DEBF0FBECDBF085E7D
:101E30001F4FB6E09B12CBCF68960FB6F894DEBF6B
:101E40000FBECDBFDF91CF911F910F91FF90EF900B
:101E5000DF90CF90BF90AF909F907F906F9008954C
:101E600028E130E0D1CFFB016191DC01A05ABC4FE9
:101E70007C91671781F06C93BC01A5E0769567951E
:101E8000AA95E1F7D60102C0AA0FBB1F6A95E2F737
:101E9000BD014A2B572B0196BF01BCCFB0E0A0E09B
:101EA000E4E5FFE00C9403346C017B0164E670E030
:101EB00088E70E944331EC0197FD12C010E000E07A
:101EC000F601E00FF11F849164E670E00E94AF31EB
:101ED000EC01892B29F40F5F1F4F0E151F0581F7A9
:101EE0000E942532CE01CDB7DEB7E8E00C941F3456
:101EF0008091180390911903911103C091E08927F3
:101F00000895882369F062E070E08BE399E00E9415
:101F10004E0F892B19F08091180308951092180321
:101F200080911803EBCFCF93C091180380911903D0
:101F30008823D1F00E94C5096058774C8E4F9F4F7F
:101F40006093140370931503809316039093170303
:101F5000C11108C062E070E089E399E00E944E0F71
:101F6000892B29F0C09118038C2FCF91089581E01F
:101F700080931803F7CF809327037093290360930E
:101F8000280380914F038430F9F48093E9008FEFA8
:101F90009091E800815095FD06C095ED9A95F1F776
:101FA00000008111F5CF8091E80085FF0DC050E061
:101FB00040E063E070E087E293E00E947A0880915D
:101FC000E8008E778093E8000895BC0184E00E94C9
:101FD000BB0F0895BC0183E00E94BB0F0895CF930F
:101FE000DF93EC01809145018823B1F180912503B5
:101FF00087FF32C060E284E08093E9008FEF909128
:10200000E800815095FD06C095ED9A95F1F7000026
:102010008111F5CF8091E80085FF1BC080914501BB
:1020200070E050E040E0811104C050E040E068E022
:1020300070E0CE010E947A088091E8008E7780934C
:10204000E80080E2FE01ADE2B3E001900D928A95D6
:10205000E1F7DF91CF91089568E081E0CDCF7091F5
:102060003F0180910B0380FF24C080913E0124E05A
:10207000829FC001112485529D4FFC0130E037132F
:102080002BC0539A4BB1477F5BB158606FB7F89440
:1020900074E0379F90011124280F391F2817390742
:1020A00079F56FBF8FE594E00197F1F700C000006C
:1020B0000895809140019091410124E0829FF001B8
:1020C0001124E552FD4F891780F611821082128289
:1020D00013828F5F3496F7CF428150816181242F24
:1020E000541708F4252F621708F4262F2383621B48
:1020F0006183521B5083421B42833F5F3496BFCFA4
:10210000FC017191CF01E8E05BB9000000C077FFEE
:102110004BB9770F000000C000C000C04BB900C031
:10212000EA9591F7BBCF0F931F93CF93DF93EC0109
:1021300010E000E0909142019017110609F06CF454
:102140000E942F108C8190E00196817099278C83DA
:10215000DF91CF911F910F91089520914001200FA1
:10216000312F311D220F331F220F331F25523D4FB8
:102170004C8160910D0380910C0396959017110688
:1021800051F04CF0442349F040910E030E94CF0AD5
:102190000F5F1F4FCFCF4423B9F340E0F7CFB0E03C
:1021A000A0E0E5EDF0E10C94FF338C01FC018281AD
:1021B000BB24BA9480FD02C0BB24B394A09042011A
:1021C000F801848181110AC0F1E0BF1222C08FEFB3
:1021D0008A0D8093DA0281E0F8018483F12CE12CEE
:1021E0003CE0932EEA14C0F00E942F108091DA0296
:1021F00091E0B91258C0811150C0809142018150C4
:102200008093DA02F8011482CDB7DEB7ECE00C94CB
:102210001B341092DA02DFCFC0914001CE0DDF2DCA
:10222000D11DCC0FDD1FCC0FDD1FC552DD4F198234
:1022300018821A821B8224E0C22ED12C812C80911C
:10224000DA02880D8D302CF1692D0E943C34892FE3
:10225000082E000C990B8E159F0591F480910E03AA
:102260008C9DA0018D9D500D112455954795559538
:1022700047959E0160910D0380910C030E94CF0A47
:102280008B0CF1E0CF1AD108D1F68FEFE81AF80ADB
:10229000A9CF87FFDDCF8A0DDBCF81508093DA0293
:1022A000F801B482B1CF90E001966091420170E0F4
:1022B0000E944A348093DA02F8018483A5CFFF920A
:1022C0000F931F93CF93DF93EC01F12C0FEF10E0EE
:1022D00060914201F61668F00E942F109A818C815D
:1022E00090FF23C08F5F8C83CDB7DEB7E5E00C9401
:1022F0002234209140012F0D3327331F220F331F2B
:10230000220F331F25523D4F70E0C8010E944A340E
:10231000962F8C8140910E0360910D03F99E800DE4
:1023200011240E94CF0AF394D3CF8150DCCF909137
:102330000B0390FF0EC0909140012091410134E0C9
:10234000939FF0011124E552FD4F921718F00E945F
:102350002F10089581836083428313829F5F349698
:10236000F4CFA4E0B0E0E7EBF1E10C9409349091F4
:102370000B0390FF0AC09E012F5F3F4F0E94CF0AC0
:102380004B8169818A810E9497112496E2E00C9426
:102390002534CF93DF93EC01EBE0F3E043816281DE
:1023A0008C810E94B1118C818F5F8C83DF91CF91E2
:1023B0000895CF93DF93EC01EC81F0E0E754F94FFF
:1023C0004491EBE0F3E0628181810E94B1118C8144
:1023D0008F5F8C83DF91CF910895EBE0F3E08081F4
:1023E0008E7F80830E94B90AE7EDF2E082818160EE
:1023F00082832FEF80E792E0215080409040E1F708
:1024000000C000000E942F100895B0E0A0E0EBE0B3
:10241000F2E10C9401347C015B016A018091840239
:1024200001E010E08A3010F40AE010E0C1E0D0E0F2
:10243000B501C701F6010995811104C021960C1759
:102440001D072CF4CDB7DEB7EAE00C941D34CC9F09
:102450009001CD9F300D300D112490E080E045E3D8
:102460004A95F1F70000019682179307C1F7E0CF74
:1024700080915D02811110C08091D80080618093AD
:10248000D8008AE18A95F1F700C08091D90080FFD9
:102490000AC081E080935D0281E090915D029130FD
:1024A00009F080E0089582E080935D020E942A088E
:1024B00010924F03F1CF0E943812882359F0E09117
:1024C0001C03F0911D03309729F00190F081E02D5D
:1024D0000995089580E008950F931F930E94381284
:1024E000882329F00E94C5091F910F9108950E9429
:1024F000C5090091850210918602209187023091D2
:102500008802600F711F821F931FEECFCF93DF935E
:10251000C7EAD1E060E0CE010E9444372196C115A0
:1025200084E0D807B9F7DF91CF9108951F93CF9337
:10253000DF93122F8430E0F46830D0F44630C0F4DA
:10254000C42FD0E0CC0FDD1F9CE0699FC00DD11DD2
:10255000112490E6899FC00DD11D1124632FCE0157
:1025600087960E944437612FCE0188960E94443797
:10257000DF91CF911F9108958F929F92AF92BF925A
:10258000CF92DF92EF92FF921F93CF93DF938090D1
:1025900043019090440181E090E090934401809346
:1025A000430189EBC82E87E0D82ED0E07601C0E049
:1025B00014C0F50125913491412F6C2F8D2F0E946D
:1025C000961282E0A80EB11C1F5F163091F78CE0C6
:1025D000E80EF11CCF5FC83019F0570110E0E9CFC9
:1025E000DF5F80E6C80ED11CD43001F79092440121
:1025F00080924301DF91CF911F91FF90EF90DF9088
:10260000CF90BF90AF909F908F900895CF93C82F99
:102610006FEF811161EC83E290E00E9444376FEF2D
:10262000C1116EE384E290E00E9444376FEFC11164
:1026300061E685E290E00E944437CF91089580E002
:102640000E94061360E086E290E00E9444370E94F8
:10265000BC120E94861281E00E94061308950F9317
:102660001F93CF93DF93843030F5683020F54630E8
:1026700010F5C42FD0E0CC0FDD1F2CE0629FC00D01
:10268000D11D112430E6839FC00DD11D1124CE0130
:1026900087960E943037082F10E0102F0027CE01B8
:1026A00088960E9430379801282BC901DF91CF917D
:1026B0001F910F91089590E080E0F8CF462F209170
:1026C000120330911303232B99F4703F39F4603FC8
:1026D00079F480911003909111030895843040F4AF
:1026E000783030F4663020F4672F0E942F1308955D
:1026F00090E080E00895CF92DF92FF920F931F93B6
:10270000CF93DF936C0100915C0380915202082B00
:10271000C7E0D0E010E0FC2EC8010C2E02C0959559
:1027200087950A94E2F780FD0CC02197A0F7F12C61
:102730008F2DDF91CF911F910F91FF90DF90CF9060
:102740000895B6018C2F0E945E130E94C20B019760
:1027500061F3EECFCF93DF93EC010E947B13BE01B8
:102760000E945E130E94C20BDF91CF910895FC017D
:1027700083819481892B29F08081918189238F3FE6
:1027800051F480E00895843FE1F717C0883EA8F037
:10279000813FB9F712C0808191810E94AA1392955E
:1027A0009F70963099F358F4925F9F70923048F77B
:1027B000803F19F040F7883E20F781E008959A5F46
:1027C000F4CF83E290E00E943037813C89F484E2C8
:1027D00090E00E9430378E3359F485E290E00E94F9
:1027E000303791E0813609F090E0892F81700895AB
:1027F00080E0FCCFCF9384E090E00E943037C82F78
:1028000082E290E00E943037982F8C2FCF9108956C
:10281000CF92DF92EF92FF926B017C010E94C00A7F
:10282000B701A60188E090E00E945637FF90EF9034
:10283000DF90CF900895A4E0B0E0E1E2F4E10C94E1
:102840000534182FF62E042FE22E80910B0380FF03
:1028500039C0E82FE695F0E0EA56FE4F908190935C
:10286000D7028E7F823091F59E012F5F3F4F812FDF
:102870000E94CF0A4B8169818A810E9497118091C1
:102880000C03811308C080910D038F1104C0809147
:102890000E03801729F08091D90282608093D902BB
:1028A00010930C03F0920D0300930E03EE2051F0F1
:1028B00060910B0370910C0380910D0390910E03B6
:1028C0000E9408142496E6E00C942134923019F406
:1028D00000910E03D4CF80910C03963011F0993003
:1028E00071F6182FCCCFEBE0F3E0438121E1421BDE
:1028F00008F440E021E0628181810E941B14089568
:10290000EBE0F3E0438121E1420F08F44FEF21E0D7
:10291000628181810E941B140895EBE0F3E06281E3
:1029200021E1621B08F460E021E0438181810E9483
:102930001B140895EBE0F3E0628121E1620F08F4DB
:102940006FEF21E0438181810E941B140895EBE029
:10295000F3E0818121E04381628188500E941B1451
:102960000895EBE0F3E0818121E043816281885F9B
:102970000E941B14089580910F03882319F0815041
:1029800080930F0360910B0370910C0380910D03F2
:1029900090910E030E940814089580910F038330D4
:1029A00018F48F5F80930F0360910B0370910C03F9
:1029B00080910D0390910E030E9408140895EBE09E
:1029C000F3E083E0808311828FEF8283838314821C
:1029D000A7EDB2E012968C911297836012968C93B9
:1029E00060817181828193810E940814089568EE4C
:1029F0007EEF90E080E00E94623760E082E090E04D
:102A00000E94443760E083E090E00E9444371092D7
:102A1000520260E084E090E00E94443764E082E289
:102A200090E00E94443760E085E090E00E944437E7
:102A300060E086E090E00E9444376FEF87E090E02E
:102A40000E94443740E050E0BA0188E090E00E94E4
:102A5000563760E08DE090E00E94443740E050E05F
:102A6000BA0188E190E00E94563760E087E190E08B
:102A70000E94443740E050E0BA018CE190E00E94AF
:102A8000563770E060E080E290E00E94623740E0FC
:102A900050E0BA0188E190E00E94563780E00E9441
:102AA00006130E941F1340E050E0BA018FE090E04F
:102AB0000E94563740E050E0BA0183E190E00E9466
:102AC000563708954F925F926F927F928F929F92A6
:102AD000AF92BF92EF92FF920F931F93CF93DF932A
:102AE0007B01FB0140805180628073809FB7F89426
:102AF0008090210390902203A0902303B0902403A0
:102B00009FBF84189508A608B708F4E68F169104AD
:102B1000A104B10418F4C1E0442329F1C82F880F9F
:102B2000DD0BFE0183E0EE0FFF1F8A95E1F7E05019
:102B3000FF4F818192818A599D4F408150E0041757
:102B4000150708F4A801B9010E948E34CE010E9435
:102B50006F33C82F882339F00E94C509F7016083BD
:102B60007183828393838C2FDF91CF911F910F917B
:102B7000FF90EF90BF90AF909F908F907F906F905D
:102B80005F904F900895A1E0B0E0E9ECF5E10C947E
:102B900007348091180389832091770290E041E007
:102BA0002817190609F440E001E010E09E012F5FAC
:102BB0003F4F60E872E084E00E9462152196E4E0F5
:102BC0000C942334A8E0B0E0E8EEF5E10C9407346F
:102BD00085E0EBE0F3E0DE01119601900D928A951D
:102BE000E1F78091D7029091D802A091D9028E830B
:102BF0009F83A88741E08885811101C040E008E0FB
:102C000010E09E012F5F3F4F6CE772E083E00E946F
:102C1000621581111092D9022896E4E00C942334B5
:102C2000A4E0B0E0E6E1F6E10C94083440917802CB
:102C30005091790260917A0270917B022FB7F894DB
:102C40008091210390912203A0912303B09124034A
:102C50002FBF841B950BA60BB70B11E08436910593
:102C6000A105B10570F10E946C126E5F7F4F8F4F0E
:102C70009F4F69837A838B839C838091110190910C
:102C800012018A599D4F4091100150E04530510585
:102C900010F044E050E0BE016F5F7F4F0E948E3421
:102CA00082E090E00E946F33182F882351F00E9439
:102CB000C509609378027093790280937A029093A9
:102CC0007B02812F2496E3E00C942434EF92FF9250
:102CD0001F93CF93DF9300D000D00F92CDB7DEB714
:102CE0007B0190E080E00E946F33182F882309F465
:102CF00087C04091030150E04115510511F041E0BA
:102D000050E060910401709105016A597D4FCE0138
:102D100005960E948E344091620250916302609148
:102D20006402709165022FB7F8948091210390910D
:102D30002203A0912303B09124032FBF841B950B82
:102D4000A60BB70B84369105A105B10540F487E6C3
:102D500092E00E9413089D81891709F451C081E017
:102D600090E00E946F3381111AC010E080915E02E2
:102D700090915F02A0916002B0916102F70180839F
:102D80009183A283B383812F0F900F900F900F90A8
:102D90000F90DF91CF911F91FF90EF900895409198
:102DA0000B0150E04530510510F044E050E06091D7
:102DB0000C0170910D016A597D4FCE0101960E9460
:102DC0008E3487E692E00E9413089D818913CDCF4F
:102DD0000E94C5096093620270936302809364024B
:102DE0009093650289819A81AB81BC8180935E0258
:102DF00090935F02A0936002B093610211E0B6CF9E
:102E00008091670290916802A0916902B0916A0274
:102E100089839A83AB83BC831111E4CFA7CF90E061
:102E200080E00E943E37883E9E4F19F40E94E113D5
:102E3000089580E008951F920F920FB60F9211240B
:102E40002F933F934F935F936F937F938F939F93B2
:102E5000AF93BF93EF93FF938091E10082FF09C08E
:102E60008091E20082FF05C08091E1008B7F80931A
:102E7000E1008091DA0080FF24C08091D80080FFBB
:102E800020C08091DA008E7F8093DA008091D90093
:102E900080FF9DC080E189BD82E189BD09B400FE4B
:102EA000FDCF81E080934F0380912A03811109C0F7
:102EB0000E942A080E94F5088091E20084608093B5
:102EC000E2008091E10080FF17C08091E20080FF66
:102ED00013C08091E2008E7F8093E2008091E20037
:102EE00080618093E2008091D80080628093D80056
:102EF00019BC85E080934F038091E10084FF2BC0D3
:102F00008091E20084FF27C080E189BD82E189BD14
:102F100089B5982F917080FFFBCF8091D8008F7D6D
:102F20008093D8008091E1008F7E8093E1008091B2
:102F3000E2008F7E8093E2008091E20081608093C6
:102F4000E20080915003882309F447C084E0809315
:102F50004F0380914F038091E10083FF27C0809150
:102F6000E20083FF23C08091E100877F8093E1002E
:102F700082E080934F03109250038091E1008E7F96
:102F80008093E1008091E2008E7F8093E200809147
:102F9000E20080618093E20042E060E080E00E9415
:102FA000C3088091F00088608093F000FF91EF915A
:102FB000BF91AF919F918F917F916F915F914F9151
:102FC0003F912F910F900FBE0F901F90189519BC35
:102FD00010924F0310922A0374CF8091E30087FD73
:102FE00093E090934F03B5CF78941F921FB61F9232
:102FF00011248F939F93AF93BF938091210390915E
:103000002203A0912303B09124030196A11DB11DB9
:103010008093210390932203A0932303B09324036E
:10302000BF91AF919F918F911F901FBE1F901895D8
:103030009C014FB7F8948091210390912203A091B5
:103040002303B09124034FBF821B930B08952FB726
:10305000F8948091210390912203A0912303B091D1
:1030600024032FBF08950E943812882319F00E946C
:10307000271808950E946C12CB01089560910B03EC
:10308000669570E041E050E08DE391E00E94743479
:10309000892B19F481E08093D8020E943318909311
:1030A000D2028093D1028091D90284608093D902A8
:1030B000089590910B0390FF31C0917081112FC042
:1030C000926090930B038091D90281608093D90222
:1030D000662351F060910B0370910C0380910D03F6
:1030E00090910E030E94081460910B03669570E0A6
:1030F00041E050E08DE391E00E947434892BB1F0FF
:103100000E94B90A81E08093D40220E040910E032E
:1031100060910D0380910C030E941B140895863169
:1031200010F09A62CECF880F982BCBCF0E943E181A
:10313000E9CF80910B038695815009F485E161E028
:103140000E945918089580910B0386958F5F8631F0
:1031500008F081E061E00E945918089590910B03F6
:1031600090FF08C09695981728F0961718F40E94BB
:10317000A318089561E00E9459180895ACE0B0E0EA
:10318000E4ECF8E10C94FE338E010F5F1F4F88E0F2
:10319000D8011D928A95E9F784E8C82E81E0D82EDF
:1031A000F12CE12CAA24A394B12C2EE8822E21E04C
:1031B000922EF60181916F018F3F09F442C0F8947D
:1031C000E82FE295EF70F0E021A18F70A50102C019
:1031D000440F551F8A95E2F7CA01922F982B91A3AD
:1031E00092A18095892382A3789400C0E8E8F1E059
:1031F000712C31E021912F3F09F46BC0A22FA295D1
:10320000AF70B0E090968C9190E02F7002C09595D1
:1032100087952A95E2F780FD5CC0832F782A330FCB
:103220008E169F0639F7F601319780818F3F11F096
:103230000E94680B50EA5A95F1F7F801EE0DFF1D58
:1032400070828FEFE81AF80AA4E0EA16F10409F098
:10325000B0CF48E050E0B80189E892E00E948134A4
:10326000009741F028E0F801A9E8B2E001900D9242
:103270002A95E1F700919202892B69F181E0809310
:1032800055020E9427189093540280935302809114
:103290005302909154020E941818059700F110E013
:1032A00007531D4F44E050E069E872E0C8010E94F6
:1032B0008134B12C892B51F084E0E9E8F2E0D801A7
:1032C00001900D928A95E1F7BB24B39410925502B8
:1032D00007C080E0A3CF809155028111D8CFB12CD7
:1032E0000E943812A82EE0919202882309F489C026
:1032F00019861A861B861C860E2F10E007531D4F59
:10330000809184028A3008F046C046E656E1BE014C
:10331000675F7F4FC8010E940512882309F460C0CF
:1033200040E156E1BE01675F7F4FC8010E94051270
:10333000882309F455C042EE55E1BE01675F7F4F17
:10334000C8010E940512882309F44AC043EC55E1E4
:10335000BE01675F7F4FC8010E940512882309F4F0
:103360003FC0109284028091910290E044E050E0CE
:10337000BE01675F7F4F87539D4F0E94813421E0DC
:1033800020935C02892BF1F4A12C8A2D8B292C9699
:10339000EDE00C941A3480915602909157020E94ED
:1033A0001818843F914008F0B0CF80915C028823C8
:1033B00059F3FE01399684E0DF011D928A95E9F701
:1033C00010925C02E0919102F0E0E753FD4F898595
:1033D0009A85AB85BC8580839183A283B383D5CF47
:1033E000809184028F3F31F08F5F809384028A3016
:1033F00008F4B9CF0E942718909357028093560281
:10340000D4CFF0E0E753FD4F84E0A7E6B2E00190AF
:103410000D928A95E1F787E692E00E941308809367
:103420006602C0906B02D0906C02E0906D02F0904A
:103430006E028091580290915902A0915A02B09167
:103440005B02C816D906EA06FB06D1F0C092580204
:10345000D0925902E0925A02F0925B020E94381216
:1034600081110EC00E94C509C61AD70AE80AF90AD6
:10347000C0928502D0928602E0928702F092880282
:1034800080917602882379F180FF0DC080916F02D0
:1034900080FF30C090910B03916090930B0360E02C
:1034A00086950E9459188091760281FF09C020E01C
:1034B0004091720260917102809170020E941B140F
:1034C0008091760282FF06C0809175028823A9F060
:1034D0000E943E188091760283FF03C081E08093B2
:1034E000D4021092760280917702882349F00E94DC
:1034F000930F4BCF0E94ED11D6CF0E94B90AEACFAD
:103500000E94780F42CF80914E0290914D02892BFC
:103510008093BE0180915102882329F10E942718CF
:1035200020914F0230915002821B930B88389341B7
:1035300010F00E94430D8091BE0190915102892BA1
:103540008093BE01809145018823E1F1809125039C
:1035500087FF38C08EE1E0ECF1E090E08150A0F50B
:1035600091110E94430D40E250E06DE272E08EEB5B
:1035700091E00E948134892B21F180E2EEEBF1E0B1
:10358000ADE2B2E001900D928A95E1F7E0911C0363
:10359000F0911D033097A9F080914501882359F0DF
:1035A0008091250387FF07C08091BE018093BF01F2
:1035B00086E08093BE010280F381E02D8EEB91E0E6
:1035C0000995089586E0C7CF2191222339F29F5FA4
:1035D000C5CF90E080E00E94460A90E080E00E9423
:1035E000300A10924D020E94831A089580935C0362
:1035F0000E94E91A089580915C03982F9670963086
:1036000021F488600E94F61A0895877FFBCF21E09D
:1036100030E001C0220F8A95EAF7209580915C0383
:1036200082230E94F61A089590912C028095892396
:1036300080932C02282F277091F4282F082E000C3D
:10364000330B9217130659F09091260392FF07C08F
:103650008595859585950E94071B0E94550D0895B7
:10366000CF93C0912603C2FB992790F9981791F048
:1036700080FBC2F9C09326036091250384E090E0AB
:103680000E9444376C2F82E290E00E94443782E02F
:103690000E94141BCF91089521E030E001C0220F59
:1036A0008A95EAF780915C03822B0E94F61A0895AE
:1036B000809352020E94E91A089510924E0280915E
:1036C0004501E0ECF1E0882361F08091250387FF5C
:1036D00008C08EE1DF011D928A95E9F70E94E91A80
:1036E000089586E0F7CFAAE2B0E0E9E7FBE10C94A9
:1036F000083481E593E02091F100DC012D93CD01A8
:10370000B3E089359B07B9F780915203833009F400
:1037100072C0B8F4813009F449C0823009F4B3C0F2
:103720008091E80083FF96C28091510390915203EB
:103730009A3008F08FC2E92FF0E0E658F84C0C946C
:103740005E348A3009F48EC08B3009F471C0893040
:1037500039F780915103813219F780915503909187
:103760005603009711F00297D9F68091E800877F01
:103770008093E8008091E80082FF38C09091F300C8
:103780008091F200029731F48091F100813011F0C4
:10379000863021F48091F10080932C038091E80021
:1037A0008B778093E8000E94A408BACF80915103E0
:1037B000813A09F0B5CF8091E800877F8093E800D7
:1037C0008091550390915603892B61F460E28DE25C
:1037D00093E070E00E9450098091E8008B7780931D
:1037E000E8009ECF60E090E080E0F3CF80914F034F
:1037F0008111C0CF95CF80915103813A09F090CFCC
:103800008091550390915603892B09F089CF8091BF
:10381000E800877F8093E8008091E80080FFFCCF7C
:10382000809145018093F1008091E8008E77B9CFB7
:1038300080915103813209F073CF809155039091AB
:103840005603892B09F06CCF8091E800877F809325
:10385000E8000E94A40880915303809345010E94D0
:103860005D1B5ECF80915103813209F059CF809169
:10387000E800877F8093E8000E94A40880915403A9
:1038800080932B034DCF80915103813A09F048CFAB
:103890008091E800877F8093E8008091E80080FFB6
:1038A000FCCF80912B03BECF803899F0823809F08D
:1038B000D1C1809155038F70873008F0CBC18093C0
:1038C000E9008091EB0085FB882780F91092E900E0
:1038D00006C080914D0390914E03911182609091AA
:1038E000E800977F9093E8008093F1001092F10038
:1038F0008091E8008E77AAC1882309F498C18230AC
:1039000009F0A8C18091530381119BC18091550397
:103910008F702FEF280F263008F09CC18093E900AC
:103920002091EB0020FF8DC1933031F48091EB00AA
:1039300080628093EB0085C19091EB009061909341
:10394000EB0021E030E001C0220F8A95EAF72093D6
:10395000EA001092EA008091EB008860EACF8111C2
:1039600079C1109153031F778091E3008078812BF8
:103970008093E3008091E800877F8093E8000E94B5
:10398000A4088091E80080FFFCCF8091E30080686C
:103990008093E30082E0111183E080934F035AC1CA
:1039A0008058823008F056C120915303309154035F
:1039B0002C3DE3E03E07A1F583E08A838AE2898318
:1039C0004FB7F894DE01139620E03EE051E2E32F7A
:1039D000F0E050935700E49120FF03C0E295EF70B0
:1039E0003F5FEF708E2F90E0EA30C0F0C7968D9366
:1039F0009D932F5F243159F74FBF8091E800877F57
:103A00008093E8006AE270E0CE0101960E945009BE
:103A10008091E8008B778093E8001CC1C096E7CFC7
:103A20008091550390915603432F552743305105FC
:103A300009F44AC078F54130510509F485C08BE599
:103A400090E0EDE3F9E04230510509F003C1209127
:103A5000E800277F2093E800209157033091580316
:103A60008217930708F49C0140E02115310509F005
:103A700070C041116EC08091E80082FDC9CF809175
:103A80004F03882329F2853019F28091E80083FFE3
:103A9000F2CFBECF4132510509F447C04232510541
:103AA00009F0D8C08330910508F0D4C0FC01EE0FB6
:103AB000FF1FE155FE4F0190F081E02D84559E4F90
:103AC000DC018C9190E01DC0332721303105E9F0F5
:103AD0002115310579F022303105F9F02330310517
:103AE00009F0B8C0EAEAF9E0E4918E2F90E0EAEA42
:103AF000F9E007C0E4EFF9E0E4918E2F90E0E4EF05
:103B0000F9E0009709F4A6C0A2CFE6EDF9E0E49150
:103B10008E2F90E0E6EDF9E0F4CFE8ECF9E0E491E7
:103B20008E2F90E0E8ECF9E0ECCF8330910508F0BF
:103B300091C0880F991FFC01EB54FE4F0190F0815A
:103B4000E02D89E090E083CF82E190E0E8E9F9E0C0
:103B50007ECF80914F03882309F45ACF853009F432
:103B600057CF8091E80083FD53CF8091E80082FD1C
:103B700082CF8091E80080FF78CF9091F300809110
:103B8000F2002115310519F08830910550F041E01F
:103B9000089709F040E08091E8008E778093E80074
:103BA00064CF44914093F100319621503109019640
:103BB000E8CF803809F04EC08091E800877F80937D
:103BC000E800809150038093F10092CE811142C0B1
:103BD000109153031230F0F58091E800877F8093B5
:103BE000E800109350030E94A408112311F084E010
:103BF00005C08091E30087FDFACF81E080934F03F9
:103C000042E061EC81E00E94C30842E261EC84E0A2
:103C10000E94C30842E261EC82E00E94C30842E2D3
:103C200060EC83E00E94C30880914F0313C0809131
:103C30005303813079F481E0933009F080E0809380
:103C40004E031092E9008091E800877F8093E8009E
:103C50000E94A4088091E80083FF0AC08091E800D8
:103C6000877F8093E8008091EB0080628093EB0077
:103C7000AA96E3E00C9424341F920F920FB60F9291
:103C800011242F933F934F935F936F937F938F9361
:103C90009F93AF93BF93CF93DF93EF93FF93D09115
:103CA000E900DF708091EC00C82FC17080FDC0E892
:103CB0001092E9008091F000877F8093F000789463
:103CC0000E94731B1092E9008091F000886080933D
:103CD000F000CD2BCF70C093E900FF91EF91DF9101
:103CE000CF91BF91AF919F918F917F916F915F9194
:103CF0004F913F912F910F900FBE0F901F901895ED
:103D00000E945D1B2FEF84E39CE021508040904097
:103D1000E1F700C0000088E19AE00FB6F894A8959A
:103D2000809360000FBE90936000FFCF882341F026
:103D3000809590914D02892380934D020E94831AB1
:103D40000895882339F090914D02982B90934D025D
:103D50000E94831A0895882321F00E944E0D0E942C
:103D6000831A0895882339F090914E02982B9093EE
:103D70004E020E94831A0895882351F19CEF980FF8
:103D8000913A40F4682F8EEB91E00E94D1090E9495
:103D9000831A089590E2980F983050F4877091E05C
:103DA00001C0990F8A95EAF7892F0E944E0DEFCF37
:103DB0009BE5980F933028F490E080E00E94460A3B
:103DC0000895885A873120F490E080E00E94300AFC
:103DD0000895CF93C82F8823D9F18CEF8C0F813AA7
:103DE000C8F580914501882311F18091250387FF53
:103DF0001EC0EC2FE695E695E695F0E0E254FE4F06
:103E0000828190E04C2F477021E030E002C0220F09
:103E1000331F4A95E2F782239323892B91F06C2F6D
:103E20008EEB91E00E94D1090E94831A0AC0E0EC57
:103E3000F1E086EC91E02191C21789F38E179F077C
:103E4000D1F76C2F8EEB91E00E94FB090E94831A40
:103E5000CF91089580E28C0F883068F4C77021E01C
:103E600030E001C0220FCA95EAF780914E02822B02
:103E700080934E02EBCFEBE5EC0FE33040F4F0E043
:103E8000EF5AFE4F808190E00E94460AE1CFC85A67
:103E9000C731F0F6EC2FF0E0EE0FFF1FEC5AFE4FAB
:103EA000808191810E94300AD3CF1F93CF93DF93FB
:103EB000182FD0E0C0E0893311F4C0E5D0E0812FA5
:103EC0000E94E91E209739F4812F0E94BC1EDF91C9
:103ED000CF911F9108958FE99FE00197F1F700C0FE
:103EE00000002197EFCF0F931F93CF93DF93C62F3F
:103EF000D42F022FFC0182818823A9F060935B03F9
:103F00000E94271890935A0380935903C77081E049
:103F100001C0880FCA95EAF70E94B21EDF91CF91C7
:103F20001F910F91089580915B03681332C08091B7
:103F3000590390915A030E941818883C910548F53E
:103F400010E21D0FCD17B9F080E28C0F883040F4DD
:103F5000C77081E001C0880FCA95EAF70E94AB1EC6
:103F6000183048F481E09D2F977001C0880F9A9512
:103F7000EAF70E94B21E802F0E94551F183070F67B
:103F8000D77081E001C0880FDA95EAF70E94AB1E76
:103F9000C5CFC77081E001C0880FCA95EAF7F6CF98
:103FA000B0E0A0E0E6EDFFE10C940134EC018AE022
:103FB000A82E2881222309F48FC02130C9F59981C8
:103FC0008A81913021F422960E94551F05C09230BB
:103FD00029F422960E94E91E2196EBCF933021F41A
:103FE00022960E94BC1EF8CF943011F02196F4CF97
:103FF000229630E020E0AE014F5F5F4F8053990B77
:104000008A30910550F02150310930F38FE99FE05B
:104010000197F1F700C00000F6CFA29EB001A39E69
:10402000700D11249C01260F371F8981EA01E3CF0F
:10403000E22FF0E0E85DF54FB490822F86958695EB
:10404000869590E0FC01E85EF54FE4902770F12C36
:10405000022E02C0F594E7940A94E2F731E0E322DD
:10406000FF24FC01E85FF54FC490D12C022E02C062
:10407000D594C7940A94E2F731E0C322DD24FC0111
:10408000E850F64F049110E002C0159507952A9567
:10409000E2F701701127E114F10419F081EE0E949A
:1040A000E91EC114D10419F086EE0E94E91E8B2D81
:1040B0000E94551FC114D10419F086EE0E94BC1E47
:1040C000E114F10419F081EE0E94BC1E01151105E6
:1040D00009F482CF8CE278CFCDB7DEB7EAE00C945A
:1040E0001D349091260392FF10C098E0899F9001A3
:1040F0001124622B60932C020E944C1B0E942718F3
:1041000090932B0280932A0208950E944C1B0895DD
:10411000A7E1B0E0EEE8F0E20C9408344B8B5C8B46
:104120006D8B7E8B8F8B611110924D021A8A198ACA
:1041300085E0FE017396DE011D9601900D928A9531
:10414000E1F78091260382FF1CC00E94271820916E
:104150002A0230912B02821B930B8838934120F066
:1041600080912C0282FF79C00E94271820914F0273
:1041700030915002821B930B8838934110F00E94BB
:10418000430D86E0FE013D96DE01179601900D92EB
:104190008A95E1F7CE0107960E945028882359F0AE
:1041A00016E0809129029091F801891343C0679627
:1041B000E3E00C94243486E0FE013796DE0111968C
:1041C00001900D928A95E1F78A859B85892B41F3B1
:1041D0008F81988589238F3F19F32091F80130E072
:1041E000C90101968770992740912902481719063D
:1041F00071F40E945D1B1092F8011092290286E072
:10420000E2EFF1E0DF011D928A95E9F7C9CF96E070
:10421000929FD001939FB00D1124A750BE4FFE0175
:10422000319601900D929A95E1F78093F8010E94E2
:104230005C0DB6CF819FC001112487509E4F0E9414
:104240005028882309F4B3CF8091290290E0019689
:104250008770992780932902A4CF82E00E94141BC3
:1042600083CFA5E0B0E0E7E3F1E20C9407348C01E2
:104270009093110380931003011580E21807C0F496
:10428000802F0E94BC1EC8010E94E20D9801205E92
:1042900031092830310518F00115110531F40E945B
:1042A000AB1E2596E4E00C9423340E94961EF9CFB1
:1042B00080EF89838A831B820E9427188160782F70
:1042C0009D838C8349815A816B818D810E948820D6
:1042D000E8CFA5E0B0E0EFE6F1E20C9407348C0102
:1042E0009093110380931003011580E21807C0F426
:1042F000C8010E94E20D9801205E31092830310585
:1043000018F00115110549F40E94B21E802F0E9479
:10431000E91E2596E4E00C9423340E94A11EF6CFFA
:1043200080EF89838A8381E08B830E9427188160D4
:10433000782F9D838C8349815A816B818D810E9466
:104340008820E7CFA5E0B0E0E8EAF1E20C94FF3383
:104350006C01FC0183819481892B31F080819181F2
:1043600089238F3F09F07BC52596ECE00C941B3424
:104370000E947B13182F682F89819A810E949A0DC1
:1043800069817A81812F0E945E138C01F6018281FE
:10439000882309F459C5980122513F452031310540
:1043A00008F02BC58FEF93E00E9430378111A8C031
:1043B0005EEEF52EF00E07EA11E0F11036C019821C
:1043C0001A821B821C8299249A9478012FEFE21A98
:1043D000F20AC8010E94303789831A82882309F4BF
:1043E0008FC0813009F081C0580132E0A30EB11CAA
:1043F000C7010E943037E82E8A83882309F480C0E1
:10440000C5010E943037F82E8FEF8E0D8330D8F41F
:10441000580143E0A40EB11CFB82FF2021F0CE0125
:1044200001960E94D01F8501D0CF0115F4E01F072F
:1044300009F466C0C8010E943037811101C0FA94A6
:104440000F5F1F4FBACF8BEF8E0D833040F5C80141
:104450000396FB825C01FF2031F3580154E0A50E66
:10446000B11C0E9430378C838823E9F20B811C81B8
:1044700001308FEF180710F0102F002796E0E91693
:1044800051F0E7E0EE1619F0C8010E946921C80159
:104490000E943121C8CFC8010E946921C4CFF4E035
:1044A000EF12C1CF580124E0A20EB11CC80103963F
:1044B0000E943037FF2021F1882311F18150990BA0
:1044C000989E9001999E300D11244F2D4150550B0F
:1044D000CA01820F931F019708F4A5CFEFE9FFE00F
:1044E0003197F1F700C00000F6CFCE0101960E948F
:1044F000D01F570198CF81E00E944C1B0E94FB1AED
:1045000080912C02877009F42FCFF60182818823D5
:1045100009F42ACF8091260382FF26CF82E00E94F1
:10452000141B22CF81E00E94071BE8CF82E0E4CF7A
:10453000053FECE51E0709F461C008F45BC0063FC7
:104540002CE5120709F45EC0882309F499C410927F
:104550005B0303303DE5130708F05BC00A3F4CE501
:10456000140730F4C80182509C45449708F05CC0A1
:104570000E94FA1390932603809325030231ECE501
:104580001E0709F45CC108F0A8C009302CE5120729
:1045900009F42FC108F077C005304CE5140709F481
:1045A0001CC108F05EC003308CE5180709F40DC18A
:1045B00008F00FC18091250381600230ECE51E07F1
:1045C00009F488C0609125031091260384E090E0EF
:1045D0000E944437612F82E290E00E9444370E949B
:1045E0005D1B8ECF27E245EE65EE2AC426E241EE42
:1045F00060EE26C427E245EE64EE22C426E241EED8
:1046000062EE1EC427E245EE66EE1AC428E241E0DF
:10461000EBCF053A5DE5150709F4AACFE0F40136C2
:104620009DE5190709F4A4CF0631ECE51E0709F052
:1046300035C480914E028A7A91E009F490E090931B
:10464000DE0169E2811165E38EEB91E00E94FB09D6
:104650000E94831A55CFC8018D5A9D45039720F7B4
:1046600087CF8091250380620730FCE51F0791F119
:1046700080912503806108302CE5120758F1809164
:104680002503806427C00D303CE5130709F4BFC043
:1046900068F4809125038E7F0B305CE51507D1F01F
:1046A00008F4ADC0809125038D7F14C00F309CE5C8
:1046B000190709F4BCC008F4AEC00031FCE51F07BF
:1046C00009F4B9C0809125038F7B01312CE51207D5
:1046D00009F078CF8093250375CF0F3F3CE5130792
:1046E00009F4B7C0A8F50A3F5CE5150709F479C0DD
:1046F000C0F404319CE5190709F4B9C008F4A5C059
:104700000531FCE51F0709F05DCF8091250382FB91
:10471000992790F921E0922790FB82F990FB83F989
:10472000D9CF0C3F2CE5120709F479C008F45DC01D
:104730000D3F4CE5140709F476C080912603836091
:104740000E3F5CE5150709F03DCF809326033ACF75
:1047500001368DE5180709F495C090F40130EDE5B8
:104760001E0709F48DC008F478C060E002302DE522
:10477000120709F027CF8EE090E00E94443722CF45
:104780000D3A3DE51307E9F060F490912503892F78
:104790008E7F90FF8160053A5DE5150709F49ACF99
:1047A00011CF0E3A8DE5180771F10F3A9DE5190703
:1047B00009F008CF90912603892F877F93FF8860A7
:1047C000C4CF809126038860C0CF8091250382608A
:1047D00081CF8091250384607DCF809125038860FF
:1047E00079CF809126038160B0CF809126038260CB
:1047F000ACCF0E945D1B8091250380686BCF8091B8
:1048000025038C6067CF80912603877F9ECF8091A0
:1048100025038B7F5FCF80912503877F5BCF8091BE
:1048200026038E7F92CF809126038D7F8ECF80913D
:1048300025038F7E4FCF809125038F7D4BCF0E9424
:104840005D1B809125038F7745CF80912503837F62
:1048500041CF809126038C7F78CF80912603982FBB
:10486000909591708E7F892B90FB81F96ECF0E947D
:104870005D1B90912503892F97FB87F980582ACFDC
:1048800061E079CF90912503892F8F7E94FF80611D
:1048900021CF816080930B0361E086950E945918B7
:1048A0002FCE49E958E163EA78E10E94B30A28CEA5
:1048B00043EA58E169E978E1F8CF41EB54E167EA6E
:1048C00074E1F3CF4DE854E16AE974E1EECF4AE9CF
:1048D00054E16DE874E1E9CF43E754E160E874E145
:1048E000E4CF4BEB54E16DEC74E1DFCF4DEC54E1E0
:1048F0006BEB74E1DACF61E081E0D0CF65E082E07C
:104900000E94AE18FDCD6EE089E0FACF0E945D1BDB
:104910004FEF54E38CE0415050408040E1F700C03D
:1049200000000E94B4098091260382FB882780F949
:1049300091E089270E94301BF6018281008111815C
:10494000882309F445C0C8010E947B13F82E682F04
:10495000C8010E949A0DB8018F2D0E945E130E941B
:10496000C20B8C01882EF601E280B580B2943FE044
:10497000B32280912C028770C1F0AE2CEE20B1F0F2
:10498000812F807F803421F080E2800F883068F0B2
:104990008091260382FF09C082E00E94141B80914F
:1049A0002C028770AA24A3948111A12C912E929499
:1049B0002FE09222FBE0F91508F476C0E92DF0E033
:1049C000EC57F84C0C945E3481E0B4CF80E0B2CF69
:1049D000C8010E94660DF82EBECF212F2F70F22E37
:1049E000107F19F0F29490EFF922EE20B9F0FF2039
:1049F00069F080E2800F883010F0811009C080914A
:104A00004E02F82AF0924E020E94831A802F4AC06A
:104A100080914D02F82AF0924D02F6CF802F0E942D
:104A2000BC1EFF2009F440C0005E083010F0811069
:104A300004C08F2D0E944E0D06C0F09480914D024F
:104A4000F822F0924D020E94831A2EC0312F3F703F
:104A5000F32E107F103219F0F29480EFF8228820A4
:104A600089F041E0841609F491C0EE2009F49AC05F
:104A7000BB2009F467C0F601858180FFC7CF8F7026
:104A8000858360C08091260382FD35C0EE2069F1E8
:104A9000FF2039F080914E02F82AF0924E020E94D7
:104AA000831A80E00E94E91E292D2850330B243000
:104AB000310510F40E945B12AA2009F455CC8091B4
:104AC0002C0280FD51CCF601128285958595859545
:104AD0000E944C1BC6010E94A22180912C02859548
:104AE000859585950E94071B3FCC80E00E94BC1EE7
:104AF000FF20D1F29ECFEE2049F1B11004C0809189
:104B000051028F2920C051E0B51210C082FFCCCFD6
:104B100080915102F82AF81639F20E9427189093D2
:104B2000500280934F02F0925102BECF85E0B8123E
:104B3000E6CF0E94430D9091DF018F2D892B8913C1
:104B40008093DF018F2D0E94B21EAECFB11003C043
:104B50000E94430D12C091E0B91213C080914E0221
:104B60008F2109F4A1CF0E94430D9091DF018F2D79
:104B70008095892389138093DF018F2D0E94AB1EBE
:104B800093CFE5E0BE1609F48FCFE2CFEE2029F0F7
:104B9000F5E0FB1508F488CFD5CF24E02B1508F4F9
:104BA00083CFEBCFBB2049F3F9E38F1209C02FEF7E
:104BB00037EE43E0215030404040E1F700C00000B4
:104BC000802F0E94BC1E70CF812F869586958370A2
:104BD00061F0813009F068CFC8019370E11002C024
:104BE00090E080E00E94300A5FCFC8019370E1102E
:104BF00002C090E080E00E94460A56CF812F837069
:104C000089F5E11051CF402F429546954770440FEA
:104C1000440F802F8F70042E01C0880F0A94EAF78A
:104C2000202F207104FF07C02FE030E001C0220FC9
:104C30004A95EAF72095169516951370123069F08B
:104C400050F430915202113029F0822B83230E94BC
:104C5000581B2ACF832B822BFACF282B809152020C
:104C60008227F5CF8695EE2011F0812F8170882361
:104C700009F41ACF402F429546954770440F440FD0
:104C8000802F8F70042E01C0880F0A94EAF7202F1E
:104C9000207104FF07C02FE030E001C0220F4A95C9
:104CA000EAF72095169516951370123069F050F4B6
:104CB00030915C03113029F0822B83230E94F61A75
:104CC000F3CE832B822BFACF282B80915C03822793
:104CD000F5CF1F70EE2029F0812F0E944C1B802FF2
:104CE00032CF802F0E94AB1E812F0E94071BDCCE8B
:104CF000802F52EF8516B1F1581570F090EF89169C
:104D0000D1F0E1EF8E1691F0EE2009F466C0B110FB
:104D10007DCE812F8F712AC0F3EF8F1651F124EFD2
:104D20008212F2CF8091260382FD2FC0812F8F71D6
:104D3000EE20D9F21BC0EE2081F034E03B1508F4E0
:104D4000B3CE1F7181E090E0012E01C0880F0A945C
:104D5000EAF790915C038927B1CF45E04B1508F441
:104D6000A3CEEFCF812F8F71E110BFCF0E944C1BDC
:104D70009BCE80E0EE2009F4A1CF1F7181E0012ECF
:104D800001C0880F0A94EAF799CFEE20C9F080910C
:104D90002C028770843041F40E94550D812F8F7151
:104DA0000E94071BA12C80CE54E05B15D8F31F7125
:104DB000812F0E944C1B63E0812F0E947120F2CF53
:104DC00084E08B1530F40E94550D64E0812F8F71C3
:104DD000F4CF81E00E94141BE5CFBB2059F089334A
:104DE00009F0EECE9FEFE7EEF3E09150E040F040A7
:104DF000E1F7E4CE812F8F7178CF0031FFE51F07F7
:104E000009F479CB01312FE5120709F48FCB033F69
:104E10002CE5120709F4EACB08F08ACB083D4CE5F3
:104E2000140709F4DFCB093D5CE5150709F4EECB67
:104E3000073D9CE5190709F087CB26E241EE61EEBC
:104E4000C6010E94731F5CCB00313FE5130709F4D4
:104E500069CB01314FE51407D1F682E064CB85E0E0
:104E6000DE01119601900D928A95E1F7F6012281FB
:104E700089819A8121117CCA0E94660D182F80CAEF
:104E80000631FCE51F0741F58091DE0169E28111E1
:104E900065E38EEB91E00E94D109DACB0A352DE56E
:104EA000120709F491CD68F401154CE5140709F4D3
:104EB0002DCD0E3D1C4509F03FCD0E94F7140E94F8
:104EC000801E0C358DE5180709F42DCD08F47ECD34
:104ED000073A1D45A1F330CD80914E0282720B3C02
:104EE000FCE51F0709F4FDCC08F05AC0063C3CE580
:104EF000130709F4E2CCF0F5033C5CE5150709F46F
:104F0000D0CC48F5023CECE51E0709F015CD8091A8
:104F10000B0380FFBECC8E7F80930B0360910B034D
:104F200070910C0380910D0390910E030E94081460
:104F30000E94B90A8091D90281608093D902FFEF63
:104F400020E732E0F15020403040E1F700C000009F
:104F50000E942F10D5CA043CFCE51F0709F4A8CC19
:104F600047EA54E161EB74E1053C2CE5120709F4D2
:104F70009CCCE2CC083C3CE5130709F4A8CC08F42F
:104F8000A1CC093C5CE5150709F4A6CC40E854E146
:104F900063E774E10A3C9CE5190709F486CCCCCCA4
:104FA000003DECE51E0709F4AECCA0F40D3C2CE569
:104FB000120709F4A0CC08F499CC0E3C4CE5140778
:104FC00009F49CCC68E086E00F3C5CE5150709F429
:104FD00097CCB2CC063D8CE5180740F464E18FE035
:104FE000023D9CE5190708F48BCC8ACA0D351007E1
:104FF00009F486CAA1CC1F93CF93DF938091F70168
:10500000807F09F049C08091F401882309F444C0ED
:1050100080912902D091F8016091F2017091F30121
:10502000A091F501B091F601C62FC72316E0D8175D
:1050300099F190E0109711F0CF3F19F40196877025
:10504000F6CF189F9001199F300D1124F901E750F8
:10505000FE4F41814713F2CF40814613EFCF42818B
:105060004111ECCF438154814A1B5B0B483C5105F5
:1050700028F78091F7018F7080618093F701F90123
:10508000E250FE4F80818F708061808382EF91E0DB
:105090000E94A2210E945C0DDF91CF911F91089583
:1050A000A1E1B0E0E6E5F8E20C9401348C0185E082
:1050B000F801DE011D9601900D928A95E1F7F80145
:1050C000E28082EFA82E81E0B82E6091F501709108
:1050D000F6016115710509F426C19091F201409124
:1050E000F301892F84238F3F09F41DC12081318171
:1050F000C380D480F090F401F601E61BF70BFF208B
:1051000009F4DCC08091F701582F507FE83CF1058D
:1051100008F09FC051116BC0FE2C431314C09213B2
:1051200012C0E11010C08F7080618093F701C5013B
:105130000E94A2218091F701F80185838F2D61964D
:10514000EAE00C941D34C114D10429F0822F83238A
:105150008F3F09F003C180E0F82FF170DF2E80FF50
:105160003CC0809129024091F80156E0841315C09B
:105170002D873E878D859E850E94AA13292F229513
:105180002F702230F0F0243018F59F70F1F0F80104
:105190009581907FD1F4D12C1EC090E0589FF001F2
:1051A000599FF00D1124E750FE4F6181361306C060
:1051B0006081261303C06281E6120FC001968770DA
:1051C000D5CF9F7011F0882331F3805E883018F3BB
:1051D000C8010E94A221FD2CB1CFEE2009F4AECF70
:1051E0008091F70181608093F701F12CA7CF4313E1
:1051F00006C0921304C0F801EE2009F479C0C8017A
:105200000E94B713882309F1EE20F9F08091F7018D
:10521000803270F02091F2013091F30138872F83B2
:105220001986DB86CA868C87CE0107960E94A2214A
:1052300086E0F801A2EFB1E001900D928A95E1F7C6
:105240000E94FB27FF24F39479CFC8010E94A2217A
:10525000F9CF51110AC082EF91E00E94A22186E0AD
:10526000F50111928A95E9F7C0CF43130FC092134D
:105270000DC0E1100BC0F8018583C8010E94A22176
:1052800086E0F50111928A95E9F758CFC8010E948E
:10529000B7138823D1F2EE20C1F28091F70180325A
:1052A00038F22091F2013091F3013A8329831B8275
:1052B000DD82CC828E83CE010196B8CFE83CF10529
:1052C000F8F6FE2CEE2009F243131FC092131DC006
:1052D0008091F70180FD10C0982F907F69F0F80150
:1052E0008583903F31F0982F907F905F8F70892B4E
:1052F0008583C8010E94A22186E0F801A2EFB1E0F7
:1053000001900D928A95E1F719CFC8010E94B71359
:1053100081118ECF8091F70181608093F701C801E0
:105320000E94A2210BCFEE2009F48FCFC8010E946A
:10533000B713F82E882309F488CF86E0F801A2EF8E
:10534000B1E001900D928A95E1F78091F201909180
:10535000F3010E94AA130E94FB27F0CE81E08E2564
:10536000FBCE1F921FB61F9211248F939F93AF9372
:10537000BF9380912003811113C0809121039091EC
:105380002203A0912303B09124034196A11DB11DD6
:105390008093210390932203A0932303B0932403CB
:1053A000BF91AF919F918F911F901FBE1F90189535
:1053B000CDB7DEB7E6970FB6F894DEBF0FBECDBF10
:1053C00085B7806885BF85B7806885BF84B7877FCC
:1053D00084BF0FB6F894A89580916000886180938F
:1053E0006000109260000FBE80E890E00FB6F89465
:1053F00080936100909361000FBE86E69BE09093DE
:10540000BD018093BC010E942A080E94F50880918A
:10541000E20084608093E200789480914F038823B7
:10542000A1F01091E9001F709091EC00892F81701C
:1054300090FD80E8182B1092E9008091E80083FD30
:105440000E94731B1F701093E90082E084BD93E0FB
:1054500095BD9AEF97BD80936E00109285021092D1
:10546000860210928702109288020E94E113811135
:1054700002C00E941F130E9438128093280180915D
:105480002801882309F470C010923E0186E08093C1
:105490003F010E94381281110E94833280912801BD
:1054A0008091280194E0811190E09093920284E031
:1054B000891B8093910284E90E94680B86E60E9412
:1054C000680B87E90E94680B86EC0E94680B08E86D
:1054D00011E06EE8E62E61E0F62ED8018D918D0187
:1054E0008F3F11F00E94680BE016F106B1F788E0DB
:1054F000E9ECF2E0DF01282F1D922A95E9F7E9E8AF
:10550000F2E0DF011D928A95E9F70E940F178111E1
:1055100002C00E94F71482E090E00E94303780932E
:1055200096020E94FA1390932603809325030E940B
:10553000BE18EFE3FCE93197F1F700C000000E94CC
:10554000BE180E943812E4E08111E0E0F0E0E75379
:10555000FD4F808181FF0CC06FEF7FEF90E080E016
:105560000E9462370E94B40986E080933E018FCF8B
:1055700083E090E00E9430370E94581B809119030D
:105580008823B9F0198281E88A831FEF1B838091F9
:1055900029018F3F71F024E630E043E050E0BE0186
:1055A0006F5F7F4F88E70E94DD31892B11F41093E4
:1055B000290183E08093C20280E280935D030E9410
:1055C0003D316DE070E08EE891E00E944E0F892B36
:1055D000E9F58091C20263E070E081FDDEC08BE8F6
:1055E00091E00E944E0F892B89F56DE070E08BE70A
:1055F00091E00E944E0F892B49F50E94C509605821
:10560000774C8E4F9F4F60931403709315038093D4
:10561000160390931703E0E6F3E080E092E0DF01E9
:105620009C011D9221503040E1F7F0936705E09313
:1056300066058FEF9FEF90935F0380935E0381E099
:1056400080931903809318031092C30280919302F0
:10565000811138C00E940F17811104C00E94F714F5
:105660000E94DF1488E090E00E94383760930B03BB
:1056700070930C0380930D0390930E038091D902D5
:1056800083608093D9026E7F71F40E94DF1488E0FA
:1056900090E00E94383760930B0370930C03809363
:1056A0000D0390930E030E94C00A0E94B90A8091D4
:1056B0000B0380FF04C060E086950E94591881E0CA
:1056C000809393020E943812811102C00E94863298
:1056D0008AE291E090931D0380931C0351ED252EE7
:1056E00052E0352ECE0101967C0180914F0300E1FE
:1056F00012E1853009F48EC00E94BE1807E912E05D
:1057000049EC442E42E0542ED201F80191918D9142
:1057100022E0EF39F20709F487C09817B9F30E9425
:105720003812682E39ECC32E32E0D32EB12CD601BC
:10573000AD906D01F80171908F017A1429F17A24EE
:10574000912C88248394872D8821B1F06620A1F0C4
:105750009EA6BFA691E08A2D882109F490E098AB1F
:105760000E9427188160782F9AAB89AB4EA55FA560
:1057700068A98AA90E9488209394880CF6E09F1259
:10578000E2CFF8013197A082B39428E0B212CFCFD4
:105790000E94C509BB24B39468C088E891E021CF7A
:1057A00080914F03843041F10E94780F0E94780F5E
:1057B00010922003A8E1B0E0E0E40FB6F894A895B9
:1057C000A09360000FBEE093600083B7817F846088
:1057D00083BF83B7816083BF7894889583B78E7FBA
:1057E00083BF0FB6F894A89580916000886180937C
:1057F0006000109260000FBE80914E03882351F02C
:105800000E94BE18E9ECF2E08191811117C52E16B5
:105810003F06D1F780914F03853009F4C1CF0E9434
:105820005D1B0E945B1268CF981379CF0E942718E6
:105830008C01809194029091950208171907A1F0AC
:105840008FEF89A78AA71BA60E9427188160782F4F
:105850009DA78CA749A55AA56BA58DA50E94882058
:105860001093950200939402B12C0E9438128091FB
:10587000D802882309F464C08091D702E0910B0319
:10588000E695E81BE093D302823009F0D5C0F0E042
:10589000EC55FE4FE4910E2F10E029ED822E21E110
:1058A000922E8091D402882361F01092D4020E943B
:1058B00033189093D2028093D1021092D6021092A4
:1058C000D5020E943318E091D102F091D2029C01DE
:1058D0002E1B3F0B2F3F3F4798F52091A10222231B
:1058E000B1F01092A10220919F023091A002821B80
:1058F000930B8F3F9F4758F4205D3A483093A002A6
:1059000020939F028091D90288608093D902C09031
:10591000D502D090D602E00FF11FF093D202E093AF
:10592000D10281ED92E0F40109958091D502909128
:10593000D602892B29F4CD2819F081E08093A102A9
:1059400080911903882351F18091C4029091C5027E
:105950000E941818C29708F0A8C020915E033091E9
:105960005F032115310509F025C1809118038823B3
:10597000A9F00E94C509009114031091150320910C
:10598000160330911703601B710B820B930B6F3F53
:105990007F4F8F4F9F4710F40E94780FB1100E94E5
:1059A000930F0E945B129091C602891721F0809399
:1059B000C6020E94C50980914F03843009F095CE3C
:1059C00083E08093E9008091E80082FF8ECE809191
:1059D000E80090E085FF0CC00E94490830E2C32E29
:1059E000D12C8E010F5F1F4F882309F4BFC191E0B6
:1059F0008091E8008B778093E800992309F475CEB5
:105A0000009112031091130389810115110509F406
:105A1000BBC18E3F09F040C28A81833020F085509F
:105A2000833008F039C2EA81EE3008F035C2F0E088
:105A3000E057F84C0C945E34863059F4F0E0EF55A2
:105A4000FE4FE4910E2F10E099EC892E91E1992EF2
:105A500028CF893061F4E695F0E0E256FE4FE491FC
:105A60000E2F10E08FE5882E81E1982E1ACF8F300F
:105A700061F4E695F0E0E556FE4FE4910E2F10E05C
:105A8000BFEC8B2EB0E19B2E0CCF04EF11E0A3E90D
:105A90008A2EA0E19A2E853109F403CF00ED17E09C
:105AA000FFEA8F2EF9E09F2EFCCE0E9427189093DC
:105AB000C5028093C40260E080E00E949C0A0E94BC
:105AC0003812882309F46BC080915C030E94D10DC9
:105AD000813009F455C0882399F0823009F453C00D
