:100000000C944F040C946C040C946C040C94E83322
:100010000C946C040C946C040C946C040C946C04A0
:100020000C946C040C946C040C94E52A0C94A12A96
:100030000C94E22B0C946C040C946C040C946C04E3
:100040000C946C040C946C040C946C040C946C0470
:100050000C946C040C94BE2B0C946C040C946C04E7
:100060000C946C040C946C040C946C040C946C0450
:100070000C946C040C946C040C946C040C946C0440
:100080000C946C040C946C040C946C040C946C0430
:100090000C946C040C946C040C946C040C946C0420
:1000A0000C946C040C946C040C946C04050109020F
:1000B000A10185020901A100050919012905150001
:1000C00025019505750181029501750381010501E1
:1000D000093009311581257F950275088106093897
:1000E0001581257F950175088106050C0A380215D2
:1000F00081257F950175088106C0C005010980A191
:1001000001850319012AB700150126B7009501756D
:10011000108100C0050C0901A101850419012AA064
:1001200002150126A002950175108100C005010984
:1001300006A1018506050719E029E71500250195A7
:1001400008750181020507190029EF1500250195A1
:10015000F0750181020508190129059505750191C0
:1001600002950175039101C00660FF0961A10109B3
:1001700062150026FF0095207508810209631500AD
:1001800026FF00952075089102C005010906A1010E
:10019000050719E029E71500250195087501810279
:1001A0009501750881010507190029FF150026FF33
:1001B0000095067508810005081901290595057542
:1001C000019102950175039101C0643214643214E7
:1001D000783C1E1E140A05FD377A585A000004E6C2
:1001E000D6B4460200210116000000742FE5A3E0FA
:1001F00004BC019A5D003D8889C65436C3174FE49C
:10020000DCCBB3DF6320E7D71739D83D5F52C90B8A
:10021000ECB7E6D5195224B0736759B3E0B456C7AA
:100220004788C96520CF4A3C940C015E29865C8EC4
:1002300045BDB36475555AE53895D3A636E143F00C
:10024000E57DA54EF2FAD0F9A7BD92DC4E3A08A59D
:100250006C0077122D63D505D4F8BF27002D6204FA
:1002600078AFC46D165D53B98CEBB897D3EA25957A
:100270006C9790B1939EB07E49F9F66A4A6BE3E1C0
:10028000CC609804629488A6E994233A3F94FA8457
:100290004C3EBBC3F4401373DCAD12FF0DF40B1ADC
:1002A0003AD11E067F95C715906C4321474D7FC4F8
:1002B0004D2DBC1E3FA0D011F7E9DECF27B956184F
:1002C00040E0039BE8BC9D5FF03849C8E6ED021FA3
:1002D000775CE6D7B694F9BEFF57245C0FB32105CF
:1002E000617FA436262923163BCF24376F405F93C6
:1002F000EC9AFF7E02EC95D80FAC61C923D4A1BB68
:1003000096DEAD54788FA8C9BA3BF04581A33BD4A3
:10031000F205C154C1E0BDAE7CE5435266F238C07F
:1003200082C84EDB3680B777ED21FE0B89CA06C541
:100330003333A09BD46831DFA0443474E63984673A
:10034000CA51153E5DA2C705B6339A43A25D8A36EF
:1003500065C8EF49DC962875915A9A89D8A0D33898
:10036000A94828800471FAC17490986F1BA0A21349
:100370007EAEA34D6E1CF86F98E0326958495C4D13
:100380001F78889B680CFF078F036F14E8900A00A2
:10039000000000A84018E9436651A00001B603BD63
:1003A000090000ADF3AFA8B1C467FB020000000074
:1003B00004595A0001010101010101010102020277
:1003C0000202020202020303030303030303040401
:1003D00004040404040505050505060606060607CB
:1003E0000707070708080808090909090A0A0A0B84
:1003F0000B0B0C0C0C0D0D0D0E0E0E0F0F0F101025
:1004000011111112121313141415151616171718AB
:100410001819191A1A1B1B1C1D1D1E1E1F20202116
:100420002222232424252626272829292A2B2C2D5D
:100430002D2E2F30313232333435363738393A3B7E
:100440003C3D3E3F404142434445464748494A4C73
:100450004D4E4F50515354555658595A5B5D5E5F3F
:10046000616264656668696B6C6D6F7072737577D5
:10047000787A7B7D7E8082838587888A8C8E8F9137
:10048000939596989A9C9EA0A2A3A5A7A9ABADAF61
:10049000B1B3B5B7BABCBEC0C2C4C6C9CBCDCFD14B
:1004A000D4D6D8DBDDDFE2E4E7E9EBEEF0F3F5F8F4
:1004B000FAFDFF2223252628292A2C2D2F3032331E
:1004C0003536383A3B3D3E4042434547494A4C4E1B
:1004D0005051535557595A5C5E6062646668696B47
:1004E0006D6F71737577797B7D7F81838587898A4D
:1004F0008C8E90929496989A9C9E9FA1A3A5A7A853
:10050000AAACAEAFB1B3B4B6B8B9BBBCBEBFC1C282
:10051000C3C5C6C7C9CACBCCCDCED0D1D2D2D3D415
:10052000D5D6D7D7D8D9D9DADADBDBDBDCDCDCDC33
:10053000DCDDDDDDDDDCDCDCDCDCDBDBDBDADAD901
:10054000D9D8D7D7D6D5D4D3D2D2D1D0CECDCCCB83
:10055000CAC9C7C6C5C3C2C1BFBEBCBBB9B8B6B4A1
:10056000B3B1AFAEACAAA8A7A5A3A19F9E9C9A9831
:10057000969492908E8C8A89878583817F7D7B7902
:10058000777573716F6D6B6968666462605E5C5AE3
:100590005957555351504E4C4A4947454342403EA6
:1005A0003D3B3A3836353332302F2D2C2A29282638
:1005B0002523222B0014001A00080015001700E064
:1005C0000004001600070009000A00E1001D001BDE
:1005D00000060019000500000000000000E3001004
:1005E0005F2C002A00130012000C0018001C0034BD
:1005F0000033000F000E000D000B002900380037FB
:1006000000360010001100000000000000E600119C
:100610005F28002B001E001F00200021002200E0A8
:100620000000000000000000000000E100000000E9
:1006300000000000000000000000000000E30001D6
:10064000002C002A0027002600250024002300009B
:100650000000004F00520051005000000000000058
:1006600000000000000000000000000000E60001A3
:100670000028002B001E021F02200221022202E09D
:100680000000000000000000000000E10000000089
:1006900000000000000000000000000000E3000176
:1006A000002C002A002702260225022402230235FC
:1006B00000310030002F002E002D003502310230B5
:1006C000022F022E022D02000000000000E60001B1
:1006D000002800005C00000000000000000000C2D4
:1006E0005CC55CC75CC95C00000000C35CC65CC83C
:1006F0005CCA5C00000000000000000000E3000194
:10070000002C0000000000000000000000000000BD
:1007100000000000000000000000000000000000D9
:1007200000000000000000000000000000E60001E2
:1007300000280009025B00030100A0FA0904000080
:1007400001030101000921110100012240000705F8
:1007500081030800010904010002030000000921CF
:100760001101000122220007058203200001070574
:100770000303200001090402000103000000092115
:100780001101000122BC00070584032000011201B1
:1007900000020000000853460100010001020301AD
:1007A0001C037600690061006C003A0066003600A8
:1007B00034006300320062003300630000000C0369
:1007C00043006F0072006E00650000001C035300C0
:1007D00070006C00690074007400650064005300D0
:1007E000700061006300650000000403090400005C
:1007F00000000000000000000000000000000000F9
:1008000000000000000000000000000000000000E8
:1008100000007E0F00D4FFFFFFC70000007800003B
:100820000000000000002A2B28000000000000004B
:1008300000000000000000000029000000002C1E45
:100840003420212224342627252E362D3738271E02
:100850001F202122232425263333362E37381F0428
:1008600005060708090A0B0C0D0E0F1011121314C0
:1008700015161718191A1B1C1D2F3130232D35047E
:1008800005060708090A0B0C0D0E0F1011121314A0
:1008900015161718191A1B1C1D2F3130354C112431
:1008A0001FBECFEFDAE0DEBFCDBF11E0A0E0B1E0C8
:1008B000E6E8FCE602C005900D92A23AB107D9F72E
:1008C00024E0A2EAB1E001C01D92A13BB207E1F72A
:1008D0000E94092C0C941D360C940000FC01AC0104
:1008E0004C5F5F4F8FEF91E32191822728E030E04A
:1008F00087FF09C0880F892721503109C9F7E417FC
:10090000F50791F70895880FF7CFE8EDF0E08081C3
:100910008E7F80831092E2001092DA001092E10044
:10092000A0EEB0E08C9181608C9380818F77808382
:1009300019BCA7EDB0E08C918E7F8C9380818F7E67
:1009400080831092810408952091E4003091E500A5
:1009500095E6A9012091EC00822F817020FF06C04E
:100960008091E80080FF06C080E008952091E800B3
:1009700022FD1AC08091A604882389F0853089F071
:100980008091EB0085FD0FC02091E4003091E500DF
:1009900042175307F9F29150E1F684E0089582E09E
:1009A000089583E0089581E00895EF92FF920F93F8
:1009B0001F93CF937C018B010E94A404C82F811147
:1009C00017C08091E80085FD0BC08091E8008E770C
:1009D0008093E8000E94A404882399F3C82F08C0DC
:1009E000F70181917F018093F1000150110949F7CE
:1009F0008C2FCF911F910F91FF90EF9008958091D0
:100A0000A80487FF13C08091E80082FF06C0809190
:100A1000E8008B778093E80004C08091A6048111E0
:100A2000F2CF08958091A6048823D9F38091E8003D
:100A300080FFF8CF8091E8008E77ECCF982F9093CD
:100A4000E900242F762F50E0891731F07091EC00E7
:100A50002091ED005091F00021FD07C09F5F97307D
:100A600071F78093E90081E008953091EB003E7FBB
:100A70003093EB003091ED003D7F3093ED003091ED
:100A8000EB0031603093EB007093EC002093ED00AD
:100A90005093F0002091EE0027FDE0CF80E0089514
:100AA000B0E0A0E0E6E5F5E00C940E35C8EDD0E04E
:100AB00088818F7E8883E7EDF0E08081816080838C
:100AC00084E082BF81E08093810488818E7F888367
:100AD00002EE10E0F80110821092DA0081EEC82ECA
:100AE000D12CF601108288818F7788838881806875
:100AF000888388818F7D888319BC1092A604109208
:100B0000A7041092A5041092A40490EEE92EF12CF3
:100B1000F70180818B7F808388818160888342E0B8
:100B200060E080E00E941E05F60180818E7F808358
:100B3000F801808181608083808188608083F701F3
:100B400080818E7F8083888180618883CDB7DEB786
:100B5000E8E00C942A35FC018091AE049091AF043A
:100B600086179707A0F06115710529F49091E800A8
:100B70009E779093E80090E06115710551F4911112
:100B800008C08091E80082FF34C080E00895BC0175
:100B9000F2CF8091A6048823C1F18530C1F1809104
:100BA000E80083FD30C08091E80082FDEACF8091AB
:100BB000E80080FFE1CF8091F3002091F200382F10
:100BC0006115710519F02830310558F091E0283091
:100BD000310509F090E02091E8002E772093E8009D
:100BE000CBCF81918093F100615071092F5F3F4F0E
:100BF000E7CF8091A604882341F0853041F08091B1
:100C0000E80083FFBECF81E0089582E0089583E08D
:100C10000895089580918304089587E797E7909356
:100C200001088093000888E19AE00FB6F894A8952F
:100C3000809360000FBE90936000FFCF9C014FB780
:100C4000F8948091780490917904A0917A04B091FD
:100C50007B044FBF821B930B08952FB7F8946091CC
:100C600078047091790480917A0490917B042FBF6D
:100C700008952FB7F8948091780490917904A09109
:100C80007A04B0917B042FBF08952091360122236E
:100C9000C9F020917C0427FF15C0E62FE695E69564
:100CA000E695EE31D8F4E80FF92FF11D677021E0D9
:100CB00030E001C0220F6A95EAF72095828128234F
:100CC00022830895FC01329608962191621303C095
:100CD000DF0111971C92E817F907B9F708952091E1
:100CE00036012223C1F020917C0427FF14C0E62F97
:100CF000E695E695E695EE31F8F4E80FF92FF11D4B
:100D0000677021E030E001C0220F6A95EAF7828126
:100D1000822B82830895FC0132962FEF30E04191BF
:100D2000641751F02F3F19F4411101C0232F3F5F89
:100D30003630A9F72F3F09F40895820F911D27FD42
:100D40009A95FC0162830895209175043091760490
:100D50002817390771F09093760480937504E09119
:100D60007304F0917404309721F00084F185E02D34
:100D7000099508952091710430917204281739075C
:100D800071F09093720480937104E0917304F09178
:100D90007404309721F00680F781E02D09950895BD
:100DA000452B39F0682381E06F3F09F080E08170C6
:100DB000089581E0FCCFDC016091660480916704B6
:100DC000962F891301C00895292F30E0F901EE0F05
:100DD000FF1FE25AFB4F408151814A175B07A1F484
:100DE00087E08A9FA0018B9F500D11244A5D5B4FC5
:100DF00081E0FA0184839613E6CF2F5F3F4F237083
:100E000033272093660408952F5F3F4F922F9370EE
:100E1000D8CF1092C3031092C203E6E2F4E08581BA
:100E2000811102C014821682379684E0EE35F807ED
:100E3000B1F70895EEEFF2E090E080E069EE76E23F
:100E400040E157E227E536E27783668351874087A2
:100E5000338722879587848701963E96883091054F
:100E600099F7089581152CE5920741F420913301FB
:100E700030913401232B11F490E080E00895FA01C1
:100E8000811101C0FB01099508950895E3EBF2E09B
:100E9000118282818460828308958091E702982F75
:100EA0009E7F29F4817082608093E70208958C32DE
:100EB000E8F381708A62F8CFAF92BF92DF92EF922F
:100EC000FF920F931F93CF93DF93082F162FE90103
:100ED000E42FF0E0ED54FC4F611111C0E4915E2F5E
:100EE0004E2F4983E8835A831B82DF91CF911F9154
:100EF0000F91FF90EF90DF90BF90AF900895E62E96
:100F0000F12C4491D42EE42FF0E026E0829FC00122
:100F100011242FEF30E0B9010E944935802F90E075
:100F2000880F991F55E5569FD001579FB00D11248A
:100F30008A1B9B0B982F990F890F5901AE18BF0878
:100F4000AE9ED001AF9EB00DBE9EB00D11245B2FA2
:100F5000189F80011124012F11275901A01AB10AED
:100F6000AE9E8001AF9E100DBE9E100D1124590142
:100F7000A81AB108AE9CC001AF9C900DBE9C900D0C
:100F80001124892F9927281B390B2E9FC0012F9FD1
:100F9000900D3E9F900D1124E92F62307105A1F054
:100FA00050F46115710509F49CCF6130710581F031
:100FB000EB2F512F96CF6430710569F080F06630C9
:100FC000710509F48ECFF4CFE42F4B2F592F89CF21
:100FD000E42F412F86CFEB2F542F492F82CF4B2F59
:100FE0005D2DE12F7ECF0E9439069C019091A902D0
:100FF0008091AA02982B21F03093A6022093A5029B
:101000009091AB028091AC02982B21F03093A40216
:101010002093A302E0917304F0917404309749F097
:1010200082E08093A7020480F581E02D87EA92E0B8
:10103000099508959091A902803F59F48091AA02E0
:1010400087FF0DC01092AA0291110BC01092A1024D
:1010500008C0813F81F48091AA0218169CF399235D
:1010600081F08091AB029091AC02892B09F064C0B1
:101070001092A0020895823F49F497FFF0CF10929A
:10108000A9028091AA028111ECCFE0CF833F19F42D
:101090001916ACF3E4CF2091AB02893F29F4121664
:1010A000F4F61092AB02DBCF8A3F19F427FFD7CFBB
:1010B000F8CF2091AC028B3F29F427FFD0CF1092BC
:1010C000AC02CDCF8C3F19F41216CCF3C8CF843FBD
:1010D00031F48091A8028E7F8093A802C0CF853F13
:1010E00021F48091A8028D7FF7CF863F21F4809173
:1010F000A8028B7FF1CF873F21F48091A802877FE0
:10110000EBCF883F21F48091A8028F7EE5CF8D3F01
:1011100031F48091A2028E7F8093A202A0CF8E3FF5
:1011200021F48091A2028D7FF7CF8F3F09F097CFF6
:101130008091A2028B7FF0CF08958091A20280FD62
:1011400016C081FD16C082FD16C08091A0028823C2
:10115000A1F0883280F428E0829FC001112468E267
:1011600070E00E945D35862F672B39F0089582E08C
:10117000089584E0089588E0089581E008958091BD
:10118000A20280FD14C081FD14C082FD16C08091B2
:10119000A102882381F08E3180F420E5829FC00176
:1011A00011246EE170E00E945D35862F089584E180
:1011B000089588E2089588E0089580E50895803FC5
:1011C00031F40E94BF0881958093AA020895813F5F
:1011D00019F40E94BF08F8CF823F31F40E94BF0883
:1011E00081958093A9020895833F19F40E94BF0856
:1011F000F8CF893F29F40E949D088093AB0208959F
:101200008A3F21F40E949D088195F7CF8B3F31F4EE
:101210000E949D0881958093AC0208958C3F19F43B
:101220000E949D08F8CF843F31F48091A80281602C
:101230008093A8020895853F21F48091A8028260DE
:10124000F7CF863F21F48091A8028460F1CF873FD9
:1012500021F48091A8028860EBCF883F21F480912F
:10126000A8028061E5CF8D3F31F48091A2028160B8
:101270008093A20208958E3F21F48091A2028260A1
:10128000F7CF8F3FB9F78091A2028460F1CF80E061
:101290000895F894E82FE295EF70F0E031A1282F3F
:1012A0002F7081E090E001C0880F2A95EAF7982F0F
:1012B0009095932391A392A1892B82A3789408956A
:1012C00090917C0492FF06C0282F28712830F9F4F1
:1012D000877F846093FF06C0282F28712831F1F49E
:1012E000877E846120917D0420FF06C0382F3871ED
:1012F0003830D9F4877F816021FF06C0282F2871FC
:101300002831D1F4877E816194FD877E0895282F4E
:1013100024712430F9F68B7F8860DCCF282F24716C
:10132000243101F78B7E8861DDCF382F3171313068
:1013300019F78E7F8860E0CF282F2171213121F7A6
:101340008E7E8861E1CFCF93DF93EC0182389105E7
:10135000B1F108F040C08133910509F49DC048F512
:101360008932910509F48DC08A9709F49CC0C11592
:1013700021E5D20708F0C3C0C11530E5D30708F056
:101380001EC1C83ED10508F0A3C0C03ED10588F5F6
:10139000C83AD10508F08EC0C53AD10508F007C19A
:1013A000C130D10531F1209721F1C430D10508F5C4
:1013B00045C08533910509F45FC0C997C1F6809196
:1013C0007C04837009F044C180917D0483FF11C0C7
:1013D000C9E2D0E00EC0833E910599F170F4803EE1
:1013E000910501F1823E910511F680917C0482FD08
:1013F00021C0CE01DF91CF910895863E910561F124
:10140000873E910571F1843E910509F0B0CF80913E
:101410007D0481FFEECF80917C04C7EED0E084FD97
:101420000DC0E7CF80917C0480FD33C090917D0496
:1014300090FFDFCFC3EED0E084FFDBCFD0E0C0E091
:10144000D8CF80917C0482FD00C190917D0490FDF5
:10145000FFC084FFCECFF2CF80917C0483FDDDCF2F
:10146000C8CF80917C0483FDF6C090917D0491FFEC
:10147000F0CFC4EED0E0BDCF80917C0485FFB9CF22
:10148000A7CF80917C0485FDE9C080917D0483FF16
:10149000B0CFC9E3D0E0ADCF80917C0486FFA9CF67
:1014A000CAE2D0E0A6CF80917C0486FFA2CFC1E340
:1014B000D0E09FCFCF3BD10508F6C85AD0E0CC0F83
:1014C000DD1FCE5BDE4F0990D881C02DD46491CF53
:1014D000C11540E2D40758F4C11581E0D80708F0DF
:1014E00088CFC03FD10508F4A9CFD06582CFC11500
:1014F00020E4D20708F4A2CFDF70D06A7ACFC115FA
:1015000035E5D30718F5C11544E5D40708F085C0C3
:10151000C11583E5D80708F06CC0C11522E5D207D4
:1015200008F462C0CE018370992721E030E002C048
:10153000220F331F8A95E2F7C695C69580E2C89FB1
:10154000E0011124C22BD32BDC6853CFC11539E540
:10155000D307A8F4C11548E5D40708F063C0C11546
:1015600086E5D80708F06ACF8C2F0E946009C82F43
:10157000D0E0DC2FCC27CC27DF71D0623ACFC11569
:101580002AE5D20708F453C0CE0190568115904247
:1015900008F054CF8D2F8F710E94600990E0982F32
:1015A000882788279F719C012C2BE901E6CFC55A1B
:1015B000D0E0C15CDE4FC881D0E0D0641ACF2C2FC0
:1015C00026952695237040E2249F900111248C2FAC
:1015D0008370C1E0D0E002C0CC0FDD1F8A95E2F736
:1015E000C22BD32BDD6805CFDC2FCC27C16FD06A8F
:1015F00000CFCE018370992721E030E002C0220F96
:10160000331F8A95E2F7C695C69540E2C49FE00174
:101610001124C22BD32BDA68ECCEDC2FCC27C46F7D
:10162000D06AE7CEDC2FCC27C06FD06AE2CE8C2FF9
:101630008F700E94600934E0D695C7953A95E1F71E
:10164000CF709C2FEC01D069D4CEC2EED0E0D1CEC9
:10165000C0EED0E0CECEC6EED0E0CBCEC5E3D0E03B
:10166000C8CE80914702882331F010924702109231
:101670004602109245020895809590916D0498233A
:1016800090936D040895809590916E0498239093A3
:101690006E040895109224021092230210922202E6
:1016A0000895809121029091E001981301C008955E
:1016B0008F5F8770FACF292F983078F5863068F5DC
:1016C00090E036E0239F800D911D1124682F6770F4
:1016D00023E0969587952A95E1F7FC01EE0FFF1F11
:1016E000E80FF91FEA53FE4F50E040E080E02191FF
:1016F00030E0062E02C0369527950A94E2F7217055
:101700003327042E01C0220F0A94EAF7822B4F5F81
:101710005F4F4330510559F7089580E00895292F10
:10172000983098F5863088F590E036E0239F800D5C
:10173000911D1124282F277041E001C0440F2A95E4
:10174000EAF723E0969587952A95E1F7FC01EE0FDD
:10175000FF1FE80FF91FEA53FE4F30E020E070E072
:101760005191DF011197CB01022E02C0969587950A
:101770000A94E2F7817081958527842385278C93CD
:101780002F5F3F4F2330310559F708959C013A955B
:1017900021153F4150F5FC01EE27F170BC01662791
:1017A0007270AC01442754709C012227387094FF5A
:1017B0000EC080E1EF2B09F480E0672B09F0806216
:1017C000452B09F08064232B89F08068089581E01F
:1017D000EF2B09F480E0672B09F08260452B09F0BC
:1017E0008460232B19F08860089580E00895809329
:1017F0007E047093800460937F048091A6048430FB
:10180000F9F48093E9008FEF9091E800815095FD05
:1018100006C095ED9A95F1F700008111F5CF809102
:10182000E80085FF0DC050E040E063E070E08EE727
:1018300094E00E94D5048091E8008E778093E800C0
:101840000895BC0184E00E94F70B0895BC0183E079
:101850000E94F70B08959C0184E08093E9009FEFBC
:101860008091E800915085FD06C085ED8A95F1F7DD
:1018700000009111F5CF8091E80085FF0CC050E089
:1018800040E066E070E0C9010E94D5048091E80064
:101890008E778093E8000895CF93DF93EC018091D9
:1018A00036018823B1F180917C0487FF32C060E269
:1018B00084E08093E9008FEF9091E800815095FDDE
:1018C00006C095ED9A95F1F700008111F5CF809152
:1018D000E80085FF1BC08091360170E050E040E0D9
:1018E000811104C050E040E068E070E0CE010E9449
:1018F000D5048091E8008E778093E80080E2FE01B5
:10190000A4E8B4E001900D928A95E1F7DF91CF91C0
:10191000089568E081E0CDCF70912F018091E702BA
:1019200080FF24C080912E0124E0829FC0011124F9
:1019300089549D4FFC0130E037132BC0539A4BB1B3
:10194000477F5BB158606FB7F89474E0379F9001A0
:101950001124280F391F2817390779F56FBF8FE534
:1019600094E00197F1F700C00000089580913001E4
:101970009091310124E0829FF0011124E954FD4F40
:10198000891780F611821082128213828F5F34963B
:10199000F7CF428150816181242F541708F4252FFD
:1019A000621708F4262F2383621B6183521B508326
:1019B000421B42833F5F3496BFCFFC017191CF0140
:1019C000E8E05BB9000000C077FF4BB9770F00007B
:1019D00000C000C000C04BB900C0EA9591F7BBCF72
:1019E0000F931F93CF93DF93EC0110E000E09091F1
:1019F00032019017110609F06CF40E948C0C8C8156
:101A000090E00196817099278C83DF91CF911F918F
:101A10000F91089520913001200F312F311D220F99
:101A2000331F220F331F29543D4F4C816091E9022F
:101A30008091E80296959017110651F04CF04423DE
:101A400049F04091EA020E945C070F5F1F4FCFCF21
:101A50004423B9F340E0F7CFB0E0A0E0E2E3FDE0DB
:101A60000C940A358C01FC018281BB24BA9480FD60
:101A700002C0BB24B394A0903201F801848181118B
:101A80000AC0F1E0BF1222C08FEF8A0D8093B60228
:101A900081E0F8018483F12CE12C3CE0932EEA14E0
:101AA000C0F00E948C0C8091B60291E0B91258C02F
:101AB000811150C08091320181508093B602F801AB
:101AC0001482CDB7DEB7ECE00C9426351092B60246
:101AD000DFCFC0913001CE0DDF2DD11DCC0FDD1F2A
:101AE000CC0FDD1FC954DD4F198218821A821B8268
:101AF00024E0C22ED12C812C8091B602880D8D302D
:101B00002CF1692D0E943B35892F082E000C990B72
:101B10008E159F0591F48091EA028C9DA0018D9D08
:101B2000500D112455954795559547959E01609107
:101B3000E9028091E8020E945C078B0CF1E0CF1A69
:101B4000D108D1F68FEFE81AF80AA9CF87FFDDCFC9
:101B50008A0DDBCF81508093B602F801B482B1CFF9
:101B600090E001966091320170E00E945D358093B3
:101B7000B602F8018483A5CFFF920F931F93CF93F2
:101B8000DF93EC01F12C0FEF10E060913201F616BB
:101B900068F00E948C0C9A818C8190FF23C08F5F2B
:101BA0008C83CDB7DEB7E5E00C942D352091300164
:101BB0002F0D3327331F220F331F220F331F2954BA
:101BC0003D4F70E0C8010E945D35962F8C81409199
:101BD000EA026091E902F99E800D11240E945C07DF
:101BE000F394D3CF8150DCCF9091E70290FF0EC0E9
:101BF000909130012091310134E0939FF001112444
:101C0000E954FD4F921718F00E948C0C08958183BF
:101C10006083428313829F5F3496F4CFA4E0B0E0E8
:101C2000E4E1FEE00C9414359091E70290FF0AC0C5
:101C30009E012F5F3F4F0E945C074B8169818A8123
:101C40000E94F40D2496E2E00C943035CF93DF939C
:101C5000EC01E7EEF2E0438162818C810E940E0E7E
:101C60008C818F5F8C83DF91CF910895CF93DF9329
:101C7000EC01EC81F0E0ED54FB4F4491E7EEF2E033
:101C8000628181810E940E0E8C818F5F8C83DF9137
:101C9000CF910895E7EEF2E080818E7F80830E94ED
:101CA0004607E3EBF2E08281816082832FEF80E7D9
:101CB00092E0215080409040E1F700C000000E9477
:101CC0008C0C0895B0E0A0E0E8E6FEE00C940C3542
:101CD0007C015B016A018091750201E010E08A30AD
:101CE00010F40AE010E0C1E0D0E0B501C701F60150
:101CF0000995811104C021960C171D072CF4CDB74E
:101D0000DEB7EAE00C942835CC9F9001CD9F300DD2
:101D1000300D112490E080E045E34A95F1F7000092
:101D2000019682179307C1F7E0CF8091530281118A
:101D300010C08091D80080618093D8008AE18A9594
:101D4000F1F700C08091D90080FF0AC081E0809344
:101D5000530281E090915302913009F080E00895A0
:101D600082E0809353020E9485041092A604F1CF72
:101D70000E94950E882359F0E0917304F091740449
:101D8000309729F00190F081E02D0995089580E0C9
:101D900008950F931F930E94950E882329F00E94A7
:101DA0002D061F910F9108950E942D060091760235
:101DB000109177022091780230917902600F711FA3
:101DC000821F931FEECF0E94950E882319F00E9468
:101DD000390608950E94C90ECB010895CF93DF9371
:101DE000C7E4D2E060E0CE010E94E1352196C11542
:101DF00084E0D807B9F7DF91CF9108951F93CF936F
:101E0000DF93122F8430E0F46830D0F44630C0F411
:101E1000C42FD0E0CC0FDD1F9CE0699FC00DD11D09
:101E2000112490E6899FC00DD11D1124632FCE018E
:101E300087960E94E135612FCE0188960E94E13598
:101E4000DF91CF911F910895CF93C82F6FEF81112C
:101E50006DE683E290E00E94E1356FEFC1116FEB18
:101E600084E290E00E94E1356FEFC11167EA85E2FC
:101E700090E00E94E135CF910895A4E1B0E0E3E461
:101E8000FFE00C940935A0903301B090340181E05B
:101E900090E0909334018093330183EBC82E85E06A
:101EA000D82E00E0760110E015C0F40125913491A0
:101EB000472D612F802F0E94FE0E82E0880E911C1C
:101EC0007394E6E07E12F1CFFCE0EF0EF11C1F5F91
:101ED000183019F04701712CE8CF0F5F80E6C80E6B
:101EE000D11C0430F9F61A8219821C821B821E82D0
:101EF0001D8218861F8288EC90E09A87898707EAFE
:101F000011E04AE050E0B801CE0101960E9405368A
:101F1000065F1F4F073FE1E01E0799F77E01FBE0D8
:101F2000EF0EF11C8AE0F70111928A95E9F74AE079
:101F300050E0B801C7010E940536065F1F4F073405
:101F4000F2E01F07A1F7B0923401A092330164962A
:101F5000EDE00C94253580E00E94240F60E086E2DD
:101F600090E00E94E1350E943D0F0E94EE0E81E05C
:101F70000E94240F08959B01883070F49AE0899F95
:101F8000B001112469557E4F4AE050E0C9010E941A
:101F9000BD3590E080E008958FEF9FEF0895AAE0AF
:101FA000B0E0E5EDFFE00C9414359C0137552F3F70
:101FB000310509F068F4BE016F5F7F4F0E94BB0FCF
:101FC000892B31F489859A852A96E2E00C94303584
:101FD00088EC90E0F9CF0F931F93CF93DF93843079
:101FE00030F5683020F5463010F5C42FD0E0CC0F26
:101FF000DD1F2CE0629FC00DD11D112430E6839FB0
:10200000C00DD11D1124CE0187960E94CD35082F19
:1020100010E0102F0027CE0188960E94CD35980140
:10202000282BC901DF91CF911F910F91089590E066
:1020300080E0F8CF462F2091C0033091C103232BBD
:1020400099F4703F39F4603F79F48091BE03909128
:10205000BF030895843040F4783030F4663020F4C3
:10206000672F0E94EB0F089590E080E00895CF92D3
:10207000DF92FF920F931F93CF93DF936C01009138
:10208000B00480914802082BC7E0D0E010E0FC2E9D
:10209000C8010C2E02C0959587950A94E2F780FD41
:1020A0000CC02197A0F7F12C8F2DDF91CF911F91BC
:1020B0000F91FF90DF90CF900895B6018C2F0E9472
:1020C0001A100E94A309019761F3EECFCF93DF931B
:1020D000EC010E943710BE010E941A100E94A30951
:1020E000DF91CF9108950F931F93CF938C01FC0143
:1020F00043815481618180810E94D006C82F811163
:102100002AC0F80186819781009791F00E94A30967
:1021100092959F709630D1F080F4925F9F709230CC
:1021200080F4803F19F058F4883E58F4C1E009C0AB
:10213000808191810E946610EBCF9A5FEFCF843F40
:10214000A9F38C2FCF911F910F910895883E70F3C2
:10215000813FB9F7EBCFC0E0F4CFA5E0B0E0E3EB0F
:10216000F0E10C9413359C01FC0186819781009766
:10217000E1F485E0DE01119601900D928A95E1F778
:10218000F901228189819A81222399F0662389F0BD
:102190000E943710182F682F89819A810E948F0B17
:1021A00069817A81812F0E941A102596E3E00C94B0
:1021B0002F350E945B0B182FF3CF83E290E00E9433
:1021C000CD358D3689F484E290E00E94CD358F3B89
:1021D00059F485E290E00E94CD3591E0873A09F00C
:1021E00090E0892F8170089580E0FCCFCF9384E048
:1021F00090E00E94CD35C82F82E290E00E94CD355C
:10220000982F8C2FCF910895AAE0B0E0EAE0F1E199
:102210000C940E35EEE6F3E080E5DF011D928A9521
:10222000E9F7E6E2F4E088E3DF011D928A95E9F739
:102230008EE6C82E83E0D82E7F0107EF11E0F7016C
:10224000D182C0824AE050E0B801CE0101960E94DE
:10225000BD3588E0FE013196D60101900D928A9538
:10226000E1F789859A85D70113969C938E931297EF
:10227000BAE0CB0ED11CE7E0EE0EF11C065F1F4F5B
:102280000734F2E01F07D9F62A96E8E00C942A35C5
:102290006091E702669570E041E050E08DE291E0E8
:1022A0000E949335892B19F481E08093B4020E9437
:1022B000E30E9093AE028093AD028091B5028460EC
:1022C0008093B5020895CF92DF92EF92FF926B0157
:1022D0007C010E944D07B701A60188E090E00E94B2
:1022E000F335FF90EF90DF90CF900895A4E0B0E039
:1022F000ECE7F1E10C941035182FF62E042FE22EA6
:102300008091E70280FF39C0E82FE695F0E0E458BD
:10231000FE4F90819093B3028E7F823091F59E01A3
:102320002F5F3F4F812F0E945C074B8169818A811B
:102330000E94F40D8091E802811308C08091E902A7
:102340008F1104C08091EA02801729F08091B502B4
:1023500082608093B5021093E802F092E902009344
:10236000EA02EE2051F06091E7027091E80280915C
:10237000E9029091EA020E9463112496E6E00C942F
:102380002C35923019F40091EA02D4CF8091E80202
:10239000963011F0993071F6182FCCCFE7EEF2E0BD
:1023A000438121E1421B08F440E021E06281818108
:1023B0000E9476110895E7EEF2E0438121E1420F99
:1023C00008F44FEF21E0628181810E947611089527
:1023D000E7EEF2E0628121E1621B08F460E021E0B7
:1023E000438181810E9476110895E7EEF2E06281D7
:1023F00021E1620F08F46FEF21E0438181810E94A7
:1024000076110895E7EEF2E0818121E04381628157
:1024100088500E9476110895E7EEF2E0818121E074
:1024200043816281885F0E94761108958091EB025A
:10243000882319F081508093EB026091E70270913C
:10244000E8028091E9029091EA020E9463110895E6
:102450008091EB02833018F48F5F8093EB026091E0
:10246000E7027091E8028091E9029091EA020E94ED
:10247000631108959091E70290FF31C0917081112E
:102480002FC092609093E7028091B50281608093A3
:10249000B502662351F06091E7027091E8028091E5
:1024A000E9029091EA020E9463116091E702669549
:1024B00070E041E050E08DE291E00E949335892B7D
:1024C000B1F00E94460781E08093B00220E0409185
:1024D000EA026091E9028091E8020E947611089573
:1024E000863110F09A62CECF880F982BCBCF0E9406
:1024F0004811E9CF8091E7028695815009F485E182
:1025000061E00E943A1208958091E70286958F5FFC
:10251000863108F081E061E00E943A1208959091BE
:10252000E70290FF08C09695981728F0961718F4C0
:102530000E948412089561E00E943A120895E7EE25
:10254000F2E083E0808311828FEF828383831482A1
:10255000A3EBB2E012968C911297836012968C9343
:1025600060817181828193810E94631108958091BD
:102570006E0490916D04892B8093A4018091470291
:10258000882329F10E9439062091450230914602A4
:10259000821B930B8838934110F00E94310B80917D
:1025A000A40190914702892B8093A4018091360168
:1025B0008823E1F180917C0487FF38C08EE1E6EA50
:1025C000F1E090E08150A0F591110E94310B40E2C2
:1025D00050E065E272E084EA91E00E94A035892B28
:1025E00021F180E2E4EAF1E0A5E2B2E001900D928F
:1025F0008A95E1F7E0917304F09174043097A9F0A3
:1026000080913601882359F080917C0487FF07C0B0
:102610008091A4018093A50186E08093A4010280AB
:10262000F381E02D84EA91E00995089586E0C7CF13
:102630002191222339F29F5FC5CFCF93DF93EC0125
:10264000EA85FB85309719F06C857D8509958B812E
:102650000E943C0B8C810E94430B0E94B71286E0C3
:10266000FE0111928A95E9F7DF91CF910895CF93FA
:10267000DF93EC018D8181FD18C082608D83809194
:102680006D049B81892B80936D0480916E049C81E5
:10269000892B80936E040E94B712E885F9853097E4
:1026A00021F06C857D85CE01099510927004109201
:1026B0006F048D8180FD03C0CE010E941D13DF9148
:1026C000CF91089590E080E00E94BA0690E080E00B
:1026D0000E94A40610926D040E94B71286E0E7EAF9
:1026E000F2E0DF011D928A95E9F71092A1021092A3
:1026F000A0021092A2020E94F30708958093B004F2
:102700000E94621308958091B004982F96709630BD
:1027100021F488600E947E130895877FFBCF21E01B
:1027200030E001C0220F8A95EAF720958091B0042D
:1027300082230E947E13089590912402809589231C
:1027400080932402282F277091F4282F082E000C44
:10275000330B9217130659F090917D0492FF07C036
:102760008595859585950E948F130E944A0B089543
:10277000CF93C0917D04C2FB992790F9981791F0EF
:1027800080FBC2F9C0937D0460917C0484E090E0FA
:102790000E94E1356C2F82E290E00E94E13582E0F8
:1027A0000E949C13CF91089521E030E001C0220FD8
:1027B0008A95EAF78091B004822B0E947E130895D7
:1027C00090917D0492FF10C098E0899F90011124A0
:1027D000622B609324020E94D4130E9439069093C6
:1027E00023028093220208950E94D41308958093B7
:1027F00048020E946213089510926E04809136017F
:10280000E6EAF1E0882361F080917C0487FF08C04C
:102810008EE1DF011D928A95E9F70E946213089507
:1028200086E0F7CFAAE2B0E0E8E1F4E10C941335DA
:1028300088EA94E02091F100DC012D93CD01B4E011
:10284000803B9B07B9F78091A904833009F472C0DB
:10285000B8F4813009F449C0823009F4B3C08091E2
:10286000E80083FF96C28091A8049091A9049A3051
:1028700008F08FC2E92FF0E0E15EF94C0C9471355D
:102880008A3009F48EC08B3009F471C0893039F771
:102890008091A804813219F78091AC049091AD0425
:1028A000009711F00297D9F68091E800877F809316
:1028B000E8008091E80082FF38C09091F300809199
:1028C000F200029731F48091F100813011F08630EE
:1028D00021F48091F100809383048091E8008B774C
:1028E0008093E8000E94FF04BACF8091A804813A47
:1028F00009F0B5CF8091E800877F8093E800809150
:10290000AC049091AD04892B61F460E284E894E01A
:1029100070E00E94AB058091E8008B778093E8001F
:102920009ECF60E090E080E0F3CF8091A60481111B
:10293000C0CF95CF8091A804813A09F090CF8091C3
:10294000AC049091AD04892B09F089CF8091E80007
:10295000877F8093E8008091E80080FFFCCF809122
:1029600036018093F1008091E8008E77B9CF809195
:10297000A804813209F073CF8091AC049091AD042A
:10298000892B09F06CCF8091E800877F8093E80065
:102990000E94FF048091AA04809336010E94FC13D8
:1029A0005ECF8091A804813209F059CF8091E80070
:1029B000877F8093E8000E94FF048091AB0480939E
:1029C00082044DCF8091A804813A09F048CF8091CC
:1029D000E800877F8093E8008091E80080FFFCCFCB
:1029E00080918204BECF803899F0823809F0D1C13D
:1029F0008091AC048F70873008F0CBC18093E900E0
:102A00008091EB0085FB882780F91092E90006C0D1
:102A10008091A4049091A504911182609091E800A6
:102A2000977F9093E8008093F1001092F1008091DD
:102A3000E8008E77AAC1882309F498C1823009F092
:102A4000A8C18091AA0481119BC18091AC048F70B0
:102A50002FEF280F263008F09CC18093E9002091C9
:102A6000EB0020FF8DC1933031F48091EB00806248
:102A70008093EB0085C19091EB0090619093EB0007
:102A800021E030E001C0220F8A95EAF72093EA00A6
:102A90001092EA008091EB008860EACF811179C141
:102AA0001091AA041F778091E3008078812B809396
:102AB000E3008091E800877F8093E8000E94FF0494
:102AC0008091E80080FFFCCF8091E30080688093D4
:102AD000E30082E0111183E08093A6045AC180587C
:102AE000823008F056C12091AA043091AB042C3DED
:102AF000E3E03E07A1F583E08A838AE289834FB74A
:102B0000F894DE01139620E03EE051E2E32FF0E07E
:102B100050935700E49120FF03C0E295EF703F5FB0
:102B2000EF708E2F90E0EA30C0F0C7968D939D93A2
:102B30002F5F243159F74FBF8091E800877F809342
:102B4000E8006AE270E0CE0101960E94AB05809138
:102B5000E8008B778093E8001CC1C096E7CF809196
:102B6000AC049091AD04432F55274330510509F42F
:102B70004AC078F54130510509F485C08BE590E0F5
:102B8000E3E3F7E04230510509F003C12091E8008A
:102B9000277F2093E8002091AE043091AF04821784
:102BA000930708F49C0140E02115310509F070C03D
:102BB00041116EC08091E80082FDC9CF8091A604CA
:102BC000882329F2853019F28091E80083FFF2CF43
:102BD000BECF4132510509F447C04232510509F0D8
:102BE000D8C08330910508F0D4C0FC01EE0FFF1F60
:102BF000EB56FE4F0190F081E02D8E569E4FDC018A
:102C00008C9190E01DC0332721303105E9F021156A
:102C1000310579F022303105F9F02330310509F022
:102C2000B8C0E0EAF7E0E4918E2F90E0E0EAF7E048
:102C300007C0EAEEF7E0E4918E2F90E0EAEEF7E0CD
:102C4000009709F4A6C0A2CFECECF7E0E4918E2F38
:102C500090E0ECECF7E0F4CFEEEBF7E0E4918E2FB0
:102C600090E0EEEBF7E0ECCF8330910508F091C0F7
:102C7000880F991FFC01E556FE4F0190F081E02D71
:102C800089E090E083CF82E190E0EEE8F7E07ECF4C
:102C90008091A604882309F45ACF853009F457CFD0
:102CA0008091E80083FD53CF8091E80082FD82CFC0
:102CB0008091E80080FF78CF9091F3008091F2003E
:102CC0002115310519F08830910550F041E0089741
:102CD00009F040E08091E8008E778093E80064CFAF
:102CE00044914093F1003196215031090196E8CF8B
:102CF000803809F04EC08091E800877F8093E8001B
:102D00008091A7048093F10092CE811142C010916E
:102D1000AA041230F0F58091E800877F8093E800E4
:102D20001093A7040E94FF04112311F084E005C052
:102D30008091E30087FDFACF81E08093A60442E012
:102D400061EC81E00E941E0542E261EC84E00E9499
:102D50001E0542E261EC82E00E941E0542E260EC48
:102D600083E00E941E058091A60413C08091AA04EE
:102D7000813079F481E0933009F080E08093A504FC
:102D80001092E9008091E800877F8093E8000E941C
:102D9000FF048091E80083FF0AC08091E800877FEC
:102DA0008093E8008091EB0080628093EB00AA960C
:102DB000E3E00C942F350E94FC132FEF84E39CE09A
:102DC000215080409040E1F700C0000088E19AE087
:102DD0000FB6F894A895809360000FBE90936000A2
:102DE000FFCF882321F00E943C0B0E94B712089568
:102DF000882339F090916D04982B90936D040E9474
:102E0000B7120895882321F00E94430B0E94B71245
:102E10000895882339F090916E04982B90936E0456
:102E20000E94B7120895882391F19CEF980F913A70
:102E300040F4682F84EA91E00E9445060E94B71290
:102E4000089590E2980F983050F4877091E001C097
:102E5000990F8A95EAF7892F0E94430BEFCF9BE5E4
:102E6000980F933028F490E080E00E94BA0608950D
:102E700098E5980F973128F490E080E00E94A4062E
:102E80000895803F20F00E941A080E94F3070895D9
:102E9000CF93C82F8823D9F18CEF8C0F813AC8F5D6
:102EA00080913601882311F180917C0487FF1EC038
:102EB000EC2FE695E695E695F0E0EC55FE4F828125
:102EC00090E04C2F477021E030E002C0220F331F0A
:102ED0004A95E2F782239323892B91F06C2F84EAA1
:102EE00091E00E9445060E94B7120AC0E6EAF1E0AE
:102EF0008CEA91E02191C21789F38E179F07D1F7D1
:102F00006C2F84EA91E00E946F060E94B712CF9165
:102F1000089580E28C0F883068F4C77021E030E0BB
:102F200001C0220FCA95EAF780916E04822B80932C
:102F30006E04EBCFEBE5EC0FE33040F4F0E0E15C46
:102F4000FE4F808190E00E94BA06E1CFE8E5EC0FE9
:102F5000E73150F4F0E0EE0FFF1FEE5BFE4F808193
:102F600091810E94A406D3CFC03F88F28C2F0E948B
:102F7000DF080E94F307CBCF1F93CF93DF93182F67
:102F8000D0E0C0E0893311F4C0E5D0E0812F0E9489
:102F90004817209739F4812F0E941317DF91CF91A2
:102FA0001F9108958FE99FE00197F1F700C000009D
:102FB0002197EFCFB0E0A0E0E0EEF7E10C940C3504
:102FC000EC018AE0A82E2881222309F48FC0213049
:102FD000C9F599818A81913021F422960E94BC170B
:102FE00005C0923029F422960E9448172196EBCF13
:102FF000933021F422960E941317F8CF943011F0E9
:103000002196F4CF229630E020E0AE014F5F5F4F73
:103010008053990B8A30910550F02150310930F3DB
:103020008FE99FE00197F1F700C00000F6CFA29E64
:10303000B001A39E700D11249C01260F371F8981BA
:10304000EA01E3CFE22FF0E0E25EF74FB490822F87
:1030500086958695869590E0FC01E25FF74FE490B7
:103060002770F12C022E02C0F594E7940A94E2F73F
:1030700031E0E322FF24FC01E250F84FC490D12C50
:10308000022E02C0D594C7940A94E2F731E0C3221D
:10309000DD24FC01E251F84F049110E002C01595C7
:1030A00007952A95E2F701701127E114F10419F050
:1030B00081EE0E944817C114D10419F086EE0E94D7
:1030C00048178B2D0E94BC17C114D10419F086EE4D
:1030D0000E941317E114F10419F081EE0E941317F6
:1030E0000115110509F482CF8CE278CFCDB7DEB798
:1030F000EAE00C942835B0E0A0E0E1E8F8E10C94B7
:103100000E356B01C42FD22FFC0182818823A9F0D8
:1031100040936C040E94390690936B0480936A0478
:10312000C77081E001C0880FCA95EAF70E940917AD
:10313000CDB7DEB7E8E00C942A3510916C04141377
:1031400037C080916A0490916B040E941E067C0136
:10315000C6010E94CF0FE816F90650F5C0E2CD0F68
:103160001D17C1F080E2810F883048F4177081E0AC
:10317000012E01C0880F0A94EAF70E940217C83096
:1031800048F481E09D2F977001C0880F9A95EAF767
:103190000E940917802F0E94BC17C83048F6D770CC
:1031A00081E001C0880FDA95EAF70E940217C0CFCC
:1031B000C77081E001C0880FCA95EAF7F6CF68EEC4
:1031C0007EEF90E080E00E94FF3560E082E090E0DA
:1031D0000E94E13560E083E090E00E94E1351092CA
:1031E000480260E084E090E00E94E13564E082E221
:1031F00090E00E94E13560E085E090E00E94E135DA
:1032000060E086E090E00E94E1356FEF87E090E0BB
:103210000E94E13540E050E0BA0188E090E00E9471
:10322000F33560E08DE090E00E94E13540E050E051
:10323000BA0188E190E00E94F33560E087E190E018
:103240000E94E13540E050E0BA018CE190E00E943C
:10325000F33570E060E080E290E00E94FF3540E0EE
:1032600050E0BA0188E190E00E94F33580E00E94CE
:10327000240F0E94AB0F40E050E0BA018FE090E0D5
:103280000E94F33540E050E0BA0183E190E00E94F3
:10329000F3350895A4E0B0E0E0E5F9E10C940B35D6
:1032A0007C01DC0113964D915C91149711966C9101
:1032B00011978C910E94D0068111EDC061E0C70189
:1032C0000E94AD108C01F70182818823E1F080918A
:1032D0006F04909170040097B1F00817190799F0E6
:1032E000FEE08F9FC0011124FC01ED5FFC4F2081A7
:1032F0002460208382509D4FDC010D931C930E941B
:10330000371310926D04F7018281882309F41BC6DC
:10331000980122513F452031310508F036C58FEF25
:1033200093E00E94CD358111A6C05EEED52ED00E61
:1033300007E412E0D11036C019821A821B821C8267
:1033400099249A9468012FEFC21AD20AC8010E94E8
:10335000CD3589831A82882309F48DC0813009F024
:103360007FC0580132E0A30EB11CC6010E94CD35CA
:10337000C82E8A83882309F47EC0C5010E94CD35FA
:10338000D82E8FEF8C0D8330D8F4580143E0A40E73
:10339000B11CDB82DD2021F0CE0101960E94DA17FC
:1033A0008501D0CF0115F4E01F0709F464C0C801FE
:1033B0000E94CD35811101C0DA940F5F1F4FBACF43
:1033C0008BEF8C0D833030F5C8010396DB825C01F6
:1033D000DD2031F3580154E0A50EB11C0E94CD351B
:1033E0008C838823E9F28B819C818130AFEF9A072F
:1033F00010F0982F8827B6E0CB1631F0E7E0CE1614
:1034000031F00E94DE26CCCF0E94A526C9CF0E94B3
:103410001F26C6CFF4E0CF12C3CF580124E0A20E7E
:10342000B11CC80103960E94CD35DD2021F188230F
:1034300011F18150990B989E9001999E300D1124A5
:103440004D2D4150550BCA01820F931F019708F46F
:10345000A7CFAFE9BFE01197F1F700C00000F6CFAA
:10346000CE0101960E94DA1756019ACF81E00E94A0
:10347000D4130E94831380912402877061F0D701D6
:1034800012968C91882339F080917D0482FF03C0CD
:1034900082E00E949C132496EBE00C94273581E097
:1034A0000E948F13E6CF82E0E2CF823009F0AEC4F3
:1034B0008091F8029091F902892B09F4A7C42EE0BB
:1034C0002C9DC0012D9D900D1124FC01ED5FFC4F42
:1034D00020812E7F208382509D4F0E94371396C4F7
:1034E0002FEFC216D10409F008F490C4033FFCE5A5
:1034F0001F07C9F110F5083D3CE5130771F1093DBF
:103500004CE5140709F441C0073D5CE5150709F0D7
:10351000CAC406E221EE41EE67ED7CE5C7010E94D8
:103520007B18A9CF902F812FBAC4F601858181FF26
:10353000BAC4C6010E941D13B6C4053F8CE5180726
:10354000F1F0B8F0063FACE51A0709F0ACC407E2A9
:1035500025EE46EE66EF7CE5E1CF07E225EE45EE8F
:1035600068ED7CE5DBCF06E221EE40EE63EF7CE523
:10357000D5CF07E225EE44EE64EF7CE5CFCF06E23F
:1035800021EE42EE65EF7CE5C9CF08E221E045EE91
:1035900069ED7CE5C3CF053A3DE5130709F499C40D
:1035A000E0F401365DE5150709F493C406318CE5B6
:1035B000180709F0E2C480916E048A7A91E009F458
:1035C00090E09093C40169E2811165E384EA91E09F
:1035D0000E946F060E94B7124ECFC8018D5A9D45BA
:1035E000039720F776C480917C04806207305CE505
:1035F000150791F108F4BFC080917C0480642CC051
:103600000D309CE5190709F4C4C090F480917C0446
:103610008E7F0B30BCE51B07F9F080917C048C6039
:103620000C30ECE51E07C0F080917C048D7F14C047
:103630000F30FCE51F0709F4BCC008F4AEC0003130
:103640003CE5130709F4B9C080917C048F7B0131FC
:103650004CE5140709F067C480937C0464C40F3FF1
:103660005CE5150709F4B7C0A8F50A3F9CE5190702
:1036700009F479C0C0F40431BCE51B0709F4B9C0F2
:1036800008F4A5C00531FCE51F0709F04CC4809182
:103690007C0482FB992790F921E0922790FB82F924
:1036A00090FB83F9D9CF0C3F2CE5120709F479C0C0
:1036B00008F45DC00D3F4CE5140709F476C0809115
:1036C0007D0483600E3F5CE5150709F02CC48093F0
:1036D0007D0429C401368DE5180709F495C090F4DE
:1036E0000130ADE51A0709F48DC008F478C060E038
:1036F0000230EDE51E0709F016C48EE090E00E944E
:10370000E13511C40D3AFDE51F07E9F060F4909131
:103710007C04892F8E7F90FF8160053A3DE5130779
:1037200009F49ACF00C40E3A4DE5140771F10F3A2F
:103730005DE5150709F0F7C390917D04892F877F18
:1037400093FF8860C4CF80917D048860C0CF809152
:103750007C04826081CF80917C0484607DCF8091E5
:103760007C04886079CF80917D048160B0CF8091A6
:103770007D048260ACCF80917C0480616DCF0E941B
:10378000FC1380917C04806867CF80917D04877FE3
:103790009ECF80917C048B7F5FCF80917C04877F5C
:1037A0005BCF80917D048E7F92CF80917D048D7F51
:1037B0008ECF80917C048F7E4FCF80917C048F7D53
:1037C0004BCF0E94FC1380917C048F7745CF809172
:1037D0007C04837F41CF80917D048C7F78CF809162
:1037E0007D04982F909591708E7F892B90FB81F9A5
:1037F0006ECF0E94FC1390917C04892F97FB87F970
:1038000080582ACF61E079CF90917C04892F8F7EF8
:1038100094FF806121CF81608093E70261E086950B
:103820000E943A1228CE4AE752E164E872E10E940F
:103830003F0721CE44E852E16AE772E1F8CF4CE05D
:1038400052E162E072E1F3CF48EE51E165EF71E1E0
:10385000EECF45EF51E168EE71E1E9CF4EEC51E179
:103860006BED71E1E4CF46E152E168E272E1DFCF56
:1038700048E252E166E172E1DACF61E081E0D0CF67
:1038800065E082E00E948F12F6CD6EE089E0FACF0B
:103890000E94FC13EFEFF4E32CE0E150F0402040F5
:1038A000E1F700C000000E940D0680917D0482FBBC
:1038B000882780F991E089270E94B813F701868153
:1038C00097810097C1F10E94A3098C01F701C28082
:1038D000B580B2943FE0B322809124028770C1F09A
:1038E000AC2CCC20B1F0812F807F803421F080E29D
:1038F000800F883068F080917D0482FF09C082E0EB
:103900000E949C13809124028770AA24A3948111A1
:10391000A12C912E92942FE09222FBE0F91508F44D
:1039200084C0E92DF0E0E75DF94C0C94713581E03D
:10393000C3CF80E0C1CF828100811181882369F0EB
:10394000C8010E943710D82E682FC8010E948F0B23
:10395000B8018D2D0E941A10B6CFC8010E945B0BD2
:10396000D82EF6CF212F2F70D22E107F19F0D2949F
:1039700090EFD922CC20B9F0DD2069F080E2800FF1
:10398000883010F0011109C080916E04D82AD092BD
:103990006E040E94B712802F46C080916D04D82A11
:1039A000D0926D04F6CF802F0E941317DD20E9F12D
:1039B00080E2800F883010F0011104C08D2D0E942C
:1039C000430B03C08D2D0E943C0B0E94B7122DC0EB
:1039D000312F3F70D32E107F103219F0D29480EF28
:1039E000D822002381F0013009F495C0CC2009F4DD
:1039F0009EC0BB2009F46BC0F701858180FFCBCF4F
:103A00008F70858364C080917D0482FD39C0CC2095
:103A100089F1DD2039F080916E04D82AD0926E04AD
:103A20000E94B71280E00E944817292D2850330BBE
:103A30002430310510F40E94B80EAA20B1F0809114
:103A4000240280FD12C0D70112961C92859585959F
:103A500085950E94D413C7010E944A1980912402BF
:103A60008595859585950E948F1360E0C7010E941A
:103A7000AD1011CD80E00E941317DD20B1F29ECF72
:103A8000CC2049F1B11004C0809147028D2920C09B
:103A900041E0B41210C082FFC8CF80914702D82AFB
:103AA000D81619F20E943906909346028093450277
:103AB000D0924702BACF55E0B512E6CF0E94310B43
:103AC0009091C5018D2D892B89138093C5018D2D72
:103AD0000E940917AACFB11003C00E94310B12C077
:103AE00081E0B81213C080916E048D2109F49DCF3E
:103AF0000E94310B9091C5018D2D809589238913EA
:103B00008093C5018D2D0E9402178FCF95E0B916C5
:103B100009F48BCFE2CFCC2029F0A5E0AB1508F457
:103B200084CFD5CFB4E0BB1508F47FCFEBCFBB205B
:103B300049F3093349F4FFEF27EE33E0F150204019
:103B40003040E1F700C00000802F0E9413176DCFB6
:103B5000812F86958695837061F0813009F065CF5D
:103B6000C8019370C11002C090E080E00E94A406DA
:103B70005CCFC8019370C11002C090E080E00E9449
:103B8000BA0653CF802FCC2029F00E94DF080E9474
:103B9000F3074BCF0E941A08FACF812F837089F563
:103BA000C11043CF402F429546954770440F440FB4
:103BB000802F8F70042E01C0880F0A94EAF7202FFF
:103BC000207104FF07C02FE030E001C0220F4A95AA
:103BD000EAF72095169516951370123069F050F497
:103BE00030914802113029F0822B83230E94F71371
:103BF0001CCF832B822BFACF282B8091480282275F
:103C0000F5CF8695CC2011F0812F8170882309F49F
:103C10000CCF402F429546954770440F440F802F9C
:103C20008F70042E01C0880F0A94EAF7202F2071AC
:103C300004FF07C02FE030E001C0220F4A95EAF7E9
:103C40002095169516951370123069F050F4309146
:103C5000B004113029F0822B83230E947E13E5CE1D
:103C6000832B822BFACF282B8091B0048227F5CFAB
:103C70001F70CC2029F0812F0E94D413802F28CFD1
:103C8000802F0E940217812F0E948F13CECE023FF9
:103C900089F160F4003FB9F0013F81F0CC2009F4D4
:103CA00064C0B11078CE812F8F7128C0033F49F1D5
:103CB000043FA1F780917D0482FD2FC0812F8F7179
:103CC000CC2011F31BC0CC2081F044E04B1508F44C
:103CD000ACCE1F7181E090E0012E01C0880F0A94E4
:103CE000EAF79091B0048927B8CF55E05B1508F446
:103CF0009CCEEFCF812F8F71C110C6CF0E94D413FD
:103D000094CE80E0CC2009F4A8CF1F7181E0012E71
:103D100001C0880F0A94EAF7A0CFCC20C9F08091A7
:103D200024028770843041F40E944A0B812F8F71E6
:103D30000E948F13A12C79CE84E08B15D8F31F71CC
:103D4000812F0E94D41363E0812F0E94E013F2CFF1
:103D500094E09B1530F40E944A0B64E0812F8F7130
:103D6000F4CF81E00E949C13E5CFBB2059F00933CA
:103D700009F0EACEAFEFB7EEE3E0A150B040E0408B
:103D8000E1F7E0CE812F8F717FCF0031BFE51B07B8
:103D900009F46CCB0131EFE51E0709F484CB68010F
:103DA000E7E5DE1A81119CCBFFEFCF16D10411F0AD
:103DB00008F09CCB64EF72E08C2D0E94BB0F892B26
:103DC00029F58EE08C9DF0018D9DF00D1124E250BF
:103DD000FD4F8281813009F068CB8091F40290918F
:103DE000F502892B99F08091F6029091F702892BC8
:103DF00069F08091F8029091F9022091FA023091D5
:103E0000FB02822B932B892B09F459CB5801BB243D
:103E10003EE0039FF0011124AF0142505D4F6A0163
:103E2000D70112968C91ED5FFC4F908180FB90F949
:103E30009083882309F479CB0E94390690939102EC
:103E400080939002D60112968C9112978F5F1296F2
:103E50008C93129780916D0490916E04892B139628
:103E60008C9313978091470214968C93149716960F
:103E7000ED91FC911797309729F01C966D917C91EC
:103E8000C60109958EE08A9DF0018B9DF00D1124ED
:103E9000E250FD4F858181FF45CB90E080E090931B
:103EA0006F0480937004F7018281882309F457C05E
:103EB00010926C040330FDE51F0708F06CCB0A3F3D
:103EC0002CE5120730F4C80182509C45449708F055
:103ED0006DCB0E94F61090937D0480937C04023198
:103EE0008CE5180709F46DCC08F0B9CB0930ACE5C6
:103EF0001A0709F444CC08F083CB0530ECE51E0723
:103F000009F42DCC08F06FCB03302CE5120709F42F
:103F10001ECC08F020CC80917C04816002304CE5FE
:103F2000140709F499CB60917C0410917D0484E01E
:103F300090E00E94E135612F82E290E00E94E1353D
:103F40000E94FC1398CA0031FFE51F0709F4A7CAB5
:103F500001312FE5120709F022CF82E0A1CA063114
:103F6000BCE51B0741F58091C40169E2811165E35D
:103F700084EA91E00E9445062DCB0A35EDE51E0747
:103F800009F4D5CC68F401152CE5120709F480CCAE
:103F90000E3D1C4509F092CC0E94DF180E94DB16F2
:103FA0000C354DE5140709F480CC08F4C2CC073A6F
:103FB0001D45A1F383CC80916E0482720B3C9CE57D
:103FC000190709F450CC08F05AC0063CBCE51B07A1
:103FD00009F435CCF0F5033CFCE51F0709F423CCCC
:103FE00048F5023C3CE5130709F068CC8091E702F4
:103FF00080FF11CC8E7F8093E7026091E702709181
:10400000E8028091E9029091EA020E9463110E9405
:1040100046078091B50281608093B5029FEFA0E7CB
:10402000B2E09150A040B040E1F700C000000E9413
:104030008C0C21CA043C4CE5140709F4FBCB053C6D
:104040005CE5150709F03ACC42E052E16CE072E120
:10405000EECB083C9CE5190709F4FBCB08F4F4CB44
:10406000093CBCE51B0709F4F9CB4BED51E16EECC3
:1040700071E10A3CECE51E0709F4D9CB1FCC003DE9
:10408000FCE51F0709F401CCA0F40D3C3CE5130747
:1040900009F4F3CB08F4ECCB0E3C5CE5150709F40E
:1040A000EFCB0F3C8CE5180709F008CC68E086E000
:1040B000E9CB063D9CE5190740F464E18FE0023D41
:1040C000ACE51A0708F4DECBD6C90D35100709F4A4
:1040D000D2C9F4CBB0E0A0E0E0E7F0E20C940E35FA
:1040E0008091DD01807F31F48091DA01C09121025D
:1040F000811107C0CDB7DEB7E8E00C942A352196D0
:10410000C7708091E0018C17A9F3F090D801E0907E
:10411000D901C090DB01D090DC01A6016E2D8F2D5E
:104120000E94D006D0E08111EACF8E0183E0000F1B
:10413000111F8A95E1F7F801EF51FE4F81818E1131
:10414000DECF80818F11DBCF82818111D8CFE380D8
:10415000F480EC18FD0860E088ED91E00E94AD105D
:104160000E94CF0FE816F90650F68091DD018F709E
:1041700080618093DD01F801EA51FE4F80818F70EC
:104180008061808388ED91E00E944A190E94510B62
:10419000B1CFA5E1B0E0EFECF0E20C9406358C0174
:1041A00085E0F801DE01519601900D928A95E1F7C4
:1041B000F801E28048EDA42E41E0B42E8090DB01AE
:1041C0009090DC01A4016091D9018091D8010E94F6
:1041D000D006682E8111A1C1F801C380D480F0906F
:1041E000DA01C601881999094C01FF2009F447C179
:1041F0004080518060E0C5010E94AD100E94CF0F49
:104200007090DD018816990608F0E1C04091DB014D
:104210005091DC01B090D801A090D901872D807F0A
:104220006A2D09F080C08B2D0E94D006FE2C8111D2
:1042300024C0F80181818A1120C080818B111DC0AA
:104240002091DE013091DF0186819781281739079F
:10425000A1F4E11012C0872D8F7080618093DD0181
:1042600088ED91E00E944A198091DD01F801858373
:104270008F2D6596E0E10C942235A601652D842DE5
:104280000E94D006811122C081E08E25F82FF170A6
:10429000DF2E80FF3EC0809121022091E001821339
:1042A00017C0498A5A8A89899A890E946610292FDB
:1042B00022952F70223008F1243030F59F7009F1DB
:1042C000F8019581907FE9F4F62CD2CF80E0DECF23
:1042D00090E0FC0133E0EE0FFF1F3A95E1F7EF515C
:1042E000FE4F3181531206C03081431203C0328128
:1042F000E3120FC001968770D2CF9F7011F0882310
:1043000019F3805E883000F3C8010E944A196D2CB1
:10431000DBCFEE2009F4ACCF8091DD01816080938A
:10432000DD01F12CA5CF8B2D0E94D00681111FC07D
:10433000F80181818A111BC080818B1118C02091E6
:10434000DE013091DF01868197812817390779F4E2
:10435000E1100DC07582C8010E944A1988E0F80179
:10436000A8EDB1E001900D928A95E1F781CFC801E7
:104370000E947310882339F1EE2029F18091DD012C
:104380008032A0F02091D8013091D9013A87298755
:104390001B86DD86CC868E878091DE019091DF01C1
:1043A000988B8F87CE0109960E944A1988E0F80100
:1043B000A8EDB1E001900D928A95E1F70E946A2084
:1043C000FF24F39455CFC8010E944A19F9CF872DD5
:1043D000807F51F488ED91E00E944A1988E0F50150
:1043E00011928A95E9F79DCF9090D8018090D901DC
:1043F0004091DB015091DC01682D892D0E94D0068F
:1044000081111CC0F8018181881118C08081891137
:1044100015C02091DE013091DF0186819781281738
:10442000390761F4E1100AC07582C8010E944A1977
:1044300088E0F50111928A95E9F71ACFC8010E9428
:104440007310882309F4BFCFEE2009F4BCCF80910C
:10445000DD01803208F4AACF2091D8013091D90132
:104460003A8329831B82DD82CC828E838091DE0198
:104470009091DF0198878F83CE01019695CF60E000
:1044800088ED91E00E94AD100E94CF0F881699062A
:1044900078F6FE2CEE2009F496CFE090D801D0906B
:1044A000D9014091DB015091DC016D2D8E2D0E94D0
:1044B000D006811124C0F80181818D1120C0808136
:1044C0008E111DC02091DE013091DF018681978120
:1044D00028173907A1F49091DD0190FD3FCF907F1F
:1044E00009F43CCF8091DD018583903F09F433CFFF
:1044F000982F907F905F8F70892B85832CCFC80178
:104500000E947310811152CF8091DD0181608093F0
:10451000DD01C8010E944A19ABCEEE2009F453CF49
:10452000C8010E947310F82E882309F44CCF88E04C
:10453000F801A8EDB1E001900D928A95E1F7809124
:10454000D8019091D9010E9466100E946A2090CEF5
:10455000A0E1B0E0EEEAF2E20C94143529873A8744
:104560004B875C876D877E878F87988BCE010996F6
:104570000E94C92081112FC088E0FE013996DE011A
:10458000119601900D928A95E1F74C855D856A85BB
:1045900089850E94D00681111EC0A091E001B0E083
:1045A000CD010196877099272091210228171906BD
:1045B000E1F093E0AA0FBB1F9A95E1F7AF51BE4F10
:1045C00098E0FE01319601900D929A95E1F7809363
:1045D000E0010E94510B809121029091E00189132A
:1045E00012C06096E2E00C9430350E94FC131092E9
:1045F000E0011092210288E0E8EDF1E0DF011D9278
:104600008A95E9F7E8CFB8E08B9FC00111248F515C
:104610009E4F0E94C920882321F38091210290E0BF
:1046200001968770992780932102D5CFEF92FF9250
:104630000F931F93CF93DF938091C503882361F07D
:10464000C091C4038CE0F82E8091C503C81748F0D0
:104650001092C5031092C403CDB7DEB7E6E00C9408
:104660002C35EE24E394EC0EE092C4030C2F10E002
:10467000CF9DE0011124CA53DC4F4B815C816981DD
:1046800088810E94D00681111DC08E819F81892B57
:1046900021F488859985019651F4288139814A81D0
:1046A0005B816C817D818E819F810E94A822F09E1A
:1046B000F001F19EF00D1124EA53FC4F1482138295
:1046C00010926D04CE2DC0CF109269041092680430
:1046D0001092350180916704809366040E94090757
:1046E0000E9416230895B0E0A0E0E9E7F3E20C94FD
:1046F0000535C091660497E0892E01E010E02CE0BA
:10470000322E3EEF932E44244394809167048C1301
:1047100009C00E9416230E940907CDB7DEB7E1E168
:104720000C942135D0E0FE01EE0FFF1FE25AFB4F43
:1047300080819181889ED001899EB00D1124AA5D4F
:10474000BB4F14962C911497211158C05090C5035B
:10475000E6ECF3E030E020E0712C5D01251508F077
:104760004BC0E284F384D501CD90DC906FEF7FEFF6
:10477000612C462D50E0DA01AA0FBB1FAC0DBD1D08
:104780000D90BC91A02D109731F0EA16FB0609F4AC
:10479000BA016394EECF6F3F7607A9F1D80102C04A
:1047A000AA0FBB1F6A95E2F77A2AB801062C02C04D
:1047B000660F771F0A94E2F7AB0141505109741656
:1047C0001506F9F4329EF001339EF00D1124EA53E0
:1047D000FC4F889ED001899EB00D1124AA5DBB4F6D
:1047E00012962D913C911397378326839082918264
:1047F0009187808715964C920E94DB062196C370A4
:1048000084CF148213822F5F3F4F3C96A7CFA9E13C
:10481000B0E0EDE0F4E20C940435498B5A8B6B8BDD
:104820007C8B8D8B611110926D041D861E861F86F8
:10483000188A85E0FE017196DE01199601900D92AD
:104840008A95E1F780917D0482FF1CC00E943906A1
:104850002091220230912302821B930B88389341CE
:1048600020F08091240282FFE6C10E943906209147
:10487000450230914602821B930B8838934110F019
:104880000E94310B4C855D856A8589850E94D00622
:10489000811111C061E0CE0109960E94AD106C013A
:1048A0008B8547EFC4164CE5D40681F4882321F1AB
:1048B00081E08093350129853A854B855C856D853E
:1048C0007E858F8598890E94A822C3C068EFC6168E
:1048D0006CE5D60629F4882379F00E946423EBCF97
:1048E00079EFC7167CE5D70639F4882329F0809143
:1048F00035018111F2CFDCCF06E214E0E12CB12CBE
:10490000A12C88248394912C2EEF522E442443947E
:10491000F8014081518166246A94762C20E0822F30
:1049200090E0FC01EE0FFF1FE40FF51F6081718125
:104930006115710531F0C616D70609F43C012F5FE9
:10494000EECFF12CFFEF6F167F0609F444C0F8019B
:104950004481F09035018F2D411180E0F82FF170E6
:10496000FF2EF801258086819B85992309F4F2C0EA
:10497000FF2009F4EFC0211014C0A401062C01C0CF
:10498000440F0A94EAF7842B86838091C2039091A6
:10499000C303C29730F462E370E07093C303609383
:1049A000C203C40102C0880F991F2A95E2F701973C
:1049B000F80126812817190671F4809168049091F6
:1049C0006904009709F449C00E941E06C39708F4C1
:1049D00044C0F8014482EF28FFEFAF1ABF0A095F15
:1049E0001F4F28E0A216B10409F092CF8B858823CF
:1049F00009F40CC1EE2009F409C10E943906909314
:104A00006904809368048091C503883010F591E0B3
:104A1000980F9093C50398E0FE013996DE01119638
:104A200001900D929A95E1F73CE0839FC00111241B
:104A30008A539C4F28E0FE013196DC0101900D92D3
:104A40002A95E1F72FEF3FEFFC0131872087D386CE
:104A5000C2866996E2E10C942035809166045091FB
:104A60006704982FF0E0E0E0851314C0909366048B
:104A7000E017F10709F4AFCF90E0FC01EE0FFF1F44
:104A8000E25AFB4FB182A0820196837099278093EE
:104A90006704A1CF282E312CF101EE0FFF1FE25A3F
:104AA000FB4F20813181F7E0F29FD001F39FB00DE1
:104AB0001124AA5DBB4F2D913C911197398F288FFE
:104AC00040E020E030E0E32FF0E0EE0FFF1F688DC4
:104AD000798DE60FF71F6080718061147104E1F039
:104AE000F8010190F081E02DFF8BEE8B20E005C0F6
:104AF0006616770609F44F2D2F5FE22FF0E0EE0FD8
:104B0000FF1F6E897F89E60FF71F60817181611534
:104B1000710571F73F5FD7CF4423C9F0F801231720
:104B200008F0FD0144820E171F0721F490936604DC
:104B3000F42E51CF981305C0AE17BF0711F49F5F35
:104B4000937091012F5F3F4F822F83708DCFF0E0E4
:104B5000E0E0F7CF90E0211020C0B40102C0660F62
:104B6000771F2A95E2F79B0121503109821793079D
:104B700031F4442309F448C0C5010E94DB06C40196
:104B8000062C01C0880F0A94EAF7982F9095F80137
:104B9000868189238683F22C1ECF9C01062C02C0BD
:104BA000359527950A94E2F7A90141705527BC0174
:104BB0006150710986239723892B11F5452B01F14B
:104BC000F80182819381892BC1F01B821C821D8296
:104BD0001E8259825A820E9439068160582F9D8315
:104BE0008C83F801828193818F83988729813A8110
:104BF0004B816D817E810E94A822F8011582BFCF72
:104C0000F22FF1702F2EBBCF2F2CB9CF90916604CD
:104C100080916704981731F00E947323EE2009F405
:104C20004ACE17CF0E94162310926904109268048E
:104C30000E940907F3CF82E00E949C1316CEA5E0E4
:104C4000B0E0E5E2F6E20C9412358C019093BF03DC
:104C50008093BE03011580E21807C0F4802F0E94E4
:104C60001317C8010E94C60B9801205E3109283035
:104C7000310518F00115110531F40E94021725962F
:104C8000E4E00C942E350E94F116F9CF80EF898371
:104C90008A831B820E9439068160782F9D838C83D2
:104CA00049815A816B818D810E940724E8CF0F933F
:104CB0001F93CF93DF938C01EB0164EF72E08C2F95
:104CC0000E94BB0F892B71F4DD27C451DD4F888111
:104CD000F801128218828330F1F048F4813059F0E3
:104CE000823081F0DF91CF911F910F910895843030
:104CF000B9F08530B9F78091F4029091F5020097F0
:104D000089F306C08091F6029091F702009799F31B
:104D10000E941F26E7CF8091F8029091F902F6CF0A
:104D20008091FA029091FB02009791F72091F40292
:104D30003091F5028091F6029091F702211531052C
:104D4000F1F2009729F7C901E3CFA5E0B0E0EBEA63
:104D5000F6E20C9412358C019093BF038093BE034E
:104D6000011580E21807C0F4C8010E94C60B980123
:104D7000205E31092830310518F00115110549F47C
:104D80000E940917802F0E9448172596E4E00C9492
:104D90002E350E94F816F6CF80EF89838A8381E052
:104DA0008B830E9439068160782F9D838C83498193
:104DB0005A816B818D810E940724E7CFCF93DF93C7
:104DC000EC010E94A526CE010E941F26DF91CF9103
:104DD00008950F931F93CF93DF938C01862F64EF79
:104DE00072E00E94BB0F892BB1F4C091F402D09104
:104DF000F502209781F0F8018281833051F4CE01D1
:104E00000E94DE26CE010E94DE26CE010E94DE2612
:104E100002C08430D0F7DF91CF911F910F91089598
:104E20000F931F93CF93DF938C01EB0164EF72E03C
:104E30008C2F0E94BB0F892B09F05CC0FE01FF275D
:104E4000D80112968C911297E451FD4F8130B9F43C
:104E500015969C9192FF02C080830AC090FFFCCF00
:104E600082E080838091F6029091F7020097B9F476
:104E70008091F4029091F5020097E1F110C0823028
:104E8000B9F515968C9182FD28C080FD0BC083E09A
:104E900080838091F8029091F902009701F10E94BD
:104EA000A52628C084E080838091FA029091FB02BD
:104EB0000097A9F78091F4029091F5020097F9F01C
:104EC0000E94DE268091F6029091F702009739F752
:104ED0008091F4029091F502E2CF85E08083809189
:104EE000F4029091F502009729F00E94DE26F0CF9F
:104EF00086E08083DF91CF911F910F91089580917B
:104F0000F6029091F702B8CFA4E0B0E0EAE8F7E249
:104F10000C94133540915C0250915D0260915E02E9
:104F200070915F022FB7F894809178049091790482
:104F3000A0917A04B0917B042FBF841B950BA60B24
:104F4000B70B11E084369105A105B10570F10E94FF
:104F5000C90E6E5F7F4F8F4F9F4F69837A838B831C
:104F60009C838091110190911201805A9D4F409134
:104F7000100150E04530510510F044E050E0BE0112
:104F80006F5F7F4F0E94AD3582E090E00E948E34CB
:104F9000182F882351F00E942D0660935C027093B5
:104FA0005D0280935E0290935F02812F2496E3E07E
:104FB0000C942F35A8E0B0E0E0EEF7E20C94143545
:104FC00085E0E7EEF2E0DE01119601900D928A9500
:104FD000E1F78091B3029091B402A091B5028E8363
:104FE0009F83A88728854091710250917202609139
:104FF0007302709174023FB7F89480917804909195
:105000007904A0917A04B0917B043FBF841B950B77
:10501000A60BB70B84369105A105B10510F4222328
:1050200019F18091190190911A01805A9D4F409178
:10503000180150E04930510510F048E050E0BE0141
:105040006F5F7F4F0E94AD3583E090E00E948E3409
:10505000882369F00E942D0660937102709372029A
:1050600080937302909374021092B50281E02896A7
:10507000E2E00C943035EF92FF921F93CF93DF93D1
:1050800000D000D00F92CDB7DEB77B0190E080E07A
:105090000E948E34182F882309F487C040910301A1
:1050A00050E04115510511F041E050E060910401DC
:1050B00070910501605A7D4FCE0105960E94AD3575
:1050C000409158025091590260915A0270915B02CE
:1050D0002FB7F8948091780490917904A0917A0484
:1050E000B0917B042FBF841B950BA60BB70B8436A6
:1050F0009105A105B10540F481E692E00E946E049D
:105100009D81891709F451C081E090E00E948E349E
:1051100081111AC010E08091540290915502A09123
:105120005602B0915702F70180839183A283B38323
:10513000812F0F900F900F900F900F90DF91CF91D4
:105140001F91FF90EF90089540910B0150E0453082
:10515000510510F044E050E060910C0170910D0198
:10516000605A7D4FCE0101960E94AD3581E692E0F6
:105170000E946E049D818913CDCF0E942D066093FD
:1051800058027093590280935A0290935B0289816E
:105190009A81AB81BC818093540290935502A09375
:1051A0005602B093570211E0B6CF80916102909100
:1051B0006202A0916302B091640289839A83AB83F7
:1051C000BC831111E4CFA7CFACE0B0E0EAEEF8E287
:1051D0000C9409358E010F5F1F4F88E0D8011D9296
:1051E0008A95E9F782E7C82E81E0D82EF12CE12CD0
:1051F000AA24A394B12C2CE7822E21E0922EF60152
:1052000081916F018F3F09F442C0F894E82FE29535
:10521000EF70F0E021A18F70A50102C0440F551F6F
:105220008A95E2F7CA01922F982B91A392A18095BB
:10523000892382A3789400C0E6E7F1E0712C31E085
:1052400021912F3F09F46BC0A22FA295AF70B0E05F
:1052500090968C9190E02F7002C0959587952A9535
:10526000E2F780FD5CC0832F782A330F8E169F06ED
:1052700039F7F601319780818F3F11F00E9449097B
:1052800050EA5A95F1F7F801EE0DFF1D70828FEF8D
:10529000E81AF80AA4E0EA16F10409F0B0CF48E0F1
:1052A00050E0B8018AE792E00E94A035009741F0F3
:1052B00028E0F801AAE7B2E001900D922A95E1F703
:1052C00000918302892B69F181E080934B020E9457
:1052D000390690934A028093490280914902909145
:1052E0004A020E941E06059700F110E008561D4F65
:1052F00044E050E06AE772E0C8010E94A035B12C9A
:10530000892B51F084E0EAE7F2E0D80101900D9298
:105310008A95E1F7BB24B39410924B0207C080E05A
:10532000A3CF80914B028111D8CFB12C0E94950E52
:10533000A82EE0918302882309F47DC019861A867D
:105340001B861C860E2F10E008561D4F809175029B
:105350008A30D8F54BE358E2BE01675F7F4FC80142
:105360000E94620E882309F455C044E857E2BE014A
:10537000675F7F4FC8010E94620E882309F44AC00C
:105380004AED57E2BE01675F7F4FC8010E94620E7F
:10539000882309F43FC0109275028091820290E048
:1053A00044E050E0BE01675F7F4F88569D4F0E94EA
:1053B000A03521E020935202892BF1F4A12C8A2DF3
:1053C0008B292C96EDE00C94253580914C02909120
:1053D0004D020E941E06843F914008F0BBCF809191
:1053E0005202882359F3FE01399684E0DF011D92B1
:1053F0008A95E9F710925202E0918202F0E0E856B5
:10540000FD4F89859A85AB85BC8580839183A28376
:10541000B383D5CF809175028F3F31F08F5F80933A
:1054200075028A3008F4B9CF0E94390690934D0274
:1054300080934C02D4CFF0E0E856FD4F84E0A1E623
:10544000B2E001900D928A95E1F781E692E00E9428
:105450006E0480936002C0906502D0906602E09076
:105460006702F090680280914E0290914F02A091E5
:105470005002B0915102C816D906EA06FB06D1F0D7
:10548000C0924E02D0924F02E0925002F09251022E
:105490000E94950E81110EC00E942D06C61AD70AD1
:1054A000E80AF90AC0927602D0927702E092780276
:1054B000F092790280917002882309F480CF80FFF6
:1054C0000DC08091690280FF2AC09091E70291602F
:1054D0009093E70260E086950E943A1280917002F4
:1054E00081FF09C020E040916C0260916B028091C5
:1054F0006A020E9476118091700282FF06C080913C
:105500006F02882379F00E9448118091700283FF16
:1055100003C081E08093B0021092700250CF0E94CD
:105520004A0EDCCF0E944607F0CF90E080E00E9458
:10553000DB35883E9E4F19F40E94DD10089580E00F
:1055400008951F920F920FB60F9211242F933F933D
:105550004F935F936F937F938F939F93AF93BF937B
:10556000CF93DF93EF93FF93D091E900DF708091A9
:10557000EC00C82FC17080FDC0E81092E900809156
:10558000F000877F8093F00078940E9412141092AC
:10559000E9008091F00088608093F000CD2BCF70FF
:1055A000C093E900FF91EF91DF91CF91BF91AF914F
:1055B0009F918F917F916F915F914F913F912F912B
:1055C0000F900FBE0F901F9018951F920F920FB65D
:1055D0000F9211242F933F934F935F936F937F9379
:1055E0008F939F93AF93BF93EF93FF938091E100CD
:1055F00082FF09C08091E20082FF05C08091E10036
:105600008B7F8093E1008091DA0080FF24C080913D
:10561000D80080FF20C08091DA008E7F8093DA006E
:105620008091D90080FF9DC080E189BD82E189BD64
:1056300009B400FEFDCF81E08093A604809181042F
:10564000811109C00E9485040E9450058091E200EA
:1056500084608093E2008091E10080FF17C0809118
:10566000E20080FF13C08091E2008E7F8093E20011
:105670008091E20080618093E2008091D800806296
:105680008093D80019BC85E08093A6048091E10046
:1056900084FF2BC08091E20084FF27C080E189BD98
:1056A00082E189BD89B5982F917080FFFBCF8091F1
:1056B000D8008F7D8093D8008091E1008F7E809309
:1056C000E1008091E2008F7E8093E2008091E20011
:1056D00081608093E2008091A704882309F447C089
:1056E00084E08093A6048091A6048091E10083FF6A
:1056F00027C08091E20083FF23C08091E100877F73
:105700008093E10082E08093A6041092A704809128
:10571000E1008E7F8093E1008091E2008E7F809394
:10572000E2008091E20080618093E20042E060E06C
:1057300080E00E941E058091F00088608093F00058
:10574000FF91EF91BF91AF919F918F917F916F9159
:105750005F914F913F912F910F900FBE0F901F902F
:10576000189519BC1092A6041092810474CF8091F0
:10577000E30087FD93E09093A604B5CF78941F9241
:105780001FB61F9211248F939F93AF93BF93809165
:10579000780490917904A0917A04B0917B040196E9
:1057A000A11DB11D8093780490937904A0937A048D
:1057B000B0937B04BF91AF919F918F911F901FBEBB
:1057C0001F9018951F921FB61F9211248F939F93BD
:1057D000AF93BF9380917704811113C080917804B7
:1057E00090917904A0917A04B0917B044196A11D17
:1057F000B11D8093780490937904A0937A04B093B8
:105800007B04BF91AF919F918F911F901FBE1F90FE
:105810001895CDB7DEB7E5970FB6F894DEBF0FBE8B
:10582000CDBF85B7806885BF85B7806885BF84B7E1
:10583000877F84BF0FB6F894A89580916000886137
:1058400080936000109260000FBE80E890E00FB679
:10585000F89480936100909361000FBE87E499E013
:105860009093A3018093A2010E941A070E94041141
:105870000E9485040E9450058091E200846080931C
:10588000E20078948091A6048823A1F01091E900A9
:105890001F709091EC00892F817090FD80E8182B8B
:1058A0001092E9008091E80083FD0E9412141F709D
:1058B0001093E90082E084BD93E095BD9AEF97BD17
:1058C00080936E0010927602109277021092780206
:1058D000109279020E94DD10811102C00E94AB0F6C
:1058E0000E94950E8093200180912001882309F465
:1058F00070C010922E0186E080932F010E94950EB9
:1059000081110E94A233809120018091200194E0B6
:10591000811190E09093830284E0891B809382023E
:1059200084E90E94490986E60E94490987E90E94A4
:10593000490986EC0E94490906E711E08CE7E82E48
:1059400081E0F82ED8018D918D018F3F11F00E94DA
:105950004909E016F106B1F788E0E8E9F2E0DF0175
:10596000282F1D922A95E9F7EAE7F2E0DF011D9260
:105970008A95E9F70E94952A811102C00E94DF18DA
:1059800082E090E00E94CD35809387020E94F6105D
:1059900090937D0480937C040E94E428EFE3FCE96B
:1059A0003197F1F700C000000E94E4280E94950E94
:1059B000E4E08111E0E0F0E0E856FD4F808181FFF6
:1059C0000CC06FEF7FEF90E080E00E94FF350E94F7
:1059D0000D0686E080932E018FCF83E090E00E9439
:1059E000CD350E94F71380918402811138C00E9446
:1059F000952A811104C00E94DF180E949F1288E03E
:105A000090E00E94D5356093E7027093E80280939E
:105A1000E9029093EA028091B50283608093B50217
:105A20006E7F71F40E949F1288E090E00E94D5354D
:105A30006093E7027093E8028093E9029093EA0290
:105A40000E944D070E9446078091E70280FF04C034
:105A500060E086950E943A1281E0809384020E9461
:105A6000950E811102C00E94A53381E291E09093CE
:105A700074048093730418E1412E512CDD24D394D7
:105A80009E012F5F3F4F79018091A60400E112E152
:105A9000853009F486C00E94E42808E812E0B8E9DD
:105AA000AB2EB2E0BB2E20E932E0D501F801919196
:105AB0008D912E173F0709F47EC09817C1F30E94FD
:105AC000950E282EA8E98A2EA2E09A2E712CD401D8
:105AD0006D904D01F80181918F01861531F1862578
